{
    "contractName": "Trader",
    "abi": [
        {
            "inputs": [
                {
                    "internalType": "address",
                    "name": "vthoAddr",
                    "type": "address"
                },
                {
                    "internalType": "address",
                    "name": "router",
                    "type": "address"
                }
            ],
            "stateMutability": "nonpayable",
            "type": "constructor"
        },
        {
            "anonymous": false,
            "inputs": [
                {
                    "indexed": false,
                    "internalType": "uint256",
                    "name": "gasprice",
                    "type": "uint256"
                }
            ],
            "name": "Gas",
            "type": "event"
        },
        {
            "anonymous": false,
            "inputs": [
                {
                    "indexed": true,
                    "internalType": "address",
                    "name": "account",
                    "type": "address"
                },
                {
                    "indexed": false,
                    "internalType": "uint256",
                    "name": "amountIn",
                    "type": "uint256"
                },
                {
                    "indexed": false,
                    "internalType": "uint256",
                    "name": "fees",
                    "type": "uint256"
                },
                {
                    "indexed": false,
                    "internalType": "uint256",
                    "name": "minRate",
                    "type": "uint256"
                },
                {
                    "indexed": false,
                    "internalType": "uint256",
                    "name": "amountOutMin",
                    "type": "uint256"
                },
                {
                    "indexed": false,
                    "internalType": "uint256",
                    "name": "amountOut",
                    "type": "uint256"
                }
            ],
            "name": "Swap",
            "type": "event"
        },
        {
            "anonymous": false,
            "inputs": [
                {
                    "indexed": true,
                    "internalType": "address",
                    "name": "to",
                    "type": "address"
                },
                {
                    "indexed": false,
                    "internalType": "uint256",
                    "name": "amount",
                    "type": "uint256"
                }
            ],
            "name": "Withdraw",
            "type": "event"
        },
        {
            "inputs": [],
            "name": "VTHO",
            "outputs": [
                {
                    "internalType": "contract IERC20",
                    "name": "",
                    "type": "address"
                }
            ],
            "stateMutability": "view",
            "type": "function"
        },
        {
            "inputs": [],
            "name": "owner",
            "outputs": [
                {
                    "internalType": "address payable",
                    "name": "",
                    "type": "address"
                }
            ],
            "stateMutability": "view",
            "type": "function"
        },
        {
            "inputs": [
                {
                    "internalType": "address payable",
                    "name": "account",
                    "type": "address"
                },
                {
                    "internalType": "uint256",
                    "name": "amountIn",
                    "type": "uint256"
                },
                {
                    "internalType": "uint256",
                    "name": "minRate",
                    "type": "uint256"
                }
            ],
            "name": "swap",
            "outputs": [],
            "stateMutability": "nonpayable",
            "type": "function"
        },
        {
            "inputs": [],
            "name": "swapRouter",
            "outputs": [
                {
                    "internalType": "contract IUniswapV2Router02",
                    "name": "",
                    "type": "address"
                }
            ],
            "stateMutability": "view",
            "type": "function"
        }
    ],
    "bytecode": "608060405234801561001057600080fd5b5060405161094a38038061094a83398101604081905261002f9161008c565b600080546001600160a01b039384166001600160a01b03199182161790915560018054929093169181169190911790915560028054909116331790556100bf565b80516001600160a01b038116811461008757600080fd5b919050565b6000806040838503121561009f57600080fd5b6100a883610070565b91506100b660208401610070565b90509250929050565b61087c806100ce6000396000f3fe608060405234801561001057600080fd5b506004361061004c5760003560e01c806384c9fcad146100515780638da5cb5b146100805780639f1d0f5914610093578063c31c9c07146100a8575b600080fd5b600054610064906001600160a01b031681565b6040516001600160a01b03909116815260200160405180910390f35b600254610064906001600160a01b031681565b6100a66100a13660046105dc565b6100bb565b005b600154610064906001600160a01b031681565b600082116101095760405162461bcd60e51b8152602060048201526016602482015275151c9859195c8e881a5b9d985b1a5908185b5bdd5b9d60521b60448201526064015b60405180910390fd5b6000546040516370a0823160e01b81526001600160a01b038581166004830152849216906370a08231906024016020604051808303816000875af1158015610155573d6000803e3d6000fd5b505050506040513d601f19601f820116820180604052508101906101799190610611565b116101c65760405162461bcd60e51b815260206004820152601b60248201527f5472616465723a20696e73756666696369656e7420616d6f756e7400000000006044820152606401610100565b6000546040516323b872dd60e01b81526001600160a01b03858116600483015230602483015260448201859052909116906323b872dd906064016020604051808303816000875af115801561021f573d6000803e3d6000fd5b505050506040513d601f19601f82011682018060405250810190610243919061062a565b61028f5760405162461bcd60e51b815260206004820152601b60248201527f5472616465723a207472616e7366657246726f6d206661696c656400000000006044820152606401610100565b600061029d3a611388610669565b6103e86102ab856003610669565b6102b59190610686565b6102bf91906106a8565b905060006102cd82856106bb565b905060006102db8483610686565b60005460015460405163095ea7b360e01b81526001600160a01b03918216600482015260248101869052929350169063095ea7b3906044016020604051808303816000875af1158015610332573d6000803e3d6000fd5b505050506040513d601f19601f82011682018060405250810190610356919061062a565b6103a25760405162461bcd60e51b815260206004820152601760248201527f5472616465723a20617070726f7665206661696c65642e0000000000000000006044820152606401610100565b60408051600280825260608201835260009260208301908036833750506000805483519394506001600160a01b0316928492506103e1576103e16106e4565b6001600160a01b03928316602091820292909201810191909152600154604080516315ab88c960e31b81529051919093169263ad5c46489260048083019391928290030181865afa15801561043a573d6000803e3d6000fd5b505050506040513d601f19601f8201168201806040525081019061045e91906106fa565b81600181518110610471576104716106e4565b6001600160a01b0392831660209182029290920101526001546040516318cbafe560e01b815260009291909116906318cbafe5906104bb908790879087908e904290600401610717565b6000604051808303816000875af11580156104da573d6000803e3d6000fd5b505050506040513d6000823e601f3d908101601f191682016040526105029190810190610788565b9050876001600160a01b03167f6d2535bccee43630e01014525de773080b47e1a82c56ef6a30802933a48c9e3488878987866001885161054291906106bb565b81518110610552576105526106e4565b60209081029190910181015160408051968752918601949094528401919091526060830152608082015260a00160405180910390a26040513a81527ff0fadcd9d25528e430e4862a6cc65c4af97cc5bc42e413e0fcd026d40345a6df9060200160405180910390a15050505050505050565b6001600160a01b03811681146105d957600080fd5b50565b6000806000606084860312156105f157600080fd5b83356105fc816105c4565b95602085013595506040909401359392505050565b60006020828403121561062357600080fd5b5051919050565b60006020828403121561063c57600080fd5b8151801515811461064c57600080fd5b9392505050565b634e487b7160e01b600052601160045260246000fd5b808202811582820484141761068057610680610653565b92915050565b6000826106a357634e487b7160e01b600052601260045260246000fd5b500490565b8082018082111561068057610680610653565b8181038181111561068057610680610653565b634e487b7160e01b600052604160045260246000fd5b634e487b7160e01b600052603260045260246000fd5b60006020828403121561070c57600080fd5b815161064c816105c4565b600060a082018783526020878185015260a0604085015281875180845260c086019150828901935060005b818110156107675784516001600160a01b031683529383019391830191600101610742565b50506001600160a01b03969096166060850152505050608001529392505050565b6000602080838503121561079b57600080fd5b825167ffffffffffffffff808211156107b357600080fd5b818501915085601f8301126107c757600080fd5b8151818111156107d9576107d96106ce565b8060051b604051601f19603f830116810181811085821117156107fe576107fe6106ce565b60405291825284820192508381018501918883111561081c57600080fd5b938501935b8285101561083a57845184529385019392850192610821565b9897505050505050505056fea2646970667358221220f4d4fa4406c489e7ee016f3bf605458ac90588646574d47b814f735ce17c180964736f6c63430008130033",
    "sourcePath": "/home/federodes/Workspace/veFarm/contracts/contracts/Trader.sol",
    "compiler": {
        "name": "solc",
        "version": "0.8.19+commit.7dd6d404"
    },
    "functionHashes": {
        "VTHO()": "84c9fcad",
        "owner()": "8da5cb5b",
        "swap(address,uint256,uint256)": "9f1d0f59",
        "swapRouter()": "c31c9c07"
    },
    "gasEstimates": {
        "creation": {
            "codeDepositCost": "434400",
            "executionCost": "infinite",
            "totalCost": "infinite"
        },
        "external": {
            "VTHO()": "2303",
            "owner()": "2325",
            "swap(address,uint256,uint256)": "infinite",
            "swapRouter()": "2369"
        }
    }
}