{
    "contractName": "Trader",
    "abi": [
        {
            "inputs": [
                {
                    "internalType": "address",
                    "name": "vvet_",
                    "type": "address"
                },
                {
                    "internalType": "address[2]",
                    "name": "routers_",
                    "type": "address[2]"
                }
            ],
            "stateMutability": "nonpayable",
            "type": "constructor"
        },
        {
            "anonymous": false,
            "inputs": [
                {
                    "indexed": true,
                    "internalType": "address",
                    "name": "account",
                    "type": "address"
                },
                {
                    "indexed": false,
                    "internalType": "uint256",
                    "name": "reserveBalance",
                    "type": "uint256"
                }
            ],
            "name": "Config",
            "type": "event"
        },
        {
            "anonymous": false,
            "inputs": [
                {
                    "indexed": true,
                    "internalType": "address",
                    "name": "account",
                    "type": "address"
                },
                {
                    "indexed": false,
                    "internalType": "uint256",
                    "name": "withdrawAmount",
                    "type": "uint256"
                },
                {
                    "indexed": false,
                    "internalType": "uint256",
                    "name": "gasPrice",
                    "type": "uint256"
                },
                {
                    "indexed": false,
                    "internalType": "uint256",
                    "name": "feeMultiplier",
                    "type": "uint256"
                },
                {
                    "indexed": false,
                    "internalType": "uint256",
                    "name": "protocolFee",
                    "type": "uint256"
                },
                {
                    "indexed": false,
                    "internalType": "uint256",
                    "name": "amountIn",
                    "type": "uint256"
                },
                {
                    "indexed": false,
                    "internalType": "uint256",
                    "name": "amountOutMin",
                    "type": "uint256"
                },
                {
                    "indexed": false,
                    "internalType": "uint256",
                    "name": "amountOutExpected",
                    "type": "uint256"
                },
                {
                    "indexed": false,
                    "internalType": "uint256",
                    "name": "amountOutReceived",
                    "type": "uint256"
                }
            ],
            "name": "Swap",
            "type": "event"
        },
        {
            "inputs": [],
            "name": "SWAP_GAS",
            "outputs": [
                {
                    "internalType": "uint256",
                    "name": "",
                    "type": "uint256"
                }
            ],
            "stateMutability": "view",
            "type": "function"
        },
        {
            "inputs": [],
            "name": "admin",
            "outputs": [
                {
                    "internalType": "address",
                    "name": "",
                    "type": "address"
                }
            ],
            "stateMutability": "view",
            "type": "function"
        },
        {
            "inputs": [],
            "name": "baseGasPrice",
            "outputs": [
                {
                    "internalType": "uint256",
                    "name": "",
                    "type": "uint256"
                }
            ],
            "stateMutability": "view",
            "type": "function"
        },
        {
            "inputs": [],
            "name": "feeMultiplier",
            "outputs": [
                {
                    "internalType": "uint8",
                    "name": "",
                    "type": "uint8"
                }
            ],
            "stateMutability": "view",
            "type": "function"
        },
        {
            "inputs": [],
            "name": "fetchBaseGasPrice",
            "outputs": [],
            "stateMutability": "nonpayable",
            "type": "function"
        },
        {
            "inputs": [],
            "name": "owner",
            "outputs": [
                {
                    "internalType": "address",
                    "name": "",
                    "type": "address"
                }
            ],
            "stateMutability": "view",
            "type": "function"
        },
        {
            "inputs": [],
            "name": "params",
            "outputs": [
                {
                    "internalType": "contract IParams",
                    "name": "",
                    "type": "address"
                }
            ],
            "stateMutability": "view",
            "type": "function"
        },
        {
            "inputs": [
                {
                    "internalType": "address",
                    "name": "",
                    "type": "address"
                }
            ],
            "name": "reserves",
            "outputs": [
                {
                    "internalType": "uint256",
                    "name": "",
                    "type": "uint256"
                }
            ],
            "stateMutability": "view",
            "type": "function"
        },
        {
            "inputs": [
                {
                    "internalType": "uint256",
                    "name": "",
                    "type": "uint256"
                }
            ],
            "name": "routers",
            "outputs": [
                {
                    "internalType": "address",
                    "name": "",
                    "type": "address"
                }
            ],
            "stateMutability": "view",
            "type": "function"
        },
        {
            "inputs": [
                {
                    "internalType": "uint256",
                    "name": "reserveBalance",
                    "type": "uint256"
                }
            ],
            "name": "saveConfig",
            "outputs": [],
            "stateMutability": "nonpayable",
            "type": "function"
        },
        {
            "inputs": [
                {
                    "internalType": "address",
                    "name": "newAdmin",
                    "type": "address"
                }
            ],
            "name": "setAdmin",
            "outputs": [],
            "stateMutability": "nonpayable",
            "type": "function"
        },
        {
            "inputs": [
                {
                    "internalType": "uint8",
                    "name": "newFeeMultiplier",
                    "type": "uint8"
                }
            ],
            "name": "setFeeMultiplier",
            "outputs": [],
            "stateMutability": "nonpayable",
            "type": "function"
        },
        {
            "inputs": [
                {
                    "internalType": "address payable",
                    "name": "account",
                    "type": "address"
                },
                {
                    "internalType": "uint256",
                    "name": "withdrawAmount",
                    "type": "uint256"
                },
                {
                    "internalType": "uint256",
                    "name": "amountOutMin",
                    "type": "uint256"
                }
            ],
            "name": "swap",
            "outputs": [],
            "stateMutability": "nonpayable",
            "type": "function"
        },
        {
            "inputs": [],
            "name": "vtho",
            "outputs": [
                {
                    "internalType": "contract IEnergy",
                    "name": "",
                    "type": "address"
                }
            ],
            "stateMutability": "view",
            "type": "function"
        },
        {
            "inputs": [],
            "name": "vvet",
            "outputs": [
                {
                    "internalType": "address",
                    "name": "",
                    "type": "address"
                }
            ],
            "stateMutability": "view",
            "type": "function"
        },
        {
            "inputs": [],
            "name": "withdrawFees",
            "outputs": [],
            "stateMutability": "nonpayable",
            "type": "function"
        }
    ],
    "bytecode": "60c06040526003805460ff1916601e1790553480156200001e57600080fd5b506040516200136d3803806200136d833981016040819052620000419162000196565b6001600160a01b0382166080526200005d6001826002620000ef565b503360a0526200006c62000074565b505062000253565b60405163023aa9ab60e61b81526d626173652d6761732d7072696365600482015265506172616d7390638eaa6ac090602401602060405180830381865afa158015620000c4573d6000803e3d6000fd5b505050506040513d601f19601f82011682018060405250810190620000ea919062000239565b600455565b82600281019282156200013a579160200282015b828111156200013a57825182546001600160a01b0319166001600160a01b0390911617825560209092019160019091019062000103565b50620001489291506200014c565b5090565b5b808211156200014857600081556001016200014d565b80516001600160a01b03811681146200017b57600080fd5b919050565b634e487b7160e01b600052604160045260246000fd5b60008060608385031215620001aa57600080fd5b620001b58362000163565b9150602084603f850112620001c957600080fd5b604080519081016001600160401b0381118282101715620001ee57620001ee62000180565b6040528060608601878111156200020457600080fd5b8387015b818110156200022a576200021c8162000163565b835291840191840162000208565b50505080925050509250929050565b6000602082840312156200024c57600080fd5b5051919050565b60805160a0516110d16200029c600039600081816101a6015281816102f10152818161035a015281816104fc015261056601526000818161021a015261084f01526110d16000f3fe608060405234801561001057600080fd5b50600436106101005760003560e01c80638da5cb5b11610097578063d66bd52411610066578063d66bd524146101f5578063e15c58a414610215578063e5a70ef71461023c578063f851a4401461025b57600080fd5b80638da5cb5b146101a15780639f1d0f59146101c8578063cff0ab96146101db578063d4b0dbdd146101e857600080fd5b8063704b6c02116100d3578063704b6c021461015a578063750f198a1461016d57806387b6f0d2146101855780638aee4cfe1461018e57600080fd5b80630570795314610105578063476343ee1461010f5780634b0bbaa4146101175780634e9c11181461012a575b600080fd5b61010d61026e565b005b61010d6102e6565b61010d610125366004610d60565b610438565b61013d610138366004610d60565b6104d1565b6040516001600160a01b0390911681526020015b60405180910390f35b61010d610168366004610d8e565b6104f1565b61017762045c9481565b604051908152602001610151565b61017760045481565b61010d61019c366004610db2565b61055b565b61013d7f000000000000000000000000000000000000000000000000000000000000000081565b61010d6101d6366004610dd5565b61060d565b61013d65506172616d7381565b61013d65456e6572677981565b610177610203366004610d8e565b60056020526000908152604090205481565b61013d7f000000000000000000000000000000000000000000000000000000000000000081565b6003546102499060ff1681565b60405160ff9091168152602001610151565b60005461013d906001600160a01b031681565b60405163023aa9ab60e61b81526d626173652d6761732d7072696365600482015265506172616d7390638eaa6ac090602401602060405180830381865afa1580156102bd573d6000803e3d6000fd5b505050506040513d601f19601f820116820180604052508101906102e19190610e0a565b600455565b336001600160a01b037f000000000000000000000000000000000000000000000000000000000000000016146103375760405162461bcd60e51b815260040161032e90610e23565b60405180910390fd5b6040516370a0823160e01b815230600482015265456e657267799063a9059cbb907f00000000000000000000000000000000000000000000000000000000000000009083906370a0823190602401602060405180830381865afa1580156103a2573d6000803e3d6000fd5b505050506040513d601f19601f820116820180604052508101906103c69190610e0a565b6040516001600160e01b031960e085901b1681526001600160a01b03909216600483015260248201526044016020604051808303816000875af1158015610411573d6000803e3d6000fd5b505050506040513d601f19601f820116820180604052508101906104359190610e5a565b50565b600081116104825760405162461bcd60e51b81526020600482015260176024820152765472616465723a20696e76616c6964207265736572766560481b604482015260640161032e565b3360008181526005602052604090819020839055517f7cf7f245e0ac9ee076d209114cedb03ee23c22f397ad7c400bfc99bbfa885933906104c69084815260200190565b60405180910390a250565b600181600281106104e157600080fd5b01546001600160a01b0316905081565b336001600160a01b037f000000000000000000000000000000000000000000000000000000000000000016146105395760405162461bcd60e51b815260040161032e90610e23565b600080546001600160a01b0319166001600160a01b0392909216919091179055565b336001600160a01b037f000000000000000000000000000000000000000000000000000000000000000016146105a35760405162461bcd60e51b815260040161032e90610e23565b601e8160ff1611156105f75760405162461bcd60e51b815260206004820152601e60248201527f5472616465723a20696e76616c696420666565206d756c7469706c6965720000604482015260640161032e565b6003805460ff191660ff92909216919091179055565b6000546001600160a01b031633146106675760405162461bcd60e51b815260206004820152601c60248201527f5472616465723a206163636f756e74206973206e6f742061646d696e00000000604482015260640161032e565b600454610675906002610e92565b3a11156106c45760405162461bcd60e51b815260206004820152601a60248201527f5472616465723a2067617320707269636520746f6f2068696768000000000000604482015260640161032e565b6106ce8383610b1b565b6040516323b872dd60e01b81526001600160a01b03841660048201523060248201526044810183905265456e65726779906323b872dd906064016020604051808303816000875af1158015610727573d6000803e3d6000fd5b505050506040513d601f19601f8201168201806040525081019061074b9190610e5a565b6107975760405162461bcd60e51b815260206004820152601c60248201527f5472616465723a207472616e736665722066726f6d206661696c656400000000604482015260640161032e565b60006107a63a62045c94610e92565b6003549091506000906127109060ff166107c08487610eaf565b6107ca9190610e92565b6107d49190610ec2565b90506000816107e38487610eaf565b6107ed9190610eaf565b604080516002808252606082018352929350600092909160208301908036833701905050905065456e657267798160008151811061082d5761082d610efa565b60200260200101906001600160a01b031690816001600160a01b0316815250507f00000000000000000000000000000000000000000000000000000000000000008160018151811061088157610881610efa565b60200260200101906001600160a01b031690816001600160a01b0316815250506000806108ae8385610c4d565b915091508681101561090e5760405162461bcd60e51b815260206004820152602360248201527f5472616465723a20616d6f756e74206f757420657870656374656420746f6f206044820152626c6f7760e81b606482015260840161032e565b60405163095ea7b360e01b81526001600160a01b03831660048201526024810185905265456e657267799063095ea7b3906044016020604051808303816000875af1158015610961573d6000803e3d6000fd5b505050506040513d601f19601f820116820180604052508101906109859190610e5a565b6109ca5760405162461bcd60e51b8152602060048201526016602482015275151c9859195c8e88185c1c1c9bdd994819985a5b195960521b604482015260640161032e565b60006001600160a01b0383166318cbafe5866103e86109eb866103de610e92565b6109f59190610ec2565b878e426040518663ffffffff1660e01b8152600401610a18959493929190610f54565b6000604051808303816000875af1158015610a37573d6000803e3d6000fd5b505050506040513d6000823e601f3d908101601f19168201604052610a5f9190810190610f90565b9050896001600160a01b03167f05131d197b3457b61386ff1f463510d3efd61b222292c32047cc7bc779804bbf8a3a600360009054906101000a900460ff168a8a8e898960018b51610ab19190610eaf565b81518110610ac157610ac1610efa565b60209081029190910181015160408051998a529189019790975260ff909516948701949094526060860192909252608085015260a084015260c083015260e08201526101000160405180910390a250505050505050505050565b6001600160a01b03821660009081526005602052604090205480610b7b5760405162461bcd60e51b81526020600482015260176024820152765472616465723a20696e76616c6964207265736572766560481b604482015260640161032e565b6040516370a0823160e01b81526001600160a01b038416600482015260009065456e65726779906370a0823190602401602060405180830381865afa158015610bc8573d6000803e3d6000fd5b505050506040513d601f19601f82011682018060405250810190610bec9190610e0a565b9050610bf8828461104e565b811015610c475760405162461bcd60e51b815260206004820152601c60248201527f5472616465723a20696e73756666696369656e742062616c616e636500000000604482015260640161032e565b50505050565b60008060008060005b6002811015610d3657600060018260028110610c7457610c74610efa565b015460405163d06ca61f60e01b81526001600160a01b039091169150600090829063d06ca61f90610cab908b908d90600401611061565b600060405180830381865afa158015610cc8573d6000803e3d6000fd5b505050506040513d6000823e601f3d908101601f19168201604052610cf09190810190610f90565b9050600081600181518110610d0757610d07610efa565b6020026020010151905084811115610d20578395508094505b5050508080610d2e90611082565b915050610c56565b5060018260028110610d4a57610d4a610efa565b01546001600160a01b0316969095509350505050565b600060208284031215610d7257600080fd5b5035919050565b6001600160a01b038116811461043557600080fd5b600060208284031215610da057600080fd5b8135610dab81610d79565b9392505050565b600060208284031215610dc457600080fd5b813560ff81168114610dab57600080fd5b600080600060608486031215610dea57600080fd5b8335610df581610d79565b95602085013595506040909401359392505050565b600060208284031215610e1c57600080fd5b5051919050565b6020808252601c908201527f5472616465723a206163636f756e74206973206e6f74206f776e657200000000604082015260600190565b600060208284031215610e6c57600080fd5b81518015158114610dab57600080fd5b634e487b7160e01b600052601160045260246000fd5b8082028115828204841417610ea957610ea9610e7c565b92915050565b81810381811115610ea957610ea9610e7c565b600082610edf57634e487b7160e01b600052601260045260246000fd5b500490565b634e487b7160e01b600052604160045260246000fd5b634e487b7160e01b600052603260045260246000fd5b600081518084526020808501945080840160005b83811015610f495781516001600160a01b031687529582019590820190600101610f24565b509495945050505050565b85815284602082015260a060408201526000610f7360a0830186610f10565b6001600160a01b0394909416606083015250608001529392505050565b60006020808385031215610fa357600080fd5b825167ffffffffffffffff80821115610fbb57600080fd5b818501915085601f830112610fcf57600080fd5b815181811115610fe157610fe1610ee4565b8060051b604051601f19603f8301168101818110858211171561100657611006610ee4565b60405291825284820192508381018501918883111561102457600080fd5b938501935b8285101561104257845184529385019392850192611029565b98975050505050505050565b80820180821115610ea957610ea9610e7c565b82815260406020820152600061107a6040830184610f10565b949350505050565b60006001820161109457611094610e7c565b506001019056fea2646970667358221220dc7753188c9cd666e7a0b549d0563b0130c75f865e09f619f3510be2d4b3732d64736f6c63430008130033",
    "sourcePath": "/home/federodes/Workspace/vearn/contracts/contracts/Trader.sol",
    "compiler": {
        "name": "solc",
        "version": "0.8.19+commit.7dd6d404"
    },
    "functionHashes": {
        "SWAP_GAS()": "750f198a",
        "admin()": "f851a440",
        "baseGasPrice()": "87b6f0d2",
        "feeMultiplier()": "e5a70ef7",
        "fetchBaseGasPrice()": "05707953",
        "owner()": "8da5cb5b",
        "params()": "cff0ab96",
        "reserves(address)": "d66bd524",
        "routers(uint256)": "4e9c1118",
        "saveConfig(uint256)": "4b0bbaa4",
        "setAdmin(address)": "704b6c02",
        "setFeeMultiplier(uint8)": "8aee4cfe",
        "swap(address,uint256,uint256)": "9f1d0f59",
        "vtho()": "d4b0dbdd",
        "vvet()": "e15c58a4",
        "withdrawFees()": "476343ee"
    },
    "gasEstimates": {
        "creation": {
            "codeDepositCost": "861000",
            "executionCost": "infinite",
            "totalCost": "infinite"
        },
        "external": {
            "SWAP_GAS()": "240",
            "admin()": "2414",
            "baseGasPrice()": "2362",
            "feeMultiplier()": "2379",
            "fetchBaseGasPrice()": "infinite",
            "owner()": "infinite",
            "params()": "272",
            "reserves(address)": "2535",
            "routers(uint256)": "2536",
            "saveConfig(uint256)": "23944",
            "setAdmin(address)": "infinite",
            "setFeeMultiplier(uint8)": "infinite",
            "swap(address,uint256,uint256)": "infinite",
            "vtho()": "294",
            "vvet()": "infinite",
            "withdrawFees()": "infinite"
        },
        "internal": {
            "_selectRouter(address[] memory,uint256)": "infinite",
            "_validateWithdrawAmount(address,uint256)": "infinite"
        }
    }
}