{
  "contractName": "Trader",
  "abi": [
    {
      "inputs": [
        {
          "internalType": "address",
          "name": "routerAddress",
          "type": "address"
        }
      ],
      "stateMutability": "nonpayable",
      "type": "constructor"
    },
    {
      "inputs": [],
      "name": "ApproveFailed",
      "type": "error"
    },
    {
      "inputs": [
        {
          "internalType": "uint256",
          "name": "available",
          "type": "uint256"
        },
        {
          "internalType": "uint256",
          "name": "required",
          "type": "uint256"
        }
      ],
      "name": "InsufficientBalance",
      "type": "error"
    },
    {
      "inputs": [
        {
          "internalType": "uint256",
          "name": "triggerBalance",
          "type": "uint256"
        },
        {
          "internalType": "uint256",
          "name": "reserveBalance",
          "type": "uint256"
        }
      ],
      "name": "InvalidConfig",
      "type": "error"
    },
    {
      "inputs": [],
      "name": "InvalidFeeMultiplier",
      "type": "error"
    },
    {
      "inputs": [],
      "name": "InvalidReserve",
      "type": "error"
    },
    {
      "inputs": [],
      "name": "InvalidTrigger",
      "type": "error"
    },
    {
      "inputs": [
        {
          "internalType": "address",
          "name": "account",
          "type": "address"
        }
      ],
      "name": "NotAdmin",
      "type": "error"
    },
    {
      "inputs": [
        {
          "internalType": "address",
          "name": "account",
          "type": "address"
        }
      ],
      "name": "NotOwner",
      "type": "error"
    },
    {
      "inputs": [
        {
          "internalType": "address",
          "name": "from",
          "type": "address"
        },
        {
          "internalType": "uint256",
          "name": "amount",
          "type": "uint256"
        }
      ],
      "name": "TransferFromFailed",
      "type": "error"
    },
    {
      "inputs": [],
      "name": "ZeroAddress",
      "type": "error"
    },
    {
      "anonymous": false,
      "inputs": [
        {
          "indexed": true,
          "internalType": "address",
          "name": "account",
          "type": "address"
        },
        {
          "indexed": false,
          "internalType": "uint256",
          "name": "triggerBalance",
          "type": "uint256"
        },
        {
          "indexed": false,
          "internalType": "uint256",
          "name": "reserveBalance",
          "type": "uint256"
        }
      ],
      "name": "Config",
      "type": "event"
    },
    {
      "anonymous": false,
      "inputs": [
        {
          "indexed": true,
          "internalType": "address",
          "name": "account",
          "type": "address"
        },
        {
          "indexed": false,
          "internalType": "uint256",
          "name": "withdrawAmount",
          "type": "uint256"
        },
        {
          "indexed": false,
          "internalType": "uint256",
          "name": "gasPrice",
          "type": "uint256"
        },
        {
          "indexed": false,
          "internalType": "uint256",
          "name": "protocolFee",
          "type": "uint256"
        },
        {
          "indexed": false,
          "internalType": "uint256",
          "name": "maxRate",
          "type": "uint256"
        },
        {
          "indexed": false,
          "internalType": "uint256",
          "name": "amountOutMin",
          "type": "uint256"
        },
        {
          "indexed": false,
          "internalType": "uint256",
          "name": "amountOut",
          "type": "uint256"
        }
      ],
      "name": "Swap",
      "type": "event"
    },
    {
      "inputs": [],
      "name": "MAX_WITHDRAW_AMOUNT",
      "outputs": [
        {
          "internalType": "uint256",
          "name": "",
          "type": "uint256"
        }
      ],
      "stateMutability": "view",
      "type": "function"
    },
    {
      "inputs": [],
      "name": "SWAP_GAS",
      "outputs": [
        {
          "internalType": "uint256",
          "name": "",
          "type": "uint256"
        }
      ],
      "stateMutability": "view",
      "type": "function"
    },
    {
      "inputs": [
        {
          "internalType": "address",
          "name": "",
          "type": "address"
        }
      ],
      "name": "addressToConfig",
      "outputs": [
        {
          "internalType": "uint256",
          "name": "triggerBalance",
          "type": "uint256"
        },
        {
          "internalType": "uint256",
          "name": "reserveBalance",
          "type": "uint256"
        }
      ],
      "stateMutability": "view",
      "type": "function"
    },
    {
      "inputs": [],
      "name": "admin",
      "outputs": [
        {
          "internalType": "address",
          "name": "",
          "type": "address"
        }
      ],
      "stateMutability": "view",
      "type": "function"
    },
    {
      "inputs": [],
      "name": "feeMultiplier",
      "outputs": [
        {
          "internalType": "uint8",
          "name": "",
          "type": "uint8"
        }
      ],
      "stateMutability": "view",
      "type": "function"
    },
    {
      "inputs": [],
      "name": "owner",
      "outputs": [
        {
          "internalType": "address",
          "name": "",
          "type": "address"
        }
      ],
      "stateMutability": "view",
      "type": "function"
    },
    {
      "inputs": [],
      "name": "router",
      "outputs": [
        {
          "internalType": "contract IUniswapV2Router02",
          "name": "",
          "type": "address"
        }
      ],
      "stateMutability": "view",
      "type": "function"
    },
    {
      "inputs": [
        {
          "internalType": "uint256",
          "name": "triggerBalance",
          "type": "uint256"
        },
        {
          "internalType": "uint256",
          "name": "reserveBalance",
          "type": "uint256"
        }
      ],
      "name": "saveConfig",
      "outputs": [],
      "stateMutability": "nonpayable",
      "type": "function"
    },
    {
      "inputs": [
        {
          "internalType": "address",
          "name": "newAdmin",
          "type": "address"
        }
      ],
      "name": "setAdmin",
      "outputs": [],
      "stateMutability": "nonpayable",
      "type": "function"
    },
    {
      "inputs": [
        {
          "internalType": "uint8",
          "name": "newFeeMultiplier",
          "type": "uint8"
        }
      ],
      "name": "setFeeMultiplier",
      "outputs": [],
      "stateMutability": "nonpayable",
      "type": "function"
    },
    {
      "inputs": [
        {
          "internalType": "address payable",
          "name": "account",
          "type": "address"
        },
        {
          "internalType": "uint256",
          "name": "maxRate",
          "type": "uint256"
        }
      ],
      "name": "swap",
      "outputs": [],
      "stateMutability": "nonpayable",
      "type": "function"
    },
    {
      "inputs": [],
      "name": "vtho",
      "outputs": [
        {
          "internalType": "contract IEnergy",
          "name": "",
          "type": "address"
        }
      ],
      "stateMutability": "view",
      "type": "function"
    },
    {
      "inputs": [],
      "name": "withdraw",
      "outputs": [],
      "stateMutability": "nonpayable",
      "type": "function"
    }
  ],
  "bytecode": "60a06040526001805460ff60a01b1916600f60a11b17905534801561002357600080fd5b50604051610eb9380380610eb983398101604081905261004291610092565b6001600160a01b0381166100695760405163d92e233d60e01b815260040160405180910390fd5b33608052600080546001600160a01b0319166001600160a01b03929092169190911790556100c2565b6000602082840312156100a457600080fd5b81516001600160a01b03811681146100bb57600080fd5b9392505050565b608051610dc06100f960003960008181610172015281816102360152818161029e0152818161038701526103f40152610dc06000f3fe608060405234801561001057600080fd5b50600436106100cf5760003560e01c80638da5cb5b1161008c578063d4b0dbdd11610066578063d4b0dbdd146101d2578063e5a70ef7146101df578063f851a44014610205578063f887ea401461021857600080fd5b80638da5cb5b1461016d5780639c70803b146101ac578063d004f0f7146101bf57600080fd5b80633ccfd60b146100d457806344ba0ea2146100de57806351fddfa914610101578063704b6c021461013d578063750f198a146101505780638aee4cfe1461015a575b600080fd5b6100dc61022b565b005b6100ee683635c9adc5dea0000081565b6040519081526020015b60405180910390f35b61012861010f366004610ac7565b6002602052600090815260409020805460019091015482565b604080519283526020830191909152016100f8565b6100dc61014b366004610ac7565b61037c565b6100ee6204198581565b6100dc610168366004610aeb565b6103e9565b6101947f000000000000000000000000000000000000000000000000000000000000000081565b6040516001600160a01b0390911681526020016100f8565b6100dc6101ba366004610b0e565b610479565b6100dc6101cd366004610b30565b610551565b61019465456e6572677981565b6001546101f390600160a01b900460ff1681565b60405160ff90911681526020016100f8565b600154610194906001600160a01b031681565b600054610194906001600160a01b031681565b336001600160a01b037f0000000000000000000000000000000000000000000000000000000000000000161461027b5760405163245aecd360e01b81523360048201526024015b60405180910390fd5b6040516370a0823160e01b815230600482015265456e657267799063a9059cbb907f00000000000000000000000000000000000000000000000000000000000000009083906370a0823190602401602060405180830381865afa1580156102e6573d6000803e3d6000fd5b505050506040513d601f19601f8201168201806040525081019061030a9190610b5c565b6040516001600160e01b031960e085901b1681526001600160a01b03909216600483015260248201526044016020604051808303816000875af1158015610355573d6000803e3d6000fd5b505050506040513d601f19601f820116820180604052508101906103799190610b75565b50565b336001600160a01b037f000000000000000000000000000000000000000000000000000000000000000016146103c75760405163245aecd360e01b8152336004820152602401610272565b600180546001600160a01b0319166001600160a01b0392909216919091179055565b336001600160a01b037f000000000000000000000000000000000000000000000000000000000000000016146104345760405163245aecd360e01b8152336004820152602401610272565b601e8160ff1611156104595760405163c34a382b60e01b815260040160405180910390fd5b6001805460ff909216600160a01b0260ff60a01b19909216919091179055565b8160000361049a5760405163a768d7fd60e01b815260040160405180910390fd5b806000036104bb5760405163e46aea0960e01b815260040160405180910390fd5b8082116104e557604051636a06bb6560e11b81526004810183905260248101829052604401610272565b604080518082018252838152602080820184815233600081815260028452859020935184559051600190930192909255825185815290810184905290917fb9bfe6dda7ddbc49d12288ef1e5d501c902797a01fc2bba856601b70e874cbb8910160405180910390a25050565b6001546001600160a01b0316331461057e57604051630bd4212160e11b8152336004820152602401610272565b6001600160a01b0382166000818152600260209081526040808320815180830183528154815260019091015492810192909252516370a0823160e01b815260048101939093529165456e65726779906370a0823190602401602060405180830381865afa1580156105f3573d6000803e3d6000fd5b505050506040513d601f19601f820116820180604052508101906106179190610b5c565b825190915060000361063c5760405163a768d7fd60e01b815260040160405180910390fd5b81602001516000036106615760405163e46aea0960e01b815260040160405180910390fd5b815181101561069057815160405163cf47918160e01b8152610272918391600401918252602082015260400190565b60008260200151683635c9adc5dea000006106ab9190610bad565b8210156106c65760208301516106c19083610bc6565b6106d1565b683635c9adc5dea000005b6040516323b872dd60e01b81526001600160a01b03871660048201523060248201526044810182905290915065456e65726779906323b872dd906064016020604051808303816000875af115801561072d573d6000803e3d6000fd5b505050506040513d601f19601f820116820180604052508101906107519190610b75565b6107805760405163841894cb60e01b81526001600160a01b038616600482015260248101829052604401610272565b600061078f620419853a610bd9565b60015490915060009061271090600160a01b900460ff166107b08486610bc6565b6107ba9190610bd9565b6107c49190610bf0565b90506000816107d38486610bc6565b6107dd9190610bc6565b905060006107eb8883610bf0565b60005460405163095ea7b360e01b81526001600160a01b0390911660048201526024810184905290915065456e657267799063095ea7b3906044016020604051808303816000875af1158015610845573d6000803e3d6000fd5b505050506040513d601f19601f820116820180604052508101906108699190610b75565b61088657604051633e3f8f7360e01b815260040160405180910390fd5b60408051600280825260608201835260009260208301908036833701905050905065456e65726779816000815181106108c1576108c1610c28565b60200260200101906001600160a01b031690816001600160a01b03168152505060008054906101000a90046001600160a01b03166001600160a01b031663ad5c46486040518163ffffffff1660e01b8152600401602060405180830381865afa158015610932573d6000803e3d6000fd5b505050506040513d601f19601f820116820180604052508101906109569190610c3e565b8160018151811061096957610969610c28565b60200260200101906001600160a01b031690816001600160a01b03168152505060008060009054906101000a90046001600160a01b03166001600160a01b03166318cbafe58585858f426040518663ffffffff1660e01b81526004016109d3959493929190610c5b565b6000604051808303816000875af11580156109f2573d6000803e3d6000fd5b505050506040513d6000823e601f3d908101601f19168201604052610a1a9190810190610ccc565b90508a6001600160a01b03167f1c66e529e5eda665469886610afddba48a9cc0e5d92fb155ae84dab6c81d155d883a888e888760018951610a5b9190610bc6565b81518110610a6b57610a6b610c28565b60209081029190910181015160408051978852918701959095528501929092526060840152608083015260a082015260c00160405180910390a25050505050505050505050565b6001600160a01b038116811461037957600080fd5b600060208284031215610ad957600080fd5b8135610ae481610ab2565b9392505050565b600060208284031215610afd57600080fd5b813560ff81168114610ae457600080fd5b60008060408385031215610b2157600080fd5b50508035926020909101359150565b60008060408385031215610b4357600080fd5b8235610b4e81610ab2565b946020939093013593505050565b600060208284031215610b6e57600080fd5b5051919050565b600060208284031215610b8757600080fd5b81518015158114610ae457600080fd5b634e487b7160e01b600052601160045260246000fd5b80820180821115610bc057610bc0610b97565b92915050565b81810381811115610bc057610bc0610b97565b8082028115828204841417610bc057610bc0610b97565b600082610c0d57634e487b7160e01b600052601260045260246000fd5b500490565b634e487b7160e01b600052604160045260246000fd5b634e487b7160e01b600052603260045260246000fd5b600060208284031215610c5057600080fd5b8151610ae481610ab2565b600060a082018783526020878185015260a0604085015281875180845260c086019150828901935060005b81811015610cab5784516001600160a01b031683529383019391830191600101610c86565b50506001600160a01b03969096166060850152505050608001529392505050565b60006020808385031215610cdf57600080fd5b825167ffffffffffffffff80821115610cf757600080fd5b818501915085601f830112610d0b57600080fd5b815181811115610d1d57610d1d610c12565b8060051b604051601f19603f83011681018181108582111715610d4257610d42610c12565b604052918252848201925083810185019188831115610d6057600080fd5b938501935b82851015610d7e57845184529385019392850192610d65565b9897505050505050505056fea2646970667358221220be65e181734dbce47a387700d09f0cdacd3f405219a6ba18ea6c0c4423a6e3c964736f6c63430008130033",
  "sourcePath": "/home/federodes/Workspace/veFarm/contracts/contracts/Trader.sol",
  "compiler": {
    "name": "solc",
    "version": "0.8.19+commit.7dd6d404"
  },
  "functionHashes": {
    "MAX_WITHDRAW_AMOUNT()": "44ba0ea2",
    "SWAP_GAS()": "750f198a",
    "addressToConfig(address)": "51fddfa9",
    "admin()": "f851a440",
    "feeMultiplier()": "e5a70ef7",
    "owner()": "8da5cb5b",
    "router()": "f887ea40",
    "saveConfig(uint256,uint256)": "9c70803b",
    "setAdmin(address)": "704b6c02",
    "setFeeMultiplier(uint8)": "8aee4cfe",
    "swap(address,uint256)": "d004f0f7",
    "vtho()": "d4b0dbdd",
    "withdraw()": "3ccfd60b"
  },
  "gasEstimates": {
    "creation": {
      "codeDepositCost": "704000",
      "executionCost": "infinite",
      "totalCost": "infinite"
    },
    "external": {
      "MAX_WITHDRAW_AMOUNT()": "207",
      "SWAP_GAS()": "273",
      "addressToConfig(address)": "4697",
      "admin()": "2403",
      "feeMultiplier()": "2374",
      "owner()": "infinite",
      "router()": "2425",
      "saveConfig(uint256,uint256)": "46441",
      "setAdmin(address)": "infinite",
      "setFeeMultiplier(uint8)": "infinite",
      "swap(address,uint256)": "infinite",
      "vtho()": "238",
      "withdraw()": "infinite"
    },
    "internal": {
      "_calcProtocolFee(uint256)": "infinite"
    }
  }
}