{
    "contractName": "Trader",
    "abi": [
        {
            "inputs": [
                {
                    "internalType": "address[2]",
                    "name": "routers_",
                    "type": "address[2]"
                }
            ],
            "stateMutability": "nonpayable",
            "type": "constructor"
        },
        {
            "anonymous": false,
            "inputs": [
                {
                    "indexed": true,
                    "internalType": "address",
                    "name": "account",
                    "type": "address"
                },
                {
                    "indexed": false,
                    "internalType": "uint256",
                    "name": "reserveBalance",
                    "type": "uint256"
                }
            ],
            "name": "Config",
            "type": "event"
        },
        {
            "anonymous": false,
            "inputs": [
                {
                    "indexed": true,
                    "internalType": "address",
                    "name": "account",
                    "type": "address"
                },
                {
                    "indexed": false,
                    "internalType": "uint256",
                    "name": "withdrawAmount",
                    "type": "uint256"
                },
                {
                    "indexed": false,
                    "internalType": "uint256",
                    "name": "gasPrice",
                    "type": "uint256"
                },
                {
                    "indexed": false,
                    "internalType": "uint256",
                    "name": "protocolFee",
                    "type": "uint256"
                },
                {
                    "indexed": false,
                    "internalType": "uint256",
                    "name": "maxRate",
                    "type": "uint256"
                },
                {
                    "indexed": false,
                    "internalType": "uint256",
                    "name": "amountOutMin",
                    "type": "uint256"
                },
                {
                    "indexed": false,
                    "internalType": "uint256",
                    "name": "amountOut",
                    "type": "uint256"
                }
            ],
            "name": "Swap",
            "type": "event"
        },
        {
            "inputs": [],
            "name": "MAX_WITHDRAW_AMOUNT",
            "outputs": [
                {
                    "internalType": "uint256",
                    "name": "",
                    "type": "uint256"
                }
            ],
            "stateMutability": "view",
            "type": "function"
        },
        {
            "inputs": [],
            "name": "SWAP_GAS",
            "outputs": [
                {
                    "internalType": "uint256",
                    "name": "",
                    "type": "uint256"
                }
            ],
            "stateMutability": "view",
            "type": "function"
        },
        {
            "inputs": [],
            "name": "admin",
            "outputs": [
                {
                    "internalType": "address",
                    "name": "",
                    "type": "address"
                }
            ],
            "stateMutability": "view",
            "type": "function"
        },
        {
            "inputs": [],
            "name": "baseGasPrice",
            "outputs": [
                {
                    "internalType": "uint256",
                    "name": "",
                    "type": "uint256"
                }
            ],
            "stateMutability": "view",
            "type": "function"
        },
        {
            "inputs": [],
            "name": "feeMultiplier",
            "outputs": [
                {
                    "internalType": "uint8",
                    "name": "",
                    "type": "uint8"
                }
            ],
            "stateMutability": "view",
            "type": "function"
        },
        {
            "inputs": [],
            "name": "fetchBaseGasPrice",
            "outputs": [],
            "stateMutability": "nonpayable",
            "type": "function"
        },
        {
            "inputs": [],
            "name": "owner",
            "outputs": [
                {
                    "internalType": "address",
                    "name": "",
                    "type": "address"
                }
            ],
            "stateMutability": "view",
            "type": "function"
        },
        {
            "inputs": [],
            "name": "params",
            "outputs": [
                {
                    "internalType": "contract IParams",
                    "name": "",
                    "type": "address"
                }
            ],
            "stateMutability": "view",
            "type": "function"
        },
        {
            "inputs": [
                {
                    "internalType": "address",
                    "name": "",
                    "type": "address"
                }
            ],
            "name": "reserves",
            "outputs": [
                {
                    "internalType": "uint256",
                    "name": "",
                    "type": "uint256"
                }
            ],
            "stateMutability": "view",
            "type": "function"
        },
        {
            "inputs": [
                {
                    "internalType": "uint256",
                    "name": "",
                    "type": "uint256"
                }
            ],
            "name": "routers",
            "outputs": [
                {
                    "internalType": "address",
                    "name": "",
                    "type": "address"
                }
            ],
            "stateMutability": "view",
            "type": "function"
        },
        {
            "inputs": [
                {
                    "internalType": "uint256",
                    "name": "reserveBalance",
                    "type": "uint256"
                }
            ],
            "name": "saveConfig",
            "outputs": [],
            "stateMutability": "nonpayable",
            "type": "function"
        },
        {
            "inputs": [
                {
                    "internalType": "address",
                    "name": "newAdmin",
                    "type": "address"
                }
            ],
            "name": "setAdmin",
            "outputs": [],
            "stateMutability": "nonpayable",
            "type": "function"
        },
        {
            "inputs": [
                {
                    "internalType": "uint8",
                    "name": "newFeeMultiplier",
                    "type": "uint8"
                }
            ],
            "name": "setFeeMultiplier",
            "outputs": [],
            "stateMutability": "nonpayable",
            "type": "function"
        },
        {
            "inputs": [
                {
                    "internalType": "address payable",
                    "name": "account",
                    "type": "address"
                },
                {
                    "internalType": "uint8",
                    "name": "routerIndex",
                    "type": "uint8"
                },
                {
                    "internalType": "uint256",
                    "name": "withdrawAmount",
                    "type": "uint256"
                },
                {
                    "internalType": "uint256",
                    "name": "maxRate",
                    "type": "uint256"
                }
            ],
            "name": "swap",
            "outputs": [],
            "stateMutability": "nonpayable",
            "type": "function"
        },
        {
            "inputs": [],
            "name": "vtho",
            "outputs": [
                {
                    "internalType": "contract IEnergy",
                    "name": "",
                    "type": "address"
                }
            ],
            "stateMutability": "view",
            "type": "function"
        },
        {
            "inputs": [],
            "name": "withdrawFees",
            "outputs": [],
            "stateMutability": "nonpayable",
            "type": "function"
        }
    ],
    "bytecode": "60a06040526002805460ff60a01b1916600f60a11b1790553480156200002457600080fd5b50604051620011e5380380620011e5833981016040819052620000479162000178565b336080526200005a6000826002620000e7565b50620000656200006c565b506200022e565b60405163023aa9ab60e61b81526d626173652d6761732d7072696365600482015265506172616d7390638eaa6ac090602401602060405180830381865afa158015620000bc573d6000803e3d6000fd5b505050506040513d601f19601f82011682018060405250810190620000e2919062000214565b600355565b826002810192821562000132579160200282015b828111156200013257825182546001600160a01b0319166001600160a01b03909116178255602090920191600190910190620000fb565b506200014092915062000144565b5090565b5b8082111562000140576000815560010162000145565b80516001600160a01b03811681146200017357600080fd5b919050565b6000604082840312156200018b57600080fd5b82601f8301126200019b57600080fd5b604080519081016001600160401b0381118282101715620001cc57634e487b7160e01b600052604160045260246000fd5b8060405250806040840185811115620001e457600080fd5b845b818110156200020957620001fa816200015b565b835260209283019201620001e6565b509195945050505050565b6000602082840312156200022757600080fd5b5051919050565b608051610f7f62000266600039600081816101b7015281816102e20152818161034b015281816104ed01526105570152610f7f6000f3fe608060405234801561001057600080fd5b50600436106101005760003560e01c80638aee4cfe11610097578063d66bd52411610066578063d66bd524146101f3578063e5a70ef714610213578063f7c59cf114610239578063f851a4401461024c57600080fd5b80638aee4cfe1461019f5780638da5cb5b146101b2578063cff0ab96146101d9578063d4b0dbdd146101e657600080fd5b80634e9c1118116100d35780634e9c11181461014e578063704b6c0214610179578063750f198a1461018c57806387b6f0d21461019657600080fd5b8063057079531461010557806344ba0ea21461010f578063476343ee146101335780634b0bbaa41461013b575b600080fd5b61010d61025f565b005b61012069021e19e0c9bab240000081565b6040519081526020015b60405180910390f35b61010d6102d7565b61010d610149366004610c1d565b610429565b61016161015c366004610c1d565b6104c2565b6040516001600160a01b03909116815260200161012a565b61010d610187366004610c4b565b6104e2565b6101206204105181565b61012060035481565b61010d6101ad366004610c85565b61054c565b6101617f000000000000000000000000000000000000000000000000000000000000000081565b61016165506172616d7381565b61016165456e6572677981565b610120610201366004610c4b565b60046020526000908152604090205481565b60025461022790600160a01b900460ff1681565b60405160ff909116815260200161012a565b61010d610247366004610ca0565b610608565b600254610161906001600160a01b031681565b60405163023aa9ab60e61b81526d626173652d6761732d7072696365600482015265506172616d7390638eaa6ac090602401602060405180830381865afa1580156102ae573d6000803e3d6000fd5b505050506040513d601f19601f820116820180604052508101906102d29190610ce4565b600355565b336001600160a01b037f000000000000000000000000000000000000000000000000000000000000000016146103285760405162461bcd60e51b815260040161031f90610cfd565b60405180910390fd5b6040516370a0823160e01b815230600482015265456e657267799063a9059cbb907f00000000000000000000000000000000000000000000000000000000000000009083906370a0823190602401602060405180830381865afa158015610393573d6000803e3d6000fd5b505050506040513d601f19601f820116820180604052508101906103b79190610ce4565b6040516001600160e01b031960e085901b1681526001600160a01b03909216600483015260248201526044016020604051808303816000875af1158015610402573d6000803e3d6000fd5b505050506040513d601f19601f820116820180604052508101906104269190610d34565b50565b600081116104735760405162461bcd60e51b81526020600482015260176024820152765472616465723a20696e76616c6964207265736572766560481b604482015260640161031f565b3360008181526004602052604090819020839055517f7cf7f245e0ac9ee076d209114cedb03ee23c22f397ad7c400bfc99bbfa885933906104b79084815260200190565b60405180910390a250565b600081600281106104d257600080fd5b01546001600160a01b0316905081565b336001600160a01b037f0000000000000000000000000000000000000000000000000000000000000000161461052a5760405162461bcd60e51b815260040161031f90610cfd565b600280546001600160a01b0319166001600160a01b0392909216919091179055565b336001600160a01b037f000000000000000000000000000000000000000000000000000000000000000016146105945760405162461bcd60e51b815260040161031f90610cfd565b601e8160ff1611156105e85760405162461bcd60e51b815260206004820152601e60248201527f5472616465723a20696e76616c696420666565206d756c7469706c6965720000604482015260640161031f565b6002805460ff909216600160a01b0260ff60a01b19909216919091179055565b6002546001600160a01b031633146106625760405162461bcd60e51b815260206004820152601c60248201527f5472616465723a206163636f756e74206973206e6f742061646d696e00000000604482015260640161031f565b600354610670906002610d6c565b3a11156106bf5760405162461bcd60e51b815260206004820152601a60248201527f5472616465723a2067617320707269636520746f6f2068696768000000000000604482015260640161031f565b6106c98483610aeb565b6040516323b872dd60e01b81526001600160a01b03851660048201523060248201526044810183905265456e65726779906323b872dd906064016020604051808303816000875af1158015610722573d6000803e3d6000fd5b505050506040513d601f19601f820116820180604052508101906107469190610d34565b6107925760405162461bcd60e51b815260206004820152601c60248201527f5472616465723a207472616e736665722066726f6d206661696c656400000000604482015260640161031f565b60006107a13a62041051610d6c565b60025490915060009061271090600160a01b900460ff166107c28487610d89565b6107cc9190610d6c565b6107d69190610d9c565b90506000816107e58487610d89565b6107ef9190610d89565b9050600084610800836103e8610d6c565b61080a9190610d9c565b90506000808860ff166002811061082357610823610dbe565b015460405163095ea7b360e01b81526001600160a01b039091166004820181905260248201859052915065456e657267799063095ea7b3906044016020604051808303816000875af115801561087d573d6000803e3d6000fd5b505050506040513d601f19601f820116820180604052508101906108a19190610d34565b6108e65760405162461bcd60e51b8152602060048201526016602482015275151c9859195c8e88185c1c1c9bdd994819985a5b195960521b604482015260640161031f565b60408051600280825260608201835260009260208301908036833701905050905065456e657267798160008151811061092157610921610dbe565b60200260200101906001600160a01b031690816001600160a01b031681525050816001600160a01b031663ad5c46486040518163ffffffff1660e01b8152600401602060405180830381865afa15801561097f573d6000803e3d6000fd5b505050506040513d601f19601f820116820180604052508101906109a39190610dea565b816001815181106109b6576109b6610dbe565b60200260200101906001600160a01b031690816001600160a01b0316815250506000826001600160a01b03166318cbafe58686858f426040518663ffffffff1660e01b8152600401610a0c959493929190610e07565b6000604051808303816000875af1158015610a2b573d6000803e3d6000fd5b505050506040513d6000823e601f3d908101601f19168201604052610a539190810190610e78565b90508a6001600160a01b03167f1c66e529e5eda665469886610afddba48a9cc0e5d92fb155ae84dab6c81d155d8a3a898c898760018951610a949190610d89565b81518110610aa457610aa4610dbe565b60209081029190910181015160408051978852918701959095528501929092526060840152608083015260a082015260c00160405180910390a25050505050505050505050565b6001600160a01b03821660009081526004602052604090205480610b4b5760405162461bcd60e51b81526020600482015260176024820152765472616465723a20696e76616c6964207265736572766560481b604482015260640161031f565b6040516370a0823160e01b81526001600160a01b038416600482015260009065456e65726779906370a0823190602401602060405180830381865afa158015610b98573d6000803e3d6000fd5b505050506040513d601f19601f82011682018060405250810190610bbc9190610ce4565b9050610bc88284610f36565b811015610c175760405162461bcd60e51b815260206004820152601c60248201527f5472616465723a20696e73756666696369656e742062616c616e636500000000604482015260640161031f565b50505050565b600060208284031215610c2f57600080fd5b5035919050565b6001600160a01b038116811461042657600080fd5b600060208284031215610c5d57600080fd5b8135610c6881610c36565b9392505050565b803560ff81168114610c8057600080fd5b919050565b600060208284031215610c9757600080fd5b610c6882610c6f565b60008060008060808587031215610cb657600080fd5b8435610cc181610c36565b9350610ccf60208601610c6f565b93969395505050506040820135916060013590565b600060208284031215610cf657600080fd5b5051919050565b6020808252601c908201527f5472616465723a206163636f756e74206973206e6f74206f776e657200000000604082015260600190565b600060208284031215610d4657600080fd5b81518015158114610c6857600080fd5b634e487b7160e01b600052601160045260246000fd5b8082028115828204841417610d8357610d83610d56565b92915050565b81810381811115610d8357610d83610d56565b600082610db957634e487b7160e01b600052601260045260246000fd5b500490565b634e487b7160e01b600052603260045260246000fd5b634e487b7160e01b600052604160045260246000fd5b600060208284031215610dfc57600080fd5b8151610c6881610c36565b600060a082018783526020878185015260a0604085015281875180845260c086019150828901935060005b81811015610e575784516001600160a01b031683529383019391830191600101610e32565b50506001600160a01b03969096166060850152505050608001529392505050565b60006020808385031215610e8b57600080fd5b825167ffffffffffffffff80821115610ea357600080fd5b818501915085601f830112610eb757600080fd5b815181811115610ec957610ec9610dd4565b8060051b604051601f19603f83011681018181108582111715610eee57610eee610dd4565b604052918252848201925083810185019188831115610f0c57600080fd5b938501935b82851015610f2a57845184529385019392850192610f11565b98975050505050505050565b80820180821115610d8357610d83610d5656fea2646970667358221220c4d6e3156a0a98338f3fff746efb0a63b2ce2308fca09ee2e8e8b28a57ea5e3a64736f6c63430008130033",
    "sourcePath": "/home/federodes/Workspace/vearn/contracts/contracts/Trader.sol",
    "compiler": {
        "name": "solc",
        "version": "0.8.19+commit.7dd6d404"
    },
    "functionHashes": {
        "MAX_WITHDRAW_AMOUNT()": "44ba0ea2",
        "SWAP_GAS()": "750f198a",
        "admin()": "f851a440",
        "baseGasPrice()": "87b6f0d2",
        "feeMultiplier()": "e5a70ef7",
        "fetchBaseGasPrice()": "05707953",
        "owner()": "8da5cb5b",
        "params()": "cff0ab96",
        "reserves(address)": "d66bd524",
        "routers(uint256)": "4e9c1118",
        "saveConfig(uint256)": "4b0bbaa4",
        "setAdmin(address)": "704b6c02",
        "setFeeMultiplier(uint8)": "8aee4cfe",
        "swap(address,uint8,uint256,uint256)": "f7c59cf1",
        "vtho()": "d4b0dbdd",
        "withdrawFees()": "476343ee"
    },
    "gasEstimates": {
        "creation": {
            "codeDepositCost": "793400",
            "executionCost": "infinite",
            "totalCost": "infinite"
        },
        "external": {
            "MAX_WITHDRAW_AMOUNT()": "230",
            "SWAP_GAS()": "251",
            "admin()": "2425",
            "baseGasPrice()": "2373",
            "feeMultiplier()": "2374",
            "fetchBaseGasPrice()": "infinite",
            "owner()": "infinite",
            "params()": "283",
            "reserves(address)": "2524",
            "routers(uint256)": "2480",
            "saveConfig(uint256)": "23966",
            "setAdmin(address)": "infinite",
            "setFeeMultiplier(uint8)": "infinite",
            "swap(address,uint8,uint256,uint256)": "infinite",
            "vtho()": "305",
            "withdrawFees()": "infinite"
        },
        "internal": {
            "_validateWithdrawAmount(address,uint256)": "infinite"
        }
    }
}