{
  "_format": "hh-sol-artifact-1",
  "contractName": "Trader",
  "sourceName": "contracts/Trader.sol",
  "abi": [
    {
      "inputs": [
        {
          "internalType": "address",
          "name": "vthoAddress",
          "type": "address"
        },
        {
          "internalType": "address",
          "name": "routerAddress",
          "type": "address"
        }
      ],
      "stateMutability": "nonpayable",
      "type": "constructor"
    },
    {
      "anonymous": false,
      "inputs": [
        {
          "indexed": true,
          "internalType": "address",
          "name": "account",
          "type": "address"
        },
        {
          "indexed": false,
          "internalType": "uint256",
          "name": "triggerAmount",
          "type": "uint256"
        },
        {
          "indexed": false,
          "internalType": "uint256",
          "name": "reserveBalance",
          "type": "uint256"
        }
      ],
      "name": "Config",
      "type": "event"
    },
    {
      "anonymous": false,
      "inputs": [
        {
          "indexed": false,
          "internalType": "uint256",
          "name": "gasprice",
          "type": "uint256"
        }
      ],
      "name": "Gas",
      "type": "event"
    },
    {
      "anonymous": false,
      "inputs": [
        {
          "indexed": true,
          "internalType": "address",
          "name": "account",
          "type": "address"
        },
        {
          "indexed": false,
          "internalType": "uint256",
          "name": "withdrawAmount",
          "type": "uint256"
        },
        {
          "indexed": false,
          "internalType": "uint256",
          "name": "fees",
          "type": "uint256"
        },
        {
          "indexed": false,
          "internalType": "uint256",
          "name": "maxRate",
          "type": "uint256"
        },
        {
          "indexed": false,
          "internalType": "uint256",
          "name": "amountOutMin",
          "type": "uint256"
        },
        {
          "indexed": false,
          "internalType": "uint256",
          "name": "amountOut",
          "type": "uint256"
        }
      ],
      "name": "Swap",
      "type": "event"
    },
    {
      "anonymous": false,
      "inputs": [
        {
          "indexed": true,
          "internalType": "address",
          "name": "to",
          "type": "address"
        },
        {
          "indexed": false,
          "internalType": "uint256",
          "name": "amount",
          "type": "uint256"
        }
      ],
      "name": "Withdraw",
      "type": "event"
    },
    {
      "inputs": [
        {
          "internalType": "address",
          "name": "",
          "type": "address"
        }
      ],
      "name": "configByAddress",
      "outputs": [
        {
          "internalType": "uint256",
          "name": "triggerAmount",
          "type": "uint256"
        },
        {
          "internalType": "uint256",
          "name": "reserveBalance",
          "type": "uint256"
        }
      ],
      "stateMutability": "view",
      "type": "function"
    },
    {
      "inputs": [],
      "name": "owner",
      "outputs": [
        {
          "internalType": "address payable",
          "name": "",
          "type": "address"
        }
      ],
      "stateMutability": "view",
      "type": "function"
    },
    {
      "inputs": [],
      "name": "router",
      "outputs": [
        {
          "internalType": "contract IUniswapV2Router02",
          "name": "",
          "type": "address"
        }
      ],
      "stateMutability": "view",
      "type": "function"
    },
    {
      "inputs": [
        {
          "internalType": "uint256",
          "name": "triggerAmount",
          "type": "uint256"
        },
        {
          "internalType": "uint256",
          "name": "reserveBalance",
          "type": "uint256"
        }
      ],
      "name": "saveConfig",
      "outputs": [],
      "stateMutability": "nonpayable",
      "type": "function"
    },
    {
      "inputs": [
        {
          "internalType": "address payable",
          "name": "account",
          "type": "address"
        },
        {
          "internalType": "uint256",
          "name": "withdrawAmount",
          "type": "uint256"
        },
        {
          "internalType": "uint256",
          "name": "maxRate",
          "type": "uint256"
        }
      ],
      "name": "swap",
      "outputs": [],
      "stateMutability": "nonpayable",
      "type": "function"
    },
    {
      "inputs": [],
      "name": "vtho",
      "outputs": [
        {
          "internalType": "contract IERC20",
          "name": "",
          "type": "address"
        }
      ],
      "stateMutability": "view",
      "type": "function"
    }
  ],
  "bytecode": "0x60806040523480156200001157600080fd5b506040516200188038038062001880833981810160405281019062000037919062000118565b816000806101000a81548173ffffffffffffffffffffffffffffffffffffffff021916908373ffffffffffffffffffffffffffffffffffffffff16021790555080600160006101000a81548173ffffffffffffffffffffffffffffffffffffffff021916908373ffffffffffffffffffffffffffffffffffffffff16021790555033600260006101000a81548173ffffffffffffffffffffffffffffffffffffffff021916908373ffffffffffffffffffffffffffffffffffffffff1602179055505050620001a7565b60008151905062000112816200018d565b92915050565b600080604083850312156200012c57600080fd5b60006200013c8582860162000101565b92505060206200014f8582860162000101565b9150509250929050565b600062000166826200016d565b9050919050565b600073ffffffffffffffffffffffffffffffffffffffff82169050919050565b620001988162000159565b8114620001a457600080fd5b50565b6116c980620001b76000396000f3fe608060405234801561001057600080fd5b50600436106100625760003560e01c806309bab628146100675780638da5cb5b146100985780639c70803b146100b65780639f1d0f59146100d2578063d4b0dbdd146100ee578063f887ea401461010c575b600080fd5b610081600480360381019061007c9190610c4c565b61012a565b60405161008f929190611114565b60405180910390f35b6100a061014e565b6040516100ad9190610f88565b60405180910390f35b6100d060048036038101906100cb9190610d80565b610174565b005b6100ec60048036038101906100e79190610c9e565b6102b9565b005b6100f6610aee565b6040516101039190611003565b60405180910390f35b610114610b12565b604051610121919061101e565b60405180910390f35b60036020528060005260406000206000915090508060000154908060010154905082565b600260009054906101000a900473ffffffffffffffffffffffffffffffffffffffff1681565b600082116101b7576040517f08c379a00000000000000000000000000000000000000000000000000000000081526004016101ae90611099565b60405180910390fd5b600081116101fa576040517f08c379a00000000000000000000000000000000000000000000000000000000081526004016101f1906110d9565b60405180910390fd5b604051806040016040528083815260200182815250600360003373ffffffffffffffffffffffffffffffffffffffff1673ffffffffffffffffffffffffffffffffffffffff16815260200190815260200160002060008201518160000155602082015181600101559050503373ffffffffffffffffffffffffffffffffffffffff167fb9bfe6dda7ddbc49d12288ef1e5d501c902797a01fc2bba856601b70e874cbb883836040516102ad929190611114565b60405180910390a25050565b6000600360008573ffffffffffffffffffffffffffffffffffffffff1673ffffffffffffffffffffffffffffffffffffffff1681526020019081526020016000206040518060400160405290816000820154815260200160018201548152505090506000816000015111610362576040517f08c379a000000000000000000000000000000000000000000000000000000000815260040161035990611099565b60405180910390fd5b60008160200151116103a9576040517f08c379a00000000000000000000000000000000000000000000000000000000081526004016103a0906110d9565b60405180910390fd5b80600001518310156103f0576040517f08c379a00000000000000000000000000000000000000000000000000000000081526004016103e790611039565b60405180910390fd5b8260008054906101000a900473ffffffffffffffffffffffffffffffffffffffff1673ffffffffffffffffffffffffffffffffffffffff166370a08231866040518263ffffffff1660e01b815260040161044a9190610f6d565b602060405180830381600087803b15801561046457600080fd5b505af1158015610478573d6000803e3d6000fd5b505050506040513d601f19601f8201168201806040525081019061049c9190610d57565b10156104dd576040517f08c379a00000000000000000000000000000000000000000000000000000000081526004016104d490611079565b60405180910390fd5b60008054906101000a900473ffffffffffffffffffffffffffffffffffffffff1673ffffffffffffffffffffffffffffffffffffffff166323b872dd8530866040518463ffffffff1660e01b815260040161053a93929190610fa3565b602060405180830381600087803b15801561055457600080fd5b505af1158015610568573d6000803e3d6000fd5b505050506040513d601f19601f8201168201806040525081019061058c9190610d2e565b6105cb576040517f08c379a00000000000000000000000000000000000000000000000000000000081526004016105c2906110b9565b60405180910390fd5b600060053a6105da919061130c565b6103e86003866105ea919061130c565b6105f491906112db565b6105fe9190611285565b90506000818561060e9190611366565b90506000848261061e91906112db565b905060008054906101000a900473ffffffffffffffffffffffffffffffffffffffff1673ffffffffffffffffffffffffffffffffffffffff1663095ea7b3600160009054906101000a900473ffffffffffffffffffffffffffffffffffffffff16846040518363ffffffff1660e01b815260040161069d929190610fda565b602060405180830381600087803b1580156106b757600080fd5b505af11580156106cb573d6000803e3d6000fd5b505050506040513d601f19601f820116820180604052508101906106ef9190610d2e565b61072e576040517f08c379a000000000000000000000000000000000000000000000000000000000815260040161072590611059565b60405180910390fd5b6000600267ffffffffffffffff811115610771577f4e487b7100000000000000000000000000000000000000000000000000000000600052604160045260246000fd5b60405190808252806020026020018201604052801561079f5781602001602082028036833780820191505090505b50905060008054906101000a900473ffffffffffffffffffffffffffffffffffffffff16816000815181106107fd577f4e487b7100000000000000000000000000000000000000000000000000000000600052603260045260246000fd5b602002602001019073ffffffffffffffffffffffffffffffffffffffff16908173ffffffffffffffffffffffffffffffffffffffff1681525050600160009054906101000a900473ffffffffffffffffffffffffffffffffffffffff1673ffffffffffffffffffffffffffffffffffffffff1663ad5c46486040518163ffffffff1660e01b815260040160206040518083038186803b15801561089f57600080fd5b505afa1580156108b3573d6000803e3d6000fd5b505050506040513d601f19601f820116820180604052508101906108d79190610c75565b81600181518110610911577f4e487b7100000000000000000000000000000000000000000000000000000000600052603260045260246000fd5b602002602001019073ffffffffffffffffffffffffffffffffffffffff16908173ffffffffffffffffffffffffffffffffffffffff16815250506000600160009054906101000a900473ffffffffffffffffffffffffffffffffffffffff1673ffffffffffffffffffffffffffffffffffffffff166318cbafe58585858d426040518663ffffffff1660e01b81526004016109b095949392919061113d565b600060405180830381600087803b1580156109ca57600080fd5b505af11580156109de573d6000803e3d6000fd5b505050506040513d6000823e3d601f19601f82011682018060405250810190610a079190610ced565b90508873ffffffffffffffffffffffffffffffffffffffff167f6d2535bccee43630e01014525de773080b47e1a82c56ef6a30802933a48c9e3489878a878660018851610a549190611366565b81518110610a8b577f4e487b7100000000000000000000000000000000000000000000000000000000600052603260045260246000fd5b6020026020010151604051610aa4959493929190611197565b60405180910390a27ff0fadcd9d25528e430e4862a6cc65c4af97cc5bc42e413e0fcd026d40345a6df3a604051610adb91906110f9565b60405180910390a1505050505050505050565b60008054906101000a900473ffffffffffffffffffffffffffffffffffffffff1681565b600160009054906101000a900473ffffffffffffffffffffffffffffffffffffffff1681565b6000610b4b610b468461120f565b6111ea565b90508083825260208201905082856020860282011115610b6a57600080fd5b60005b85811015610b9a5781610b808882610c37565b845260208401935060208301925050600181019050610b6d565b5050509392505050565b600081359050610bb381611637565b92915050565b600081519050610bc881611637565b92915050565b600081359050610bdd8161164e565b92915050565b600082601f830112610bf457600080fd5b8151610c04848260208601610b38565b91505092915050565b600081519050610c1c81611665565b92915050565b600081359050610c318161167c565b92915050565b600081519050610c468161167c565b92915050565b600060208284031215610c5e57600080fd5b6000610c6c84828501610ba4565b91505092915050565b600060208284031215610c8757600080fd5b6000610c9584828501610bb9565b91505092915050565b600080600060608486031215610cb357600080fd5b6000610cc186828701610bce565b9350506020610cd286828701610c22565b9250506040610ce386828701610c22565b9150509250925092565b600060208284031215610cff57600080fd5b600082015167ffffffffffffffff811115610d1957600080fd5b610d2584828501610be3565b91505092915050565b600060208284031215610d4057600080fd5b6000610d4e84828501610c0d565b91505092915050565b600060208284031215610d6957600080fd5b6000610d7784828501610c37565b91505092915050565b60008060408385031215610d9357600080fd5b6000610da185828601610c22565b9250506020610db285828601610c22565b9150509250929050565b6000610dc88383610df2565b60208301905092915050565b610ddd816113f4565b82525050565b610dec816113ac565b82525050565b610dfb8161139a565b82525050565b610e0a8161139a565b82525050565b6000610e1b8261124b565b610e258185611263565b9350610e308361123b565b8060005b83811015610e61578151610e488882610dbc565b9750610e5383611256565b925050600181019050610e34565b5085935050505092915050565b610e7781611406565b82525050565b610e868161142a565b82525050565b6000610e99601b83611274565b9150610ea482611541565b602082019050919050565b6000610ebc601783611274565b9150610ec78261156a565b602082019050919050565b6000610edf601a83611274565b9150610eea82611593565b602082019050919050565b6000610f02601d83611274565b9150610f0d826115bc565b602082019050919050565b6000610f25601b83611274565b9150610f30826115e5565b602082019050919050565b6000610f48601e83611274565b9150610f538261160e565b602082019050919050565b610f67816113ea565b82525050565b6000602082019050610f826000830184610dd4565b92915050565b6000602082019050610f9d6000830184610de3565b92915050565b6000606082019050610fb86000830186610dd4565b610fc56020830185610e01565b610fd26040830184610f5e565b949350505050565b6000604082019050610fef6000830185610e01565b610ffc6020830184610f5e565b9392505050565b60006020820190506110186000830184610e6e565b92915050565b60006020820190506110336000830184610e7d565b92915050565b6000602082019050818103600083015261105281610e8c565b9050919050565b6000602082019050818103600083015261107281610eaf565b9050919050565b6000602082019050818103600083015261109281610ed2565b9050919050565b600060208201905081810360008301526110b281610ef5565b9050919050565b600060208201905081810360008301526110d281610f18565b9050919050565b600060208201905081810360008301526110f281610f3b565b9050919050565b600060208201905061110e6000830184610f5e565b92915050565b60006040820190506111296000830185610f5e565b6111366020830184610f5e565b9392505050565b600060a0820190506111526000830188610f5e565b61115f6020830187610f5e565b81810360408301526111718186610e10565b90506111806060830185610dd4565b61118d6080830184610f5e565b9695505050505050565b600060a0820190506111ac6000830188610f5e565b6111b96020830187610f5e565b6111c66040830186610f5e565b6111d36060830185610f5e565b6111e06080830184610f5e565b9695505050505050565b60006111f4611205565b90506112008282611472565b919050565b6000604051905090565b600067ffffffffffffffff82111561122a57611229611501565b5b602082029050602081019050919050565b6000819050602082019050919050565b600081519050919050565b6000602082019050919050565b600082825260208201905092915050565b600082825260208201905092915050565b6000611290826113ea565b915061129b836113ea565b9250827fffffffffffffffffffffffffffffffffffffffffffffffffffffffffffffffff038211156112d0576112cf6114a3565b5b828201905092915050565b60006112e6826113ea565b91506112f1836113ea565b925082611301576113006114d2565b5b828204905092915050565b6000611317826113ea565b9150611322836113ea565b9250817fffffffffffffffffffffffffffffffffffffffffffffffffffffffffffffffff048311821515161561135b5761135a6114a3565b5b828202905092915050565b6000611371826113ea565b915061137c836113ea565b92508282101561138f5761138e6114a3565b5b828203905092915050565b60006113a5826113ca565b9050919050565b60006113b7826113ca565b9050919050565b60008115159050919050565b600073ffffffffffffffffffffffffffffffffffffffff82169050919050565b6000819050919050565b60006113ff8261144e565b9050919050565b600061141182611418565b9050919050565b6000611423826113ca565b9050919050565b60006114358261143c565b9050919050565b6000611447826113ca565b9050919050565b600061145982611460565b9050919050565b600061146b826113ca565b9050919050565b61147b82611530565b810181811067ffffffffffffffff8211171561149a57611499611501565b5b80604052505050565b7f4e487b7100000000000000000000000000000000000000000000000000000000600052601160045260246000fd5b7f4e487b7100000000000000000000000000000000000000000000000000000000600052601260045260246000fd5b7f4e487b7100000000000000000000000000000000000000000000000000000000600052604160045260246000fd5b6000601f19601f8301169050919050565b7f5472616465723a20756e617574686f72697a656420616d6f756e740000000000600082015250565b7f5472616465723a20617070726f7665206661696c65642e000000000000000000600082015250565b7f5472616465723a20696e73756666696369656e742066756e6473000000000000600082015250565b7f5472616465723a20696e76616c69642074726967676572416d6f756e74000000600082015250565b7f5472616465723a207472616e7366657246726f6d206661696c65640000000000600082015250565b7f5472616465723a20696e76616c6964207265736572766542616c616e63650000600082015250565b6116408161139a565b811461164b57600080fd5b50565b611657816113ac565b811461166257600080fd5b50565b61166e816113be565b811461167957600080fd5b50565b611685816113ea565b811461169057600080fd5b5056fea264697066735822122071cb1257e4149eaffb2caa0491fe0a86c12e66df70616bb215d6390b226ece0764736f6c63430008040033",
  "linkReferences": {},
  "deployedLinkReferences": {}
}