{
  "_format": "hh-sol-artifact-1",
  "contractName": "Trader",
  "sourceName": "contracts/Trader.sol",
  "abi": [
    {
      "inputs": [
        {
          "internalType": "address[2]",
          "name": "routers_",
          "type": "address[2]"
        }
      ],
      "stateMutability": "nonpayable",
      "type": "constructor"
    },
    {
      "inputs": [],
      "name": "Trader__ApproveFailed",
      "type": "error"
    },
    {
      "inputs": [
        {
          "internalType": "uint256",
          "name": "balance",
          "type": "uint256"
        },
        {
          "internalType": "uint256",
          "name": "withdrawAmount",
          "type": "uint256"
        },
        {
          "internalType": "uint256",
          "name": "reserveBalance",
          "type": "uint256"
        }
      ],
      "name": "Trader__InsufficientBalance",
      "type": "error"
    },
    {
      "inputs": [],
      "name": "Trader__InvalidFeeMultiplier",
      "type": "error"
    },
    {
      "inputs": [],
      "name": "Trader__InvalidReserve",
      "type": "error"
    },
    {
      "inputs": [
        {
          "internalType": "address",
          "name": "account",
          "type": "address"
        }
      ],
      "name": "Trader__NotAdmin",
      "type": "error"
    },
    {
      "inputs": [
        {
          "internalType": "address",
          "name": "account",
          "type": "address"
        }
      ],
      "name": "Trader__NotOwner",
      "type": "error"
    },
    {
      "inputs": [
        {
          "internalType": "address",
          "name": "from",
          "type": "address"
        },
        {
          "internalType": "uint256",
          "name": "amount",
          "type": "uint256"
        }
      ],
      "name": "Trader__TransferFromFailed",
      "type": "error"
    },
    {
      "inputs": [],
      "name": "Trader__ZeroAddress",
      "type": "error"
    },
    {
      "anonymous": false,
      "inputs": [
        {
          "indexed": true,
          "internalType": "address",
          "name": "account",
          "type": "address"
        },
        {
          "indexed": false,
          "internalType": "uint256",
          "name": "reserveBalance",
          "type": "uint256"
        }
      ],
      "name": "Config",
      "type": "event"
    },
    {
      "anonymous": false,
      "inputs": [
        {
          "indexed": true,
          "internalType": "address",
          "name": "account",
          "type": "address"
        },
        {
          "indexed": false,
          "internalType": "uint256",
          "name": "withdrawAmount",
          "type": "uint256"
        },
        {
          "indexed": false,
          "internalType": "uint256",
          "name": "gasPrice",
          "type": "uint256"
        },
        {
          "indexed": false,
          "internalType": "uint256",
          "name": "protocolFee",
          "type": "uint256"
        },
        {
          "indexed": false,
          "internalType": "uint256",
          "name": "maxRate",
          "type": "uint256"
        },
        {
          "indexed": false,
          "internalType": "uint256",
          "name": "amountOutMin",
          "type": "uint256"
        },
        {
          "indexed": false,
          "internalType": "uint256",
          "name": "amountOut",
          "type": "uint256"
        }
      ],
      "name": "Swap",
      "type": "event"
    },
    {
      "inputs": [],
      "name": "MAX_WITHDRAW_AMOUNT",
      "outputs": [
        {
          "internalType": "uint256",
          "name": "",
          "type": "uint256"
        }
      ],
      "stateMutability": "view",
      "type": "function"
    },
    {
      "inputs": [],
      "name": "SWAP_GAS",
      "outputs": [
        {
          "internalType": "uint256",
          "name": "",
          "type": "uint256"
        }
      ],
      "stateMutability": "view",
      "type": "function"
    },
    {
      "inputs": [],
      "name": "admin",
      "outputs": [
        {
          "internalType": "address",
          "name": "",
          "type": "address"
        }
      ],
      "stateMutability": "view",
      "type": "function"
    },
    {
      "inputs": [],
      "name": "feeMultiplier",
      "outputs": [
        {
          "internalType": "uint8",
          "name": "",
          "type": "uint8"
        }
      ],
      "stateMutability": "view",
      "type": "function"
    },
    {
      "inputs": [],
      "name": "owner",
      "outputs": [
        {
          "internalType": "address",
          "name": "",
          "type": "address"
        }
      ],
      "stateMutability": "view",
      "type": "function"
    },
    {
      "inputs": [
        {
          "internalType": "address",
          "name": "",
          "type": "address"
        }
      ],
      "name": "reserves",
      "outputs": [
        {
          "internalType": "uint256",
          "name": "",
          "type": "uint256"
        }
      ],
      "stateMutability": "view",
      "type": "function"
    },
    {
      "inputs": [
        {
          "internalType": "uint256",
          "name": "",
          "type": "uint256"
        }
      ],
      "name": "routers",
      "outputs": [
        {
          "internalType": "address",
          "name": "",
          "type": "address"
        }
      ],
      "stateMutability": "view",
      "type": "function"
    },
    {
      "inputs": [
        {
          "internalType": "uint256",
          "name": "reserveBalance",
          "type": "uint256"
        }
      ],
      "name": "saveConfig",
      "outputs": [],
      "stateMutability": "nonpayable",
      "type": "function"
    },
    {
      "inputs": [
        {
          "internalType": "address",
          "name": "newAdmin",
          "type": "address"
        }
      ],
      "name": "setAdmin",
      "outputs": [],
      "stateMutability": "nonpayable",
      "type": "function"
    },
    {
      "inputs": [
        {
          "internalType": "uint8",
          "name": "newFeeMultiplier",
          "type": "uint8"
        }
      ],
      "name": "setFeeMultiplier",
      "outputs": [],
      "stateMutability": "nonpayable",
      "type": "function"
    },
    {
      "inputs": [
        {
          "internalType": "address payable",
          "name": "account",
          "type": "address"
        },
        {
          "internalType": "uint8",
          "name": "routerIndex",
          "type": "uint8"
        },
        {
          "internalType": "uint256",
          "name": "withdrawAmount",
          "type": "uint256"
        },
        {
          "internalType": "uint256",
          "name": "maxRate",
          "type": "uint256"
        }
      ],
      "name": "swap",
      "outputs": [],
      "stateMutability": "nonpayable",
      "type": "function"
    },
    {
      "inputs": [],
      "name": "vtho",
      "outputs": [
        {
          "internalType": "contract IEnergy",
          "name": "",
          "type": "address"
        }
      ],
      "stateMutability": "view",
      "type": "function"
    },
    {
      "inputs": [],
      "name": "withdrawFees",
      "outputs": [],
      "stateMutability": "nonpayable",
      "type": "function"
    }
  ],
  "bytecode": "0x60a0604052601e600260146101000a81548160ff021916908360ff1602179055503480156200002d57600080fd5b5060405162001c1038038062001c108339818101604052810190620000539190620001f3565b3373ffffffffffffffffffffffffffffffffffffffff1660808173ffffffffffffffffffffffffffffffffffffffff1660601b815250508060009060026200009d929190620000a5565b505062000335565b826002810192821562000114579160200282015b82811115620001135782518260006101000a81548173ffffffffffffffffffffffffffffffffffffffff021916908373ffffffffffffffffffffffffffffffffffffffff16021790555091602001919060010190620000b9565b5b50905062000123919062000127565b5090565b5b808211156200014257600081600090555060010162000128565b5090565b60006200015d620001578462000248565b6200021f565b905080828560208602820111156200017457600080fd5b60005b85811015620001a857816200018d8882620001b2565b84526020840193506020830192505060018101905062000177565b5050509392505050565b600081519050620001c3816200031b565b92915050565b600082601f830112620001db57600080fd5b6002620001ea84828562000146565b91505092915050565b6000604082840312156200020657600080fd5b60006200021684828501620001c9565b91505092915050565b60006200022b6200023e565b9050620002398282620002a5565b919050565b6000604051905090565b600067ffffffffffffffff821115620002665762000265620002db565b5b602082029050919050565b60006200027e8262000285565b9050919050565b600073ffffffffffffffffffffffffffffffffffffffff82169050919050565b620002b0826200030a565b810181811067ffffffffffffffff82111715620002d257620002d1620002db565b5b80604052505050565b7f4e487b7100000000000000000000000000000000000000000000000000000000600052604160045260246000fd5b6000601f19601f8301169050919050565b620003268162000271565b81146200033257600080fd5b50565b60805160601c6118a06200037060003960008181610271015281816103230152818161054b01528181610626015261071201526118a06000f3fe608060405234801561001057600080fd5b50600436106100cf5760003560e01c80638aee4cfe1161008c578063d66bd52411610066578063d66bd524146101da578063e5a70ef71461020a578063f7c59cf114610228578063f851a44014610244576100cf565b80638aee4cfe146101825780638da5cb5b1461019e578063d4b0dbdd146101bc576100cf565b806344ba0ea2146100d4578063476343ee146100f25780634b0bbaa4146100fc5780634e9c111814610118578063704b6c0214610148578063750f198a14610164575b600080fd5b6100dc610262565b6040516100e991906113a0565b60405180910390f35b6100fa61026f565b005b61011660048036038101906101119190611196565b610443565b005b610132600480360381019061012d9190611196565b610513565b60405161013f91906112e1565b60405180910390f35b610162600480360381019061015d9190611077565b610549565b005b61016c61061d565b60405161017991906113a0565b60405180910390f35b61019c600480360381019061019791906111e8565b610624565b005b6101a6610710565b6040516101b391906112e1565b60405180910390f35b6101c4610734565b6040516101d19190611385565b60405180910390f35b6101f460048036038101906101ef9190611077565b61073e565b60405161020191906113a0565b60405180910390f35b610212610756565b60405161021f91906114ad565b60405180910390f35b610242600480360381019061023d91906110c9565b610769565b005b61024c610dbc565b60405161025991906112e1565b60405180910390f35b683635c9adc5dea0000081565b7f000000000000000000000000000000000000000000000000000000000000000073ffffffffffffffffffffffffffffffffffffffff163373ffffffffffffffffffffffffffffffffffffffff16146102ff57336040517f240d93470000000000000000000000000000000000000000000000000000000081526004016102f691906112e1565b60405180910390fd5b65456e6572677973ffffffffffffffffffffffffffffffffffffffff1663a9059cbb7f000000000000000000000000000000000000000000000000000000000000000065456e6572677973ffffffffffffffffffffffffffffffffffffffff166370a08231306040518263ffffffff1660e01b815260040161038191906112e1565b60206040518083038186803b15801561039957600080fd5b505afa1580156103ad573d6000803e3d6000fd5b505050506040513d601f19601f820116820180604052508101906103d191906111bf565b6040518363ffffffff1660e01b81526004016103ee92919061135c565b602060405180830381600087803b15801561040857600080fd5b505af115801561041c573d6000803e3d6000fd5b505050506040513d601f19601f82011682018060405250810190610440919061116d565b50565b600081141561047e576040517f154f963200000000000000000000000000000000000000000000000000000000815260040160405180910390fd5b80600360003373ffffffffffffffffffffffffffffffffffffffff1673ffffffffffffffffffffffffffffffffffffffff168152602001908152602001600020819055503373ffffffffffffffffffffffffffffffffffffffff167f7cf7f245e0ac9ee076d209114cedb03ee23c22f397ad7c400bfc99bbfa8859338260405161050891906113a0565b60405180910390a250565b6000816002811061052357600080fd5b016000915054906101000a900473ffffffffffffffffffffffffffffffffffffffff1681565b7f000000000000000000000000000000000000000000000000000000000000000073ffffffffffffffffffffffffffffffffffffffff163373ffffffffffffffffffffffffffffffffffffffff16146105d957336040517f240d93470000000000000000000000000000000000000000000000000000000081526004016105d091906112e1565b60405180910390fd5b80600260006101000a81548173ffffffffffffffffffffffffffffffffffffffff021916908373ffffffffffffffffffffffffffffffffffffffff16021790555050565b62041a5381565b7f000000000000000000000000000000000000000000000000000000000000000073ffffffffffffffffffffffffffffffffffffffff163373ffffffffffffffffffffffffffffffffffffffff16146106b457336040517f240d93470000000000000000000000000000000000000000000000000000000081526004016106ab91906112e1565b60405180910390fd5b601e8160ff1611156106f2576040517fa6f2a15000000000000000000000000000000000000000000000000000000000815260040160405180910390fd5b80600260146101000a81548160ff021916908360ff16021790555050565b7f000000000000000000000000000000000000000000000000000000000000000081565b65456e6572677981565b60036020528060005260406000206000915090505481565b600260149054906101000a900460ff1681565b600260009054906101000a900473ffffffffffffffffffffffffffffffffffffffff1673ffffffffffffffffffffffffffffffffffffffff163373ffffffffffffffffffffffffffffffffffffffff16146107fb57336040517fa1d67c890000000000000000000000000000000000000000000000000000000081526004016107f291906112e1565b60405180910390fd5b6108058483610de2565b65456e6572677973ffffffffffffffffffffffffffffffffffffffff166323b872dd8530856040518463ffffffff1660e01b8152600401610848939291906112fc565b602060405180830381600087803b15801561086257600080fd5b505af1158015610876573d6000803e3d6000fd5b505050506040513d601f19601f8201168201806040525081019061089a919061116d565b6108dd5783826040517f789d28a60000000000000000000000000000000000000000000000000000000081526004016108d4929190611333565b60405180910390fd5b60003a62041a536108ee91906115d9565b90506000612710600260149054906101000a900460ff1660ff1683866109149190611633565b61091e91906115d9565b61092891906115a8565b905060008183866109399190611633565b6109439190611633565b90506000846103e88361095691906115d9565b61096091906115a8565b90506000808860ff16600281106109a0577f4e487b7100000000000000000000000000000000000000000000000000000000600052603260045260246000fd5b0160009054906101000a900473ffffffffffffffffffffffffffffffffffffffff16905065456e6572677973ffffffffffffffffffffffffffffffffffffffff1663095ea7b382856040518363ffffffff1660e01b8152600401610a0592919061135c565b602060405180830381600087803b158015610a1f57600080fd5b505af1158015610a33573d6000803e3d6000fd5b505050506040513d601f19601f82011682018060405250810190610a57919061116d565b610a8d576040517f3865aa8f00000000000000000000000000000000000000000000000000000000815260040160405180910390fd5b6000600267ffffffffffffffff811115610ad0577f4e487b7100000000000000000000000000000000000000000000000000000000600052604160045260246000fd5b604051908082528060200260200182016040528015610afe5781602001602082028036833780820191505090505b50905065456e6572677981600081518110610b42577f4e487b7100000000000000000000000000000000000000000000000000000000600052603260045260246000fd5b602002602001019073ffffffffffffffffffffffffffffffffffffffff16908173ffffffffffffffffffffffffffffffffffffffff16815250508173ffffffffffffffffffffffffffffffffffffffff1663ad5c46486040518163ffffffff1660e01b815260040160206040518083038186803b158015610bc257600080fd5b505afa158015610bd6573d6000803e3d6000fd5b505050506040513d601f19601f82011682018060405250810190610bfa91906110a0565b81600181518110610c34577f4e487b7100000000000000000000000000000000000000000000000000000000600052603260045260246000fd5b602002602001019073ffffffffffffffffffffffffffffffffffffffff16908173ffffffffffffffffffffffffffffffffffffffff168152505060008273ffffffffffffffffffffffffffffffffffffffff166318cbafe58686858f426040518663ffffffff1660e01b8152600401610cb19594939291906113bb565b600060405180830381600087803b158015610ccb57600080fd5b505af1158015610cdf573d6000803e3d6000fd5b505050506040513d6000823e3d601f19601f82011682018060405250810190610d08919061112c565b90508a73ffffffffffffffffffffffffffffffffffffffff167f1c66e529e5eda665469886610afddba48a9cc0e5d92fb155ae84dab6c81d155d8a3a898c898760018951610d569190611633565b81518110610d8d577f4e487b7100000000000000000000000000000000000000000000000000000000600052603260045260246000fd5b6020026020010151604051610da79695949392919061144c565b60405180910390a25050505050505050505050565b600260009054906101000a900473ffffffffffffffffffffffffffffffffffffffff1681565b6000600360008473ffffffffffffffffffffffffffffffffffffffff1673ffffffffffffffffffffffffffffffffffffffff1681526020019081526020016000205490506000811415610e61576040517f154f963200000000000000000000000000000000000000000000000000000000815260040160405180910390fd5b600065456e6572677973ffffffffffffffffffffffffffffffffffffffff166370a08231856040518263ffffffff1660e01b8152600401610ea291906112e1565b60206040518083038186803b158015610eba57600080fd5b505afa158015610ece573d6000803e3d6000fd5b505050506040513d601f19601f82011682018060405250810190610ef291906111bf565b90508183610f009190611552565b811015610f48578083836040517f23a4ecce000000000000000000000000000000000000000000000000000000008152600401610f3f93929190611415565b60405180910390fd5b50505050565b6000610f61610f5c846114ed565b6114c8565b90508083825260208201905082856020860282011115610f8057600080fd5b60005b85811015610fb05781610f96888261104d565b845260208401935060208301925050600181019050610f83565b5050509392505050565b600081359050610fc9816117f7565b92915050565b600081519050610fde816117f7565b92915050565b600081359050610ff38161180e565b92915050565b600082601f83011261100a57600080fd5b815161101a848260208601610f4e565b91505092915050565b60008151905061103281611825565b92915050565b6000813590506110478161183c565b92915050565b60008151905061105c8161183c565b92915050565b60008135905061107181611853565b92915050565b60006020828403121561108957600080fd5b600061109784828501610fba565b91505092915050565b6000602082840312156110b257600080fd5b60006110c084828501610fcf565b91505092915050565b600080600080608085870312156110df57600080fd5b60006110ed87828801610fe4565b94505060206110fe87828801611062565b935050604061110f87828801611038565b925050606061112087828801611038565b91505092959194509250565b60006020828403121561113e57600080fd5b600082015167ffffffffffffffff81111561115857600080fd5b61116484828501610ff9565b91505092915050565b60006020828403121561117f57600080fd5b600061118d84828501611023565b91505092915050565b6000602082840312156111a857600080fd5b60006111b684828501611038565b91505092915050565b6000602082840312156111d157600080fd5b60006111df8482850161104d565b91505092915050565b6000602082840312156111fa57600080fd5b600061120884828501611062565b91505092915050565b600061121d8383611238565b60208301905092915050565b611232816116ce565b82525050565b61124181611667565b82525050565b61125081611667565b82525050565b600061126182611529565b61126b8185611541565b935061127683611519565b8060005b838110156112a757815161128e8882611211565b975061129983611534565b92505060018101905061127a565b5085935050505092915050565b6112bd816116e0565b82525050565b6112cc816116b7565b82525050565b6112db816116c1565b82525050565b60006020820190506112f66000830184611247565b92915050565b60006060820190506113116000830186611229565b61131e6020830185611247565b61132b60408301846112c3565b949350505050565b60006040820190506113486000830185611229565b61135560208301846112c3565b9392505050565b60006040820190506113716000830185611247565b61137e60208301846112c3565b9392505050565b600060208201905061139a60008301846112b4565b92915050565b60006020820190506113b560008301846112c3565b92915050565b600060a0820190506113d060008301886112c3565b6113dd60208301876112c3565b81810360408301526113ef8186611256565b90506113fe6060830185611229565b61140b60808301846112c3565b9695505050505050565b600060608201905061142a60008301866112c3565b61143760208301856112c3565b61144460408301846112c3565b949350505050565b600060c08201905061146160008301896112c3565b61146e60208301886112c3565b61147b60408301876112c3565b61148860608301866112c3565b61149560808301856112c3565b6114a260a08301846112c3565b979650505050505050565b60006020820190506114c260008301846112d2565b92915050565b60006114d26114e3565b90506114de8282611728565b919050565b6000604051905090565b600067ffffffffffffffff821115611508576115076117b7565b5b602082029050602081019050919050565b6000819050602082019050919050565b600081519050919050565b6000602082019050919050565b600082825260208201905092915050565b600061155d826116b7565b9150611568836116b7565b9250827fffffffffffffffffffffffffffffffffffffffffffffffffffffffffffffffff0382111561159d5761159c611759565b5b828201905092915050565b60006115b3826116b7565b91506115be836116b7565b9250826115ce576115cd611788565b5b828204905092915050565b60006115e4826116b7565b91506115ef836116b7565b9250817fffffffffffffffffffffffffffffffffffffffffffffffffffffffffffffffff048311821515161561162857611627611759565b5b828202905092915050565b600061163e826116b7565b9150611649836116b7565b92508282101561165c5761165b611759565b5b828203905092915050565b600061167282611697565b9050919050565b600061168482611697565b9050919050565b60008115159050919050565b600073ffffffffffffffffffffffffffffffffffffffff82169050919050565b6000819050919050565b600060ff82169050919050565b60006116d982611704565b9050919050565b60006116eb826116f2565b9050919050565b60006116fd82611697565b9050919050565b600061170f82611716565b9050919050565b600061172182611697565b9050919050565b611731826117e6565b810181811067ffffffffffffffff821117156117505761174f6117b7565b5b80604052505050565b7f4e487b7100000000000000000000000000000000000000000000000000000000600052601160045260246000fd5b7f4e487b7100000000000000000000000000000000000000000000000000000000600052601260045260246000fd5b7f4e487b7100000000000000000000000000000000000000000000000000000000600052604160045260246000fd5b6000601f19601f8301169050919050565b61180081611667565b811461180b57600080fd5b50565b61181781611679565b811461182257600080fd5b50565b61182e8161168b565b811461183957600080fd5b50565b611845816116b7565b811461185057600080fd5b50565b61185c816116c1565b811461186757600080fd5b5056fea264697066735822122068426b1d88f7142505520f8275b58d3638da4b1f86ca66c0f168cf7bed0edf2264736f6c63430008040033",
  "linkReferences": {},
  "deployedLinkReferences": {}
}