{
  "_format": "hh-sol-artifact-1",
  "contractName": "Trader",
  "sourceName": "contracts/Trader.sol",
  "abi": [
    {
      "inputs": [
        {
          "internalType": "address",
          "name": "routerAddress",
          "type": "address"
        }
      ],
      "stateMutability": "nonpayable",
      "type": "constructor"
    },
    {
      "inputs": [],
      "name": "ApproveFailed",
      "type": "error"
    },
    {
      "inputs": [
        {
          "internalType": "uint256",
          "name": "available",
          "type": "uint256"
        },
        {
          "internalType": "uint256",
          "name": "required",
          "type": "uint256"
        }
      ],
      "name": "InsufficientBalance",
      "type": "error"
    },
    {
      "inputs": [
        {
          "internalType": "uint256",
          "name": "triggerBalance",
          "type": "uint256"
        },
        {
          "internalType": "uint256",
          "name": "reserveBalance",
          "type": "uint256"
        }
      ],
      "name": "InvalidConfig",
      "type": "error"
    },
    {
      "inputs": [],
      "name": "InvalidReserve",
      "type": "error"
    },
    {
      "inputs": [],
      "name": "InvalidTrigger",
      "type": "error"
    },
    {
      "inputs": [
        {
          "internalType": "address",
          "name": "account",
          "type": "address"
        }
      ],
      "name": "NotOwner",
      "type": "error"
    },
    {
      "inputs": [
        {
          "internalType": "address",
          "name": "from",
          "type": "address"
        },
        {
          "internalType": "uint256",
          "name": "amount",
          "type": "uint256"
        }
      ],
      "name": "TransferFromFailed",
      "type": "error"
    },
    {
      "inputs": [],
      "name": "ZeroAddress",
      "type": "error"
    },
    {
      "anonymous": false,
      "inputs": [
        {
          "indexed": true,
          "internalType": "address",
          "name": "account",
          "type": "address"
        },
        {
          "indexed": false,
          "internalType": "uint256",
          "name": "triggerBalance",
          "type": "uint256"
        },
        {
          "indexed": false,
          "internalType": "uint256",
          "name": "reserveBalance",
          "type": "uint256"
        }
      ],
      "name": "Config",
      "type": "event"
    },
    {
      "anonymous": false,
      "inputs": [
        {
          "indexed": true,
          "internalType": "address",
          "name": "account",
          "type": "address"
        },
        {
          "indexed": false,
          "internalType": "uint256",
          "name": "withdrawAmount",
          "type": "uint256"
        },
        {
          "indexed": false,
          "internalType": "uint256",
          "name": "gasPrice",
          "type": "uint256"
        },
        {
          "indexed": false,
          "internalType": "uint256",
          "name": "protocolFee",
          "type": "uint256"
        },
        {
          "indexed": false,
          "internalType": "uint256",
          "name": "maxRate",
          "type": "uint256"
        },
        {
          "indexed": false,
          "internalType": "uint256",
          "name": "amountOutMin",
          "type": "uint256"
        },
        {
          "indexed": false,
          "internalType": "uint256",
          "name": "amountOut",
          "type": "uint256"
        }
      ],
      "name": "Swap",
      "type": "event"
    },
    {
      "anonymous": false,
      "inputs": [
        {
          "indexed": true,
          "internalType": "address",
          "name": "to",
          "type": "address"
        },
        {
          "indexed": false,
          "internalType": "uint256",
          "name": "amount",
          "type": "uint256"
        }
      ],
      "name": "Withdraw",
      "type": "event"
    },
    {
      "inputs": [],
      "name": "MAX_VTHO_WITHDRAWAL_AMOUNT",
      "outputs": [
        {
          "internalType": "uint256",
          "name": "",
          "type": "uint256"
        }
      ],
      "stateMutability": "view",
      "type": "function"
    },
    {
      "inputs": [],
      "name": "SWAP_GAS",
      "outputs": [
        {
          "internalType": "uint256",
          "name": "",
          "type": "uint256"
        }
      ],
      "stateMutability": "view",
      "type": "function"
    },
    {
      "inputs": [
        {
          "internalType": "address",
          "name": "",
          "type": "address"
        }
      ],
      "name": "addressToConfig",
      "outputs": [
        {
          "internalType": "uint256",
          "name": "triggerBalance",
          "type": "uint256"
        },
        {
          "internalType": "uint256",
          "name": "reserveBalance",
          "type": "uint256"
        }
      ],
      "stateMutability": "view",
      "type": "function"
    },
    {
      "inputs": [],
      "name": "owner",
      "outputs": [
        {
          "internalType": "address",
          "name": "",
          "type": "address"
        }
      ],
      "stateMutability": "view",
      "type": "function"
    },
    {
      "inputs": [],
      "name": "router",
      "outputs": [
        {
          "internalType": "contract IUniswapV2Router02",
          "name": "",
          "type": "address"
        }
      ],
      "stateMutability": "view",
      "type": "function"
    },
    {
      "inputs": [
        {
          "internalType": "uint256",
          "name": "triggerBalance",
          "type": "uint256"
        },
        {
          "internalType": "uint256",
          "name": "reserveBalance",
          "type": "uint256"
        }
      ],
      "name": "saveConfig",
      "outputs": [],
      "stateMutability": "nonpayable",
      "type": "function"
    },
    {
      "inputs": [
        {
          "internalType": "address payable",
          "name": "account",
          "type": "address"
        },
        {
          "internalType": "uint256",
          "name": "maxRate",
          "type": "uint256"
        }
      ],
      "name": "swap",
      "outputs": [],
      "stateMutability": "nonpayable",
      "type": "function"
    },
    {
      "inputs": [],
      "name": "vtho",
      "outputs": [
        {
          "internalType": "contract IEnergy",
          "name": "",
          "type": "address"
        }
      ],
      "stateMutability": "view",
      "type": "function"
    },
    {
      "inputs": [],
      "name": "withdraw",
      "outputs": [],
      "stateMutability": "nonpayable",
      "type": "function"
    }
  ],
  "bytecode": "0x60a060405265456e657267796000806101000a81548173ffffffffffffffffffffffffffffffffffffffff021916908373ffffffffffffffffffffffffffffffffffffffff1602179055503480156200005757600080fd5b506040516200199c3803806200199c83398181016040528101906200007d91906200017b565b600073ffffffffffffffffffffffffffffffffffffffff168173ffffffffffffffffffffffffffffffffffffffff161415620000e5576040517fd92e233d00000000000000000000000000000000000000000000000000000000815260040160405180910390fd5b3373ffffffffffffffffffffffffffffffffffffffff1660808173ffffffffffffffffffffffffffffffffffffffff1660601b8152505080600160006101000a81548173ffffffffffffffffffffffffffffffffffffffff021916908373ffffffffffffffffffffffffffffffffffffffff16021790555050620001f5565b6000815190506200017581620001db565b92915050565b6000602082840312156200018e57600080fd5b60006200019e8482850162000164565b91505092915050565b6000620001b482620001bb565b9050919050565b600073ffffffffffffffffffffffffffffffffffffffff82169050919050565b620001e681620001a7565b8114620001f257600080fd5b50565b60805160601c61177362000229600039600081816101a30152818161026f015281816103d6015261057501526117736000f3fe608060405234801561001057600080fd5b50600436106100935760003560e01c80639c70803b116100665780639c70803b1461010f578063d004f0f71461012b578063d4b0dbdd14610147578063e3e96a1d14610165578063f887ea401461018357610093565b80633ccfd60b1461009857806351fddfa9146100a2578063750f198a146100d35780638da5cb5b146100f1575b600080fd5b6100a06101a1565b005b6100bc60048036038101906100b79190610f7a565b6103a9565b6040516100ca9291906112b7565b60405180910390f35b6100db6103cd565b6040516100e8919061129c565b60405180910390f35b6100f96103d4565b60405161010691906111a7565b60405180910390f35b6101296004803603810190610124919061109b565b6103f8565b005b61014560048036038101906101409190610fcc565b610573565b005b61014f610e0f565b60405161015c9190611266565b60405180910390f35b61016d610e33565b60405161017a919061129c565b60405180910390f35b61018b610e40565b6040516101989190611281565b60405180910390f35b7f000000000000000000000000000000000000000000000000000000000000000073ffffffffffffffffffffffffffffffffffffffff163373ffffffffffffffffffffffffffffffffffffffff161461023157336040517f245aecd300000000000000000000000000000000000000000000000000000000815260040161022891906111a7565b60405180910390fd5b60008054906101000a900473ffffffffffffffffffffffffffffffffffffffff1673ffffffffffffffffffffffffffffffffffffffff1663a9059cbb7f000000000000000000000000000000000000000000000000000000000000000060008054906101000a900473ffffffffffffffffffffffffffffffffffffffff1673ffffffffffffffffffffffffffffffffffffffff166370a08231306040518263ffffffff1660e01b81526004016102e791906111a7565b60206040518083038186803b1580156102ff57600080fd5b505afa158015610313573d6000803e3d6000fd5b505050506040513d601f19601f820116820180604052508101906103379190611072565b6040518363ffffffff1660e01b815260040161035492919061123d565b602060405180830381600087803b15801561036e57600080fd5b505af1158015610382573d6000803e3d6000fd5b505050506040513d601f19601f820116820180604052508101906103a69190611049565b50565b60026020528060005260406000206000915090508060000154908060010154905082565b6204198581565b7f000000000000000000000000000000000000000000000000000000000000000081565b6000821415610433576040517fa768d7fd00000000000000000000000000000000000000000000000000000000815260040160405180910390fd5b600081141561046e576040517fe46aea0900000000000000000000000000000000000000000000000000000000815260040160405180910390fd5b8082116104b45781816040517fd40d76ca0000000000000000000000000000000000000000000000000000000081526004016104ab9291906112b7565b60405180910390fd5b604051806040016040528083815260200182815250600260003373ffffffffffffffffffffffffffffffffffffffff1673ffffffffffffffffffffffffffffffffffffffff16815260200190815260200160002060008201518160000155602082015181600101559050503373ffffffffffffffffffffffffffffffffffffffff167fb9bfe6dda7ddbc49d12288ef1e5d501c902797a01fc2bba856601b70e874cbb883836040516105679291906112b7565b60405180910390a25050565b7f000000000000000000000000000000000000000000000000000000000000000073ffffffffffffffffffffffffffffffffffffffff163373ffffffffffffffffffffffffffffffffffffffff161461060357336040517f245aecd30000000000000000000000000000000000000000000000000000000081526004016105fa91906111a7565b60405180910390fd5b6000600260008473ffffffffffffffffffffffffffffffffffffffff1673ffffffffffffffffffffffffffffffffffffffff16815260200190815260200160002060405180604001604052908160008201548152602001600182015481525050905060008060009054906101000a900473ffffffffffffffffffffffffffffffffffffffff1673ffffffffffffffffffffffffffffffffffffffff166370a08231856040518263ffffffff1660e01b81526004016106c191906111c2565b60206040518083038186803b1580156106d957600080fd5b505afa1580156106ed573d6000803e3d6000fd5b505050506040513d601f19601f820116820180604052508101906107119190611072565b9050600082600001511415610752576040517fa768d7fd00000000000000000000000000000000000000000000000000000000815260040160405180910390fd5b600082602001511415610791576040517fe46aea0900000000000000000000000000000000000000000000000000000000815260040160405180910390fd5b81600001518110156107e0578082600001516040517fcf4791810000000000000000000000000000000000000000000000000000000081526004016107d79291906112b7565b60405180910390fd5b60008260200151683635c9adc5dea000006107fb9190611425565b821015610817578260200151826108129190611506565b610822565b683635c9adc5dea000005b905060008054906101000a900473ffffffffffffffffffffffffffffffffffffffff1673ffffffffffffffffffffffffffffffffffffffff166323b872dd8630846040518463ffffffff1660e01b8152600401610881939291906111dd565b602060405180830381600087803b15801561089b57600080fd5b505af11580156108af573d6000803e3d6000fd5b505050506040513d601f19601f820116820180604052508101906108d39190611049565b6109165784816040517f841894cb00000000000000000000000000000000000000000000000000000000815260040161090d929190611214565b60405180910390fd5b6000620419853a61092791906114ac565b905060006103e86003838561093c9190611506565b61094691906114ac565b610950919061147b565b905060008183856109619190611506565b61096b9190611506565b90506000878261097b919061147b565b905060008054906101000a900473ffffffffffffffffffffffffffffffffffffffff1673ffffffffffffffffffffffffffffffffffffffff1663095ea7b3600160009054906101000a900473ffffffffffffffffffffffffffffffffffffffff16846040518363ffffffff1660e01b81526004016109fa92919061123d565b602060405180830381600087803b158015610a1457600080fd5b505af1158015610a28573d6000803e3d6000fd5b505050506040513d601f19601f82011682018060405250810190610a4c9190611049565b610a82576040517f3e3f8f7300000000000000000000000000000000000000000000000000000000815260040160405180910390fd5b6000600267ffffffffffffffff811115610ac5577f4e487b7100000000000000000000000000000000000000000000000000000000600052604160045260246000fd5b604051908082528060200260200182016040528015610af35781602001602082028036833780820191505090505b50905060008054906101000a900473ffffffffffffffffffffffffffffffffffffffff1681600081518110610b51577f4e487b7100000000000000000000000000000000000000000000000000000000600052603260045260246000fd5b602002602001019073ffffffffffffffffffffffffffffffffffffffff16908173ffffffffffffffffffffffffffffffffffffffff1681525050600160009054906101000a900473ffffffffffffffffffffffffffffffffffffffff1673ffffffffffffffffffffffffffffffffffffffff1663ad5c46486040518163ffffffff1660e01b815260040160206040518083038186803b158015610bf357600080fd5b505afa158015610c07573d6000803e3d6000fd5b505050506040513d601f19601f82011682018060405250810190610c2b9190610fa3565b81600181518110610c65577f4e487b7100000000000000000000000000000000000000000000000000000000600052603260045260246000fd5b602002602001019073ffffffffffffffffffffffffffffffffffffffff16908173ffffffffffffffffffffffffffffffffffffffff16815250506000600160009054906101000a900473ffffffffffffffffffffffffffffffffffffffff1673ffffffffffffffffffffffffffffffffffffffff166318cbafe58585858f426040518663ffffffff1660e01b8152600401610d049594939291906112e0565b600060405180830381600087803b158015610d1e57600080fd5b505af1158015610d32573d6000803e3d6000fd5b505050506040513d6000823e3d601f19601f82011682018060405250810190610d5b9190611008565b90508a73ffffffffffffffffffffffffffffffffffffffff167f1c66e529e5eda665469886610afddba48a9cc0e5d92fb155ae84dab6c81d155d883a888e888760018951610da99190611506565b81518110610de0577f4e487b7100000000000000000000000000000000000000000000000000000000600052603260045260246000fd5b6020026020010151604051610dfa9695949392919061133a565b60405180910390a25050505050505050505050565b60008054906101000a900473ffffffffffffffffffffffffffffffffffffffff1681565b683635c9adc5dea0000081565b600160009054906101000a900473ffffffffffffffffffffffffffffffffffffffff1681565b6000610e79610e74846113c0565b61139b565b90508083825260208201905082856020860282011115610e9857600080fd5b60005b85811015610ec85781610eae8882610f65565b845260208401935060208301925050600181019050610e9b565b5050509392505050565b600081359050610ee1816116e1565b92915050565b600081519050610ef6816116e1565b92915050565b600081359050610f0b816116f8565b92915050565b600082601f830112610f2257600080fd5b8151610f32848260208601610e66565b91505092915050565b600081519050610f4a8161170f565b92915050565b600081359050610f5f81611726565b92915050565b600081519050610f7481611726565b92915050565b600060208284031215610f8c57600080fd5b6000610f9a84828501610ed2565b91505092915050565b600060208284031215610fb557600080fd5b6000610fc384828501610ee7565b91505092915050565b60008060408385031215610fdf57600080fd5b6000610fed85828601610efc565b9250506020610ffe85828601610f50565b9150509250929050565b60006020828403121561101a57600080fd5b600082015167ffffffffffffffff81111561103457600080fd5b61104084828501610f11565b91505092915050565b60006020828403121561105b57600080fd5b600061106984828501610f3b565b91505092915050565b60006020828403121561108457600080fd5b600061109284828501610f65565b91505092915050565b600080604083850312156110ae57600080fd5b60006110bc85828601610f50565b92505060206110cd85828601610f50565b9150509250929050565b60006110e383836110fe565b60208301905092915050565b6110f881611594565b82525050565b6111078161153a565b82525050565b6111168161153a565b82525050565b6000611127826113fc565b6111318185611414565b935061113c836113ec565b8060005b8381101561116d57815161115488826110d7565b975061115f83611407565b925050600181019050611140565b5085935050505092915050565b611183816115a6565b82525050565b611192816115ca565b82525050565b6111a18161158a565b82525050565b60006020820190506111bc600083018461110d565b92915050565b60006020820190506111d760008301846110ef565b92915050565b60006060820190506111f260008301866110ef565b6111ff602083018561110d565b61120c6040830184611198565b949350505050565b600060408201905061122960008301856110ef565b6112366020830184611198565b9392505050565b6000604082019050611252600083018561110d565b61125f6020830184611198565b9392505050565b600060208201905061127b600083018461117a565b92915050565b60006020820190506112966000830184611189565b92915050565b60006020820190506112b16000830184611198565b92915050565b60006040820190506112cc6000830185611198565b6112d96020830184611198565b9392505050565b600060a0820190506112f56000830188611198565b6113026020830187611198565b8181036040830152611314818661111c565b905061132360608301856110ef565b6113306080830184611198565b9695505050505050565b600060c08201905061134f6000830189611198565b61135c6020830188611198565b6113696040830187611198565b6113766060830186611198565b6113836080830185611198565b61139060a0830184611198565b979650505050505050565b60006113a56113b6565b90506113b18282611612565b919050565b6000604051905090565b600067ffffffffffffffff8211156113db576113da6116a1565b5b602082029050602081019050919050565b6000819050602082019050919050565b600081519050919050565b6000602082019050919050565b600082825260208201905092915050565b60006114308261158a565b915061143b8361158a565b9250827fffffffffffffffffffffffffffffffffffffffffffffffffffffffffffffffff038211156114705761146f611643565b5b828201905092915050565b60006114868261158a565b91506114918361158a565b9250826114a1576114a0611672565b5b828204905092915050565b60006114b78261158a565b91506114c28361158a565b9250817fffffffffffffffffffffffffffffffffffffffffffffffffffffffffffffffff04831182151516156114fb576114fa611643565b5b828202905092915050565b60006115118261158a565b915061151c8361158a565b92508282101561152f5761152e611643565b5b828203905092915050565b60006115458261156a565b9050919050565b60006115578261156a565b9050919050565b60008115159050919050565b600073ffffffffffffffffffffffffffffffffffffffff82169050919050565b6000819050919050565b600061159f826115ee565b9050919050565b60006115b1826115b8565b9050919050565b60006115c38261156a565b9050919050565b60006115d5826115dc565b9050919050565b60006115e78261156a565b9050919050565b60006115f982611600565b9050919050565b600061160b8261156a565b9050919050565b61161b826116d0565b810181811067ffffffffffffffff8211171561163a576116396116a1565b5b80604052505050565b7f4e487b7100000000000000000000000000000000000000000000000000000000600052601160045260246000fd5b7f4e487b7100000000000000000000000000000000000000000000000000000000600052601260045260246000fd5b7f4e487b7100000000000000000000000000000000000000000000000000000000600052604160045260246000fd5b6000601f19601f8301169050919050565b6116ea8161153a565b81146116f557600080fd5b50565b6117018161154c565b811461170c57600080fd5b50565b6117188161155e565b811461172357600080fd5b50565b61172f8161158a565b811461173a57600080fd5b5056fea2646970667358221220b6e39cd6c1dff4e4666fee7a3e223ba71a0015ff73521bd4dddb51ac3523aec664736f6c63430008040033",
  "linkReferences": {},
  "deployedLinkReferences": {}
}