{
  "_format": "hh-sol-artifact-1",
  "contractName": "Trader",
  "sourceName": "contracts/Trader.sol",
  "abi": [
    {
      "inputs": [
        {
          "internalType": "address[]",
          "name": "routers_",
          "type": "address[]"
        }
      ],
      "stateMutability": "nonpayable",
      "type": "constructor"
    },
    {
      "inputs": [],
      "name": "Trader__ApproveFailed",
      "type": "error"
    },
    {
      "inputs": [
        {
          "internalType": "uint256",
          "name": "available",
          "type": "uint256"
        },
        {
          "internalType": "uint256",
          "name": "required",
          "type": "uint256"
        }
      ],
      "name": "Trader__InsufficientBalance",
      "type": "error"
    },
    {
      "inputs": [
        {
          "internalType": "uint256",
          "name": "triggerBalance",
          "type": "uint256"
        },
        {
          "internalType": "uint256",
          "name": "reserveBalance",
          "type": "uint256"
        }
      ],
      "name": "Trader__InvalidConfig",
      "type": "error"
    },
    {
      "inputs": [],
      "name": "Trader__InvalidFeeMultiplier",
      "type": "error"
    },
    {
      "inputs": [],
      "name": "Trader__InvalidReserve",
      "type": "error"
    },
    {
      "inputs": [],
      "name": "Trader__InvalidTrigger",
      "type": "error"
    },
    {
      "inputs": [
        {
          "internalType": "address",
          "name": "account",
          "type": "address"
        }
      ],
      "name": "Trader__NotAdmin",
      "type": "error"
    },
    {
      "inputs": [
        {
          "internalType": "address",
          "name": "account",
          "type": "address"
        }
      ],
      "name": "Trader__NotOwner",
      "type": "error"
    },
    {
      "inputs": [
        {
          "internalType": "address",
          "name": "from",
          "type": "address"
        },
        {
          "internalType": "uint256",
          "name": "amount",
          "type": "uint256"
        }
      ],
      "name": "Trader__TransferFromFailed",
      "type": "error"
    },
    {
      "inputs": [],
      "name": "Trader__ZeroAddress",
      "type": "error"
    },
    {
      "anonymous": false,
      "inputs": [
        {
          "indexed": true,
          "internalType": "address",
          "name": "account",
          "type": "address"
        },
        {
          "indexed": false,
          "internalType": "uint256",
          "name": "triggerBalance",
          "type": "uint256"
        },
        {
          "indexed": false,
          "internalType": "uint256",
          "name": "reserveBalance",
          "type": "uint256"
        }
      ],
      "name": "Config",
      "type": "event"
    },
    {
      "anonymous": false,
      "inputs": [
        {
          "indexed": true,
          "internalType": "address",
          "name": "account",
          "type": "address"
        },
        {
          "indexed": false,
          "internalType": "uint256",
          "name": "withdrawAmount",
          "type": "uint256"
        },
        {
          "indexed": false,
          "internalType": "uint256",
          "name": "gasPrice",
          "type": "uint256"
        },
        {
          "indexed": false,
          "internalType": "uint256",
          "name": "protocolFee",
          "type": "uint256"
        },
        {
          "indexed": false,
          "internalType": "uint256",
          "name": "maxRate",
          "type": "uint256"
        },
        {
          "indexed": false,
          "internalType": "uint256",
          "name": "amountOutMin",
          "type": "uint256"
        },
        {
          "indexed": false,
          "internalType": "uint256",
          "name": "amountOut",
          "type": "uint256"
        }
      ],
      "name": "Swap",
      "type": "event"
    },
    {
      "inputs": [],
      "name": "MAX_WITHDRAW_AMOUNT",
      "outputs": [
        {
          "internalType": "uint256",
          "name": "",
          "type": "uint256"
        }
      ],
      "stateMutability": "view",
      "type": "function"
    },
    {
      "inputs": [],
      "name": "SWAP_GAS",
      "outputs": [
        {
          "internalType": "uint256",
          "name": "",
          "type": "uint256"
        }
      ],
      "stateMutability": "view",
      "type": "function"
    },
    {
      "inputs": [
        {
          "internalType": "address",
          "name": "",
          "type": "address"
        }
      ],
      "name": "addressToConfig",
      "outputs": [
        {
          "internalType": "uint256",
          "name": "triggerBalance",
          "type": "uint256"
        },
        {
          "internalType": "uint256",
          "name": "reserveBalance",
          "type": "uint256"
        }
      ],
      "stateMutability": "view",
      "type": "function"
    },
    {
      "inputs": [],
      "name": "admin",
      "outputs": [
        {
          "internalType": "address",
          "name": "",
          "type": "address"
        }
      ],
      "stateMutability": "view",
      "type": "function"
    },
    {
      "inputs": [],
      "name": "feeMultiplier",
      "outputs": [
        {
          "internalType": "uint8",
          "name": "",
          "type": "uint8"
        }
      ],
      "stateMutability": "view",
      "type": "function"
    },
    {
      "inputs": [],
      "name": "owner",
      "outputs": [
        {
          "internalType": "address",
          "name": "",
          "type": "address"
        }
      ],
      "stateMutability": "view",
      "type": "function"
    },
    {
      "inputs": [
        {
          "internalType": "uint256",
          "name": "",
          "type": "uint256"
        }
      ],
      "name": "routers",
      "outputs": [
        {
          "internalType": "address",
          "name": "",
          "type": "address"
        }
      ],
      "stateMutability": "view",
      "type": "function"
    },
    {
      "inputs": [
        {
          "internalType": "uint256",
          "name": "triggerBalance",
          "type": "uint256"
        },
        {
          "internalType": "uint256",
          "name": "reserveBalance",
          "type": "uint256"
        }
      ],
      "name": "saveConfig",
      "outputs": [],
      "stateMutability": "nonpayable",
      "type": "function"
    },
    {
      "inputs": [
        {
          "internalType": "address",
          "name": "newAdmin",
          "type": "address"
        }
      ],
      "name": "setAdmin",
      "outputs": [],
      "stateMutability": "nonpayable",
      "type": "function"
    },
    {
      "inputs": [
        {
          "internalType": "uint8",
          "name": "newFeeMultiplier",
          "type": "uint8"
        }
      ],
      "name": "setFeeMultiplier",
      "outputs": [],
      "stateMutability": "nonpayable",
      "type": "function"
    },
    {
      "inputs": [
        {
          "internalType": "address payable",
          "name": "account",
          "type": "address"
        },
        {
          "internalType": "uint8",
          "name": "routerIndex",
          "type": "uint8"
        },
        {
          "internalType": "uint256",
          "name": "maxRate",
          "type": "uint256"
        }
      ],
      "name": "swap",
      "outputs": [],
      "stateMutability": "nonpayable",
      "type": "function"
    },
    {
      "inputs": [],
      "name": "vtho",
      "outputs": [
        {
          "internalType": "contract IEnergy",
          "name": "",
          "type": "address"
        }
      ],
      "stateMutability": "view",
      "type": "function"
    },
    {
      "inputs": [],
      "name": "withdrawFees",
      "outputs": [],
      "stateMutability": "nonpayable",
      "type": "function"
    }
  ],
  "bytecode": "0x60a0604052600267ffffffffffffffff81111562000046577f4e487b7100000000000000000000000000000000000000000000000000000000600052604160045260246000fd5b604051908082528060200260200182016040528015620000755781602001602082028036833780820191505090505b50600090805190602001906200008d929190620002b9565b50601e600160146101000a81548160ff021916908360ff160217905550348015620000b757600080fd5b50604051620020c7380380620020c78339818101604052810190620000dd919062000420565b3373ffffffffffffffffffffffffffffffffffffffff1660808173ffffffffffffffffffffffffffffffffffffffff1660601b8152505060005b60028160ff161015620002b157600073ffffffffffffffffffffffffffffffffffffffff16828260ff168151811062000179577f4e487b7100000000000000000000000000000000000000000000000000000000600052603260045260246000fd5b602002602001015173ffffffffffffffffffffffffffffffffffffffff161415620001d0576040517f25b99e3d00000000000000000000000000000000000000000000000000000000815260040160405180910390fd5b818160ff16815181106200020d577f4e487b7100000000000000000000000000000000000000000000000000000000600052603260045260246000fd5b602002602001015160008260ff168154811062000253577f4e487b7100000000000000000000000000000000000000000000000000000000600052603260045260246000fd5b9060005260206000200160006101000a81548173ffffffffffffffffffffffffffffffffffffffff021916908373ffffffffffffffffffffffffffffffffffffffff1602179055508080620002a89062000534565b91505062000117565b5050620005ec565b82805482825590600052602060002090810192821562000335579160200282015b82811115620003345782518260006101000a81548173ffffffffffffffffffffffffffffffffffffffff021916908373ffffffffffffffffffffffffffffffffffffffff16021790555091602001919060010190620002da565b5b50905062000344919062000348565b5090565b5b808211156200036357600081600090555060010162000349565b5090565b60006200037e62000378846200048e565b62000465565b905080838252602082019050828560208602820111156200039e57600080fd5b60005b85811015620003d25781620003b78882620003dc565b845260208401935060208301925050600181019050620003a1565b5050509392505050565b600081519050620003ed81620005d2565b92915050565b600082601f8301126200040557600080fd5b81516200041784826020860162000367565b91505092915050565b6000602082840312156200043357600080fd5b600082015167ffffffffffffffff8111156200044e57600080fd5b6200045c84828501620003f3565b91505092915050565b60006200047162000484565b90506200047f8282620004fe565b919050565b6000604051905090565b600067ffffffffffffffff821115620004ac57620004ab62000592565b5b602082029050602081019050919050565b6000620004ca82620004d1565b9050919050565b600073ffffffffffffffffffffffffffffffffffffffff82169050919050565b600060ff82169050919050565b6200050982620005c1565b810181811067ffffffffffffffff821117156200052b576200052a62000592565b5b80604052505050565b60006200054182620004f1565b915060ff82141562000558576200055762000563565b5b600182019050919050565b7f4e487b7100000000000000000000000000000000000000000000000000000000600052601160045260246000fd5b7f4e487b7100000000000000000000000000000000000000000000000000000000600052604160045260246000fd5b6000601f19601f8301169050919050565b620005dd81620004bd565b8114620005e957600080fd5b50565b60805160601c611aa0620006276000396000818161027201528181610324015281816104a90152818161058401526106700152611aa06000f3fe608060405234801561001057600080fd5b50600436106100cf5760003560e01c80638aee4cfe1161008c578063cd7d82d211610066578063cd7d82d2146101ed578063d4b0dbdd14610209578063e5a70ef714610227578063f851a44014610245576100cf565b80638aee4cfe146101975780638da5cb5b146101b35780639c70803b146101d1576100cf565b806344ba0ea2146100d4578063476343ee146100f25780634e9c1118146100fc57806351fddfa91461012c578063704b6c021461015d578063750f198a14610179575b600080fd5b6100dc610263565b6040516100e991906115ae565b60405180910390f35b6100fa610270565b005b6101166004803603810190610111919061134d565b610444565b60405161012391906114d4565b60405180910390f35b61014660048036038101906101419190611242565b610483565b6040516101549291906115c9565b60405180910390f35b61017760048036038101906101729190611242565b6104a7565b005b61018161057b565b60405161018e91906115ae565b60405180910390f35b6101b160048036038101906101ac91906113db565b610582565b005b6101bb61066e565b6040516101c891906114d4565b60405180910390f35b6101eb60048036038101906101e6919061139f565b610692565b005b61020760048036038101906102029190611294565b61080d565b005b610211611001565b60405161021e9190611593565b60405180910390f35b61022f61100b565b60405161023c91906116ad565b60405180910390f35b61024d61101e565b60405161025a91906114d4565b60405180910390f35b683635c9adc5dea0000081565b7f000000000000000000000000000000000000000000000000000000000000000073ffffffffffffffffffffffffffffffffffffffff163373ffffffffffffffffffffffffffffffffffffffff161461030057336040517f240d93470000000000000000000000000000000000000000000000000000000081526004016102f791906114d4565b60405180910390fd5b65456e6572677973ffffffffffffffffffffffffffffffffffffffff1663a9059cbb7f000000000000000000000000000000000000000000000000000000000000000065456e6572677973ffffffffffffffffffffffffffffffffffffffff166370a08231306040518263ffffffff1660e01b815260040161038291906114d4565b60206040518083038186803b15801561039a57600080fd5b505afa1580156103ae573d6000803e3d6000fd5b505050506040513d601f19601f820116820180604052508101906103d29190611376565b6040518363ffffffff1660e01b81526004016103ef92919061156a565b602060405180830381600087803b15801561040957600080fd5b505af115801561041d573d6000803e3d6000fd5b505050506040513d601f19601f820116820180604052508101906104419190611324565b50565b6000818154811061045457600080fd5b906000526020600020016000915054906101000a900473ffffffffffffffffffffffffffffffffffffffff1681565b60026020528060005260406000206000915090508060000154908060010154905082565b7f000000000000000000000000000000000000000000000000000000000000000073ffffffffffffffffffffffffffffffffffffffff163373ffffffffffffffffffffffffffffffffffffffff161461053757336040517f240d934700000000000000000000000000000000000000000000000000000000815260040161052e91906114d4565b60405180910390fd5b80600160006101000a81548173ffffffffffffffffffffffffffffffffffffffff021916908373ffffffffffffffffffffffffffffffffffffffff16021790555050565b6204198581565b7f000000000000000000000000000000000000000000000000000000000000000073ffffffffffffffffffffffffffffffffffffffff163373ffffffffffffffffffffffffffffffffffffffff161461061257336040517f240d934700000000000000000000000000000000000000000000000000000000815260040161060991906114d4565b60405180910390fd5b601e8160ff161115610650576040517fa6f2a15000000000000000000000000000000000000000000000000000000000815260040160405180910390fd5b80600160146101000a81548160ff021916908360ff16021790555050565b7f000000000000000000000000000000000000000000000000000000000000000081565b60008214156106cd576040517f87337bca00000000000000000000000000000000000000000000000000000000815260040160405180910390fd5b6000811415610708576040517f154f963200000000000000000000000000000000000000000000000000000000815260040160405180910390fd5b80821161074e5781816040517f6002f64f0000000000000000000000000000000000000000000000000000000081526004016107459291906115c9565b60405180910390fd5b604051806040016040528083815260200182815250600260003373ffffffffffffffffffffffffffffffffffffffff1673ffffffffffffffffffffffffffffffffffffffff16815260200190815260200160002060008201518160000155602082015181600101559050503373ffffffffffffffffffffffffffffffffffffffff167fb9bfe6dda7ddbc49d12288ef1e5d501c902797a01fc2bba856601b70e874cbb883836040516108019291906115c9565b60405180910390a25050565b600160009054906101000a900473ffffffffffffffffffffffffffffffffffffffff1673ffffffffffffffffffffffffffffffffffffffff163373ffffffffffffffffffffffffffffffffffffffff161461089f57336040517fa1d67c8900000000000000000000000000000000000000000000000000000000815260040161089691906114d4565b60405180910390fd5b6000600260008573ffffffffffffffffffffffffffffffffffffffff1673ffffffffffffffffffffffffffffffffffffffff168152602001908152602001600020604051806040016040529081600082015481526020016001820154815250509050600081600001511415610940576040517f87337bca00000000000000000000000000000000000000000000000000000000815260040160405180910390fd5b60008160200151141561097f576040517f154f963200000000000000000000000000000000000000000000000000000000815260040160405180910390fd5b600065456e6572677973ffffffffffffffffffffffffffffffffffffffff166370a08231866040518263ffffffff1660e01b81526004016109c091906114ef565b60206040518083038186803b1580156109d857600080fd5b505afa1580156109ec573d6000803e3d6000fd5b505050506040513d601f19601f82011682018060405250810190610a109190611376565b90508160000151811015610a61578082600001516040517fdf757e5c000000000000000000000000000000000000000000000000000000008152600401610a589291906115c9565b60405180910390fd5b60008260200151683635c9adc5dea00000610a7c9190611752565b821015610a9857826020015182610a939190611833565b610aa3565b683635c9adc5dea000005b905065456e6572677973ffffffffffffffffffffffffffffffffffffffff166323b872dd8730846040518463ffffffff1660e01b8152600401610ae89392919061150a565b602060405180830381600087803b158015610b0257600080fd5b505af1158015610b16573d6000803e3d6000fd5b505050506040513d601f19601f82011682018060405250810190610b3a9190611324565b610b7d5785816040517f789d28a6000000000000000000000000000000000000000000000000000000008152600401610b74929190611541565b60405180910390fd5b6000610b898286611044565b90506000808760ff1681548110610bc9577f4e487b7100000000000000000000000000000000000000000000000000000000600052603260045260246000fd5b9060005260206000200160009054906101000a900473ffffffffffffffffffffffffffffffffffffffff16905065456e6572677973ffffffffffffffffffffffffffffffffffffffff1663095ea7b38284604001516040518363ffffffff1660e01b8152600401610c3b92919061156a565b602060405180830381600087803b158015610c5557600080fd5b505af1158015610c69573d6000803e3d6000fd5b505050506040513d601f19601f82011682018060405250810190610c8d9190611324565b610cc3576040517f3865aa8f00000000000000000000000000000000000000000000000000000000815260040160405180910390fd5b6000600267ffffffffffffffff811115610d06577f4e487b7100000000000000000000000000000000000000000000000000000000600052604160045260246000fd5b604051908082528060200260200182016040528015610d345781602001602082028036833780820191505090505b50905065456e6572677981600081518110610d78577f4e487b7100000000000000000000000000000000000000000000000000000000600052603260045260246000fd5b602002602001019073ffffffffffffffffffffffffffffffffffffffff16908173ffffffffffffffffffffffffffffffffffffffff16815250508173ffffffffffffffffffffffffffffffffffffffff1663ad5c46486040518163ffffffff1660e01b815260040160206040518083038186803b158015610df857600080fd5b505afa158015610e0c573d6000803e3d6000fd5b505050506040513d601f19601f82011682018060405250810190610e30919061126b565b81600181518110610e6a577f4e487b7100000000000000000000000000000000000000000000000000000000600052603260045260246000fd5b602002602001019073ffffffffffffffffffffffffffffffffffffffff16908173ffffffffffffffffffffffffffffffffffffffff168152505060008273ffffffffffffffffffffffffffffffffffffffff166318cbafe585604001518660600151858e426040518663ffffffff1660e01b8152600401610eef9594939291906115f2565b600060405180830381600087803b158015610f0957600080fd5b505af1158015610f1d573d6000803e3d6000fd5b505050506040513d6000823e3d601f19601f82011682018060405250810190610f4691906112e3565b90508973ffffffffffffffffffffffffffffffffffffffff167f1c66e529e5eda665469886610afddba48a9cc0e5d92fb155ae84dab6c81d155d863a87602001518c89606001518760018951610f9c9190611833565b81518110610fd3577f4e487b7100000000000000000000000000000000000000000000000000000000600052603260045260246000fd5b6020026020010151604051610fed9695949392919061164c565b60405180910390a250505050505050505050565b65456e6572677981565b600160149054906101000a900460ff1681565b600160009054906101000a900473ffffffffffffffffffffffffffffffffffffffff1681565b61104c6110f1565b60003a6204198561105d91906117d9565b90506000612710600160149054906101000a900460ff1660ff1683876110839190611833565b61108d91906117d9565b61109791906117a8565b905060008183876110a89190611833565b6110b29190611833565b9050600085826110c291906117a8565b905060405180608001604052808581526020018481526020018381526020018281525094505050505092915050565b6040518060800160405280600081526020016000815260200160008152602001600081525090565b600061112c611127846116ed565b6116c8565b9050808382526020820190508285602086028201111561114b57600080fd5b60005b8581101561117b57816111618882611218565b84526020840193506020830192505060018101905061114e565b5050509392505050565b600081359050611194816119f7565b92915050565b6000815190506111a9816119f7565b92915050565b6000813590506111be81611a0e565b92915050565b600082601f8301126111d557600080fd5b81516111e5848260208601611119565b91505092915050565b6000815190506111fd81611a25565b92915050565b60008135905061121281611a3c565b92915050565b60008151905061122781611a3c565b92915050565b60008135905061123c81611a53565b92915050565b60006020828403121561125457600080fd5b600061126284828501611185565b91505092915050565b60006020828403121561127d57600080fd5b600061128b8482850161119a565b91505092915050565b6000806000606084860312156112a957600080fd5b60006112b7868287016111af565b93505060206112c88682870161122d565b92505060406112d986828701611203565b9150509250925092565b6000602082840312156112f557600080fd5b600082015167ffffffffffffffff81111561130f57600080fd5b61131b848285016111c4565b91505092915050565b60006020828403121561133657600080fd5b6000611344848285016111ee565b91505092915050565b60006020828403121561135f57600080fd5b600061136d84828501611203565b91505092915050565b60006020828403121561138857600080fd5b600061139684828501611218565b91505092915050565b600080604083850312156113b257600080fd5b60006113c085828601611203565b92505060206113d185828601611203565b9150509250929050565b6000602082840312156113ed57600080fd5b60006113fb8482850161122d565b91505092915050565b6000611410838361142b565b60208301905092915050565b611425816118ce565b82525050565b61143481611867565b82525050565b61144381611867565b82525050565b600061145482611729565b61145e8185611741565b935061146983611719565b8060005b8381101561149a5781516114818882611404565b975061148c83611734565b92505060018101905061146d565b5085935050505092915050565b6114b0816118e0565b82525050565b6114bf816118b7565b82525050565b6114ce816118c1565b82525050565b60006020820190506114e9600083018461143a565b92915050565b6000602082019050611504600083018461141c565b92915050565b600060608201905061151f600083018661141c565b61152c602083018561143a565b61153960408301846114b6565b949350505050565b6000604082019050611556600083018561141c565b61156360208301846114b6565b9392505050565b600060408201905061157f600083018561143a565b61158c60208301846114b6565b9392505050565b60006020820190506115a860008301846114a7565b92915050565b60006020820190506115c360008301846114b6565b92915050565b60006040820190506115de60008301856114b6565b6115eb60208301846114b6565b9392505050565b600060a08201905061160760008301886114b6565b61161460208301876114b6565b81810360408301526116268186611449565b9050611635606083018561141c565b61164260808301846114b6565b9695505050505050565b600060c08201905061166160008301896114b6565b61166e60208301886114b6565b61167b60408301876114b6565b61168860608301866114b6565b61169560808301856114b6565b6116a260a08301846114b6565b979650505050505050565b60006020820190506116c260008301846114c5565b92915050565b60006116d26116e3565b90506116de8282611928565b919050565b6000604051905090565b600067ffffffffffffffff821115611708576117076119b7565b5b602082029050602081019050919050565b6000819050602082019050919050565b600081519050919050565b6000602082019050919050565b600082825260208201905092915050565b600061175d826118b7565b9150611768836118b7565b9250827fffffffffffffffffffffffffffffffffffffffffffffffffffffffffffffffff0382111561179d5761179c611959565b5b828201905092915050565b60006117b3826118b7565b91506117be836118b7565b9250826117ce576117cd611988565b5b828204905092915050565b60006117e4826118b7565b91506117ef836118b7565b9250817fffffffffffffffffffffffffffffffffffffffffffffffffffffffffffffffff048311821515161561182857611827611959565b5b828202905092915050565b600061183e826118b7565b9150611849836118b7565b92508282101561185c5761185b611959565b5b828203905092915050565b600061187282611897565b9050919050565b600061188482611897565b9050919050565b60008115159050919050565b600073ffffffffffffffffffffffffffffffffffffffff82169050919050565b6000819050919050565b600060ff82169050919050565b60006118d982611904565b9050919050565b60006118eb826118f2565b9050919050565b60006118fd82611897565b9050919050565b600061190f82611916565b9050919050565b600061192182611897565b9050919050565b611931826119e6565b810181811067ffffffffffffffff821117156119505761194f6119b7565b5b80604052505050565b7f4e487b7100000000000000000000000000000000000000000000000000000000600052601160045260246000fd5b7f4e487b7100000000000000000000000000000000000000000000000000000000600052601260045260246000fd5b7f4e487b7100000000000000000000000000000000000000000000000000000000600052604160045260246000fd5b6000601f19601f8301169050919050565b611a0081611867565b8114611a0b57600080fd5b50565b611a1781611879565b8114611a2257600080fd5b50565b611a2e8161188b565b8114611a3957600080fd5b50565b611a45816118b7565b8114611a5057600080fd5b50565b611a5c816118c1565b8114611a6757600080fd5b5056fea264697066735822122016431dbcff12bca4b6a373de9da3a2f11ea5569487241c544d359525f984e87f64736f6c63430008040033",
  "linkReferences": {},
  "deployedLinkReferences": {}
}