{
  "_format": "hh-sol-artifact-1",
  "contractName": "Trader",
  "sourceName": "contracts/Trader.sol",
  "abi": [
    {
      "inputs": [
        {
          "internalType": "address",
          "name": "vvet_",
          "type": "address"
        },
        {
          "internalType": "address[2]",
          "name": "routers_",
          "type": "address[2]"
        }
      ],
      "stateMutability": "nonpayable",
      "type": "constructor"
    },
    {
      "anonymous": false,
      "inputs": [
        {
          "indexed": true,
          "internalType": "address",
          "name": "account",
          "type": "address"
        },
        {
          "indexed": false,
          "internalType": "uint256",
          "name": "reserveBalance",
          "type": "uint256"
        }
      ],
      "name": "Config",
      "type": "event"
    },
    {
      "anonymous": false,
      "inputs": [
        {
          "indexed": true,
          "internalType": "address",
          "name": "account",
          "type": "address"
        },
        {
          "indexed": false,
          "internalType": "uint256",
          "name": "withdrawAmount",
          "type": "uint256"
        },
        {
          "indexed": false,
          "internalType": "uint256",
          "name": "gasPrice",
          "type": "uint256"
        },
        {
          "indexed": false,
          "internalType": "uint256",
          "name": "feeMultiplier",
          "type": "uint256"
        },
        {
          "indexed": false,
          "internalType": "uint256",
          "name": "protocolFee",
          "type": "uint256"
        },
        {
          "indexed": false,
          "internalType": "uint256",
          "name": "amountIn",
          "type": "uint256"
        },
        {
          "indexed": false,
          "internalType": "uint256",
          "name": "amountOutMin",
          "type": "uint256"
        },
        {
          "indexed": false,
          "internalType": "uint256",
          "name": "amountOutExpected",
          "type": "uint256"
        },
        {
          "indexed": false,
          "internalType": "uint256",
          "name": "amountOutReceived",
          "type": "uint256"
        }
      ],
      "name": "Swap",
      "type": "event"
    },
    {
      "inputs": [],
      "name": "SWAP_GAS",
      "outputs": [
        {
          "internalType": "uint256",
          "name": "",
          "type": "uint256"
        }
      ],
      "stateMutability": "view",
      "type": "function"
    },
    {
      "inputs": [],
      "name": "admin",
      "outputs": [
        {
          "internalType": "address",
          "name": "",
          "type": "address"
        }
      ],
      "stateMutability": "view",
      "type": "function"
    },
    {
      "inputs": [],
      "name": "baseGasPrice",
      "outputs": [
        {
          "internalType": "uint256",
          "name": "",
          "type": "uint256"
        }
      ],
      "stateMutability": "view",
      "type": "function"
    },
    {
      "inputs": [],
      "name": "feeMultiplier",
      "outputs": [
        {
          "internalType": "uint8",
          "name": "",
          "type": "uint8"
        }
      ],
      "stateMutability": "view",
      "type": "function"
    },
    {
      "inputs": [],
      "name": "fetchBaseGasPrice",
      "outputs": [],
      "stateMutability": "nonpayable",
      "type": "function"
    },
    {
      "inputs": [],
      "name": "owner",
      "outputs": [
        {
          "internalType": "address",
          "name": "",
          "type": "address"
        }
      ],
      "stateMutability": "view",
      "type": "function"
    },
    {
      "inputs": [],
      "name": "params",
      "outputs": [
        {
          "internalType": "contract IParams",
          "name": "",
          "type": "address"
        }
      ],
      "stateMutability": "view",
      "type": "function"
    },
    {
      "inputs": [
        {
          "internalType": "address",
          "name": "",
          "type": "address"
        }
      ],
      "name": "reserves",
      "outputs": [
        {
          "internalType": "uint256",
          "name": "",
          "type": "uint256"
        }
      ],
      "stateMutability": "view",
      "type": "function"
    },
    {
      "inputs": [
        {
          "internalType": "uint256",
          "name": "",
          "type": "uint256"
        }
      ],
      "name": "routers",
      "outputs": [
        {
          "internalType": "address",
          "name": "",
          "type": "address"
        }
      ],
      "stateMutability": "view",
      "type": "function"
    },
    {
      "inputs": [
        {
          "internalType": "uint256",
          "name": "reserveBalance",
          "type": "uint256"
        }
      ],
      "name": "saveConfig",
      "outputs": [],
      "stateMutability": "nonpayable",
      "type": "function"
    },
    {
      "inputs": [
        {
          "internalType": "address",
          "name": "newAdmin",
          "type": "address"
        }
      ],
      "name": "setAdmin",
      "outputs": [],
      "stateMutability": "nonpayable",
      "type": "function"
    },
    {
      "inputs": [
        {
          "internalType": "uint8",
          "name": "newFeeMultiplier",
          "type": "uint8"
        }
      ],
      "name": "setFeeMultiplier",
      "outputs": [],
      "stateMutability": "nonpayable",
      "type": "function"
    },
    {
      "inputs": [
        {
          "internalType": "address payable",
          "name": "account",
          "type": "address"
        },
        {
          "internalType": "uint256",
          "name": "withdrawAmount",
          "type": "uint256"
        },
        {
          "internalType": "uint256",
          "name": "amountOutMin",
          "type": "uint256"
        }
      ],
      "name": "swap",
      "outputs": [],
      "stateMutability": "nonpayable",
      "type": "function"
    },
    {
      "inputs": [],
      "name": "vtho",
      "outputs": [
        {
          "internalType": "contract IEnergy",
          "name": "",
          "type": "address"
        }
      ],
      "stateMutability": "view",
      "type": "function"
    },
    {
      "inputs": [],
      "name": "vvet",
      "outputs": [
        {
          "internalType": "address",
          "name": "",
          "type": "address"
        }
      ],
      "stateMutability": "view",
      "type": "function"
    },
    {
      "inputs": [],
      "name": "withdrawFees",
      "outputs": [],
      "stateMutability": "nonpayable",
      "type": "function"
    }
  ],
  "bytecode": "0x60c0604052601e600360006101000a81548160ff021916908360ff1602179055503480156200002d57600080fd5b5060405162002503380380620025038339818101604052810190620000539190620003fa565b8173ffffffffffffffffffffffffffffffffffffffff1660808173ffffffffffffffffffffffffffffffffffffffff16815250508060019060026200009a92919062000182565b503373ffffffffffffffffffffffffffffffffffffffff1660a08173ffffffffffffffffffffffffffffffffffffffff1681525050620000df620000e760201b60201c565b505062000525565b65506172616d7373ffffffffffffffffffffffffffffffffffffffff16638eaa6ac06d626173652d6761732d70726963656040518263ffffffff1660e01b81526004016200013691906200049b565b602060405180830381865afa15801562000154573d6000803e3d6000fd5b505050506040513d601f19601f820116820180604052508101906200017a9190620004f3565b600481905550565b8260028101928215620001f1579160200282015b82811115620001f05782518260006101000a81548173ffffffffffffffffffffffffffffffffffffffff021916908373ffffffffffffffffffffffffffffffffffffffff1602179055509160200191906001019062000196565b5b50905062000200919062000204565b5090565b5b808211156200021f57600081600090555060010162000205565b5090565b6000604051905090565b600080fd5b600073ffffffffffffffffffffffffffffffffffffffff82169050919050565b60006200025f8262000232565b9050919050565b620002718162000252565b81146200027d57600080fd5b50565b600081519050620002918162000266565b92915050565b600080fd5b6000601f19601f8301169050919050565b7f4e487b7100000000000000000000000000000000000000000000000000000000600052604160045260246000fd5b620002e7826200029c565b810181811067ffffffffffffffff82111715620003095762000308620002ad565b5b80604052505050565b60006200031e62000223565b90506200032c8282620002dc565b919050565b600067ffffffffffffffff8211156200034f576200034e620002ad565b5b602082029050919050565b600080fd5b600062000376620003708462000331565b62000312565b905080602084028301858111156200039357620003926200035a565b5b835b81811015620003c05780620003ab888262000280565b84526020840193505060208101905062000395565b5050509392505050565b600082601f830112620003e257620003e162000297565b5b6002620003f18482856200035f565b91505092915050565b600080606083850312156200041457620004136200022d565b5b6000620004248582860162000280565b92505060206200043785828601620003ca565b9150509250929050565b6000819050919050565b6000819050919050565b60008160001b9050919050565b6000620004836200047d620004778462000441565b62000455565b6200044b565b9050919050565b620004958162000462565b82525050565b6000602082019050620004b260008301846200048a565b92915050565b6000819050919050565b620004cd81620004b8565b8114620004d957600080fd5b50565b600081519050620004ed81620004c2565b92915050565b6000602082840312156200050c576200050b6200022d565b5b60006200051c84828501620004dc565b91505092915050565b60805160a051611f956200056e600039600081816103710152818161042101528181610633015281816107110152610804015260008181610ae10152610dd80152611f956000f3fe608060405234801561001057600080fd5b50600436106101005760003560e01c80638da5cb5b11610097578063d66bd52411610066578063d66bd5241461024f578063e15c58a41461027f578063e5a70ef71461029d578063f851a440146102bb57610100565b80638da5cb5b146101d95780639f1d0f59146101f7578063cff0ab9614610213578063d4b0dbdd1461023157610100565b8063704b6c02116100d3578063704b6c0214610165578063750f198a1461018157806387b6f0d21461019f5780638aee4cfe146101bd57610100565b80630570795314610105578063476343ee1461010f5780634b0bbaa4146101195780634e9c111814610135575b600080fd5b61010d6102d9565b005b61011761036f565b005b610133600480360381019061012e919061112f565b610523565b005b61014f600480360381019061014a919061112f565b6105fb565b60405161015c919061119d565b60405180910390f35b61017f600480360381019061017a91906111e4565b610631565b005b610189610702565b6040516101969190611220565b60405180910390f35b6101a7610709565b6040516101b49190611220565b60405180910390f35b6101d760048036038101906101d29190611274565b61070f565b005b6101e1610802565b6040516101ee919061119d565b60405180910390f35b610211600480360381019061020c91906112df565b610826565b005b61021b610daa565b6040516102289190611391565b60405180910390f35b610239610db4565b60405161024691906113cd565b60405180910390f35b610269600480360381019061026491906111e4565b610dbe565b6040516102769190611220565b60405180910390f35b610287610dd6565b604051610294919061119d565b60405180910390f35b6102a5610dfa565b6040516102b291906113f7565b60405180910390f35b6102c3610e0d565b6040516102d0919061119d565b60405180910390f35b65506172616d7373ffffffffffffffffffffffffffffffffffffffff16638eaa6ac06d626173652d6761732d70726963656040518263ffffffff1660e01b81526004016103269190611464565b602060405180830381865afa158015610343573d6000803e3d6000fd5b505050506040513d601f19601f820116820180604052508101906103679190611494565b600481905550565b7f000000000000000000000000000000000000000000000000000000000000000073ffffffffffffffffffffffffffffffffffffffff163373ffffffffffffffffffffffffffffffffffffffff16146103fd576040517f08c379a00000000000000000000000000000000000000000000000000000000081526004016103f49061151e565b60405180910390fd5b65456e6572677973ffffffffffffffffffffffffffffffffffffffff1663a9059cbb7f000000000000000000000000000000000000000000000000000000000000000065456e6572677973ffffffffffffffffffffffffffffffffffffffff166370a08231306040518263ffffffff1660e01b815260040161047f919061119d565b602060405180830381865afa15801561049c573d6000803e3d6000fd5b505050506040513d601f19601f820116820180604052508101906104c09190611494565b6040518363ffffffff1660e01b81526004016104dd92919061153e565b6020604051808303816000875af11580156104fc573d6000803e3d6000fd5b505050506040513d601f19601f82011682018060405250810190610520919061159f565b50565b60008111610566576040517f08c379a000000000000000000000000000000000000000000000000000000000815260040161055d90611618565b60405180910390fd5b80600560003373ffffffffffffffffffffffffffffffffffffffff1673ffffffffffffffffffffffffffffffffffffffff168152602001908152602001600020819055503373ffffffffffffffffffffffffffffffffffffffff167f7cf7f245e0ac9ee076d209114cedb03ee23c22f397ad7c400bfc99bbfa885933826040516105f09190611220565b60405180910390a250565b6001816002811061060b57600080fd5b016000915054906101000a900473ffffffffffffffffffffffffffffffffffffffff1681565b7f000000000000000000000000000000000000000000000000000000000000000073ffffffffffffffffffffffffffffffffffffffff163373ffffffffffffffffffffffffffffffffffffffff16146106bf576040517f08c379a00000000000000000000000000000000000000000000000000000000081526004016106b69061151e565b60405180910390fd5b806000806101000a81548173ffffffffffffffffffffffffffffffffffffffff021916908373ffffffffffffffffffffffffffffffffffffffff16021790555050565b62045c9481565b60045481565b7f000000000000000000000000000000000000000000000000000000000000000073ffffffffffffffffffffffffffffffffffffffff163373ffffffffffffffffffffffffffffffffffffffff161461079d576040517f08c379a00000000000000000000000000000000000000000000000000000000081526004016107949061151e565b60405180910390fd5b601e8160ff1611156107e4576040517f08c379a00000000000000000000000000000000000000000000000000000000081526004016107db90611684565b60405180910390fd5b80600360006101000a81548160ff021916908360ff16021790555050565b7f000000000000000000000000000000000000000000000000000000000000000081565b60008054906101000a900473ffffffffffffffffffffffffffffffffffffffff1673ffffffffffffffffffffffffffffffffffffffff163373ffffffffffffffffffffffffffffffffffffffff16146108b4576040517f08c379a00000000000000000000000000000000000000000000000000000000081526004016108ab906116f0565b60405180910390fd5b60045460026108c3919061173f565b3a1115610905576040517f08c379a00000000000000000000000000000000000000000000000000000000081526004016108fc906117cd565b60405180910390fd5b61090f8383610e31565b65456e6572677973ffffffffffffffffffffffffffffffffffffffff166323b872dd8430856040518463ffffffff1660e01b81526004016109529392919061180e565b6020604051808303816000875af1158015610971573d6000803e3d6000fd5b505050506040513d601f19601f82011682018060405250810190610995919061159f565b6109d4576040517f08c379a00000000000000000000000000000000000000000000000000000000081526004016109cb90611891565b60405180910390fd5b60003a62045c946109e5919061173f565b90506000612710600360009054906101000a900460ff1660ff168386610a0b91906118b1565b610a15919061173f565b610a1f9190611914565b90506000818386610a3091906118b1565b610a3a91906118b1565b90506000600267ffffffffffffffff811115610a5957610a58611945565b5b604051908082528060200260200182016040528015610a875781602001602082028036833780820191505090505b50905065456e6572677981600081518110610aa557610aa4611974565b5b602002602001019073ffffffffffffffffffffffffffffffffffffffff16908173ffffffffffffffffffffffffffffffffffffffff16815250507f000000000000000000000000000000000000000000000000000000000000000081600181518110610b1457610b13611974565b5b602002602001019073ffffffffffffffffffffffffffffffffffffffff16908173ffffffffffffffffffffffffffffffffffffffff1681525050600080610b5b8385610f8a565b9150915086811015610ba2576040517f08c379a0000000000000000000000000000000000000000000000000000000008152600401610b9990611a15565b60405180910390fd5b65456e6572677973ffffffffffffffffffffffffffffffffffffffff1663095ea7b383866040518363ffffffff1660e01b8152600401610be392919061153e565b6020604051808303816000875af1158015610c02573d6000803e3d6000fd5b505050506040513d601f19601f82011682018060405250810190610c26919061159f565b610c65576040517f08c379a0000000000000000000000000000000000000000000000000000000008152600401610c5c90611a81565b60405180910390fd5b60008273ffffffffffffffffffffffffffffffffffffffff166318cbafe5866103e86103de86610c95919061173f565b610c9f9190611914565b878e426040518663ffffffff1660e01b8152600401610cc2959493929190611b5f565b6000604051808303816000875af1158015610ce1573d6000803e3d6000fd5b505050506040513d6000823e3d601f19601f82011682018060405250810190610d0a9190611ce3565b90508973ffffffffffffffffffffffffffffffffffffffff167f05131d197b3457b61386ff1f463510d3efd61b222292c32047cc7bc779804bbf8a3a600360009054906101000a900460ff168a8a8e898960018b51610d6991906118b1565b81518110610d7a57610d79611974565b5b6020026020010151604051610d96989796959493929190611d5d565b60405180910390a250505050505050505050565b65506172616d7381565b65456e6572677981565b60056020528060005260406000206000915090505481565b7f000000000000000000000000000000000000000000000000000000000000000081565b600360009054906101000a900460ff1681565b60008054906101000a900473ffffffffffffffffffffffffffffffffffffffff1681565b6000600560008473ffffffffffffffffffffffffffffffffffffffff1673ffffffffffffffffffffffffffffffffffffffff16815260200190815260200160002054905060008111610eb8576040517f08c379a0000000000000000000000000000000000000000000000000000000008152600401610eaf90611e27565b60405180910390fd5b8082610ec49190611e47565b65456e6572677973ffffffffffffffffffffffffffffffffffffffff166370a08231856040518263ffffffff1660e01b8152600401610f03919061119d565b602060405180830381865afa158015610f20573d6000803e3d6000fd5b505050506040513d601f19601f82011682018060405250810190610f449190611494565b1015610f85576040517f08c379a0000000000000000000000000000000000000000000000000000000008152600401610f7c90611ec7565b60405180910390fd5b505050565b60008060008060005b60028110156110a057600060018260028110610fb257610fb1611974565b5b0160009054906101000a900473ffffffffffffffffffffffffffffffffffffffff16905060008173ffffffffffffffffffffffffffffffffffffffff1663d06ca61f898b6040518363ffffffff1660e01b8152600401611013929190611ee7565b600060405180830381865afa158015611030573d6000803e3d6000fd5b505050506040513d6000823e3d601f19601f820116820180604052508101906110599190611ce3565b905060008160018151811061107157611070611974565b5b602002602001015190508481111561108a578395508094505b505050808061109890611f17565b915050610f93565b50600182600281106110b5576110b4611974565b5b0160009054906101000a900473ffffffffffffffffffffffffffffffffffffffff16819350935050509250929050565b6000604051905090565b600080fd5b600080fd5b6000819050919050565b61110c816110f9565b811461111757600080fd5b50565b60008135905061112981611103565b92915050565b600060208284031215611145576111446110ef565b5b60006111538482850161111a565b91505092915050565b600073ffffffffffffffffffffffffffffffffffffffff82169050919050565b60006111878261115c565b9050919050565b6111978161117c565b82525050565b60006020820190506111b2600083018461118e565b92915050565b6111c18161117c565b81146111cc57600080fd5b50565b6000813590506111de816111b8565b92915050565b6000602082840312156111fa576111f96110ef565b5b6000611208848285016111cf565b91505092915050565b61121a816110f9565b82525050565b60006020820190506112356000830184611211565b92915050565b600060ff82169050919050565b6112518161123b565b811461125c57600080fd5b50565b60008135905061126e81611248565b92915050565b60006020828403121561128a576112896110ef565b5b60006112988482850161125f565b91505092915050565b60006112ac8261115c565b9050919050565b6112bc816112a1565b81146112c757600080fd5b50565b6000813590506112d9816112b3565b92915050565b6000806000606084860312156112f8576112f76110ef565b5b6000611306868287016112ca565b93505060206113178682870161111a565b92505060406113288682870161111a565b9150509250925092565b6000819050919050565b600061135761135261134d8461115c565b611332565b61115c565b9050919050565b60006113698261133c565b9050919050565b600061137b8261135e565b9050919050565b61138b81611370565b82525050565b60006020820190506113a66000830184611382565b92915050565b60006113b78261135e565b9050919050565b6113c7816113ac565b82525050565b60006020820190506113e260008301846113be565b92915050565b6113f18161123b565b82525050565b600060208201905061140c60008301846113e8565b92915050565b6000819050919050565b6000819050919050565b60008160001b9050919050565b600061144e61144961144484611412565b611426565b61141c565b9050919050565b61145e81611433565b82525050565b60006020820190506114796000830184611455565b92915050565b60008151905061148e81611103565b92915050565b6000602082840312156114aa576114a96110ef565b5b60006114b88482850161147f565b91505092915050565b600082825260208201905092915050565b7f5472616465723a206163636f756e74206973206e6f74206f776e657200000000600082015250565b6000611508601c836114c1565b9150611513826114d2565b602082019050919050565b60006020820190508181036000830152611537816114fb565b9050919050565b6000604082019050611553600083018561118e565b6115606020830184611211565b9392505050565b60008115159050919050565b61157c81611567565b811461158757600080fd5b50565b60008151905061159981611573565b92915050565b6000602082840312156115b5576115b46110ef565b5b60006115c38482850161158a565b91505092915050565b7f5472616465723a20696e76616c69642072657365727665000000000000000000600082015250565b60006116026017836114c1565b915061160d826115cc565b602082019050919050565b60006020820190508181036000830152611631816115f5565b9050919050565b7f5472616465723a20696e76616c696420666565206d756c7469706c6965720000600082015250565b600061166e601e836114c1565b915061167982611638565b602082019050919050565b6000602082019050818103600083015261169d81611661565b9050919050565b7f5472616465723a206163636f756e74206973206e6f742061646d696e00000000600082015250565b60006116da601c836114c1565b91506116e5826116a4565b602082019050919050565b60006020820190508181036000830152611709816116cd565b9050919050565b7f4e487b7100000000000000000000000000000000000000000000000000000000600052601160045260246000fd5b600061174a826110f9565b9150611755836110f9565b9250828202611763816110f9565b9150828204841483151761177a57611779611710565b5b5092915050565b7f5472616465723a2067617320707269636520746f6f2068696768000000000000600082015250565b60006117b7601a836114c1565b91506117c282611781565b602082019050919050565b600060208201905081810360008301526117e6816117aa565b9050919050565b60006117f88261135e565b9050919050565b611808816117ed565b82525050565b600060608201905061182360008301866117ff565b611830602083018561118e565b61183d6040830184611211565b949350505050565b7f5472616465723a207472616e736665722066726f6d206661696c656400000000600082015250565b600061187b601c836114c1565b915061188682611845565b602082019050919050565b600060208201905081810360008301526118aa8161186e565b9050919050565b60006118bc826110f9565b91506118c7836110f9565b92508282039050818111156118df576118de611710565b5b92915050565b7f4e487b7100000000000000000000000000000000000000000000000000000000600052601260045260246000fd5b600061191f826110f9565b915061192a836110f9565b92508261193a576119396118e5565b5b828204905092915050565b7f4e487b7100000000000000000000000000000000000000000000000000000000600052604160045260246000fd5b7f4e487b7100000000000000000000000000000000000000000000000000000000600052603260045260246000fd5b7f5472616465723a20616d6f756e74206f757420657870656374656420746f6f2060008201527f6c6f770000000000000000000000000000000000000000000000000000000000602082015250565b60006119ff6023836114c1565b9150611a0a826119a3565b604082019050919050565b60006020820190508181036000830152611a2e816119f2565b9050919050565b7f5472616465723a20617070726f7665206661696c656400000000000000000000600082015250565b6000611a6b6016836114c1565b9150611a7682611a35565b602082019050919050565b60006020820190508181036000830152611a9a81611a5e565b9050919050565b600081519050919050565b600082825260208201905092915050565b6000819050602082019050919050565b611ad68161117c565b82525050565b6000611ae88383611acd565b60208301905092915050565b6000602082019050919050565b6000611b0c82611aa1565b611b168185611aac565b9350611b2183611abd565b8060005b83811015611b52578151611b398882611adc565b9750611b4483611af4565b925050600181019050611b25565b5085935050505092915050565b600060a082019050611b746000830188611211565b611b816020830187611211565b8181036040830152611b938186611b01565b9050611ba260608301856117ff565b611baf6080830184611211565b9695505050505050565b600080fd5b6000601f19601f8301169050919050565b611bd882611bbe565b810181811067ffffffffffffffff82111715611bf757611bf6611945565b5b80604052505050565b6000611c0a6110e5565b9050611c168282611bcf565b919050565b600067ffffffffffffffff821115611c3657611c35611945565b5b602082029050602081019050919050565b600080fd5b6000611c5f611c5a84611c1b565b611c00565b90508083825260208201905060208402830185811115611c8257611c81611c47565b5b835b81811015611cab5780611c97888261147f565b845260208401935050602081019050611c84565b5050509392505050565b600082601f830112611cca57611cc9611bb9565b5b8151611cda848260208601611c4c565b91505092915050565b600060208284031215611cf957611cf86110ef565b5b600082015167ffffffffffffffff811115611d1757611d166110f4565b5b611d2384828501611cb5565b91505092915050565b6000611d47611d42611d3d8461123b565b611332565b6110f9565b9050919050565b611d5781611d2c565b82525050565b600061010082019050611d73600083018b611211565b611d80602083018a611211565b611d8d6040830189611d4e565b611d9a6060830188611211565b611da76080830187611211565b611db460a0830186611211565b611dc160c0830185611211565b611dce60e0830184611211565b9998505050505050505050565b7f5472616465723a2072657365727665206e6f7420696e697469616c697a656400600082015250565b6000611e11601f836114c1565b9150611e1c82611ddb565b602082019050919050565b60006020820190508181036000830152611e4081611e04565b9050919050565b6000611e52826110f9565b9150611e5d836110f9565b9250828201905080821115611e7557611e74611710565b5b92915050565b7f5472616465723a20696e73756666696369656e742062616c616e636500000000600082015250565b6000611eb1601c836114c1565b9150611ebc82611e7b565b602082019050919050565b60006020820190508181036000830152611ee081611ea4565b9050919050565b6000604082019050611efc6000830185611211565b8181036020830152611f0e8184611b01565b90509392505050565b6000611f22826110f9565b91507fffffffffffffffffffffffffffffffffffffffffffffffffffffffffffffffff8203611f5457611f53611710565b5b60018201905091905056fea26469706673582212207eed52870a583774a37ef98a404a8074438876011cd2902af317be25197ef32d64736f6c63430008130033",
  "linkReferences": {},
  "deployedLinkReferences": {}
}