{
  "_format": "hh-sol-artifact-1",
  "contractName": "Trader",
  "sourceName": "contracts/Trader.sol",
  "abi": [
    {
      "inputs": [
        {
          "internalType": "address",
          "name": "vthoAddr",
          "type": "address"
        },
        {
          "internalType": "address",
          "name": "router",
          "type": "address"
        }
      ],
      "stateMutability": "nonpayable",
      "type": "constructor"
    },
    {
      "anonymous": false,
      "inputs": [
        {
          "indexed": false,
          "internalType": "address",
          "name": "account",
          "type": "address"
        },
        {
          "indexed": false,
          "internalType": "uint256",
          "name": "amountIn",
          "type": "uint256"
        },
        {
          "indexed": false,
          "internalType": "uint256",
          "name": "minRate",
          "type": "uint256"
        },
        {
          "indexed": false,
          "internalType": "uint256",
          "name": "amountOutMin",
          "type": "uint256"
        }
      ],
      "name": "Swap",
      "type": "event"
    },
    {
      "anonymous": false,
      "inputs": [
        {
          "indexed": false,
          "internalType": "address",
          "name": "to",
          "type": "address"
        },
        {
          "indexed": false,
          "internalType": "uint256",
          "name": "amount",
          "type": "uint256"
        }
      ],
      "name": "Withdraw",
      "type": "event"
    },
    {
      "inputs": [],
      "name": "UniswapV2Router02",
      "outputs": [
        {
          "internalType": "contract IUniswapV2Router02",
          "name": "",
          "type": "address"
        }
      ],
      "stateMutability": "view",
      "type": "function"
    },
    {
      "inputs": [],
      "name": "VTHO",
      "outputs": [
        {
          "internalType": "contract IERC20",
          "name": "",
          "type": "address"
        }
      ],
      "stateMutability": "view",
      "type": "function"
    },
    {
      "inputs": [],
      "name": "owner",
      "outputs": [
        {
          "internalType": "address payable",
          "name": "",
          "type": "address"
        }
      ],
      "stateMutability": "view",
      "type": "function"
    },
    {
      "inputs": [
        {
          "internalType": "address payable",
          "name": "account",
          "type": "address"
        },
        {
          "internalType": "uint256",
          "name": "amountIn",
          "type": "uint256"
        },
        {
          "internalType": "uint256",
          "name": "minRate",
          "type": "uint256"
        }
      ],
      "name": "swap",
      "outputs": [],
      "stateMutability": "nonpayable",
      "type": "function"
    }
  ],
  "bytecode": "0x60806040523480156200001157600080fd5b506040516200121f3803806200121f833981810160405281019062000037919062000118565b816000806101000a81548173ffffffffffffffffffffffffffffffffffffffff021916908373ffffffffffffffffffffffffffffffffffffffff16021790555080600160006101000a81548173ffffffffffffffffffffffffffffffffffffffff021916908373ffffffffffffffffffffffffffffffffffffffff16021790555033600260006101000a81548173ffffffffffffffffffffffffffffffffffffffff021916908373ffffffffffffffffffffffffffffffffffffffff1602179055505050620001a7565b60008151905062000112816200018d565b92915050565b600080604083850312156200012c57600080fd5b60006200013c8582860162000101565b92505060206200014f8582860162000101565b9150509250929050565b600062000166826200016d565b9050919050565b600073ffffffffffffffffffffffffffffffffffffffff82169050919050565b620001988162000159565b8114620001a457600080fd5b50565b61106880620001b76000396000f3fe608060405234801561001057600080fd5b506004361061004c5760003560e01c806355cb26661461005157806384c9fcad1461006f5780638da5cb5b1461008d5780639f1d0f59146100ab575b600080fd5b6100596100c7565b6040516100669190610bf9565b60405180910390f35b6100776100ed565b6040516100849190610bde565b60405180910390f35b610095610111565b6040516100a29190610b1e565b60405180910390f35b6100c560048036038101906100c091906108b6565b610137565b005b600160009054906101000a900473ffffffffffffffffffffffffffffffffffffffff1681565b60008054906101000a900473ffffffffffffffffffffffffffffffffffffffff1681565b600260009054906101000a900473ffffffffffffffffffffffffffffffffffffffff1681565b6000821161017a576040517f08c379a000000000000000000000000000000000000000000000000000000000815260040161017190610c14565b60405180910390fd5b8160008054906101000a900473ffffffffffffffffffffffffffffffffffffffff1673ffffffffffffffffffffffffffffffffffffffff166370a08231856040518263ffffffff1660e01b81526004016101d49190610b03565b602060405180830381600087803b1580156101ee57600080fd5b505af1158015610202573d6000803e3d6000fd5b505050506040513d601f19601f82011682018060405250810190610226919061096f565b11610266576040517f08c379a000000000000000000000000000000000000000000000000000000000815260040161025d90610c74565b60405180910390fd5b60008054906101000a900473ffffffffffffffffffffffffffffffffffffffff1673ffffffffffffffffffffffffffffffffffffffff166323b872dd8430856040518463ffffffff1660e01b81526004016102c393929190610b39565b602060405180830381600087803b1580156102dd57600080fd5b505af11580156102f1573d6000803e3d6000fd5b505050506040513d601f19601f820116820180604052508101906103159190610946565b610354576040517f08c379a000000000000000000000000000000000000000000000000000000000815260040161034b90610c54565b60405180910390fd5b600081836103629190610d89565b905060008054906101000a900473ffffffffffffffffffffffffffffffffffffffff1673ffffffffffffffffffffffffffffffffffffffff1663095ea7b3600160009054906101000a900473ffffffffffffffffffffffffffffffffffffffff16856040518363ffffffff1660e01b81526004016103e1929190610bb5565b602060405180830381600087803b1580156103fb57600080fd5b505af115801561040f573d6000803e3d6000fd5b505050506040513d601f19601f820116820180604052508101906104339190610946565b610472576040517f08c379a000000000000000000000000000000000000000000000000000000000815260040161046990610c34565b60405180910390fd5b6000600267ffffffffffffffff8111156104b5577f4e487b7100000000000000000000000000000000000000000000000000000000600052604160045260246000fd5b6040519080825280602002602001820160405280156104e35781602001602082028036833780820191505090505b50905060008054906101000a900473ffffffffffffffffffffffffffffffffffffffff1681600081518110610541577f4e487b7100000000000000000000000000000000000000000000000000000000600052603260045260246000fd5b602002602001019073ffffffffffffffffffffffffffffffffffffffff16908173ffffffffffffffffffffffffffffffffffffffff1681525050600160009054906101000a900473ffffffffffffffffffffffffffffffffffffffff1673ffffffffffffffffffffffffffffffffffffffff1663ad5c46486040518163ffffffff1660e01b815260040160206040518083038186803b1580156105e357600080fd5b505afa1580156105f7573d6000803e3d6000fd5b505050506040513d601f19601f8201168201806040525081019061061b919061088d565b81600181518110610655577f4e487b7100000000000000000000000000000000000000000000000000000000600052603260045260246000fd5b602002602001019073ffffffffffffffffffffffffffffffffffffffff16908173ffffffffffffffffffffffffffffffffffffffff1681525050600160009054906101000a900473ffffffffffffffffffffffffffffffffffffffff1673ffffffffffffffffffffffffffffffffffffffff166318cbafe585848489426040518663ffffffff1660e01b81526004016106f2959493929190610c94565b600060405180830381600087803b15801561070c57600080fd5b505af1158015610720573d6000803e3d6000fd5b505050506040513d6000823e3d601f19601f820116820180604052508101906107499190610905565b507f5620e542b9ce6a03dbe5af2c6483e766af6c96439562b26a0dcd2edd7099524b8585858560405161077f9493929190610b70565b60405180910390a15050505050565b60006107a161079c84610d13565b610cee565b905080838252602082019050828560208602820111156107c057600080fd5b60005b858110156107f057816107d68882610878565b8452602084019350602083019250506001810190506107c3565b5050509392505050565b60008151905061080981610fd6565b92915050565b60008135905061081e81610fed565b92915050565b600082601f83011261083557600080fd5b815161084584826020860161078e565b91505092915050565b60008151905061085d81611004565b92915050565b6000813590506108728161101b565b92915050565b6000815190506108878161101b565b92915050565b60006020828403121561089f57600080fd5b60006108ad848285016107fa565b91505092915050565b6000806000606084860312156108cb57600080fd5b60006108d98682870161080f565b93505060206108ea86828701610863565b92505060406108fb86828701610863565b9150509250925092565b60006020828403121561091757600080fd5b600082015167ffffffffffffffff81111561093157600080fd5b61093d84828501610824565b91505092915050565b60006020828403121561095857600080fd5b60006109668482850161084e565b91505092915050565b60006020828403121561098157600080fd5b600061098f84828501610878565b91505092915050565b60006109a483836109ce565b60208301905092915050565b6109b981610e14565b82525050565b6109c881610dcc565b82525050565b6109d781610dba565b82525050565b6109e681610dba565b82525050565b60006109f782610d4f565b610a018185610d67565b9350610a0c83610d3f565b8060005b83811015610a3d578151610a248882610998565b9750610a2f83610d5a565b925050600181019050610a10565b5085935050505092915050565b610a5381610e26565b82525050565b610a6281610e4a565b82525050565b6000610a75601683610d78565b9150610a8082610f32565b602082019050919050565b6000610a98601783610d78565b9150610aa382610f5b565b602082019050919050565b6000610abb601b83610d78565b9150610ac682610f84565b602082019050919050565b6000610ade601b83610d78565b9150610ae982610fad565b602082019050919050565b610afd81610e0a565b82525050565b6000602082019050610b1860008301846109b0565b92915050565b6000602082019050610b3360008301846109bf565b92915050565b6000606082019050610b4e60008301866109b0565b610b5b60208301856109dd565b610b686040830184610af4565b949350505050565b6000608082019050610b8560008301876109b0565b610b926020830186610af4565b610b9f6040830185610af4565b610bac6060830184610af4565b95945050505050565b6000604082019050610bca60008301856109dd565b610bd76020830184610af4565b9392505050565b6000602082019050610bf36000830184610a4a565b92915050565b6000602082019050610c0e6000830184610a59565b92915050565b60006020820190508181036000830152610c2d81610a68565b9050919050565b60006020820190508181036000830152610c4d81610a8b565b9050919050565b60006020820190508181036000830152610c6d81610aae565b9050919050565b60006020820190508181036000830152610c8d81610ad1565b9050919050565b600060a082019050610ca96000830188610af4565b610cb66020830187610af4565b8181036040830152610cc881866109ec565b9050610cd760608301856109b0565b610ce46080830184610af4565b9695505050505050565b6000610cf8610d09565b9050610d048282610e92565b919050565b6000604051905090565b600067ffffffffffffffff821115610d2e57610d2d610ef2565b5b602082029050602081019050919050565b6000819050602082019050919050565b600081519050919050565b6000602082019050919050565b600082825260208201905092915050565b600082825260208201905092915050565b6000610d9482610e0a565b9150610d9f83610e0a565b925082610daf57610dae610ec3565b5b828204905092915050565b6000610dc582610dea565b9050919050565b6000610dd782610dea565b9050919050565b60008115159050919050565b600073ffffffffffffffffffffffffffffffffffffffff82169050919050565b6000819050919050565b6000610e1f82610e6e565b9050919050565b6000610e3182610e38565b9050919050565b6000610e4382610dea565b9050919050565b6000610e5582610e5c565b9050919050565b6000610e6782610dea565b9050919050565b6000610e7982610e80565b9050919050565b6000610e8b82610dea565b9050919050565b610e9b82610f21565b810181811067ffffffffffffffff82111715610eba57610eb9610ef2565b5b80604052505050565b7f4e487b7100000000000000000000000000000000000000000000000000000000600052601260045260246000fd5b7f4e487b7100000000000000000000000000000000000000000000000000000000600052604160045260246000fd5b6000601f19601f8301169050919050565b7f5472616465723a20696e76616c696420616d6f756e7400000000000000000000600082015250565b7f5472616465723a20617070726f7665206661696c65642e000000000000000000600082015250565b7f5472616465723a207472616e7366657246726f6d206661696c65640000000000600082015250565b7f5472616465723a20696e73756666696369656e7420616d6f756e740000000000600082015250565b610fdf81610dba565b8114610fea57600080fd5b50565b610ff681610dcc565b811461100157600080fd5b50565b61100d81610dde565b811461101857600080fd5b50565b61102481610e0a565b811461102f57600080fd5b5056fea26469706673582212205327366e486ef70f3bb7e2d692bfbfac9b7de9b0805b4fb0e244bd9fce5a144564736f6c63430008040033",
  "linkReferences": {},
  "deployedLinkReferences": {}
}