{
  "_format": "hh-sol-artifact-1",
  "contractName": "Trader",
  "sourceName": "contracts/Trader.sol",
  "abi": [
    {
      "inputs": [
        {
          "internalType": "address",
          "name": "routerAddress",
          "type": "address"
        }
      ],
      "stateMutability": "nonpayable",
      "type": "constructor"
    },
    {
      "inputs": [],
      "name": "ApproveFailed",
      "type": "error"
    },
    {
      "inputs": [
        {
          "internalType": "uint256",
          "name": "available",
          "type": "uint256"
        },
        {
          "internalType": "uint256",
          "name": "required",
          "type": "uint256"
        }
      ],
      "name": "InsufficientBalance",
      "type": "error"
    },
    {
      "inputs": [
        {
          "internalType": "uint256",
          "name": "triggerBalance",
          "type": "uint256"
        },
        {
          "internalType": "uint256",
          "name": "reserveBalance",
          "type": "uint256"
        }
      ],
      "name": "InvalidConfig",
      "type": "error"
    },
    {
      "inputs": [],
      "name": "InvalidFeeMultiplier",
      "type": "error"
    },
    {
      "inputs": [],
      "name": "InvalidReserve",
      "type": "error"
    },
    {
      "inputs": [],
      "name": "InvalidTrigger",
      "type": "error"
    },
    {
      "inputs": [
        {
          "internalType": "address",
          "name": "account",
          "type": "address"
        }
      ],
      "name": "NotOwner",
      "type": "error"
    },
    {
      "inputs": [
        {
          "internalType": "address",
          "name": "from",
          "type": "address"
        },
        {
          "internalType": "uint256",
          "name": "amount",
          "type": "uint256"
        }
      ],
      "name": "TransferFromFailed",
      "type": "error"
    },
    {
      "inputs": [
        {
          "internalType": "uint256",
          "name": "amount",
          "type": "uint256"
        }
      ],
      "name": "WithdrawFailed",
      "type": "error"
    },
    {
      "inputs": [],
      "name": "ZeroAddress",
      "type": "error"
    },
    {
      "anonymous": false,
      "inputs": [
        {
          "indexed": true,
          "internalType": "address",
          "name": "account",
          "type": "address"
        },
        {
          "indexed": false,
          "internalType": "uint256",
          "name": "triggerBalance",
          "type": "uint256"
        },
        {
          "indexed": false,
          "internalType": "uint256",
          "name": "reserveBalance",
          "type": "uint256"
        }
      ],
      "name": "Config",
      "type": "event"
    },
    {
      "anonymous": false,
      "inputs": [
        {
          "indexed": true,
          "internalType": "address",
          "name": "account",
          "type": "address"
        },
        {
          "indexed": false,
          "internalType": "uint256",
          "name": "withdrawAmount",
          "type": "uint256"
        },
        {
          "indexed": false,
          "internalType": "uint256",
          "name": "gasPrice",
          "type": "uint256"
        },
        {
          "indexed": false,
          "internalType": "uint256",
          "name": "protocolFee",
          "type": "uint256"
        },
        {
          "indexed": false,
          "internalType": "uint256",
          "name": "maxRate",
          "type": "uint256"
        },
        {
          "indexed": false,
          "internalType": "uint256",
          "name": "amountOutMin",
          "type": "uint256"
        },
        {
          "indexed": false,
          "internalType": "uint256",
          "name": "amountOut",
          "type": "uint256"
        }
      ],
      "name": "Swap",
      "type": "event"
    },
    {
      "inputs": [],
      "name": "MAX_VTHO_WITHDRAWAL_AMOUNT",
      "outputs": [
        {
          "internalType": "uint256",
          "name": "",
          "type": "uint256"
        }
      ],
      "stateMutability": "view",
      "type": "function"
    },
    {
      "inputs": [],
      "name": "SWAP_GAS",
      "outputs": [
        {
          "internalType": "uint256",
          "name": "",
          "type": "uint256"
        }
      ],
      "stateMutability": "view",
      "type": "function"
    },
    {
      "inputs": [
        {
          "internalType": "address",
          "name": "",
          "type": "address"
        }
      ],
      "name": "addressToConfig",
      "outputs": [
        {
          "internalType": "uint256",
          "name": "triggerBalance",
          "type": "uint256"
        },
        {
          "internalType": "uint256",
          "name": "reserveBalance",
          "type": "uint256"
        }
      ],
      "stateMutability": "view",
      "type": "function"
    },
    {
      "inputs": [],
      "name": "feeMultiplier",
      "outputs": [
        {
          "internalType": "uint8",
          "name": "",
          "type": "uint8"
        }
      ],
      "stateMutability": "view",
      "type": "function"
    },
    {
      "inputs": [],
      "name": "owner",
      "outputs": [
        {
          "internalType": "address",
          "name": "",
          "type": "address"
        }
      ],
      "stateMutability": "view",
      "type": "function"
    },
    {
      "inputs": [],
      "name": "router",
      "outputs": [
        {
          "internalType": "contract IUniswapV2Router02",
          "name": "",
          "type": "address"
        }
      ],
      "stateMutability": "view",
      "type": "function"
    },
    {
      "inputs": [
        {
          "internalType": "uint256",
          "name": "triggerBalance",
          "type": "uint256"
        },
        {
          "internalType": "uint256",
          "name": "reserveBalance",
          "type": "uint256"
        }
      ],
      "name": "saveConfig",
      "outputs": [],
      "stateMutability": "nonpayable",
      "type": "function"
    },
    {
      "inputs": [
        {
          "internalType": "uint8",
          "name": "newFeeMultiplier",
          "type": "uint8"
        }
      ],
      "name": "setFeeMultiplier",
      "outputs": [],
      "stateMutability": "nonpayable",
      "type": "function"
    },
    {
      "inputs": [
        {
          "internalType": "address payable",
          "name": "account",
          "type": "address"
        },
        {
          "internalType": "uint256",
          "name": "maxRate",
          "type": "uint256"
        }
      ],
      "name": "swap",
      "outputs": [],
      "stateMutability": "nonpayable",
      "type": "function"
    },
    {
      "inputs": [],
      "name": "vtho",
      "outputs": [
        {
          "internalType": "contract IEnergy",
          "name": "",
          "type": "address"
        }
      ],
      "stateMutability": "view",
      "type": "function"
    },
    {
      "inputs": [],
      "name": "withdraw",
      "outputs": [],
      "stateMutability": "nonpayable",
      "type": "function"
    }
  ],
  "bytecode": "0x60a0604052601e600060146101000a81548160ff021916908360ff1602179055503480156200002d57600080fd5b5060405162001aa638038062001aa6833981810160405281019062000053919062000150565b600073ffffffffffffffffffffffffffffffffffffffff168173ffffffffffffffffffffffffffffffffffffffff161415620000bb576040517fd92e233d00000000000000000000000000000000000000000000000000000000815260040160405180910390fd5b3373ffffffffffffffffffffffffffffffffffffffff1660808173ffffffffffffffffffffffffffffffffffffffff1660601b81525050806000806101000a81548173ffffffffffffffffffffffffffffffffffffffff021916908373ffffffffffffffffffffffffffffffffffffffff16021790555050620001ca565b6000815190506200014a81620001b0565b92915050565b6000602082840312156200016357600080fd5b6000620001738482850162000139565b91505092915050565b6000620001898262000190565b9050919050565b600073ffffffffffffffffffffffffffffffffffffffff82169050919050565b620001bb816200017c565b8114620001c757600080fd5b50565b60805160601c6118a162000205600039600081816101f3015281816102a5015281816103f2015281816104de015261067d01526118a16000f3fe608060405234801561001057600080fd5b50600436106100a95760003560e01c80639c70803b116100715780639c70803b14610141578063d004f0f71461015d578063d4b0dbdd14610179578063e3e96a1d14610197578063e5a70ef7146101b5578063f887ea40146101d3576100a9565b80633ccfd60b146100ae57806351fddfa9146100b8578063750f198a146100e95780638aee4cfe146101075780638da5cb5b14610123575b600080fd5b6100b66101f1565b005b6100d260048036038101906100cd9190611031565b6103c5565b6040516100e09291906113a6565b60405180910390f35b6100f16103e9565b6040516100fe919061138b565b60405180910390f35b610121600480360381019061011c919061118e565b6103f0565b005b61012b6104dc565b6040516101389190611296565b60405180910390f35b61015b60048036038101906101569190611152565b610500565b005b61017760048036038101906101729190611083565b61067b565b005b610181610eba565b60405161018e9190611355565b60405180910390f35b61019f610ec4565b6040516101ac919061138b565b60405180910390f35b6101bd610ed1565b6040516101ca919061148a565b60405180910390f35b6101db610ee4565b6040516101e89190611370565b60405180910390f35b7f000000000000000000000000000000000000000000000000000000000000000073ffffffffffffffffffffffffffffffffffffffff163373ffffffffffffffffffffffffffffffffffffffff161461028157336040517f245aecd30000000000000000000000000000000000000000000000000000000081526004016102789190611296565b60405180910390fd5b65456e6572677973ffffffffffffffffffffffffffffffffffffffff1663a9059cbb7f000000000000000000000000000000000000000000000000000000000000000065456e6572677973ffffffffffffffffffffffffffffffffffffffff166370a08231306040518263ffffffff1660e01b81526004016103039190611296565b60206040518083038186803b15801561031b57600080fd5b505afa15801561032f573d6000803e3d6000fd5b505050506040513d601f19601f820116820180604052508101906103539190611129565b6040518363ffffffff1660e01b815260040161037092919061132c565b602060405180830381600087803b15801561038a57600080fd5b505af115801561039e573d6000803e3d6000fd5b505050506040513d601f19601f820116820180604052508101906103c29190611100565b50565b60016020528060005260406000206000915090508060000154908060010154905082565b6204198581565b7f000000000000000000000000000000000000000000000000000000000000000073ffffffffffffffffffffffffffffffffffffffff163373ffffffffffffffffffffffffffffffffffffffff161461048057336040517f245aecd30000000000000000000000000000000000000000000000000000000081526004016104779190611296565b60405180910390fd5b601e8160ff1611156104be576040517fc34a382b00000000000000000000000000000000000000000000000000000000815260040160405180910390fd5b80600060146101000a81548160ff021916908360ff16021790555050565b7f000000000000000000000000000000000000000000000000000000000000000081565b600082141561053b576040517fa768d7fd00000000000000000000000000000000000000000000000000000000815260040160405180910390fd5b6000811415610576576040517fe46aea0900000000000000000000000000000000000000000000000000000000815260040160405180910390fd5b8082116105bc5781816040517fd40d76ca0000000000000000000000000000000000000000000000000000000081526004016105b39291906113a6565b60405180910390fd5b604051806040016040528083815260200182815250600160003373ffffffffffffffffffffffffffffffffffffffff1673ffffffffffffffffffffffffffffffffffffffff16815260200190815260200160002060008201518160000155602082015181600101559050503373ffffffffffffffffffffffffffffffffffffffff167fb9bfe6dda7ddbc49d12288ef1e5d501c902797a01fc2bba856601b70e874cbb8838360405161066f9291906113a6565b60405180910390a25050565b7f000000000000000000000000000000000000000000000000000000000000000073ffffffffffffffffffffffffffffffffffffffff163373ffffffffffffffffffffffffffffffffffffffff161461070b57336040517f245aecd30000000000000000000000000000000000000000000000000000000081526004016107029190611296565b60405180910390fd5b6000600160008473ffffffffffffffffffffffffffffffffffffffff1673ffffffffffffffffffffffffffffffffffffffff168152602001908152602001600020604051806040016040529081600082015481526020016001820154815250509050600065456e6572677973ffffffffffffffffffffffffffffffffffffffff166370a08231856040518263ffffffff1660e01b81526004016107ae91906112b1565b60206040518083038186803b1580156107c657600080fd5b505afa1580156107da573d6000803e3d6000fd5b505050506040513d601f19601f820116820180604052508101906107fe9190611129565b905060008260000151141561083f576040517fa768d7fd00000000000000000000000000000000000000000000000000000000815260040160405180910390fd5b60008260200151141561087e576040517fe46aea0900000000000000000000000000000000000000000000000000000000815260040160405180910390fd5b81600001518110156108cd578082600001516040517fcf4791810000000000000000000000000000000000000000000000000000000081526004016108c49291906113a6565b60405180910390fd5b60008260200151683635c9adc5dea000006108e8919061152f565b821015610904578260200151826108ff9190611610565b61090f565b683635c9adc5dea000005b905065456e6572677973ffffffffffffffffffffffffffffffffffffffff166323b872dd8630846040518463ffffffff1660e01b8152600401610954939291906112cc565b602060405180830381600087803b15801561096e57600080fd5b505af1158015610982573d6000803e3d6000fd5b505050506040513d601f19601f820116820180604052508101906109a69190611100565b6109e95784816040517f841894cb0000000000000000000000000000000000000000000000000000000081526004016109e0929190611303565b60405180910390fd5b6000620419853a6109fa91906115b6565b90506000612710600060149054906101000a900460ff1660ff168385610a209190611610565b610a2a91906115b6565b610a349190611585565b90506000818385610a459190611610565b610a4f9190611610565b905060008782610a5f9190611585565b905065456e6572677973ffffffffffffffffffffffffffffffffffffffff1663095ea7b360008054906101000a900473ffffffffffffffffffffffffffffffffffffffff16846040518363ffffffff1660e01b8152600401610ac292919061132c565b602060405180830381600087803b158015610adc57600080fd5b505af1158015610af0573d6000803e3d6000fd5b505050506040513d601f19601f82011682018060405250810190610b149190611100565b610b4a576040517f3e3f8f7300000000000000000000000000000000000000000000000000000000815260040160405180910390fd5b6000600267ffffffffffffffff811115610b8d577f4e487b7100000000000000000000000000000000000000000000000000000000600052604160045260246000fd5b604051908082528060200260200182016040528015610bbb5781602001602082028036833780820191505090505b50905065456e6572677981600081518110610bff577f4e487b7100000000000000000000000000000000000000000000000000000000600052603260045260246000fd5b602002602001019073ffffffffffffffffffffffffffffffffffffffff16908173ffffffffffffffffffffffffffffffffffffffff168152505060008054906101000a900473ffffffffffffffffffffffffffffffffffffffff1673ffffffffffffffffffffffffffffffffffffffff1663ad5c46486040518163ffffffff1660e01b815260040160206040518083038186803b158015610c9f57600080fd5b505afa158015610cb3573d6000803e3d6000fd5b505050506040513d601f19601f82011682018060405250810190610cd7919061105a565b81600181518110610d11577f4e487b7100000000000000000000000000000000000000000000000000000000600052603260045260246000fd5b602002602001019073ffffffffffffffffffffffffffffffffffffffff16908173ffffffffffffffffffffffffffffffffffffffff168152505060008060009054906101000a900473ffffffffffffffffffffffffffffffffffffffff1673ffffffffffffffffffffffffffffffffffffffff166318cbafe58585858f426040518663ffffffff1660e01b8152600401610daf9594939291906113cf565b600060405180830381600087803b158015610dc957600080fd5b505af1158015610ddd573d6000803e3d6000fd5b505050506040513d6000823e3d601f19601f82011682018060405250810190610e0691906110bf565b90508a73ffffffffffffffffffffffffffffffffffffffff167f1c66e529e5eda665469886610afddba48a9cc0e5d92fb155ae84dab6c81d155d883a888e888760018951610e549190611610565b81518110610e8b577f4e487b7100000000000000000000000000000000000000000000000000000000600052603260045260246000fd5b6020026020010151604051610ea596959493929190611429565b60405180910390a25050505050505050505050565b65456e6572677981565b683635c9adc5dea0000081565b600060149054906101000a900460ff1681565b60008054906101000a900473ffffffffffffffffffffffffffffffffffffffff1681565b6000610f1b610f16846114ca565b6114a5565b90508083825260208201905082856020860282011115610f3a57600080fd5b60005b85811015610f6a5781610f508882611007565b845260208401935060208301925050600181019050610f3d565b5050509392505050565b600081359050610f83816117f8565b92915050565b600081519050610f98816117f8565b92915050565b600081359050610fad8161180f565b92915050565b600082601f830112610fc457600080fd5b8151610fd4848260208601610f08565b91505092915050565b600081519050610fec81611826565b92915050565b6000813590506110018161183d565b92915050565b6000815190506110168161183d565b92915050565b60008135905061102b81611854565b92915050565b60006020828403121561104357600080fd5b600061105184828501610f74565b91505092915050565b60006020828403121561106c57600080fd5b600061107a84828501610f89565b91505092915050565b6000806040838503121561109657600080fd5b60006110a485828601610f9e565b92505060206110b585828601610ff2565b9150509250929050565b6000602082840312156110d157600080fd5b600082015167ffffffffffffffff8111156110eb57600080fd5b6110f784828501610fb3565b91505092915050565b60006020828403121561111257600080fd5b600061112084828501610fdd565b91505092915050565b60006020828403121561113b57600080fd5b600061114984828501611007565b91505092915050565b6000806040838503121561116557600080fd5b600061117385828601610ff2565b925050602061118485828601610ff2565b9150509250929050565b6000602082840312156111a057600080fd5b60006111ae8482850161101c565b91505092915050565b60006111c383836111de565b60208301905092915050565b6111d8816116ab565b82525050565b6111e781611644565b82525050565b6111f681611644565b82525050565b600061120782611506565b611211818561151e565b935061121c836114f6565b8060005b8381101561124d57815161123488826111b7565b975061123f83611511565b925050600181019050611220565b5085935050505092915050565b611263816116bd565b82525050565b611272816116e1565b82525050565b61128181611694565b82525050565b6112908161169e565b82525050565b60006020820190506112ab60008301846111ed565b92915050565b60006020820190506112c660008301846111cf565b92915050565b60006060820190506112e160008301866111cf565b6112ee60208301856111ed565b6112fb6040830184611278565b949350505050565b600060408201905061131860008301856111cf565b6113256020830184611278565b9392505050565b600060408201905061134160008301856111ed565b61134e6020830184611278565b9392505050565b600060208201905061136a600083018461125a565b92915050565b60006020820190506113856000830184611269565b92915050565b60006020820190506113a06000830184611278565b92915050565b60006040820190506113bb6000830185611278565b6113c86020830184611278565b9392505050565b600060a0820190506113e46000830188611278565b6113f16020830187611278565b818103604083015261140381866111fc565b905061141260608301856111cf565b61141f6080830184611278565b9695505050505050565b600060c08201905061143e6000830189611278565b61144b6020830188611278565b6114586040830187611278565b6114656060830186611278565b6114726080830185611278565b61147f60a0830184611278565b979650505050505050565b600060208201905061149f6000830184611287565b92915050565b60006114af6114c0565b90506114bb8282611729565b919050565b6000604051905090565b600067ffffffffffffffff8211156114e5576114e46117b8565b5b602082029050602081019050919050565b6000819050602082019050919050565b600081519050919050565b6000602082019050919050565b600082825260208201905092915050565b600061153a82611694565b915061154583611694565b9250827fffffffffffffffffffffffffffffffffffffffffffffffffffffffffffffffff0382111561157a5761157961175a565b5b828201905092915050565b600061159082611694565b915061159b83611694565b9250826115ab576115aa611789565b5b828204905092915050565b60006115c182611694565b91506115cc83611694565b9250817fffffffffffffffffffffffffffffffffffffffffffffffffffffffffffffffff04831182151516156116055761160461175a565b5b828202905092915050565b600061161b82611694565b915061162683611694565b9250828210156116395761163861175a565b5b828203905092915050565b600061164f82611674565b9050919050565b600061166182611674565b9050919050565b60008115159050919050565b600073ffffffffffffffffffffffffffffffffffffffff82169050919050565b6000819050919050565b600060ff82169050919050565b60006116b682611705565b9050919050565b60006116c8826116cf565b9050919050565b60006116da82611674565b9050919050565b60006116ec826116f3565b9050919050565b60006116fe82611674565b9050919050565b600061171082611717565b9050919050565b600061172282611674565b9050919050565b611732826117e7565b810181811067ffffffffffffffff82111715611751576117506117b8565b5b80604052505050565b7f4e487b7100000000000000000000000000000000000000000000000000000000600052601160045260246000fd5b7f4e487b7100000000000000000000000000000000000000000000000000000000600052601260045260246000fd5b7f4e487b7100000000000000000000000000000000000000000000000000000000600052604160045260246000fd5b6000601f19601f8301169050919050565b61180181611644565b811461180c57600080fd5b50565b61181881611656565b811461182357600080fd5b50565b61182f81611668565b811461183a57600080fd5b50565b61184681611694565b811461185157600080fd5b50565b61185d8161169e565b811461186857600080fd5b5056fea264697066735822122049aa805686f12f892e308e4b36ad972c0f7240625b75bd50f9d68a54bbe952f364736f6c63430008040033",
  "linkReferences": {},
  "deployedLinkReferences": {}
}