{
  "_format": "hh-sol-artifact-1",
  "contractName": "Trader",
  "sourceName": "contracts/Trader.sol",
  "abi": [
    {
      "inputs": [
        {
          "internalType": "address",
          "name": "vvet_",
          "type": "address"
        },
        {
          "internalType": "address[2]",
          "name": "routers_",
          "type": "address[2]"
        }
      ],
      "stateMutability": "nonpayable",
      "type": "constructor"
    },
    {
      "anonymous": false,
      "inputs": [
        {
          "indexed": true,
          "internalType": "address",
          "name": "account",
          "type": "address"
        },
        {
          "indexed": false,
          "internalType": "uint256",
          "name": "reserveBalance",
          "type": "uint256"
        }
      ],
      "name": "Config",
      "type": "event"
    },
    {
      "anonymous": false,
      "inputs": [
        {
          "indexed": false,
          "internalType": "uint256",
          "name": "baseGasPrice",
          "type": "uint256"
        }
      ],
      "name": "FetchGas",
      "type": "event"
    },
    {
      "anonymous": false,
      "inputs": [
        {
          "indexed": true,
          "internalType": "address",
          "name": "admin",
          "type": "address"
        }
      ],
      "name": "SetAdmin",
      "type": "event"
    },
    {
      "anonymous": false,
      "inputs": [
        {
          "indexed": false,
          "internalType": "uint256",
          "name": "feeMultiplier",
          "type": "uint256"
        }
      ],
      "name": "SetFee",
      "type": "event"
    },
    {
      "anonymous": false,
      "inputs": [
        {
          "indexed": true,
          "internalType": "address",
          "name": "account",
          "type": "address"
        },
        {
          "indexed": false,
          "internalType": "uint256",
          "name": "withdrawAmount",
          "type": "uint256"
        },
        {
          "indexed": false,
          "internalType": "uint256",
          "name": "gasPrice",
          "type": "uint256"
        },
        {
          "indexed": false,
          "internalType": "uint256",
          "name": "feeMultiplier",
          "type": "uint256"
        },
        {
          "indexed": false,
          "internalType": "uint256",
          "name": "protocolFee",
          "type": "uint256"
        },
        {
          "indexed": false,
          "internalType": "uint256",
          "name": "amountIn",
          "type": "uint256"
        },
        {
          "indexed": false,
          "internalType": "uint256",
          "name": "amountOutMin",
          "type": "uint256"
        },
        {
          "indexed": false,
          "internalType": "uint256",
          "name": "amountOutExpected",
          "type": "uint256"
        },
        {
          "indexed": false,
          "internalType": "uint256",
          "name": "amountOutReceived",
          "type": "uint256"
        }
      ],
      "name": "Swap",
      "type": "event"
    },
    {
      "anonymous": false,
      "inputs": [
        {
          "indexed": true,
          "internalType": "address",
          "name": "caller",
          "type": "address"
        },
        {
          "indexed": false,
          "internalType": "uint256",
          "name": "amount",
          "type": "uint256"
        }
      ],
      "name": "WithdrawFees",
      "type": "event"
    },
    {
      "inputs": [],
      "name": "FEE_PRECISION",
      "outputs": [
        {
          "internalType": "uint256",
          "name": "",
          "type": "uint256"
        }
      ],
      "stateMutability": "view",
      "type": "function"
    },
    {
      "inputs": [],
      "name": "MAX_FEE_MULTIPLIER",
      "outputs": [
        {
          "internalType": "uint256",
          "name": "",
          "type": "uint256"
        }
      ],
      "stateMutability": "view",
      "type": "function"
    },
    {
      "inputs": [],
      "name": "SWAP_GAS",
      "outputs": [
        {
          "internalType": "uint256",
          "name": "",
          "type": "uint256"
        }
      ],
      "stateMutability": "view",
      "type": "function"
    },
    {
      "inputs": [],
      "name": "admin",
      "outputs": [
        {
          "internalType": "address",
          "name": "",
          "type": "address"
        }
      ],
      "stateMutability": "view",
      "type": "function"
    },
    {
      "inputs": [],
      "name": "baseGasPrice",
      "outputs": [
        {
          "internalType": "uint256",
          "name": "",
          "type": "uint256"
        }
      ],
      "stateMutability": "view",
      "type": "function"
    },
    {
      "inputs": [],
      "name": "feeMultiplier",
      "outputs": [
        {
          "internalType": "uint256",
          "name": "",
          "type": "uint256"
        }
      ],
      "stateMutability": "view",
      "type": "function"
    },
    {
      "inputs": [],
      "name": "fetchBaseGasPrice",
      "outputs": [],
      "stateMutability": "nonpayable",
      "type": "function"
    },
    {
      "inputs": [],
      "name": "owner",
      "outputs": [
        {
          "internalType": "address",
          "name": "",
          "type": "address"
        }
      ],
      "stateMutability": "view",
      "type": "function"
    },
    {
      "inputs": [],
      "name": "params",
      "outputs": [
        {
          "internalType": "contract IParams",
          "name": "",
          "type": "address"
        }
      ],
      "stateMutability": "view",
      "type": "function"
    },
    {
      "inputs": [
        {
          "internalType": "address",
          "name": "",
          "type": "address"
        }
      ],
      "name": "reserves",
      "outputs": [
        {
          "internalType": "uint256",
          "name": "",
          "type": "uint256"
        }
      ],
      "stateMutability": "view",
      "type": "function"
    },
    {
      "inputs": [
        {
          "internalType": "uint256",
          "name": "",
          "type": "uint256"
        }
      ],
      "name": "routers",
      "outputs": [
        {
          "internalType": "address",
          "name": "",
          "type": "address"
        }
      ],
      "stateMutability": "view",
      "type": "function"
    },
    {
      "inputs": [
        {
          "internalType": "uint256",
          "name": "reserveBalance",
          "type": "uint256"
        }
      ],
      "name": "saveConfig",
      "outputs": [],
      "stateMutability": "nonpayable",
      "type": "function"
    },
    {
      "inputs": [
        {
          "internalType": "address",
          "name": "newAdmin",
          "type": "address"
        }
      ],
      "name": "setAdmin",
      "outputs": [],
      "stateMutability": "nonpayable",
      "type": "function"
    },
    {
      "inputs": [
        {
          "internalType": "uint8",
          "name": "newFeeMultiplier",
          "type": "uint8"
        }
      ],
      "name": "setFeeMultiplier",
      "outputs": [],
      "stateMutability": "nonpayable",
      "type": "function"
    },
    {
      "inputs": [
        {
          "internalType": "address payable",
          "name": "account",
          "type": "address"
        },
        {
          "internalType": "uint256",
          "name": "withdrawAmount",
          "type": "uint256"
        },
        {
          "internalType": "uint256",
          "name": "amountOutMin",
          "type": "uint256"
        }
      ],
      "name": "swap",
      "outputs": [],
      "stateMutability": "nonpayable",
      "type": "function"
    },
    {
      "inputs": [],
      "name": "vtho",
      "outputs": [
        {
          "internalType": "contract IEnergy",
          "name": "",
          "type": "address"
        }
      ],
      "stateMutability": "view",
      "type": "function"
    },
    {
      "inputs": [],
      "name": "vvet",
      "outputs": [
        {
          "internalType": "address",
          "name": "",
          "type": "address"
        }
      ],
      "stateMutability": "view",
      "type": "function"
    },
    {
      "inputs": [],
      "name": "withdrawFees",
      "outputs": [],
      "stateMutability": "nonpayable",
      "type": "function"
    }
  ],
  "bytecode": "0x60c0604052601e6003553480156200001657600080fd5b50604051620026593803806200265983398181016040528101906200003c91906200041e565b8173ffffffffffffffffffffffffffffffffffffffff1660808173ffffffffffffffffffffffffffffffffffffffff168152505080600190600262000083929190620001a6565b503373ffffffffffffffffffffffffffffffffffffffff1660a08173ffffffffffffffffffffffffffffffffffffffff1681525050620000c8620000d060201b60201c565b505062000577565b65506172616d7373ffffffffffffffffffffffffffffffffffffffff16638eaa6ac06d626173652d6761732d70726963656040518263ffffffff1660e01b81526004016200011f9190620004bf565b602060405180830381865afa1580156200013d573d6000803e3d6000fd5b505050506040513d601f19601f8201168201806040525081019062000163919062000517565b6004819055507f9e80beb690c9b039ef1aded51d16690f35068933fb71a9b56cc944e02ced07b06004546040516200019c91906200055a565b60405180910390a1565b826002810192821562000215579160200282015b82811115620002145782518260006101000a81548173ffffffffffffffffffffffffffffffffffffffff021916908373ffffffffffffffffffffffffffffffffffffffff16021790555091602001919060010190620001ba565b5b50905062000224919062000228565b5090565b5b808211156200024357600081600090555060010162000229565b5090565b6000604051905090565b600080fd5b600073ffffffffffffffffffffffffffffffffffffffff82169050919050565b6000620002838262000256565b9050919050565b620002958162000276565b8114620002a157600080fd5b50565b600081519050620002b5816200028a565b92915050565b600080fd5b6000601f19601f8301169050919050565b7f4e487b7100000000000000000000000000000000000000000000000000000000600052604160045260246000fd5b6200030b82620002c0565b810181811067ffffffffffffffff821117156200032d576200032c620002d1565b5b80604052505050565b60006200034262000247565b905062000350828262000300565b919050565b600067ffffffffffffffff821115620003735762000372620002d1565b5b602082029050919050565b600080fd5b60006200039a620003948462000355565b62000336565b90508060208402830185811115620003b757620003b66200037e565b5b835b81811015620003e45780620003cf8882620002a4565b845260208401935050602081019050620003b9565b5050509392505050565b600082601f830112620004065762000405620002bb565b5b60026200041584828562000383565b91505092915050565b6000806060838503121562000438576200043762000251565b5b60006200044885828601620002a4565b92505060206200045b85828601620003ee565b9150509250929050565b6000819050919050565b6000819050919050565b60008160001b9050919050565b6000620004a7620004a16200049b8462000465565b62000479565b6200046f565b9050919050565b620004b98162000486565b82525050565b6000602082019050620004d66000830184620004ae565b92915050565b6000819050919050565b620004f181620004dc565b8114620004fd57600080fd5b50565b6000815190506200051181620004e6565b92915050565b60006020828403121562000530576200052f62000251565b5b6000620005408482850162000500565b91505092915050565b6200055481620004dc565b82525050565b600060208201905062000571600083018462000549565b92915050565b60805160a0516120a0620005b9600039600081816104a2015281816106c201528181610803015261091d015260008181610bea0152610ed901526120a06000f3fe608060405234801561001057600080fd5b50600436106101165760003560e01c80639f1d0f59116100a2578063d66bd52411610071578063d66bd52414610283578063e15c58a4146102b3578063e5a70ef7146102d1578063e63a391f146102ef578063f851a4401461030d57610116565b80639f1d0f591461020d578063b699414414610229578063cff0ab9614610247578063d4b0dbdd1461026557610116565b8063704b6c02116100e9578063704b6c021461017b578063750f198a1461019757806387b6f0d2146101b55780638aee4cfe146101d35780638da5cb5b146101ef57610116565b8063057079531461011b578063476343ee146101255780634b0bbaa41461012f5780634e9c11181461014b575b600080fd5b61012361032b565b005b61012d6103fa565b005b61014960048036038101906101449190611229565b6105b2565b005b61016560048036038101906101609190611229565b61068a565b6040516101729190611297565b60405180910390f35b610195600480360381019061019091906112de565b6106c0565b005b61019f6107f4565b6040516101ac919061131a565b60405180910390f35b6101bd6107fb565b6040516101ca919061131a565b60405180910390f35b6101ed60048036038101906101e8919061136e565b610801565b005b6101f761091b565b6040516102049190611297565b60405180910390f35b610227600480360381019061022291906113d9565b61093f565b005b610231610ea6565b60405161023e919061131a565b60405180910390f35b61024f610eab565b60405161025c919061148b565b60405180910390f35b61026d610eb5565b60405161027a91906114c7565b60405180910390f35b61029d600480360381019061029891906112de565b610ebf565b6040516102aa919061131a565b60405180910390f35b6102bb610ed7565b6040516102c89190611297565b60405180910390f35b6102d9610efb565b6040516102e6919061131a565b60405180910390f35b6102f7610f01565b604051610304919061131a565b60405180910390f35b610315610f07565b6040516103229190611297565b60405180910390f35b65506172616d7373ffffffffffffffffffffffffffffffffffffffff16638eaa6ac06d626173652d6761732d70726963656040518263ffffffff1660e01b81526004016103789190611534565b602060405180830381865afa158015610395573d6000803e3d6000fd5b505050506040513d601f19601f820116820180604052508101906103b99190611564565b6004819055507f9e80beb690c9b039ef1aded51d16690f35068933fb71a9b56cc944e02ced07b06004546040516103f0919061131a565b60405180910390a1565b600065456e6572677973ffffffffffffffffffffffffffffffffffffffff166370a08231306040518263ffffffff1660e01b815260040161043b9190611297565b602060405180830381865afa158015610458573d6000803e3d6000fd5b505050506040513d601f19601f8201168201806040525081019061047c9190611564565b905065456e6572677973ffffffffffffffffffffffffffffffffffffffff1663a9059cbb7f0000000000000000000000000000000000000000000000000000000000000000836040518363ffffffff1660e01b81526004016104df929190611591565b6020604051808303816000875af11580156104fe573d6000803e3d6000fd5b505050506040513d601f19601f8201168201806040525081019061052291906115f2565b610561576040517f08c379a00000000000000000000000000000000000000000000000000000000081526004016105589061167c565b60405180910390fd5b3373ffffffffffffffffffffffffffffffffffffffff167f9bba815921f12cb7b1408e14b5ade745234397d39623ae5e7c82d693cb45815f826040516105a7919061131a565b60405180910390a250565b600081116105f5576040517f08c379a00000000000000000000000000000000000000000000000000000000081526004016105ec906116e8565b60405180910390fd5b80600560003373ffffffffffffffffffffffffffffffffffffffff1673ffffffffffffffffffffffffffffffffffffffff168152602001908152602001600020819055503373ffffffffffffffffffffffffffffffffffffffff167f7cf7f245e0ac9ee076d209114cedb03ee23c22f397ad7c400bfc99bbfa8859338260405161067f919061131a565b60405180910390a250565b6001816002811061069a57600080fd5b016000915054906101000a900473ffffffffffffffffffffffffffffffffffffffff1681565b7f000000000000000000000000000000000000000000000000000000000000000073ffffffffffffffffffffffffffffffffffffffff163373ffffffffffffffffffffffffffffffffffffffff161461074e576040517f08c379a000000000000000000000000000000000000000000000000000000000815260040161074590611754565b60405180910390fd5b806000806101000a81548173ffffffffffffffffffffffffffffffffffffffff021916908373ffffffffffffffffffffffffffffffffffffffff16021790555060008054906101000a900473ffffffffffffffffffffffffffffffffffffffff1673ffffffffffffffffffffffffffffffffffffffff167f5a272403b402d892977df56625f4164ccaf70ca3863991c43ecfe76a6905b0a160405160405180910390a250565b62045c9481565b60045481565b7f000000000000000000000000000000000000000000000000000000000000000073ffffffffffffffffffffffffffffffffffffffff163373ffffffffffffffffffffffffffffffffffffffff161461088f576040517f08c379a000000000000000000000000000000000000000000000000000000000815260040161088690611754565b60405180910390fd5b601e8160ff1611156108d6576040517f08c379a00000000000000000000000000000000000000000000000000000000081526004016108cd906117c0565b60405180910390fd5b8060ff166003819055507e172ddfc5ae88d08b3de01a5a187667c37a5a53989e8c175055cb6c993792a7600354604051610910919061131a565b60405180910390a150565b7f000000000000000000000000000000000000000000000000000000000000000081565b60008054906101000a900473ffffffffffffffffffffffffffffffffffffffff1673ffffffffffffffffffffffffffffffffffffffff163373ffffffffffffffffffffffffffffffffffffffff16146109cd576040517f08c379a00000000000000000000000000000000000000000000000000000000081526004016109c49061182c565b60405180910390fd5b60045460026109dc919061187b565b3a1115610a1e576040517f08c379a0000000000000000000000000000000000000000000000000000000008152600401610a1590611909565b60405180910390fd5b610a288383610f2b565b65456e6572677973ffffffffffffffffffffffffffffffffffffffff166323b872dd8430856040518463ffffffff1660e01b8152600401610a6b9392919061194a565b6020604051808303816000875af1158015610a8a573d6000803e3d6000fd5b505050506040513d601f19601f82011682018060405250810190610aae91906115f2565b610aed576040517f08c379a0000000000000000000000000000000000000000000000000000000008152600401610ae4906119cd565b60405180910390fd5b60003a62045c94610afe919061187b565b905060006127106003548386610b1491906119ed565b610b1e919061187b565b610b289190611a50565b90506000818386610b3991906119ed565b610b4391906119ed565b90506000600267ffffffffffffffff811115610b6257610b61611a81565b5b604051908082528060200260200182016040528015610b905781602001602082028036833780820191505090505b50905065456e6572677981600081518110610bae57610bad611ab0565b5b602002602001019073ffffffffffffffffffffffffffffffffffffffff16908173ffffffffffffffffffffffffffffffffffffffff16815250507f000000000000000000000000000000000000000000000000000000000000000081600181518110610c1d57610c1c611ab0565b5b602002602001019073ffffffffffffffffffffffffffffffffffffffff16908173ffffffffffffffffffffffffffffffffffffffff1681525050600080610c648385611084565b9150915086811015610cab576040517f08c379a0000000000000000000000000000000000000000000000000000000008152600401610ca290611b51565b60405180910390fd5b65456e6572677973ffffffffffffffffffffffffffffffffffffffff1663095ea7b383866040518363ffffffff1660e01b8152600401610cec929190611591565b6020604051808303816000875af1158015610d0b573d6000803e3d6000fd5b505050506040513d601f19601f82011682018060405250810190610d2f91906115f2565b610d6e576040517f08c379a0000000000000000000000000000000000000000000000000000000008152600401610d6590611bbd565b60405180910390fd5b60008273ffffffffffffffffffffffffffffffffffffffff166318cbafe5866103e86103de86610d9e919061187b565b610da89190611a50565b878e426040518663ffffffff1660e01b8152600401610dcb959493929190611c9b565b6000604051808303816000875af1158015610dea573d6000803e3d6000fd5b505050506040513d6000823e3d601f19601f82011682018060405250810190610e139190611e1f565b90508973ffffffffffffffffffffffffffffffffffffffff167f05131d197b3457b61386ff1f463510d3efd61b222292c32047cc7bc779804bbf8a3a6003548a8a8e898960018b51610e6591906119ed565b81518110610e7657610e75611ab0565b5b6020026020010151604051610e92989796959493929190611e68565b60405180910390a250505050505050505050565b601e81565b65506172616d7381565b65456e6572677981565b60056020528060005260406000206000915090505481565b7f000000000000000000000000000000000000000000000000000000000000000081565b60035481565b61271081565b60008054906101000a900473ffffffffffffffffffffffffffffffffffffffff1681565b6000600560008473ffffffffffffffffffffffffffffffffffffffff1673ffffffffffffffffffffffffffffffffffffffff16815260200190815260200160002054905060008111610fb2576040517f08c379a0000000000000000000000000000000000000000000000000000000008152600401610fa990611f32565b60405180910390fd5b8082610fbe9190611f52565b65456e6572677973ffffffffffffffffffffffffffffffffffffffff166370a08231856040518263ffffffff1660e01b8152600401610ffd9190611297565b602060405180830381865afa15801561101a573d6000803e3d6000fd5b505050506040513d601f19601f8201168201806040525081019061103e9190611564565b101561107f576040517f08c379a000000000000000000000000000000000000000000000000000000000815260040161107690611fd2565b60405180910390fd5b505050565b60008060008060005b600281101561119a576000600182600281106110ac576110ab611ab0565b5b0160009054906101000a900473ffffffffffffffffffffffffffffffffffffffff16905060008173ffffffffffffffffffffffffffffffffffffffff1663d06ca61f898b6040518363ffffffff1660e01b815260040161110d929190611ff2565b600060405180830381865afa15801561112a573d6000803e3d6000fd5b505050506040513d6000823e3d601f19601f820116820180604052508101906111539190611e1f565b905060008160018151811061116b5761116a611ab0565b5b6020026020010151905084811115611184578395508094505b505050808061119290612022565b91505061108d565b50600182600281106111af576111ae611ab0565b5b0160009054906101000a900473ffffffffffffffffffffffffffffffffffffffff16819350935050509250929050565b6000604051905090565b600080fd5b600080fd5b6000819050919050565b611206816111f3565b811461121157600080fd5b50565b600081359050611223816111fd565b92915050565b60006020828403121561123f5761123e6111e9565b5b600061124d84828501611214565b91505092915050565b600073ffffffffffffffffffffffffffffffffffffffff82169050919050565b600061128182611256565b9050919050565b61129181611276565b82525050565b60006020820190506112ac6000830184611288565b92915050565b6112bb81611276565b81146112c657600080fd5b50565b6000813590506112d8816112b2565b92915050565b6000602082840312156112f4576112f36111e9565b5b6000611302848285016112c9565b91505092915050565b611314816111f3565b82525050565b600060208201905061132f600083018461130b565b92915050565b600060ff82169050919050565b61134b81611335565b811461135657600080fd5b50565b60008135905061136881611342565b92915050565b600060208284031215611384576113836111e9565b5b600061139284828501611359565b91505092915050565b60006113a682611256565b9050919050565b6113b68161139b565b81146113c157600080fd5b50565b6000813590506113d3816113ad565b92915050565b6000806000606084860312156113f2576113f16111e9565b5b6000611400868287016113c4565b935050602061141186828701611214565b925050604061142286828701611214565b9150509250925092565b6000819050919050565b600061145161144c61144784611256565b61142c565b611256565b9050919050565b600061146382611436565b9050919050565b600061147582611458565b9050919050565b6114858161146a565b82525050565b60006020820190506114a0600083018461147c565b92915050565b60006114b182611458565b9050919050565b6114c1816114a6565b82525050565b60006020820190506114dc60008301846114b8565b92915050565b6000819050919050565b6000819050919050565b60008160001b9050919050565b600061151e611519611514846114e2565b6114f6565b6114ec565b9050919050565b61152e81611503565b82525050565b60006020820190506115496000830184611525565b92915050565b60008151905061155e816111fd565b92915050565b60006020828403121561157a576115796111e9565b5b60006115888482850161154f565b91505092915050565b60006040820190506115a66000830185611288565b6115b3602083018461130b565b9392505050565b60008115159050919050565b6115cf816115ba565b81146115da57600080fd5b50565b6000815190506115ec816115c6565b92915050565b600060208284031215611608576116076111e9565b5b6000611616848285016115dd565b91505092915050565b600082825260208201905092915050565b7f5472616465723a2077697468647261772066656573206661696c656400000000600082015250565b6000611666601c8361161f565b915061167182611630565b602082019050919050565b6000602082019050818103600083015261169581611659565b9050919050565b7f5472616465723a20696e76616c69642072657365727665000000000000000000600082015250565b60006116d260178361161f565b91506116dd8261169c565b602082019050919050565b60006020820190508181036000830152611701816116c5565b9050919050565b7f5472616465723a206163636f756e74206973206e6f74206f776e657200000000600082015250565b600061173e601c8361161f565b915061174982611708565b602082019050919050565b6000602082019050818103600083015261176d81611731565b9050919050565b7f5472616465723a20696e76616c696420666565206d756c7469706c6965720000600082015250565b60006117aa601e8361161f565b91506117b582611774565b602082019050919050565b600060208201905081810360008301526117d98161179d565b9050919050565b7f5472616465723a206163636f756e74206973206e6f742061646d696e00000000600082015250565b6000611816601c8361161f565b9150611821826117e0565b602082019050919050565b6000602082019050818103600083015261184581611809565b9050919050565b7f4e487b7100000000000000000000000000000000000000000000000000000000600052601160045260246000fd5b6000611886826111f3565b9150611891836111f3565b925082820261189f816111f3565b915082820484148315176118b6576118b561184c565b5b5092915050565b7f5472616465723a2067617320707269636520746f6f2068696768000000000000600082015250565b60006118f3601a8361161f565b91506118fe826118bd565b602082019050919050565b60006020820190508181036000830152611922816118e6565b9050919050565b600061193482611458565b9050919050565b61194481611929565b82525050565b600060608201905061195f600083018661193b565b61196c6020830185611288565b611979604083018461130b565b949350505050565b7f5472616465723a207472616e736665722066726f6d206661696c656400000000600082015250565b60006119b7601c8361161f565b91506119c282611981565b602082019050919050565b600060208201905081810360008301526119e6816119aa565b9050919050565b60006119f8826111f3565b9150611a03836111f3565b9250828203905081811115611a1b57611a1a61184c565b5b92915050565b7f4e487b7100000000000000000000000000000000000000000000000000000000600052601260045260246000fd5b6000611a5b826111f3565b9150611a66836111f3565b925082611a7657611a75611a21565b5b828204905092915050565b7f4e487b7100000000000000000000000000000000000000000000000000000000600052604160045260246000fd5b7f4e487b7100000000000000000000000000000000000000000000000000000000600052603260045260246000fd5b7f5472616465723a20616d6f756e74206f757420657870656374656420746f6f2060008201527f6c6f770000000000000000000000000000000000000000000000000000000000602082015250565b6000611b3b60238361161f565b9150611b4682611adf565b604082019050919050565b60006020820190508181036000830152611b6a81611b2e565b9050919050565b7f5472616465723a20617070726f7665206661696c656400000000000000000000600082015250565b6000611ba760168361161f565b9150611bb282611b71565b602082019050919050565b60006020820190508181036000830152611bd681611b9a565b9050919050565b600081519050919050565b600082825260208201905092915050565b6000819050602082019050919050565b611c1281611276565b82525050565b6000611c248383611c09565b60208301905092915050565b6000602082019050919050565b6000611c4882611bdd565b611c528185611be8565b9350611c5d83611bf9565b8060005b83811015611c8e578151611c758882611c18565b9750611c8083611c30565b925050600181019050611c61565b5085935050505092915050565b600060a082019050611cb0600083018861130b565b611cbd602083018761130b565b8181036040830152611ccf8186611c3d565b9050611cde606083018561193b565b611ceb608083018461130b565b9695505050505050565b600080fd5b6000601f19601f8301169050919050565b611d1482611cfa565b810181811067ffffffffffffffff82111715611d3357611d32611a81565b5b80604052505050565b6000611d466111df565b9050611d528282611d0b565b919050565b600067ffffffffffffffff821115611d7257611d71611a81565b5b602082029050602081019050919050565b600080fd5b6000611d9b611d9684611d57565b611d3c565b90508083825260208201905060208402830185811115611dbe57611dbd611d83565b5b835b81811015611de75780611dd3888261154f565b845260208401935050602081019050611dc0565b5050509392505050565b600082601f830112611e0657611e05611cf5565b5b8151611e16848260208601611d88565b91505092915050565b600060208284031215611e3557611e346111e9565b5b600082015167ffffffffffffffff811115611e5357611e526111ee565b5b611e5f84828501611df1565b91505092915050565b600061010082019050611e7e600083018b61130b565b611e8b602083018a61130b565b611e98604083018961130b565b611ea5606083018861130b565b611eb2608083018761130b565b611ebf60a083018661130b565b611ecc60c083018561130b565b611ed960e083018461130b565b9998505050505050505050565b7f5472616465723a2072657365727665206e6f7420696e697469616c697a656400600082015250565b6000611f1c601f8361161f565b9150611f2782611ee6565b602082019050919050565b60006020820190508181036000830152611f4b81611f0f565b9050919050565b6000611f5d826111f3565b9150611f68836111f3565b9250828201905080821115611f8057611f7f61184c565b5b92915050565b7f5472616465723a20696e73756666696369656e742062616c616e636500000000600082015250565b6000611fbc601c8361161f565b9150611fc782611f86565b602082019050919050565b60006020820190508181036000830152611feb81611faf565b9050919050565b6000604082019050612007600083018561130b565b81810360208301526120198184611c3d565b90509392505050565b600061202d826111f3565b91507fffffffffffffffffffffffffffffffffffffffffffffffffffffffffffffffff820361205f5761205e61184c565b5b60018201905091905056fea26469706673582212201a126c31eb8ea788c51b613f48d17421c596d0851b63b4ed029debd9f9d7c29964736f6c63430008130033",
  "linkReferences": {},
  "deployedLinkReferences": {}
}