{
  "_format": "hh-sol-artifact-1",
  "contractName": "Trader",
  "sourceName": "contracts/Trader.sol",
  "abi": [
    {
      "inputs": [
        {
          "internalType": "address[2]",
          "name": "routers_",
          "type": "address[2]"
        }
      ],
      "stateMutability": "nonpayable",
      "type": "constructor"
    },
    {
      "anonymous": false,
      "inputs": [
        {
          "indexed": true,
          "internalType": "address",
          "name": "account",
          "type": "address"
        },
        {
          "indexed": false,
          "internalType": "uint256",
          "name": "reserveBalance",
          "type": "uint256"
        }
      ],
      "name": "Config",
      "type": "event"
    },
    {
      "anonymous": false,
      "inputs": [
        {
          "indexed": true,
          "internalType": "address",
          "name": "account",
          "type": "address"
        },
        {
          "indexed": false,
          "internalType": "uint256",
          "name": "withdrawAmount",
          "type": "uint256"
        },
        {
          "indexed": false,
          "internalType": "uint256",
          "name": "gasPrice",
          "type": "uint256"
        },
        {
          "indexed": false,
          "internalType": "uint256",
          "name": "protocolFee",
          "type": "uint256"
        },
        {
          "indexed": false,
          "internalType": "uint256",
          "name": "maxRate",
          "type": "uint256"
        },
        {
          "indexed": false,
          "internalType": "uint256",
          "name": "amountOutMin",
          "type": "uint256"
        },
        {
          "indexed": false,
          "internalType": "uint256",
          "name": "amountOut",
          "type": "uint256"
        }
      ],
      "name": "Swap",
      "type": "event"
    },
    {
      "inputs": [],
      "name": "MAX_WITHDRAW_AMOUNT",
      "outputs": [
        {
          "internalType": "uint256",
          "name": "",
          "type": "uint256"
        }
      ],
      "stateMutability": "view",
      "type": "function"
    },
    {
      "inputs": [],
      "name": "SWAP_GAS",
      "outputs": [
        {
          "internalType": "uint256",
          "name": "",
          "type": "uint256"
        }
      ],
      "stateMutability": "view",
      "type": "function"
    },
    {
      "inputs": [],
      "name": "admin",
      "outputs": [
        {
          "internalType": "address",
          "name": "",
          "type": "address"
        }
      ],
      "stateMutability": "view",
      "type": "function"
    },
    {
      "inputs": [],
      "name": "feeMultiplier",
      "outputs": [
        {
          "internalType": "uint8",
          "name": "",
          "type": "uint8"
        }
      ],
      "stateMutability": "view",
      "type": "function"
    },
    {
      "inputs": [],
      "name": "owner",
      "outputs": [
        {
          "internalType": "address",
          "name": "",
          "type": "address"
        }
      ],
      "stateMutability": "view",
      "type": "function"
    },
    {
      "inputs": [
        {
          "internalType": "address",
          "name": "",
          "type": "address"
        }
      ],
      "name": "reserves",
      "outputs": [
        {
          "internalType": "uint256",
          "name": "",
          "type": "uint256"
        }
      ],
      "stateMutability": "view",
      "type": "function"
    },
    {
      "inputs": [
        {
          "internalType": "uint256",
          "name": "",
          "type": "uint256"
        }
      ],
      "name": "routers",
      "outputs": [
        {
          "internalType": "address",
          "name": "",
          "type": "address"
        }
      ],
      "stateMutability": "view",
      "type": "function"
    },
    {
      "inputs": [
        {
          "internalType": "uint256",
          "name": "reserveBalance",
          "type": "uint256"
        }
      ],
      "name": "saveConfig",
      "outputs": [],
      "stateMutability": "nonpayable",
      "type": "function"
    },
    {
      "inputs": [
        {
          "internalType": "address",
          "name": "newAdmin",
          "type": "address"
        }
      ],
      "name": "setAdmin",
      "outputs": [],
      "stateMutability": "nonpayable",
      "type": "function"
    },
    {
      "inputs": [
        {
          "internalType": "uint8",
          "name": "newFeeMultiplier",
          "type": "uint8"
        }
      ],
      "name": "setFeeMultiplier",
      "outputs": [],
      "stateMutability": "nonpayable",
      "type": "function"
    },
    {
      "inputs": [
        {
          "internalType": "address payable",
          "name": "account",
          "type": "address"
        },
        {
          "internalType": "uint8",
          "name": "routerIndex",
          "type": "uint8"
        },
        {
          "internalType": "uint256",
          "name": "withdrawAmount",
          "type": "uint256"
        },
        {
          "internalType": "uint256",
          "name": "maxRate",
          "type": "uint256"
        }
      ],
      "name": "swap",
      "outputs": [],
      "stateMutability": "nonpayable",
      "type": "function"
    },
    {
      "inputs": [],
      "name": "vtho",
      "outputs": [
        {
          "internalType": "contract IEnergy",
          "name": "",
          "type": "address"
        }
      ],
      "stateMutability": "view",
      "type": "function"
    },
    {
      "inputs": [],
      "name": "withdrawFees",
      "outputs": [],
      "stateMutability": "nonpayable",
      "type": "function"
    }
  ],
  "bytecode": "0x60a0604052601e600260146101000a81548160ff021916908360ff1602179055503480156200002d57600080fd5b5060405162001de838038062001de883398181016040528101906200005391906200031a565b3373ffffffffffffffffffffffffffffffffffffffff1660808173ffffffffffffffffffffffffffffffffffffffff16815250508060009060026200009a929190620000a2565b50506200034c565b826002810192821562000111579160200282015b82811115620001105782518260006101000a81548173ffffffffffffffffffffffffffffffffffffffff021916908373ffffffffffffffffffffffffffffffffffffffff16021790555091602001919060010190620000b6565b5b50905062000120919062000124565b5090565b5b808211156200013f57600081600090555060010162000125565b5090565b6000604051905090565b600080fd5b600080fd5b6000601f19601f8301169050919050565b7f4e487b7100000000000000000000000000000000000000000000000000000000600052604160045260246000fd5b620001a28262000157565b810181811067ffffffffffffffff82111715620001c457620001c362000168565b5b80604052505050565b6000620001d962000143565b9050620001e7828262000197565b919050565b600067ffffffffffffffff8211156200020a576200020962000168565b5b602082029050919050565b600080fd5b600073ffffffffffffffffffffffffffffffffffffffff82169050919050565b600062000247826200021a565b9050919050565b62000259816200023a565b81146200026557600080fd5b50565b60008151905062000279816200024e565b92915050565b6000620002966200029084620001ec565b620001cd565b90508060208402830185811115620002b357620002b262000215565b5b835b81811015620002e05780620002cb888262000268565b845260208401935050602081019050620002b5565b5050509392505050565b600082601f83011262000302576200030162000152565b5b6002620003118482856200027f565b91505092915050565b6000604082840312156200033357620003326200014d565b5b60006200034384828501620002ea565b91505092915050565b608051611a64620003846000396000818161027101528181610321015281816105330152818161060c01526106ff0152611a646000f3fe608060405234801561001057600080fd5b50600436106100cf5760003560e01c80638aee4cfe1161008c578063d66bd52411610066578063d66bd524146101da578063e5a70ef71461020a578063f7c59cf114610228578063f851a44014610244576100cf565b80638aee4cfe146101825780638da5cb5b1461019e578063d4b0dbdd146101bc576100cf565b806344ba0ea2146100d4578063476343ee146100f25780634b0bbaa4146100fc5780634e9c111814610118578063704b6c0214610148578063750f198a14610164575b600080fd5b6100dc610262565b6040516100e99190610e50565b60405180910390f35b6100fa61026f565b005b61011660048036038101906101119190610eab565b610423565b005b610132600480360381019061012d9190610eab565b6104fb565b60405161013f9190610f19565b60405180910390f35b610162600480360381019061015d9190610f60565b610531565b005b61016c610603565b6040516101799190610e50565b60405180910390f35b61019c60048036038101906101979190610fc6565b61060a565b005b6101a66106fd565b6040516101b39190610f19565b60405180910390f35b6101c4610721565b6040516101d19190611052565b60405180910390f35b6101f460048036038101906101ef9190610f60565b61072b565b6040516102019190610e50565b60405180910390f35b610212610743565b60405161021f919061107c565b60405180910390f35b610242600480360381019061023d91906110d5565b610756565b005b61024c610cb2565b6040516102599190610f19565b60405180910390f35b683635c9adc5dea0000081565b7f000000000000000000000000000000000000000000000000000000000000000073ffffffffffffffffffffffffffffffffffffffff163373ffffffffffffffffffffffffffffffffffffffff16146102fd576040517f08c379a00000000000000000000000000000000000000000000000000000000081526004016102f490611199565b60405180910390fd5b65456e6572677973ffffffffffffffffffffffffffffffffffffffff1663a9059cbb7f000000000000000000000000000000000000000000000000000000000000000065456e6572677973ffffffffffffffffffffffffffffffffffffffff166370a08231306040518263ffffffff1660e01b815260040161037f9190610f19565b602060405180830381865afa15801561039c573d6000803e3d6000fd5b505050506040513d601f19601f820116820180604052508101906103c091906111ce565b6040518363ffffffff1660e01b81526004016103dd9291906111fb565b6020604051808303816000875af11580156103fc573d6000803e3d6000fd5b505050506040513d601f19601f82011682018060405250810190610420919061125c565b50565b60008111610466576040517f08c379a000000000000000000000000000000000000000000000000000000000815260040161045d906112d5565b60405180910390fd5b80600360003373ffffffffffffffffffffffffffffffffffffffff1673ffffffffffffffffffffffffffffffffffffffff168152602001908152602001600020819055503373ffffffffffffffffffffffffffffffffffffffff167f7cf7f245e0ac9ee076d209114cedb03ee23c22f397ad7c400bfc99bbfa885933826040516104f09190610e50565b60405180910390a250565b6000816002811061050b57600080fd5b016000915054906101000a900473ffffffffffffffffffffffffffffffffffffffff1681565b7f000000000000000000000000000000000000000000000000000000000000000073ffffffffffffffffffffffffffffffffffffffff163373ffffffffffffffffffffffffffffffffffffffff16146105bf576040517f08c379a00000000000000000000000000000000000000000000000000000000081526004016105b690611199565b60405180910390fd5b80600260006101000a81548173ffffffffffffffffffffffffffffffffffffffff021916908373ffffffffffffffffffffffffffffffffffffffff16021790555050565b62040db481565b7f000000000000000000000000000000000000000000000000000000000000000073ffffffffffffffffffffffffffffffffffffffff163373ffffffffffffffffffffffffffffffffffffffff1614610698576040517f08c379a000000000000000000000000000000000000000000000000000000000815260040161068f90611199565b60405180910390fd5b601e8160ff1611156106df576040517f08c379a00000000000000000000000000000000000000000000000000000000081526004016106d690611341565b60405180910390fd5b80600260146101000a81548160ff021916908360ff16021790555050565b7f000000000000000000000000000000000000000000000000000000000000000081565b65456e6572677981565b60036020528060005260406000206000915090505481565b600260149054906101000a900460ff1681565b600260009054906101000a900473ffffffffffffffffffffffffffffffffffffffff1673ffffffffffffffffffffffffffffffffffffffff163373ffffffffffffffffffffffffffffffffffffffff16146107e6576040517f08c379a00000000000000000000000000000000000000000000000000000000081526004016107dd906113ad565b60405180910390fd5b6107f08483610cd8565b65456e6572677973ffffffffffffffffffffffffffffffffffffffff166323b872dd8530856040518463ffffffff1660e01b8152600401610833939291906113ee565b6020604051808303816000875af1158015610852573d6000803e3d6000fd5b505050506040513d601f19601f82011682018060405250810190610876919061125c565b6108b5576040517f08c379a00000000000000000000000000000000000000000000000000000000081526004016108ac90611471565b60405180910390fd5b60003a62040db46108c691906114c0565b90506000612710600260149054906101000a900460ff1660ff1683866108ec9190611502565b6108f691906114c0565b6109009190611565565b905060008183866109119190611502565b61091b9190611502565b90506000846103e88361092e91906114c0565b6109389190611565565b90506000808860ff166002811061095257610951611596565b5b0160009054906101000a900473ffffffffffffffffffffffffffffffffffffffff16905065456e6572677973ffffffffffffffffffffffffffffffffffffffff1663095ea7b382856040518363ffffffff1660e01b81526004016109b79291906111fb565b6020604051808303816000875af11580156109d6573d6000803e3d6000fd5b505050506040513d601f19601f820116820180604052508101906109fa919061125c565b610a39576040517f08c379a0000000000000000000000000000000000000000000000000000000008152600401610a3090611611565b60405180910390fd5b6000600267ffffffffffffffff811115610a5657610a55611631565b5b604051908082528060200260200182016040528015610a845781602001602082028036833780820191505090505b50905065456e6572677981600081518110610aa257610aa1611596565b5b602002602001019073ffffffffffffffffffffffffffffffffffffffff16908173ffffffffffffffffffffffffffffffffffffffff16815250508173ffffffffffffffffffffffffffffffffffffffff1663ad5c46486040518163ffffffff1660e01b8152600401602060405180830381865afa158015610b27573d6000803e3d6000fd5b505050506040513d601f19601f82011682018060405250810190610b4b9190611675565b81600181518110610b5f57610b5e611596565b5b602002602001019073ffffffffffffffffffffffffffffffffffffffff16908173ffffffffffffffffffffffffffffffffffffffff168152505060008273ffffffffffffffffffffffffffffffffffffffff166318cbafe58686858f426040518663ffffffff1660e01b8152600401610bdc959493929190611760565b6000604051808303816000875af1158015610bfb573d6000803e3d6000fd5b505050506040513d6000823e3d601f19601f82011682018060405250810190610c2491906118e4565b90508a73ffffffffffffffffffffffffffffffffffffffff167f1c66e529e5eda665469886610afddba48a9cc0e5d92fb155ae84dab6c81d155d8a3a898c898760018951610c729190611502565b81518110610c8357610c82611596565b5b6020026020010151604051610c9d9695949392919061192d565b60405180910390a25050505050505050505050565b600260009054906101000a900473ffffffffffffffffffffffffffffffffffffffff1681565b6000600360008473ffffffffffffffffffffffffffffffffffffffff1673ffffffffffffffffffffffffffffffffffffffff16815260200190815260200160002054905060008111610d5f576040517f08c379a0000000000000000000000000000000000000000000000000000000008152600401610d56906112d5565b60405180910390fd5b600065456e6572677973ffffffffffffffffffffffffffffffffffffffff166370a08231856040518263ffffffff1660e01b8152600401610da09190610f19565b602060405180830381865afa158015610dbd573d6000803e3d6000fd5b505050506040513d601f19601f82011682018060405250810190610de191906111ce565b90508183610def919061198e565b811015610e31576040517f08c379a0000000000000000000000000000000000000000000000000000000008152600401610e2890611a0e565b60405180910390fd5b50505050565b6000819050919050565b610e4a81610e37565b82525050565b6000602082019050610e656000830184610e41565b92915050565b6000604051905090565b600080fd5b600080fd5b610e8881610e37565b8114610e9357600080fd5b50565b600081359050610ea581610e7f565b92915050565b600060208284031215610ec157610ec0610e75565b5b6000610ecf84828501610e96565b91505092915050565b600073ffffffffffffffffffffffffffffffffffffffff82169050919050565b6000610f0382610ed8565b9050919050565b610f1381610ef8565b82525050565b6000602082019050610f2e6000830184610f0a565b92915050565b610f3d81610ef8565b8114610f4857600080fd5b50565b600081359050610f5a81610f34565b92915050565b600060208284031215610f7657610f75610e75565b5b6000610f8484828501610f4b565b91505092915050565b600060ff82169050919050565b610fa381610f8d565b8114610fae57600080fd5b50565b600081359050610fc081610f9a565b92915050565b600060208284031215610fdc57610fdb610e75565b5b6000610fea84828501610fb1565b91505092915050565b6000819050919050565b600061101861101361100e84610ed8565b610ff3565b610ed8565b9050919050565b600061102a82610ffd565b9050919050565b600061103c8261101f565b9050919050565b61104c81611031565b82525050565b60006020820190506110676000830184611043565b92915050565b61107681610f8d565b82525050565b6000602082019050611091600083018461106d565b92915050565b60006110a282610ed8565b9050919050565b6110b281611097565b81146110bd57600080fd5b50565b6000813590506110cf816110a9565b92915050565b600080600080608085870312156110ef576110ee610e75565b5b60006110fd878288016110c0565b945050602061110e87828801610fb1565b935050604061111f87828801610e96565b925050606061113087828801610e96565b91505092959194509250565b600082825260208201905092915050565b7f5472616465723a206163636f756e74206973206e6f74206f776e657200000000600082015250565b6000611183601c8361113c565b915061118e8261114d565b602082019050919050565b600060208201905081810360008301526111b281611176565b9050919050565b6000815190506111c881610e7f565b92915050565b6000602082840312156111e4576111e3610e75565b5b60006111f2848285016111b9565b91505092915050565b60006040820190506112106000830185610f0a565b61121d6020830184610e41565b9392505050565b60008115159050919050565b61123981611224565b811461124457600080fd5b50565b60008151905061125681611230565b92915050565b60006020828403121561127257611271610e75565b5b600061128084828501611247565b91505092915050565b7f5472616465723a20696e76616c69642072657365727665000000000000000000600082015250565b60006112bf60178361113c565b91506112ca82611289565b602082019050919050565b600060208201905081810360008301526112ee816112b2565b9050919050565b7f5472616465723a20696e76616c696420666565206d756c7469706c6965720000600082015250565b600061132b601e8361113c565b9150611336826112f5565b602082019050919050565b6000602082019050818103600083015261135a8161131e565b9050919050565b7f5472616465723a206163636f756e74206973206e6f742061646d696e00000000600082015250565b6000611397601c8361113c565b91506113a282611361565b602082019050919050565b600060208201905081810360008301526113c68161138a565b9050919050565b60006113d88261101f565b9050919050565b6113e8816113cd565b82525050565b600060608201905061140360008301866113df565b6114106020830185610f0a565b61141d6040830184610e41565b949350505050565b7f5472616465723a207472616e736665722066726f6d206661696c656400000000600082015250565b600061145b601c8361113c565b915061146682611425565b602082019050919050565b6000602082019050818103600083015261148a8161144e565b9050919050565b7f4e487b7100000000000000000000000000000000000000000000000000000000600052601160045260246000fd5b60006114cb82610e37565b91506114d683610e37565b92508282026114e481610e37565b915082820484148315176114fb576114fa611491565b5b5092915050565b600061150d82610e37565b915061151883610e37565b92508282039050818111156115305761152f611491565b5b92915050565b7f4e487b7100000000000000000000000000000000000000000000000000000000600052601260045260246000fd5b600061157082610e37565b915061157b83610e37565b92508261158b5761158a611536565b5b828204905092915050565b7f4e487b7100000000000000000000000000000000000000000000000000000000600052603260045260246000fd5b7f5472616465723a20617070726f7665206661696c656400000000000000000000600082015250565b60006115fb60168361113c565b9150611606826115c5565b602082019050919050565b6000602082019050818103600083015261162a816115ee565b9050919050565b7f4e487b7100000000000000000000000000000000000000000000000000000000600052604160045260246000fd5b60008151905061166f81610f34565b92915050565b60006020828403121561168b5761168a610e75565b5b600061169984828501611660565b91505092915050565b600081519050919050565b600082825260208201905092915050565b6000819050602082019050919050565b6116d781610ef8565b82525050565b60006116e983836116ce565b60208301905092915050565b6000602082019050919050565b600061170d826116a2565b61171781856116ad565b9350611722836116be565b8060005b8381101561175357815161173a88826116dd565b9750611745836116f5565b925050600181019050611726565b5085935050505092915050565b600060a0820190506117756000830188610e41565b6117826020830187610e41565b81810360408301526117948186611702565b90506117a360608301856113df565b6117b06080830184610e41565b9695505050505050565b600080fd5b6000601f19601f8301169050919050565b6117d9826117bf565b810181811067ffffffffffffffff821117156117f8576117f7611631565b5b80604052505050565b600061180b610e6b565b905061181782826117d0565b919050565b600067ffffffffffffffff82111561183757611836611631565b5b602082029050602081019050919050565b600080fd5b600061186061185b8461181c565b611801565b9050808382526020820190506020840283018581111561188357611882611848565b5b835b818110156118ac578061189888826111b9565b845260208401935050602081019050611885565b5050509392505050565b600082601f8301126118cb576118ca6117ba565b5b81516118db84826020860161184d565b91505092915050565b6000602082840312156118fa576118f9610e75565b5b600082015167ffffffffffffffff81111561191857611917610e7a565b5b611924848285016118b6565b91505092915050565b600060c0820190506119426000830189610e41565b61194f6020830188610e41565b61195c6040830187610e41565b6119696060830186610e41565b6119766080830185610e41565b61198360a0830184610e41565b979650505050505050565b600061199982610e37565b91506119a483610e37565b92508282019050808211156119bc576119bb611491565b5b92915050565b7f5472616465723a20696e73756666696369656e742062616c616e636500000000600082015250565b60006119f8601c8361113c565b9150611a03826119c2565b602082019050919050565b60006020820190508181036000830152611a27816119eb565b905091905056fea26469706673582212203b0a3e9c11c7228e126b33c32fa480fe8d6e7b379f00d22bef3a7f55176314f364736f6c63430008130033",
  "linkReferences": {},
  "deployedLinkReferences": {}
}