{
  "_format": "hh-sol-artifact-1",
  "contractName": "Trader",
  "sourceName": "contracts/Trader.sol",
  "abi": [
    {
      "inputs": [
        {
          "internalType": "address[2]",
          "name": "routers_",
          "type": "address[2]"
        }
      ],
      "stateMutability": "nonpayable",
      "type": "constructor"
    },
    {
      "anonymous": false,
      "inputs": [
        {
          "indexed": true,
          "internalType": "address",
          "name": "account",
          "type": "address"
        },
        {
          "indexed": false,
          "internalType": "uint256",
          "name": "reserveBalance",
          "type": "uint256"
        }
      ],
      "name": "Config",
      "type": "event"
    },
    {
      "anonymous": false,
      "inputs": [
        {
          "indexed": true,
          "internalType": "address",
          "name": "account",
          "type": "address"
        },
        {
          "indexed": false,
          "internalType": "uint256",
          "name": "withdrawAmount",
          "type": "uint256"
        },
        {
          "indexed": false,
          "internalType": "uint256",
          "name": "gasPrice",
          "type": "uint256"
        },
        {
          "indexed": false,
          "internalType": "uint256",
          "name": "protocolFee",
          "type": "uint256"
        },
        {
          "indexed": false,
          "internalType": "uint256",
          "name": "maxRate",
          "type": "uint256"
        },
        {
          "indexed": false,
          "internalType": "uint256",
          "name": "amountOutMin",
          "type": "uint256"
        },
        {
          "indexed": false,
          "internalType": "uint256",
          "name": "amountOut",
          "type": "uint256"
        }
      ],
      "name": "Swap",
      "type": "event"
    },
    {
      "inputs": [],
      "name": "MAX_WITHDRAW_AMOUNT",
      "outputs": [
        {
          "internalType": "uint256",
          "name": "",
          "type": "uint256"
        }
      ],
      "stateMutability": "view",
      "type": "function"
    },
    {
      "inputs": [],
      "name": "SWAP_GAS",
      "outputs": [
        {
          "internalType": "uint256",
          "name": "",
          "type": "uint256"
        }
      ],
      "stateMutability": "view",
      "type": "function"
    },
    {
      "inputs": [],
      "name": "admin",
      "outputs": [
        {
          "internalType": "address",
          "name": "",
          "type": "address"
        }
      ],
      "stateMutability": "view",
      "type": "function"
    },
    {
      "inputs": [],
      "name": "baseGasPrice",
      "outputs": [
        {
          "internalType": "uint256",
          "name": "",
          "type": "uint256"
        }
      ],
      "stateMutability": "view",
      "type": "function"
    },
    {
      "inputs": [],
      "name": "feeMultiplier",
      "outputs": [
        {
          "internalType": "uint8",
          "name": "",
          "type": "uint8"
        }
      ],
      "stateMutability": "view",
      "type": "function"
    },
    {
      "inputs": [],
      "name": "fetchBaseGasPrice",
      "outputs": [],
      "stateMutability": "nonpayable",
      "type": "function"
    },
    {
      "inputs": [],
      "name": "owner",
      "outputs": [
        {
          "internalType": "address",
          "name": "",
          "type": "address"
        }
      ],
      "stateMutability": "view",
      "type": "function"
    },
    {
      "inputs": [],
      "name": "params",
      "outputs": [
        {
          "internalType": "contract IParams",
          "name": "",
          "type": "address"
        }
      ],
      "stateMutability": "view",
      "type": "function"
    },
    {
      "inputs": [
        {
          "internalType": "address",
          "name": "",
          "type": "address"
        }
      ],
      "name": "reserves",
      "outputs": [
        {
          "internalType": "uint256",
          "name": "",
          "type": "uint256"
        }
      ],
      "stateMutability": "view",
      "type": "function"
    },
    {
      "inputs": [
        {
          "internalType": "uint256",
          "name": "",
          "type": "uint256"
        }
      ],
      "name": "routers",
      "outputs": [
        {
          "internalType": "address",
          "name": "",
          "type": "address"
        }
      ],
      "stateMutability": "view",
      "type": "function"
    },
    {
      "inputs": [
        {
          "internalType": "uint256",
          "name": "reserveBalance",
          "type": "uint256"
        }
      ],
      "name": "saveConfig",
      "outputs": [],
      "stateMutability": "nonpayable",
      "type": "function"
    },
    {
      "inputs": [
        {
          "internalType": "address",
          "name": "newAdmin",
          "type": "address"
        }
      ],
      "name": "setAdmin",
      "outputs": [],
      "stateMutability": "nonpayable",
      "type": "function"
    },
    {
      "inputs": [
        {
          "internalType": "uint8",
          "name": "newFeeMultiplier",
          "type": "uint8"
        }
      ],
      "name": "setFeeMultiplier",
      "outputs": [],
      "stateMutability": "nonpayable",
      "type": "function"
    },
    {
      "inputs": [
        {
          "internalType": "address payable",
          "name": "account",
          "type": "address"
        },
        {
          "internalType": "uint8",
          "name": "routerIndex",
          "type": "uint8"
        },
        {
          "internalType": "uint256",
          "name": "withdrawAmount",
          "type": "uint256"
        },
        {
          "internalType": "uint256",
          "name": "maxRate",
          "type": "uint256"
        }
      ],
      "name": "swap",
      "outputs": [],
      "stateMutability": "nonpayable",
      "type": "function"
    },
    {
      "inputs": [],
      "name": "vtho",
      "outputs": [
        {
          "internalType": "contract IEnergy",
          "name": "",
          "type": "address"
        }
      ],
      "stateMutability": "view",
      "type": "function"
    },
    {
      "inputs": [],
      "name": "withdrawFees",
      "outputs": [],
      "stateMutability": "nonpayable",
      "type": "function"
    }
  ],
  "bytecode": "0x60a0604052601e600260146101000a81548160ff021916908360ff1602179055503480156200002d57600080fd5b50604051620021fb380380620021fb8339818101604052810190620000539190620003c5565b3373ffffffffffffffffffffffffffffffffffffffff1660808173ffffffffffffffffffffffffffffffffffffffff16815250508060009060026200009a9291906200014d565b50620000ab620000b260201b60201c565b50620004db565b65506172616d7373ffffffffffffffffffffffffffffffffffffffff16638eaa6ac06d626173652d6761732d70726963656040518263ffffffff1660e01b815260040162000101919062000451565b602060405180830381865afa1580156200011f573d6000803e3d6000fd5b505050506040513d601f19601f82011682018060405250810190620001459190620004a9565b600381905550565b8260028101928215620001bc579160200282015b82811115620001bb5782518260006101000a81548173ffffffffffffffffffffffffffffffffffffffff021916908373ffffffffffffffffffffffffffffffffffffffff1602179055509160200191906001019062000161565b5b509050620001cb9190620001cf565b5090565b5b80821115620001ea576000816000905550600101620001d0565b5090565b6000604051905090565b600080fd5b600080fd5b6000601f19601f8301169050919050565b7f4e487b7100000000000000000000000000000000000000000000000000000000600052604160045260246000fd5b6200024d8262000202565b810181811067ffffffffffffffff821117156200026f576200026e62000213565b5b80604052505050565b600062000284620001ee565b905062000292828262000242565b919050565b600067ffffffffffffffff821115620002b557620002b462000213565b5b602082029050919050565b600080fd5b600073ffffffffffffffffffffffffffffffffffffffff82169050919050565b6000620002f282620002c5565b9050919050565b6200030481620002e5565b81146200031057600080fd5b50565b6000815190506200032481620002f9565b92915050565b6000620003416200033b8462000297565b62000278565b905080602084028301858111156200035e576200035d620002c0565b5b835b818110156200038b578062000376888262000313565b84526020840193505060208101905062000360565b5050509392505050565b600082601f830112620003ad57620003ac620001fd565b5b6002620003bc8482856200032a565b91505092915050565b600060408284031215620003de57620003dd620001f8565b5b6000620003ee8482850162000395565b91505092915050565b6000819050919050565b6000819050919050565b60008160001b9050919050565b600062000439620004336200042d84620003f7565b6200040b565b62000401565b9050919050565b6200044b8162000418565b82525050565b600060208201905062000468600083018462000440565b92915050565b6000819050919050565b62000483816200046e565b81146200048f57600080fd5b50565b600081519050620004a38162000478565b92915050565b600060208284031215620004c257620004c1620001f8565b5b6000620004d28482850162000492565b91505092915050565b608051611ce8620005136000396000818161037f0152818161042f015281816106410152818161072001526108130152611ce86000f3fe608060405234801561001057600080fd5b50600436106101005760003560e01c80638aee4cfe11610097578063d66bd52411610066578063d66bd52414610251578063e5a70ef714610281578063f7c59cf11461029f578063f851a440146102bb57610100565b80638aee4cfe146101db5780638da5cb5b146101f7578063cff0ab9614610215578063d4b0dbdd1461023357610100565b80634e9c1118116100d35780634e9c111814610153578063704b6c0214610183578063750f198a1461019f57806387b6f0d2146101bd57610100565b8063057079531461010557806344ba0ea21461010f578063476343ee1461012d5780634b0bbaa414610137575b600080fd5b61010d6102d9565b005b61011761036f565b6040516101249190610fbf565b60405180910390f35b61013561037d565b005b610151600480360381019061014c919061101a565b610531565b005b61016d6004803603810190610168919061101a565b610609565b60405161017a9190611088565b60405180910390f35b61019d600480360381019061019891906110cf565b61063f565b005b6101a7610711565b6040516101b49190610fbf565b60405180910390f35b6101c5610718565b6040516101d29190610fbf565b60405180910390f35b6101f560048036038101906101f09190611135565b61071e565b005b6101ff610811565b60405161020c9190611088565b60405180910390f35b61021d610835565b60405161022a91906111c1565b60405180910390f35b61023b61083f565b60405161024891906111fd565b60405180910390f35b61026b600480360381019061026691906110cf565b610849565b6040516102789190610fbf565b60405180910390f35b610289610861565b6040516102969190611227565b60405180910390f35b6102b960048036038101906102b49190611280565b610874565b005b6102c3610e21565b6040516102d09190611088565b60405180910390f35b65506172616d7373ffffffffffffffffffffffffffffffffffffffff16638eaa6ac06d626173652d6761732d70726963656040518263ffffffff1660e01b81526004016103269190611339565b602060405180830381865afa158015610343573d6000803e3d6000fd5b505050506040513d601f19601f820116820180604052508101906103679190611369565b600381905550565b69021e19e0c9bab240000081565b7f000000000000000000000000000000000000000000000000000000000000000073ffffffffffffffffffffffffffffffffffffffff163373ffffffffffffffffffffffffffffffffffffffff161461040b576040517f08c379a0000000000000000000000000000000000000000000000000000000008152600401610402906113f3565b60405180910390fd5b65456e6572677973ffffffffffffffffffffffffffffffffffffffff1663a9059cbb7f000000000000000000000000000000000000000000000000000000000000000065456e6572677973ffffffffffffffffffffffffffffffffffffffff166370a08231306040518263ffffffff1660e01b815260040161048d9190611088565b602060405180830381865afa1580156104aa573d6000803e3d6000fd5b505050506040513d601f19601f820116820180604052508101906104ce9190611369565b6040518363ffffffff1660e01b81526004016104eb929190611413565b6020604051808303816000875af115801561050a573d6000803e3d6000fd5b505050506040513d601f19601f8201168201806040525081019061052e9190611474565b50565b60008111610574576040517f08c379a000000000000000000000000000000000000000000000000000000000815260040161056b906114ed565b60405180910390fd5b80600460003373ffffffffffffffffffffffffffffffffffffffff1673ffffffffffffffffffffffffffffffffffffffff168152602001908152602001600020819055503373ffffffffffffffffffffffffffffffffffffffff167f7cf7f245e0ac9ee076d209114cedb03ee23c22f397ad7c400bfc99bbfa885933826040516105fe9190610fbf565b60405180910390a250565b6000816002811061061957600080fd5b016000915054906101000a900473ffffffffffffffffffffffffffffffffffffffff1681565b7f000000000000000000000000000000000000000000000000000000000000000073ffffffffffffffffffffffffffffffffffffffff163373ffffffffffffffffffffffffffffffffffffffff16146106cd576040517f08c379a00000000000000000000000000000000000000000000000000000000081526004016106c4906113f3565b60405180910390fd5b80600260006101000a81548173ffffffffffffffffffffffffffffffffffffffff021916908373ffffffffffffffffffffffffffffffffffffffff16021790555050565b62040e7481565b60035481565b7f000000000000000000000000000000000000000000000000000000000000000073ffffffffffffffffffffffffffffffffffffffff163373ffffffffffffffffffffffffffffffffffffffff16146107ac576040517f08c379a00000000000000000000000000000000000000000000000000000000081526004016107a3906113f3565b60405180910390fd5b601e8160ff1611156107f3576040517f08c379a00000000000000000000000000000000000000000000000000000000081526004016107ea90611559565b60405180910390fd5b80600260146101000a81548160ff021916908360ff16021790555050565b7f000000000000000000000000000000000000000000000000000000000000000081565b65506172616d7381565b65456e6572677981565b60046020528060005260406000206000915090505481565b600260149054906101000a900460ff1681565b600260009054906101000a900473ffffffffffffffffffffffffffffffffffffffff1673ffffffffffffffffffffffffffffffffffffffff163373ffffffffffffffffffffffffffffffffffffffff1614610904576040517f08c379a00000000000000000000000000000000000000000000000000000000081526004016108fb906115c5565b60405180910390fd5b60035460026109139190611614565b3a1115610955576040517f08c379a000000000000000000000000000000000000000000000000000000000815260040161094c906116a2565b60405180910390fd5b61095f8483610e47565b65456e6572677973ffffffffffffffffffffffffffffffffffffffff166323b872dd8530856040518463ffffffff1660e01b81526004016109a2939291906116e3565b6020604051808303816000875af11580156109c1573d6000803e3d6000fd5b505050506040513d601f19601f820116820180604052508101906109e59190611474565b610a24576040517f08c379a0000000000000000000000000000000000000000000000000000000008152600401610a1b90611766565b60405180910390fd5b60003a62040e74610a359190611614565b90506000612710600260149054906101000a900460ff1660ff168386610a5b9190611786565b610a659190611614565b610a6f91906117e9565b90506000818386610a809190611786565b610a8a9190611786565b90506000846103e883610a9d9190611614565b610aa791906117e9565b90506000808860ff1660028110610ac157610ac061181a565b5b0160009054906101000a900473ffffffffffffffffffffffffffffffffffffffff16905065456e6572677973ffffffffffffffffffffffffffffffffffffffff1663095ea7b382856040518363ffffffff1660e01b8152600401610b26929190611413565b6020604051808303816000875af1158015610b45573d6000803e3d6000fd5b505050506040513d601f19601f82011682018060405250810190610b699190611474565b610ba8576040517f08c379a0000000000000000000000000000000000000000000000000000000008152600401610b9f90611895565b60405180910390fd5b6000600267ffffffffffffffff811115610bc557610bc46118b5565b5b604051908082528060200260200182016040528015610bf35781602001602082028036833780820191505090505b50905065456e6572677981600081518110610c1157610c1061181a565b5b602002602001019073ffffffffffffffffffffffffffffffffffffffff16908173ffffffffffffffffffffffffffffffffffffffff16815250508173ffffffffffffffffffffffffffffffffffffffff1663ad5c46486040518163ffffffff1660e01b8152600401602060405180830381865afa158015610c96573d6000803e3d6000fd5b505050506040513d601f19601f82011682018060405250810190610cba91906118f9565b81600181518110610cce57610ccd61181a565b5b602002602001019073ffffffffffffffffffffffffffffffffffffffff16908173ffffffffffffffffffffffffffffffffffffffff168152505060008273ffffffffffffffffffffffffffffffffffffffff166318cbafe58686858f426040518663ffffffff1660e01b8152600401610d4b9594939291906119e4565b6000604051808303816000875af1158015610d6a573d6000803e3d6000fd5b505050506040513d6000823e3d601f19601f82011682018060405250810190610d939190611b68565b90508a73ffffffffffffffffffffffffffffffffffffffff167f1c66e529e5eda665469886610afddba48a9cc0e5d92fb155ae84dab6c81d155d8a3a898c898760018951610de19190611786565b81518110610df257610df161181a565b5b6020026020010151604051610e0c96959493929190611bb1565b60405180910390a25050505050505050505050565b600260009054906101000a900473ffffffffffffffffffffffffffffffffffffffff1681565b6000600460008473ffffffffffffffffffffffffffffffffffffffff1673ffffffffffffffffffffffffffffffffffffffff16815260200190815260200160002054905060008111610ece576040517f08c379a0000000000000000000000000000000000000000000000000000000008152600401610ec5906114ed565b60405180910390fd5b600065456e6572677973ffffffffffffffffffffffffffffffffffffffff166370a08231856040518263ffffffff1660e01b8152600401610f0f9190611088565b602060405180830381865afa158015610f2c573d6000803e3d6000fd5b505050506040513d601f19601f82011682018060405250810190610f509190611369565b90508183610f5e9190611c12565b811015610fa0576040517f08c379a0000000000000000000000000000000000000000000000000000000008152600401610f9790611c92565b60405180910390fd5b50505050565b6000819050919050565b610fb981610fa6565b82525050565b6000602082019050610fd46000830184610fb0565b92915050565b6000604051905090565b600080fd5b600080fd5b610ff781610fa6565b811461100257600080fd5b50565b60008135905061101481610fee565b92915050565b6000602082840312156110305761102f610fe4565b5b600061103e84828501611005565b91505092915050565b600073ffffffffffffffffffffffffffffffffffffffff82169050919050565b600061107282611047565b9050919050565b61108281611067565b82525050565b600060208201905061109d6000830184611079565b92915050565b6110ac81611067565b81146110b757600080fd5b50565b6000813590506110c9816110a3565b92915050565b6000602082840312156110e5576110e4610fe4565b5b60006110f3848285016110ba565b91505092915050565b600060ff82169050919050565b611112816110fc565b811461111d57600080fd5b50565b60008135905061112f81611109565b92915050565b60006020828403121561114b5761114a610fe4565b5b600061115984828501611120565b91505092915050565b6000819050919050565b600061118761118261117d84611047565b611162565b611047565b9050919050565b60006111998261116c565b9050919050565b60006111ab8261118e565b9050919050565b6111bb816111a0565b82525050565b60006020820190506111d660008301846111b2565b92915050565b60006111e78261118e565b9050919050565b6111f7816111dc565b82525050565b600060208201905061121260008301846111ee565b92915050565b611221816110fc565b82525050565b600060208201905061123c6000830184611218565b92915050565b600061124d82611047565b9050919050565b61125d81611242565b811461126857600080fd5b50565b60008135905061127a81611254565b92915050565b6000806000806080858703121561129a57611299610fe4565b5b60006112a88782880161126b565b94505060206112b987828801611120565b93505060406112ca87828801611005565b92505060606112db87828801611005565b91505092959194509250565b6000819050919050565b6000819050919050565b60008160001b9050919050565b600061132361131e611319846112e7565b6112fb565b6112f1565b9050919050565b61133381611308565b82525050565b600060208201905061134e600083018461132a565b92915050565b60008151905061136381610fee565b92915050565b60006020828403121561137f5761137e610fe4565b5b600061138d84828501611354565b91505092915050565b600082825260208201905092915050565b7f5472616465723a206163636f756e74206973206e6f74206f776e657200000000600082015250565b60006113dd601c83611396565b91506113e8826113a7565b602082019050919050565b6000602082019050818103600083015261140c816113d0565b9050919050565b60006040820190506114286000830185611079565b6114356020830184610fb0565b9392505050565b60008115159050919050565b6114518161143c565b811461145c57600080fd5b50565b60008151905061146e81611448565b92915050565b60006020828403121561148a57611489610fe4565b5b60006114988482850161145f565b91505092915050565b7f5472616465723a20696e76616c69642072657365727665000000000000000000600082015250565b60006114d7601783611396565b91506114e2826114a1565b602082019050919050565b60006020820190508181036000830152611506816114ca565b9050919050565b7f5472616465723a20696e76616c696420666565206d756c7469706c6965720000600082015250565b6000611543601e83611396565b915061154e8261150d565b602082019050919050565b6000602082019050818103600083015261157281611536565b9050919050565b7f5472616465723a206163636f756e74206973206e6f742061646d696e00000000600082015250565b60006115af601c83611396565b91506115ba82611579565b602082019050919050565b600060208201905081810360008301526115de816115a2565b9050919050565b7f4e487b7100000000000000000000000000000000000000000000000000000000600052601160045260246000fd5b600061161f82610fa6565b915061162a83610fa6565b925082820261163881610fa6565b9150828204841483151761164f5761164e6115e5565b5b5092915050565b7f5472616465723a2067617320707269636520746f6f2068696768000000000000600082015250565b600061168c601a83611396565b915061169782611656565b602082019050919050565b600060208201905081810360008301526116bb8161167f565b9050919050565b60006116cd8261118e565b9050919050565b6116dd816116c2565b82525050565b60006060820190506116f860008301866116d4565b6117056020830185611079565b6117126040830184610fb0565b949350505050565b7f5472616465723a207472616e736665722066726f6d206661696c656400000000600082015250565b6000611750601c83611396565b915061175b8261171a565b602082019050919050565b6000602082019050818103600083015261177f81611743565b9050919050565b600061179182610fa6565b915061179c83610fa6565b92508282039050818111156117b4576117b36115e5565b5b92915050565b7f4e487b7100000000000000000000000000000000000000000000000000000000600052601260045260246000fd5b60006117f482610fa6565b91506117ff83610fa6565b92508261180f5761180e6117ba565b5b828204905092915050565b7f4e487b7100000000000000000000000000000000000000000000000000000000600052603260045260246000fd5b7f5472616465723a20617070726f7665206661696c656400000000000000000000600082015250565b600061187f601683611396565b915061188a82611849565b602082019050919050565b600060208201905081810360008301526118ae81611872565b9050919050565b7f4e487b7100000000000000000000000000000000000000000000000000000000600052604160045260246000fd5b6000815190506118f3816110a3565b92915050565b60006020828403121561190f5761190e610fe4565b5b600061191d848285016118e4565b91505092915050565b600081519050919050565b600082825260208201905092915050565b6000819050602082019050919050565b61195b81611067565b82525050565b600061196d8383611952565b60208301905092915050565b6000602082019050919050565b600061199182611926565b61199b8185611931565b93506119a683611942565b8060005b838110156119d75781516119be8882611961565b97506119c983611979565b9250506001810190506119aa565b5085935050505092915050565b600060a0820190506119f96000830188610fb0565b611a066020830187610fb0565b8181036040830152611a188186611986565b9050611a2760608301856116d4565b611a346080830184610fb0565b9695505050505050565b600080fd5b6000601f19601f8301169050919050565b611a5d82611a43565b810181811067ffffffffffffffff82111715611a7c57611a7b6118b5565b5b80604052505050565b6000611a8f610fda565b9050611a9b8282611a54565b919050565b600067ffffffffffffffff821115611abb57611aba6118b5565b5b602082029050602081019050919050565b600080fd5b6000611ae4611adf84611aa0565b611a85565b90508083825260208201905060208402830185811115611b0757611b06611acc565b5b835b81811015611b305780611b1c8882611354565b845260208401935050602081019050611b09565b5050509392505050565b600082601f830112611b4f57611b4e611a3e565b5b8151611b5f848260208601611ad1565b91505092915050565b600060208284031215611b7e57611b7d610fe4565b5b600082015167ffffffffffffffff811115611b9c57611b9b610fe9565b5b611ba884828501611b3a565b91505092915050565b600060c082019050611bc66000830189610fb0565b611bd36020830188610fb0565b611be06040830187610fb0565b611bed6060830186610fb0565b611bfa6080830185610fb0565b611c0760a0830184610fb0565b979650505050505050565b6000611c1d82610fa6565b9150611c2883610fa6565b9250828201905080821115611c4057611c3f6115e5565b5b92915050565b7f5472616465723a20696e73756666696369656e742062616c616e636500000000600082015250565b6000611c7c601c83611396565b9150611c8782611c46565b602082019050919050565b60006020820190508181036000830152611cab81611c6f565b905091905056fea26469706673582212203f458f345b3204a0c5fcc348f80580fa249e1ef98b107b083111d87c3a99075764736f6c63430008130033",
  "linkReferences": {},
  "deployedLinkReferences": {}
}