{
  "_format": "hh-sol-artifact-1",
  "contractName": "Trader",
  "sourceName": "contracts/Trader.sol",
  "abi": [
    {
      "inputs": [
        {
          "internalType": "address",
          "name": "routerAddress",
          "type": "address"
        }
      ],
      "stateMutability": "nonpayable",
      "type": "constructor"
    },
    {
      "anonymous": false,
      "inputs": [
        {
          "indexed": true,
          "internalType": "address",
          "name": "account",
          "type": "address"
        },
        {
          "indexed": false,
          "internalType": "uint256",
          "name": "triggerBalance",
          "type": "uint256"
        },
        {
          "indexed": false,
          "internalType": "uint256",
          "name": "reserveBalance",
          "type": "uint256"
        }
      ],
      "name": "Config",
      "type": "event"
    },
    {
      "anonymous": false,
      "inputs": [
        {
          "indexed": true,
          "internalType": "address",
          "name": "account",
          "type": "address"
        },
        {
          "indexed": false,
          "internalType": "uint256",
          "name": "withdrawAmount",
          "type": "uint256"
        },
        {
          "indexed": false,
          "internalType": "uint256",
          "name": "gasPrice",
          "type": "uint256"
        },
        {
          "indexed": false,
          "internalType": "uint256",
          "name": "protocolFee",
          "type": "uint256"
        },
        {
          "indexed": false,
          "internalType": "uint256",
          "name": "maxRate",
          "type": "uint256"
        },
        {
          "indexed": false,
          "internalType": "uint256",
          "name": "amountOutMin",
          "type": "uint256"
        },
        {
          "indexed": false,
          "internalType": "uint256",
          "name": "amountOut",
          "type": "uint256"
        }
      ],
      "name": "Swap",
      "type": "event"
    },
    {
      "anonymous": false,
      "inputs": [
        {
          "indexed": true,
          "internalType": "address",
          "name": "to",
          "type": "address"
        },
        {
          "indexed": false,
          "internalType": "uint256",
          "name": "amount",
          "type": "uint256"
        }
      ],
      "name": "Withdraw",
      "type": "event"
    },
    {
      "inputs": [],
      "name": "MAX_VTHO_WITHDRAWAL_AMOUNT",
      "outputs": [
        {
          "internalType": "uint256",
          "name": "",
          "type": "uint256"
        }
      ],
      "stateMutability": "view",
      "type": "function"
    },
    {
      "inputs": [],
      "name": "SWAP_GAS_AMOUNT",
      "outputs": [
        {
          "internalType": "uint256",
          "name": "",
          "type": "uint256"
        }
      ],
      "stateMutability": "view",
      "type": "function"
    },
    {
      "inputs": [
        {
          "internalType": "address",
          "name": "",
          "type": "address"
        }
      ],
      "name": "addressToConfig",
      "outputs": [
        {
          "internalType": "uint256",
          "name": "triggerBalance",
          "type": "uint256"
        },
        {
          "internalType": "uint256",
          "name": "reserveBalance",
          "type": "uint256"
        }
      ],
      "stateMutability": "view",
      "type": "function"
    },
    {
      "inputs": [],
      "name": "owner",
      "outputs": [
        {
          "internalType": "address payable",
          "name": "",
          "type": "address"
        }
      ],
      "stateMutability": "view",
      "type": "function"
    },
    {
      "inputs": [],
      "name": "router",
      "outputs": [
        {
          "internalType": "contract IUniswapV2Router02",
          "name": "",
          "type": "address"
        }
      ],
      "stateMutability": "view",
      "type": "function"
    },
    {
      "inputs": [
        {
          "internalType": "uint256",
          "name": "triggerBalance",
          "type": "uint256"
        },
        {
          "internalType": "uint256",
          "name": "reserveBalance",
          "type": "uint256"
        }
      ],
      "name": "saveConfig",
      "outputs": [],
      "stateMutability": "nonpayable",
      "type": "function"
    },
    {
      "inputs": [
        {
          "internalType": "address payable",
          "name": "account",
          "type": "address"
        },
        {
          "internalType": "uint256",
          "name": "maxRate",
          "type": "uint256"
        }
      ],
      "name": "swap",
      "outputs": [],
      "stateMutability": "nonpayable",
      "type": "function"
    },
    {
      "inputs": [],
      "name": "vtho",
      "outputs": [
        {
          "internalType": "contract IEnergy",
          "name": "",
          "type": "address"
        }
      ],
      "stateMutability": "view",
      "type": "function"
    },
    {
      "inputs": [],
      "name": "withdraw",
      "outputs": [],
      "stateMutability": "nonpayable",
      "type": "function"
    }
  ],
  "bytecode": "0x608060405265456e657267796000806101000a81548173ffffffffffffffffffffffffffffffffffffffff021916908373ffffffffffffffffffffffffffffffffffffffff1602179055503480156200005757600080fd5b5060405162001d2838038062001d2883398181016040528101906200007d919062000190565b600073ffffffffffffffffffffffffffffffffffffffff168173ffffffffffffffffffffffffffffffffffffffff161415620000f0576040517f08c379a0000000000000000000000000000000000000000000000000000000008152600401620000e790620001e3565b60405180910390fd5b33600260006101000a81548173ffffffffffffffffffffffffffffffffffffffff021916908373ffffffffffffffffffffffffffffffffffffffff16021790555080600160006101000a81548173ffffffffffffffffffffffffffffffffffffffff021916908373ffffffffffffffffffffffffffffffffffffffff160217905550506200028d565b6000815190506200018a8162000273565b92915050565b600060208284031215620001a357600080fd5b6000620001b38482850162000179565b91505092915050565b6000620001cb60168362000205565b9150620001d8826200024a565b602082019050919050565b60006020820190508181036000830152620001fe81620001bc565b9050919050565b600082825260208201905092915050565b600062000223826200022a565b9050919050565b600073ffffffffffffffffffffffffffffffffffffffff82169050919050565b7f5472616465723a20726f75746572206e6f742073657400000000000000000000600082015250565b6200027e8162000216565b81146200028a57600080fd5b50565b611a8b806200029d6000396000f3fe608060405234801561001057600080fd5b50600436106100935760003560e01c80639c70803b116100665780639c70803b1461010f578063d004f0f71461012b578063d4b0dbdd14610147578063e3e96a1d14610165578063f887ea401461018357610093565b80633ccfd60b14610098578063406cf7a7146100a257806351fddfa9146100c05780638da5cb5b146100f1575b600080fd5b6100a06101a1565b005b6100aa610375565b6040516100b79190611435565b60405180910390f35b6100da60048036038101906100d59190610ed1565b61037c565b6040516100e8929190611450565b60405180910390f35b6100f96103a0565b604051610106919061125b565b60405180910390f35b61012960048036038101906101249190610ff2565b6103c6565b005b61014560048036038101906101409190610f23565b61054d565b005b61014f610d66565b60405161015c91906112ff565b60405180910390f35b61016d610d8a565b60405161017a9190611435565b60405180910390f35b61018b610d97565b604051610198919061131a565b60405180910390f35b600260009054906101000a900473ffffffffffffffffffffffffffffffffffffffff1673ffffffffffffffffffffffffffffffffffffffff163373ffffffffffffffffffffffffffffffffffffffff16146101fb57600080fd5b60008054906101000a900473ffffffffffffffffffffffffffffffffffffffff1673ffffffffffffffffffffffffffffffffffffffff1663a9059cbb600260009054906101000a900473ffffffffffffffffffffffffffffffffffffffff1660008054906101000a900473ffffffffffffffffffffffffffffffffffffffff1673ffffffffffffffffffffffffffffffffffffffff166370a08231306040518263ffffffff1660e01b81526004016102b39190611225565b60206040518083038186803b1580156102cb57600080fd5b505afa1580156102df573d6000803e3d6000fd5b505050506040513d601f19601f820116820180604052508101906103039190610fc9565b6040518363ffffffff1660e01b81526004016103209291906112ad565b602060405180830381600087803b15801561033a57600080fd5b505af115801561034e573d6000803e3d6000fd5b505050506040513d601f19601f820116820180604052508101906103729190610fa0565b50565b6204260081565b60036020528060005260406000206000915090508060000154908060010154905082565b600260009054906101000a900473ffffffffffffffffffffffffffffffffffffffff1681565b60008211610409576040517f08c379a000000000000000000000000000000000000000000000000000000000815260040161040090611395565b60405180910390fd5b6000811161044c576040517f08c379a000000000000000000000000000000000000000000000000000000000815260040161044390611415565b60405180910390fd5b80821161048e576040517f08c379a000000000000000000000000000000000000000000000000000000000815260040161048590611335565b60405180910390fd5b604051806040016040528083815260200182815250600360003373ffffffffffffffffffffffffffffffffffffffff1673ffffffffffffffffffffffffffffffffffffffff16815260200190815260200160002060008201518160000155602082015181600101559050503373ffffffffffffffffffffffffffffffffffffffff167fb9bfe6dda7ddbc49d12288ef1e5d501c902797a01fc2bba856601b70e874cbb88383604051610541929190611450565b60405180910390a25050565b6000600360008473ffffffffffffffffffffffffffffffffffffffff1673ffffffffffffffffffffffffffffffffffffffff16815260200190815260200160002060405180604001604052908160008201548152602001600182015481525050905060008060009054906101000a900473ffffffffffffffffffffffffffffffffffffffff1673ffffffffffffffffffffffffffffffffffffffff166370a08231856040518263ffffffff1660e01b815260040161060b9190611240565b60206040518083038186803b15801561062357600080fd5b505afa158015610637573d6000803e3d6000fd5b505050506040513d601f19601f8201168201806040525081019061065b9190610fc9565b905060008260000151116106a4576040517f08c379a000000000000000000000000000000000000000000000000000000000815260040161069b90611375565b60405180910390fd5b60008260200151116106eb576040517f08c379a00000000000000000000000000000000000000000000000000000000081526004016106e2906113b5565b60405180910390fd5b8160000151811015610732576040517f08c379a0000000000000000000000000000000000000000000000000000000008152600401610729906113d5565b60405180910390fd5b60008260200151683635c9adc5dea0000061074d91906115cf565b8210156107695782602001518261076491906116b0565b610774565b683635c9adc5dea000005b905060008054906101000a900473ffffffffffffffffffffffffffffffffffffffff1673ffffffffffffffffffffffffffffffffffffffff166323b872dd8630846040518463ffffffff1660e01b81526004016107d393929190611276565b602060405180830381600087803b1580156107ed57600080fd5b505af1158015610801573d6000803e3d6000fd5b505050506040513d601f19601f820116820180604052508101906108259190610fa0565b610864576040517f08c379a000000000000000000000000000000000000000000000000000000000815260040161085b906113f5565b60405180910390fd5b6000620426003a6108759190611656565b905060006103e86003838561088a91906116b0565b6108949190611656565b61089e9190611625565b905060008183856108af91906116b0565b6108b991906116b0565b9050600087826108c99190611625565b905060008054906101000a900473ffffffffffffffffffffffffffffffffffffffff1673ffffffffffffffffffffffffffffffffffffffff1663095ea7b3600160009054906101000a900473ffffffffffffffffffffffffffffffffffffffff16846040518363ffffffff1660e01b81526004016109489291906112d6565b602060405180830381600087803b15801561096257600080fd5b505af1158015610976573d6000803e3d6000fd5b505050506040513d601f19601f8201168201806040525081019061099a9190610fa0565b6109d9576040517f08c379a00000000000000000000000000000000000000000000000000000000081526004016109d090611355565b60405180910390fd5b6000600267ffffffffffffffff811115610a1c577f4e487b7100000000000000000000000000000000000000000000000000000000600052604160045260246000fd5b604051908082528060200260200182016040528015610a4a5781602001602082028036833780820191505090505b50905060008054906101000a900473ffffffffffffffffffffffffffffffffffffffff1681600081518110610aa8577f4e487b7100000000000000000000000000000000000000000000000000000000600052603260045260246000fd5b602002602001019073ffffffffffffffffffffffffffffffffffffffff16908173ffffffffffffffffffffffffffffffffffffffff1681525050600160009054906101000a900473ffffffffffffffffffffffffffffffffffffffff1673ffffffffffffffffffffffffffffffffffffffff1663ad5c46486040518163ffffffff1660e01b815260040160206040518083038186803b158015610b4a57600080fd5b505afa158015610b5e573d6000803e3d6000fd5b505050506040513d601f19601f82011682018060405250810190610b829190610efa565b81600181518110610bbc577f4e487b7100000000000000000000000000000000000000000000000000000000600052603260045260246000fd5b602002602001019073ffffffffffffffffffffffffffffffffffffffff16908173ffffffffffffffffffffffffffffffffffffffff16815250506000600160009054906101000a900473ffffffffffffffffffffffffffffffffffffffff1673ffffffffffffffffffffffffffffffffffffffff166318cbafe58585858f426040518663ffffffff1660e01b8152600401610c5b959493929190611479565b600060405180830381600087803b158015610c7557600080fd5b505af1158015610c89573d6000803e3d6000fd5b505050506040513d6000823e3d601f19601f82011682018060405250810190610cb29190610f5f565b90508a73ffffffffffffffffffffffffffffffffffffffff167f1c66e529e5eda665469886610afddba48a9cc0e5d92fb155ae84dab6c81d155d883a888e888760018951610d0091906116b0565b81518110610d37577f4e487b7100000000000000000000000000000000000000000000000000000000600052603260045260246000fd5b6020026020010151604051610d51969594939291906114d3565b60405180910390a25050505050505050505050565b60008054906101000a900473ffffffffffffffffffffffffffffffffffffffff1681565b683635c9adc5dea0000081565b600160009054906101000a900473ffffffffffffffffffffffffffffffffffffffff1681565b6000610dd0610dcb84611559565b611534565b90508083825260208201905082856020860282011115610def57600080fd5b60005b85811015610e1f5781610e058882610ebc565b845260208401935060208301925050600181019050610df2565b5050509392505050565b600081359050610e38816119f9565b92915050565b600081519050610e4d816119f9565b92915050565b600081359050610e6281611a10565b92915050565b600082601f830112610e7957600080fd5b8151610e89848260208601610dbd565b91505092915050565b600081519050610ea181611a27565b92915050565b600081359050610eb681611a3e565b92915050565b600081519050610ecb81611a3e565b92915050565b600060208284031215610ee357600080fd5b6000610ef184828501610e29565b91505092915050565b600060208284031215610f0c57600080fd5b6000610f1a84828501610e3e565b91505092915050565b60008060408385031215610f3657600080fd5b6000610f4485828601610e53565b9250506020610f5585828601610ea7565b9150509250929050565b600060208284031215610f7157600080fd5b600082015167ffffffffffffffff811115610f8b57600080fd5b610f9784828501610e68565b91505092915050565b600060208284031215610fb257600080fd5b6000610fc084828501610e92565b91505092915050565b600060208284031215610fdb57600080fd5b6000610fe984828501610ebc565b91505092915050565b6000806040838503121561100557600080fd5b600061101385828601610ea7565b925050602061102485828601610ea7565b9150509250929050565b600061103a8383611064565b60208301905092915050565b61104f8161173e565b82525050565b61105e816116f6565b82525050565b61106d816116e4565b82525050565b61107c816116e4565b82525050565b600061108d82611595565b61109781856115ad565b93506110a283611585565b8060005b838110156110d35781516110ba888261102e565b97506110c5836115a0565b9250506001810190506110a6565b5085935050505092915050565b6110e981611750565b82525050565b6110f881611774565b82525050565b600061110b6016836115be565b91506111168261188b565b602082019050919050565b600061112e6017836115be565b9150611139826118b4565b602082019050919050565b6000611151601e836115be565b915061115c826118dd565b602082019050919050565b6000611174601e836115be565b915061117f82611906565b602082019050919050565b6000611197601e836115be565b91506111a28261192f565b602082019050919050565b60006111ba6022836115be565b91506111c582611958565b604082019050919050565b60006111dd601b836115be565b91506111e8826119a7565b602082019050919050565b6000611200601e836115be565b915061120b826119d0565b602082019050919050565b61121f81611734565b82525050565b600060208201905061123a6000830184611073565b92915050565b60006020820190506112556000830184611046565b92915050565b60006020820190506112706000830184611055565b92915050565b600060608201905061128b6000830186611046565b6112986020830185611073565b6112a56040830184611216565b949350505050565b60006040820190506112c26000830185611046565b6112cf6020830184611216565b9392505050565b60006040820190506112eb6000830185611073565b6112f86020830184611216565b9392505050565b600060208201905061131460008301846110e0565b92915050565b600060208201905061132f60008301846110ef565b92915050565b6000602082019050818103600083015261134e816110fe565b9050919050565b6000602082019050818103600083015261136e81611121565b9050919050565b6000602082019050818103600083015261138e81611144565b9050919050565b600060208201905081810360008301526113ae81611167565b9050919050565b600060208201905081810360008301526113ce8161118a565b9050919050565b600060208201905081810360008301526113ee816111ad565b9050919050565b6000602082019050818103600083015261140e816111d0565b9050919050565b6000602082019050818103600083015261142e816111f3565b9050919050565b600060208201905061144a6000830184611216565b92915050565b60006040820190506114656000830185611216565b6114726020830184611216565b9392505050565b600060a08201905061148e6000830188611216565b61149b6020830187611216565b81810360408301526114ad8186611082565b90506114bc6060830185611046565b6114c96080830184611216565b9695505050505050565b600060c0820190506114e86000830189611216565b6114f56020830188611216565b6115026040830187611216565b61150f6060830186611216565b61151c6080830185611216565b61152960a0830184611216565b979650505050505050565b600061153e61154f565b905061154a82826117bc565b919050565b6000604051905090565b600067ffffffffffffffff8211156115745761157361184b565b5b602082029050602081019050919050565b6000819050602082019050919050565b600081519050919050565b6000602082019050919050565b600082825260208201905092915050565b600082825260208201905092915050565b60006115da82611734565b91506115e583611734565b9250827fffffffffffffffffffffffffffffffffffffffffffffffffffffffffffffffff0382111561161a576116196117ed565b5b828201905092915050565b600061163082611734565b915061163b83611734565b92508261164b5761164a61181c565b5b828204905092915050565b600061166182611734565b915061166c83611734565b9250817fffffffffffffffffffffffffffffffffffffffffffffffffffffffffffffffff04831182151516156116a5576116a46117ed565b5b828202905092915050565b60006116bb82611734565b91506116c683611734565b9250828210156116d9576116d86117ed565b5b828203905092915050565b60006116ef82611714565b9050919050565b600061170182611714565b9050919050565b60008115159050919050565b600073ffffffffffffffffffffffffffffffffffffffff82169050919050565b6000819050919050565b600061174982611798565b9050919050565b600061175b82611762565b9050919050565b600061176d82611714565b9050919050565b600061177f82611786565b9050919050565b600061179182611714565b9050919050565b60006117a3826117aa565b9050919050565b60006117b582611714565b9050919050565b6117c58261187a565b810181811067ffffffffffffffff821117156117e4576117e361184b565b5b80604052505050565b7f4e487b7100000000000000000000000000000000000000000000000000000000600052601160045260246000fd5b7f4e487b7100000000000000000000000000000000000000000000000000000000600052601260045260246000fd5b7f4e487b7100000000000000000000000000000000000000000000000000000000600052604160045260246000fd5b6000601f19601f8301169050919050565b7f5472616465723a20696e76616c696420636f6e66696700000000000000000000600082015250565b7f5472616465723a20617070726f7665206661696c65642e000000000000000000600082015250565b7f5472616465723a207472696767657242616c616e6365206e6f74207365740000600082015250565b7f5472616465723a20696e76616c6964207472696767657242616c616e63650000600082015250565b7f5472616465723a207265736572766542616c616e6365206e6f74207365740000600082015250565b7f5472616465723a207472696767657242616c616e6365206e6f7420726561636860008201527f6564000000000000000000000000000000000000000000000000000000000000602082015250565b7f5472616465723a207472616e7366657246726f6d206661696c65640000000000600082015250565b7f5472616465723a20696e76616c6964207265736572766542616c616e63650000600082015250565b611a02816116e4565b8114611a0d57600080fd5b50565b611a19816116f6565b8114611a2457600080fd5b50565b611a3081611708565b8114611a3b57600080fd5b50565b611a4781611734565b8114611a5257600080fd5b5056fea2646970667358221220942c5440b9a31a52c7ef94b67785595e445963152d31b14ceeda26e80ed3141a64736f6c63430008040033",
  "linkReferences": {},
  "deployedLinkReferences": {}
}