{
  "_format": "hh-sol-artifact-1",
  "contractName": "Trader",
  "sourceName": "contracts/Trader.sol",
  "abi": [
    {
      "inputs": [
        {
          "internalType": "address",
          "name": "vvet_",
          "type": "address"
        },
        {
          "internalType": "address[2]",
          "name": "routers_",
          "type": "address[2]"
        }
      ],
      "stateMutability": "nonpayable",
      "type": "constructor"
    },
    {
      "inputs": [],
      "name": "AccessControlBadConfirmation",
      "type": "error"
    },
    {
      "inputs": [
        {
          "internalType": "address",
          "name": "account",
          "type": "address"
        },
        {
          "internalType": "bytes32",
          "name": "neededRole",
          "type": "bytes32"
        }
      ],
      "name": "AccessControlUnauthorizedAccount",
      "type": "error"
    },
    {
      "anonymous": false,
      "inputs": [
        {
          "indexed": true,
          "internalType": "address",
          "name": "account",
          "type": "address"
        },
        {
          "indexed": false,
          "internalType": "uint256",
          "name": "reserveBalance",
          "type": "uint256"
        }
      ],
      "name": "Config",
      "type": "event"
    },
    {
      "anonymous": false,
      "inputs": [
        {
          "indexed": false,
          "internalType": "uint256",
          "name": "baseGasPrice",
          "type": "uint256"
        }
      ],
      "name": "FetchGas",
      "type": "event"
    },
    {
      "anonymous": false,
      "inputs": [
        {
          "indexed": true,
          "internalType": "bytes32",
          "name": "role",
          "type": "bytes32"
        },
        {
          "indexed": true,
          "internalType": "bytes32",
          "name": "previousAdminRole",
          "type": "bytes32"
        },
        {
          "indexed": true,
          "internalType": "bytes32",
          "name": "newAdminRole",
          "type": "bytes32"
        }
      ],
      "name": "RoleAdminChanged",
      "type": "event"
    },
    {
      "anonymous": false,
      "inputs": [
        {
          "indexed": true,
          "internalType": "bytes32",
          "name": "role",
          "type": "bytes32"
        },
        {
          "indexed": true,
          "internalType": "address",
          "name": "account",
          "type": "address"
        },
        {
          "indexed": true,
          "internalType": "address",
          "name": "sender",
          "type": "address"
        }
      ],
      "name": "RoleGranted",
      "type": "event"
    },
    {
      "anonymous": false,
      "inputs": [
        {
          "indexed": true,
          "internalType": "bytes32",
          "name": "role",
          "type": "bytes32"
        },
        {
          "indexed": true,
          "internalType": "address",
          "name": "account",
          "type": "address"
        },
        {
          "indexed": true,
          "internalType": "address",
          "name": "sender",
          "type": "address"
        }
      ],
      "name": "RoleRevoked",
      "type": "event"
    },
    {
      "anonymous": false,
      "inputs": [
        {
          "indexed": false,
          "internalType": "uint256",
          "name": "feeMultiplier",
          "type": "uint256"
        }
      ],
      "name": "SetFee",
      "type": "event"
    },
    {
      "anonymous": false,
      "inputs": [
        {
          "indexed": true,
          "internalType": "address",
          "name": "account",
          "type": "address"
        },
        {
          "indexed": true,
          "internalType": "address",
          "name": "router",
          "type": "address"
        },
        {
          "indexed": false,
          "internalType": "uint256",
          "name": "withdrawAmount",
          "type": "uint256"
        },
        {
          "indexed": false,
          "internalType": "uint256",
          "name": "gasPrice",
          "type": "uint256"
        },
        {
          "indexed": false,
          "internalType": "uint256",
          "name": "feeMultiplier",
          "type": "uint256"
        },
        {
          "indexed": false,
          "internalType": "uint256",
          "name": "protocolFee",
          "type": "uint256"
        },
        {
          "indexed": false,
          "internalType": "uint256",
          "name": "amountIn",
          "type": "uint256"
        },
        {
          "indexed": false,
          "internalType": "uint256",
          "name": "amountOutMin",
          "type": "uint256"
        },
        {
          "indexed": false,
          "internalType": "uint256",
          "name": "amountOutExpected",
          "type": "uint256"
        },
        {
          "indexed": false,
          "internalType": "uint256",
          "name": "amountOutReceived",
          "type": "uint256"
        }
      ],
      "name": "Swap",
      "type": "event"
    },
    {
      "anonymous": false,
      "inputs": [
        {
          "indexed": true,
          "internalType": "address",
          "name": "caller",
          "type": "address"
        },
        {
          "indexed": false,
          "internalType": "uint256",
          "name": "amount",
          "type": "uint256"
        }
      ],
      "name": "WithdrawFees",
      "type": "event"
    },
    {
      "inputs": [],
      "name": "ADMIN_ROLE",
      "outputs": [
        {
          "internalType": "bytes32",
          "name": "",
          "type": "bytes32"
        }
      ],
      "stateMutability": "view",
      "type": "function"
    },
    {
      "inputs": [],
      "name": "DEFAULT_ADMIN_ROLE",
      "outputs": [
        {
          "internalType": "bytes32",
          "name": "",
          "type": "bytes32"
        }
      ],
      "stateMutability": "view",
      "type": "function"
    },
    {
      "inputs": [],
      "name": "FEE_PRECISION",
      "outputs": [
        {
          "internalType": "uint256",
          "name": "",
          "type": "uint256"
        }
      ],
      "stateMutability": "view",
      "type": "function"
    },
    {
      "inputs": [],
      "name": "MAX_FEE_MULTIPLIER",
      "outputs": [
        {
          "internalType": "uint256",
          "name": "",
          "type": "uint256"
        }
      ],
      "stateMutability": "view",
      "type": "function"
    },
    {
      "inputs": [],
      "name": "SWAP_GAS",
      "outputs": [
        {
          "internalType": "uint256",
          "name": "",
          "type": "uint256"
        }
      ],
      "stateMutability": "view",
      "type": "function"
    },
    {
      "inputs": [
        {
          "internalType": "address",
          "name": "account",
          "type": "address"
        }
      ],
      "name": "addAdmin",
      "outputs": [],
      "stateMutability": "nonpayable",
      "type": "function"
    },
    {
      "inputs": [
        {
          "internalType": "address",
          "name": "account",
          "type": "address"
        }
      ],
      "name": "addOwner",
      "outputs": [],
      "stateMutability": "nonpayable",
      "type": "function"
    },
    {
      "inputs": [],
      "name": "baseGasPrice",
      "outputs": [
        {
          "internalType": "uint256",
          "name": "",
          "type": "uint256"
        }
      ],
      "stateMutability": "view",
      "type": "function"
    },
    {
      "inputs": [],
      "name": "feeMultiplier",
      "outputs": [
        {
          "internalType": "uint256",
          "name": "",
          "type": "uint256"
        }
      ],
      "stateMutability": "view",
      "type": "function"
    },
    {
      "inputs": [],
      "name": "fetchBaseGasPrice",
      "outputs": [],
      "stateMutability": "nonpayable",
      "type": "function"
    },
    {
      "inputs": [
        {
          "internalType": "bytes32",
          "name": "role",
          "type": "bytes32"
        }
      ],
      "name": "getRoleAdmin",
      "outputs": [
        {
          "internalType": "bytes32",
          "name": "",
          "type": "bytes32"
        }
      ],
      "stateMutability": "view",
      "type": "function"
    },
    {
      "inputs": [
        {
          "internalType": "bytes32",
          "name": "role",
          "type": "bytes32"
        },
        {
          "internalType": "address",
          "name": "account",
          "type": "address"
        }
      ],
      "name": "grantRole",
      "outputs": [],
      "stateMutability": "nonpayable",
      "type": "function"
    },
    {
      "inputs": [
        {
          "internalType": "bytes32",
          "name": "role",
          "type": "bytes32"
        },
        {
          "internalType": "address",
          "name": "account",
          "type": "address"
        }
      ],
      "name": "hasRole",
      "outputs": [
        {
          "internalType": "bool",
          "name": "",
          "type": "bool"
        }
      ],
      "stateMutability": "view",
      "type": "function"
    },
    {
      "inputs": [
        {
          "internalType": "address",
          "name": "account",
          "type": "address"
        }
      ],
      "name": "isAdmin",
      "outputs": [
        {
          "internalType": "bool",
          "name": "",
          "type": "bool"
        }
      ],
      "stateMutability": "view",
      "type": "function"
    },
    {
      "inputs": [
        {
          "internalType": "address",
          "name": "account",
          "type": "address"
        }
      ],
      "name": "isOwner",
      "outputs": [
        {
          "internalType": "bool",
          "name": "",
          "type": "bool"
        }
      ],
      "stateMutability": "view",
      "type": "function"
    },
    {
      "inputs": [],
      "name": "params",
      "outputs": [
        {
          "internalType": "contract IParams",
          "name": "",
          "type": "address"
        }
      ],
      "stateMutability": "view",
      "type": "function"
    },
    {
      "inputs": [
        {
          "internalType": "address",
          "name": "account",
          "type": "address"
        }
      ],
      "name": "removeAdmin",
      "outputs": [],
      "stateMutability": "nonpayable",
      "type": "function"
    },
    {
      "inputs": [],
      "name": "renounceOwner",
      "outputs": [],
      "stateMutability": "nonpayable",
      "type": "function"
    },
    {
      "inputs": [
        {
          "internalType": "bytes32",
          "name": "role",
          "type": "bytes32"
        },
        {
          "internalType": "address",
          "name": "callerConfirmation",
          "type": "address"
        }
      ],
      "name": "renounceRole",
      "outputs": [],
      "stateMutability": "nonpayable",
      "type": "function"
    },
    {
      "inputs": [
        {
          "internalType": "address",
          "name": "",
          "type": "address"
        }
      ],
      "name": "reserves",
      "outputs": [
        {
          "internalType": "uint256",
          "name": "",
          "type": "uint256"
        }
      ],
      "stateMutability": "view",
      "type": "function"
    },
    {
      "inputs": [
        {
          "internalType": "bytes32",
          "name": "role",
          "type": "bytes32"
        },
        {
          "internalType": "address",
          "name": "account",
          "type": "address"
        }
      ],
      "name": "revokeRole",
      "outputs": [],
      "stateMutability": "nonpayable",
      "type": "function"
    },
    {
      "inputs": [
        {
          "internalType": "uint256",
          "name": "",
          "type": "uint256"
        }
      ],
      "name": "routers",
      "outputs": [
        {
          "internalType": "address",
          "name": "",
          "type": "address"
        }
      ],
      "stateMutability": "view",
      "type": "function"
    },
    {
      "inputs": [
        {
          "internalType": "uint256",
          "name": "reserveBalance",
          "type": "uint256"
        }
      ],
      "name": "saveConfig",
      "outputs": [],
      "stateMutability": "nonpayable",
      "type": "function"
    },
    {
      "inputs": [
        {
          "internalType": "uint8",
          "name": "newFeeMultiplier",
          "type": "uint8"
        }
      ],
      "name": "setFeeMultiplier",
      "outputs": [],
      "stateMutability": "nonpayable",
      "type": "function"
    },
    {
      "inputs": [
        {
          "internalType": "bytes4",
          "name": "interfaceId",
          "type": "bytes4"
        }
      ],
      "name": "supportsInterface",
      "outputs": [
        {
          "internalType": "bool",
          "name": "",
          "type": "bool"
        }
      ],
      "stateMutability": "view",
      "type": "function"
    },
    {
      "inputs": [
        {
          "internalType": "address payable",
          "name": "account",
          "type": "address"
        },
        {
          "internalType": "uint256",
          "name": "withdrawAmount",
          "type": "uint256"
        },
        {
          "internalType": "uint256",
          "name": "amountOutMin",
          "type": "uint256"
        }
      ],
      "name": "swap",
      "outputs": [],
      "stateMutability": "nonpayable",
      "type": "function"
    },
    {
      "inputs": [],
      "name": "vtho",
      "outputs": [
        {
          "internalType": "contract IEnergy",
          "name": "",
          "type": "address"
        }
      ],
      "stateMutability": "view",
      "type": "function"
    },
    {
      "inputs": [],
      "name": "vvet",
      "outputs": [
        {
          "internalType": "address",
          "name": "",
          "type": "address"
        }
      ],
      "stateMutability": "view",
      "type": "function"
    },
    {
      "inputs": [],
      "name": "withdrawFees",
      "outputs": [],
      "stateMutability": "nonpayable",
      "type": "function"
    }
  ],
  "bytecode": "0x60a0604052601e6003553480156200001657600080fd5b506040516200309c3803806200309c83398181016040528101906200003c91906200062e565b33620000526000801b82620000e960201b60201c565b50620000887fa49807205ce4d355092ef5a8a18f56e8913cf4a201fbe287825b095693c217756000801b620001ec60201b60201c565b508173ffffffffffffffffffffffffffffffffffffffff1660808173ffffffffffffffffffffffffffffffffffffffff1681525050806001906002620000d0929190620003b6565b50620000e16200024f60201b60201c565b505062000787565b6000620000fd83836200032560201b60201c565b620001e157600160008085815260200190815260200160002060000160008473ffffffffffffffffffffffffffffffffffffffff1673ffffffffffffffffffffffffffffffffffffffff16815260200190815260200160002060006101000a81548160ff0219169083151502179055506200017d6200038f60201b60201c565b73ffffffffffffffffffffffffffffffffffffffff168273ffffffffffffffffffffffffffffffffffffffff16847f2f8788117e7eff1d82e926ec794901d17c78024a50270940304540a733656f0d60405160405180910390a460019050620001e6565b600090505b92915050565b6000620001ff836200039760201b60201c565b905081600080858152602001908152602001600020600101819055508181847fbd79b86ffe0ab8e8776151514217cd7cacd52c909f66475c3af44e129f0b00ff60405160405180910390a4505050565b65506172616d7373ffffffffffffffffffffffffffffffffffffffff16638eaa6ac06d626173652d6761732d70726963656040518263ffffffff1660e01b81526004016200029e9190620006cf565b602060405180830381865afa158015620002bc573d6000803e3d6000fd5b505050506040513d601f19601f82011682018060405250810190620002e2919062000727565b6004819055507f9e80beb690c9b039ef1aded51d16690f35068933fb71a9b56cc944e02ced07b06004546040516200031b91906200076a565b60405180910390a1565b600080600084815260200190815260200160002060000160008373ffffffffffffffffffffffffffffffffffffffff1673ffffffffffffffffffffffffffffffffffffffff16815260200190815260200160002060009054906101000a900460ff16905092915050565b600033905090565b6000806000838152602001908152602001600020600101549050919050565b826002810192821562000425579160200282015b82811115620004245782518260006101000a81548173ffffffffffffffffffffffffffffffffffffffff021916908373ffffffffffffffffffffffffffffffffffffffff16021790555091602001919060010190620003ca565b5b50905062000434919062000438565b5090565b5b808211156200045357600081600090555060010162000439565b5090565b6000604051905090565b600080fd5b600073ffffffffffffffffffffffffffffffffffffffff82169050919050565b6000620004938262000466565b9050919050565b620004a58162000486565b8114620004b157600080fd5b50565b600081519050620004c5816200049a565b92915050565b600080fd5b6000601f19601f8301169050919050565b7f4e487b7100000000000000000000000000000000000000000000000000000000600052604160045260246000fd5b6200051b82620004d0565b810181811067ffffffffffffffff821117156200053d576200053c620004e1565b5b80604052505050565b60006200055262000457565b905062000560828262000510565b919050565b600067ffffffffffffffff821115620005835762000582620004e1565b5b602082029050919050565b600080fd5b6000620005aa620005a48462000565565b62000546565b90508060208402830185811115620005c757620005c66200058e565b5b835b81811015620005f45780620005df8882620004b4565b845260208401935050602081019050620005c9565b5050509392505050565b600082601f830112620006165762000615620004cb565b5b60026200062584828562000593565b91505092915050565b6000806060838503121562000648576200064762000461565b5b60006200065885828601620004b4565b92505060206200066b85828601620005fe565b9150509250929050565b6000819050919050565b6000819050919050565b60008160001b9050919050565b6000620006b7620006b1620006ab8462000675565b62000689565b6200067f565b9050919050565b620006c98162000696565b82525050565b6000602082019050620006e66000830184620006be565b92915050565b6000819050919050565b6200070181620006ec565b81146200070d57600080fd5b50565b6000815190506200072181620006f6565b92915050565b60006020828403121562000740576200073f62000461565b5b6000620007508482850162000710565b91505092915050565b6200076481620006ec565b82525050565b600060208201905062000781600083018462000759565b92915050565b6080516128f2620007aa60003960008181610fcb01526112fa01526128f26000f3fe608060405234801561001057600080fd5b50600436106101cf5760003560e01c8063750f198a11610104578063b6994144116100a2578063d66bd52411610071578063d66bd524146104e0578063e15c58a414610510578063e5a70ef71461052e578063e63a391f1461054c576101cf565b8063b69941441461046a578063cff0ab9614610488578063d4b0dbdd146104a6578063d547741f146104c4576101cf565b80638aee4cfe116100de5780638aee4cfe146103e457806391d14854146104005780639f1d0f5914610430578063a217fddf1461044c576101cf565b8063750f198a1461038a57806375b238fc146103a857806387b6f0d2146103c6576101cf565b80632f54bf6e116101715780634b0bbaa41161014b5780634b0bbaa4146103065780634e9c11181461032257806370480275146103525780637065cb481461036e576101cf565b80632f54bf6e146102b057806336568abe146102e0578063476343ee146102fc576101cf565b8063248a9ca3116101ad578063248a9ca31461022a57806324d7806c1461025a57806328c23a451461028a5780632f2ff15d14610294576101cf565b806301ffc9a7146101d457806305707953146102045780631785f53c1461020e575b600080fd5b6101ee60048036038101906101e99190611902565b61056a565b6040516101fb919061194a565b60405180910390f35b61020c6105e4565b005b610228600480360381019061022391906119c3565b6106b3565b005b610244600480360381019061023f9190611a26565b610728565b6040516102519190611a62565b60405180910390f35b610274600480360381019061026f91906119c3565b610747565b604051610281919061194a565b60405180910390f35b61029261077a565b005b6102ae60048036038101906102a99190611a7d565b610789565b005b6102ca60048036038101906102c591906119c3565b6107ab565b6040516102d7919061194a565b60405180910390f35b6102fa60048036038101906102f59190611a7d565b6107c1565b005b61030461083c565b005b610320600480360381019061031b9190611af3565b610a1c565b005b61033c60048036038101906103379190611af3565b610af4565b6040516103499190611b2f565b60405180910390f35b61036c600480360381019061036791906119c3565b610b2a565b005b610388600480360381019061038391906119c3565b610b9f565b005b610392610bf7565b60405161039f9190611b59565b60405180910390f35b6103b0610bfe565b6040516103bd9190611a62565b60405180910390f35b6103ce610c22565b6040516103db9190611b59565b60405180910390f35b6103fe60048036038101906103f99190611bad565b610c28565b005b61041a60048036038101906104159190611a7d565b610cfc565b604051610427919061194a565b60405180910390f35b61044a60048036038101906104459190611c18565b610d66565b005b61045461129e565b6040516104619190611a62565b60405180910390f35b6104726112a5565b60405161047f9190611b59565b60405180910390f35b6104906112aa565b60405161049d9190611cca565b60405180910390f35b6104ae6112b4565b6040516104bb9190611d06565b60405180910390f35b6104de60048036038101906104d99190611a7d565b6112be565b005b6104fa60048036038101906104f591906119c3565b6112e0565b6040516105079190611b59565b60405180910390f35b6105186112f8565b6040516105259190611b2f565b60405180910390f35b61053661131c565b6040516105439190611b59565b60405180910390f35b610554611322565b6040516105619190611b59565b60405180910390f35b60007f7965db0b000000000000000000000000000000000000000000000000000000007bffffffffffffffffffffffffffffffffffffffffffffffffffffffff1916827bffffffffffffffffffffffffffffffffffffffffffffffffffffffff191614806105dd57506105dc82611328565b5b9050919050565b65506172616d7373ffffffffffffffffffffffffffffffffffffffff16638eaa6ac06d626173652d6761732d70726963656040518263ffffffff1660e01b81526004016106319190611d69565b602060405180830381865afa15801561064e573d6000803e3d6000fd5b505050506040513d601f19601f820116820180604052508101906106729190611d99565b6004819055507f9e80beb690c9b039ef1aded51d16690f35068933fb71a9b56cc944e02ced07b06004546040516106a99190611b59565b60405180910390a1565b6106bc336107ab565b6106fb576040517f08c379a00000000000000000000000000000000000000000000000000000000081526004016106f290611e23565b60405180910390fd5b6107257fa49807205ce4d355092ef5a8a18f56e8913cf4a201fbe287825b095693c21775826112be565b50565b6000806000838152602001908152602001600020600101549050919050565b60006107737fa49807205ce4d355092ef5a8a18f56e8913cf4a201fbe287825b095693c2177583610cfc565b9050919050565b6107876000801b336107c1565b565b61079282610728565b61079b81611392565b6107a583836113a6565b50505050565b60006107ba6000801b83610cfc565b9050919050565b6107c9611497565b73ffffffffffffffffffffffffffffffffffffffff168173ffffffffffffffffffffffffffffffffffffffff161461082d576040517f6697b23200000000000000000000000000000000000000000000000000000000815260040160405180910390fd5b610837828261149f565b505050565b610845336107ab565b610884576040517f08c379a000000000000000000000000000000000000000000000000000000000815260040161087b90611e23565b60405180910390fd5b600065456e6572677973ffffffffffffffffffffffffffffffffffffffff166370a08231306040518263ffffffff1660e01b81526004016108c59190611b2f565b602060405180830381865afa1580156108e2573d6000803e3d6000fd5b505050506040513d601f19601f820116820180604052508101906109069190611d99565b905065456e6572677973ffffffffffffffffffffffffffffffffffffffff1663a9059cbb33836040518363ffffffff1660e01b8152600401610949929190611e43565b6020604051808303816000875af1158015610968573d6000803e3d6000fd5b505050506040513d601f19601f8201168201806040525081019061098c9190611e98565b6109cb576040517f08c379a00000000000000000000000000000000000000000000000000000000081526004016109c290611f11565b60405180910390fd5b3373ffffffffffffffffffffffffffffffffffffffff167f9bba815921f12cb7b1408e14b5ade745234397d39623ae5e7c82d693cb45815f82604051610a119190611b59565b60405180910390a250565b60008111610a5f576040517f08c379a0000000000000000000000000000000000000000000000000000000008152600401610a5690611f7d565b60405180910390fd5b80600560003373ffffffffffffffffffffffffffffffffffffffff1673ffffffffffffffffffffffffffffffffffffffff168152602001908152602001600020819055503373ffffffffffffffffffffffffffffffffffffffff167f7cf7f245e0ac9ee076d209114cedb03ee23c22f397ad7c400bfc99bbfa88593382604051610ae99190611b59565b60405180910390a250565b60018160028110610b0457600080fd5b016000915054906101000a900473ffffffffffffffffffffffffffffffffffffffff1681565b610b33336107ab565b610b72576040517f08c379a0000000000000000000000000000000000000000000000000000000008152600401610b6990611e23565b60405180910390fd5b610b9c7fa49807205ce4d355092ef5a8a18f56e8913cf4a201fbe287825b095693c2177582610789565b50565b610ba8336107ab565b610be7576040517f08c379a0000000000000000000000000000000000000000000000000000000008152600401610bde90611e23565b60405180910390fd5b610bf46000801b82610789565b50565b62045e5881565b7fa49807205ce4d355092ef5a8a18f56e8913cf4a201fbe287825b095693c2177581565b60045481565b610c31336107ab565b610c70576040517f08c379a0000000000000000000000000000000000000000000000000000000008152600401610c6790611e23565b60405180910390fd5b601e8160ff161115610cb7576040517f08c379a0000000000000000000000000000000000000000000000000000000008152600401610cae90611fe9565b60405180910390fd5b8060ff166003819055507e172ddfc5ae88d08b3de01a5a187667c37a5a53989e8c175055cb6c993792a7600354604051610cf19190611b59565b60405180910390a150565b600080600084815260200190815260200160002060000160008373ffffffffffffffffffffffffffffffffffffffff1673ffffffffffffffffffffffffffffffffffffffff16815260200190815260200160002060009054906101000a900460ff16905092915050565b610d6f33610747565b610dae576040517f08c379a0000000000000000000000000000000000000000000000000000000008152600401610da590612055565b60405180910390fd5b6004546002610dbd91906120a4565b3a1115610dff576040517f08c379a0000000000000000000000000000000000000000000000000000000008152600401610df690612132565b60405180910390fd5b610e098383611591565b65456e6572677973ffffffffffffffffffffffffffffffffffffffff166323b872dd8430856040518463ffffffff1660e01b8152600401610e4c93929190612173565b6020604051808303816000875af1158015610e6b573d6000803e3d6000fd5b505050506040513d601f19601f82011682018060405250810190610e8f9190611e98565b610ece576040517f08c379a0000000000000000000000000000000000000000000000000000000008152600401610ec5906121f6565b60405180910390fd5b60003a62045e58610edf91906120a4565b905060006127106003548386610ef59190612216565b610eff91906120a4565b610f099190612279565b90506000818386610f1a9190612216565b610f249190612216565b90506000600267ffffffffffffffff811115610f4357610f426122aa565b5b604051908082528060200260200182016040528015610f715781602001602082028036833780820191505090505b50905065456e6572677981600081518110610f8f57610f8e6122d9565b5b602002602001019073ffffffffffffffffffffffffffffffffffffffff16908173ffffffffffffffffffffffffffffffffffffffff16815250507f000000000000000000000000000000000000000000000000000000000000000081600181518110610ffe57610ffd6122d9565b5b602002602001019073ffffffffffffffffffffffffffffffffffffffff16908173ffffffffffffffffffffffffffffffffffffffff168152505060008061104583856116ea565b915091508681101561108c576040517f08c379a00000000000000000000000000000000000000000000000000000000081526004016110839061237a565b60405180910390fd5b65456e6572677973ffffffffffffffffffffffffffffffffffffffff1663095ea7b383866040518363ffffffff1660e01b81526004016110cd929190611e43565b6020604051808303816000875af11580156110ec573d6000803e3d6000fd5b505050506040513d601f19601f820116820180604052508101906111109190611e98565b61114f576040517f08c379a0000000000000000000000000000000000000000000000000000000008152600401611146906123e6565b60405180910390fd5b60008273ffffffffffffffffffffffffffffffffffffffff166318cbafe5866103e86103de8661117f91906120a4565b6111899190612279565b878e426040518663ffffffff1660e01b81526004016111ac9594939291906124c4565b6000604051808303816000875af11580156111cb573d6000803e3d6000fd5b505050506040513d6000823e3d601f19601f820116820180604052508101906111f49190612648565b90508273ffffffffffffffffffffffffffffffffffffffff168a73ffffffffffffffffffffffffffffffffffffffff167f3fe84e6df58344329a18c304c0110e2a518d8c1dfce228cd1f78d11c59bb648c8b3a6003548b8b8f8a8a60018c5161125d9190612216565b8151811061126e5761126d6122d9565b5b602002602001015160405161128a989796959493929190612691565b60405180910390a350505050505050505050565b6000801b81565b601e81565b65506172616d7381565b65456e6572677981565b6112c782610728565b6112d081611392565b6112da838361149f565b50505050565b60056020528060005260406000206000915090505481565b7f000000000000000000000000000000000000000000000000000000000000000081565b60035481565b61271081565b60007f01ffc9a7000000000000000000000000000000000000000000000000000000007bffffffffffffffffffffffffffffffffffffffffffffffffffffffff1916827bffffffffffffffffffffffffffffffffffffffffffffffffffffffff1916149050919050565b6113a38161139e611497565b611845565b50565b60006113b28383610cfc565b61148c57600160008085815260200190815260200160002060000160008473ffffffffffffffffffffffffffffffffffffffff1673ffffffffffffffffffffffffffffffffffffffff16815260200190815260200160002060006101000a81548160ff021916908315150217905550611429611497565b73ffffffffffffffffffffffffffffffffffffffff168273ffffffffffffffffffffffffffffffffffffffff16847f2f8788117e7eff1d82e926ec794901d17c78024a50270940304540a733656f0d60405160405180910390a460019050611491565b600090505b92915050565b600033905090565b60006114ab8383610cfc565b1561158657600080600085815260200190815260200160002060000160008473ffffffffffffffffffffffffffffffffffffffff1673ffffffffffffffffffffffffffffffffffffffff16815260200190815260200160002060006101000a81548160ff021916908315150217905550611523611497565b73ffffffffffffffffffffffffffffffffffffffff168273ffffffffffffffffffffffffffffffffffffffff16847ff6391f5c32d9c69d2a47ea670b442974b53935d1edc7fd64eb21e047a839171b60405160405180910390a46001905061158b565b600090505b92915050565b6000600560008473ffffffffffffffffffffffffffffffffffffffff1673ffffffffffffffffffffffffffffffffffffffff16815260200190815260200160002054905060008111611618576040517f08c379a000000000000000000000000000000000000000000000000000000000815260040161160f9061275b565b60405180910390fd5b8082611624919061277b565b65456e6572677973ffffffffffffffffffffffffffffffffffffffff166370a08231856040518263ffffffff1660e01b81526004016116639190611b2f565b602060405180830381865afa158015611680573d6000803e3d6000fd5b505050506040513d601f19601f820116820180604052508101906116a49190611d99565b10156116e5576040517f08c379a00000000000000000000000000000000000000000000000000000000081526004016116dc906127fb565b60405180910390fd5b505050565b60008060008060005b600281101561180057600060018260028110611712576117116122d9565b5b0160009054906101000a900473ffffffffffffffffffffffffffffffffffffffff16905060008173ffffffffffffffffffffffffffffffffffffffff1663d06ca61f898b6040518363ffffffff1660e01b815260040161177392919061281b565b600060405180830381865afa158015611790573d6000803e3d6000fd5b505050506040513d6000823e3d601f19601f820116820180604052508101906117b99190612648565b90506000816001815181106117d1576117d06122d9565b5b60200260200101519050848111156117ea578395508094505b50505080806117f89061284b565b9150506116f3565b5060018260028110611815576118146122d9565b5b0160009054906101000a900473ffffffffffffffffffffffffffffffffffffffff16819350935050509250929050565b61184f8282610cfc565b6118925780826040517fe2517d3f000000000000000000000000000000000000000000000000000000008152600401611889929190612893565b60405180910390fd5b5050565b6000604051905090565b600080fd5b600080fd5b60007fffffffff0000000000000000000000000000000000000000000000000000000082169050919050565b6118df816118aa565b81146118ea57600080fd5b50565b6000813590506118fc816118d6565b92915050565b600060208284031215611918576119176118a0565b5b6000611926848285016118ed565b91505092915050565b60008115159050919050565b6119448161192f565b82525050565b600060208201905061195f600083018461193b565b92915050565b600073ffffffffffffffffffffffffffffffffffffffff82169050919050565b600061199082611965565b9050919050565b6119a081611985565b81146119ab57600080fd5b50565b6000813590506119bd81611997565b92915050565b6000602082840312156119d9576119d86118a0565b5b60006119e7848285016119ae565b91505092915050565b6000819050919050565b611a03816119f0565b8114611a0e57600080fd5b50565b600081359050611a20816119fa565b92915050565b600060208284031215611a3c57611a3b6118a0565b5b6000611a4a84828501611a11565b91505092915050565b611a5c816119f0565b82525050565b6000602082019050611a776000830184611a53565b92915050565b60008060408385031215611a9457611a936118a0565b5b6000611aa285828601611a11565b9250506020611ab3858286016119ae565b9150509250929050565b6000819050919050565b611ad081611abd565b8114611adb57600080fd5b50565b600081359050611aed81611ac7565b92915050565b600060208284031215611b0957611b086118a0565b5b6000611b1784828501611ade565b91505092915050565b611b2981611985565b82525050565b6000602082019050611b446000830184611b20565b92915050565b611b5381611abd565b82525050565b6000602082019050611b6e6000830184611b4a565b92915050565b600060ff82169050919050565b611b8a81611b74565b8114611b9557600080fd5b50565b600081359050611ba781611b81565b92915050565b600060208284031215611bc357611bc26118a0565b5b6000611bd184828501611b98565b91505092915050565b6000611be582611965565b9050919050565b611bf581611bda565b8114611c0057600080fd5b50565b600081359050611c1281611bec565b92915050565b600080600060608486031215611c3157611c306118a0565b5b6000611c3f86828701611c03565b9350506020611c5086828701611ade565b9250506040611c6186828701611ade565b9150509250925092565b6000819050919050565b6000611c90611c8b611c8684611965565b611c6b565b611965565b9050919050565b6000611ca282611c75565b9050919050565b6000611cb482611c97565b9050919050565b611cc481611ca9565b82525050565b6000602082019050611cdf6000830184611cbb565b92915050565b6000611cf082611c97565b9050919050565b611d0081611ce5565b82525050565b6000602082019050611d1b6000830184611cf7565b92915050565b6000819050919050565b60008160001b9050919050565b6000611d53611d4e611d4984611d21565b611d2b565b6119f0565b9050919050565b611d6381611d38565b82525050565b6000602082019050611d7e6000830184611d5a565b92915050565b600081519050611d9381611ac7565b92915050565b600060208284031215611daf57611dae6118a0565b5b6000611dbd84828501611d84565b91505092915050565b600082825260208201905092915050565b7f526f6c65733a206163636f756e74206973206e6f74206f776e65720000000000600082015250565b6000611e0d601b83611dc6565b9150611e1882611dd7565b602082019050919050565b60006020820190508181036000830152611e3c81611e00565b9050919050565b6000604082019050611e586000830185611b20565b611e656020830184611b4a565b9392505050565b611e758161192f565b8114611e8057600080fd5b50565b600081519050611e9281611e6c565b92915050565b600060208284031215611eae57611ead6118a0565b5b6000611ebc84828501611e83565b91505092915050565b7f5472616465723a2077697468647261772066656573206661696c656400000000600082015250565b6000611efb601c83611dc6565b9150611f0682611ec5565b602082019050919050565b60006020820190508181036000830152611f2a81611eee565b9050919050565b7f5472616465723a20696e76616c69642072657365727665000000000000000000600082015250565b6000611f67601783611dc6565b9150611f7282611f31565b602082019050919050565b60006020820190508181036000830152611f9681611f5a565b9050919050565b7f5472616465723a20696e76616c696420666565206d756c7469706c6965720000600082015250565b6000611fd3601e83611dc6565b9150611fde82611f9d565b602082019050919050565b6000602082019050818103600083015261200281611fc6565b9050919050565b7f526f6c65733a206163636f756e74206973206e6f742061646d696e0000000000600082015250565b600061203f601b83611dc6565b915061204a82612009565b602082019050919050565b6000602082019050818103600083015261206e81612032565b9050919050565b7f4e487b7100000000000000000000000000000000000000000000000000000000600052601160045260246000fd5b60006120af82611abd565b91506120ba83611abd565b92508282026120c881611abd565b915082820484148315176120df576120de612075565b5b5092915050565b7f5472616465723a2067617320707269636520746f6f2068696768000000000000600082015250565b600061211c601a83611dc6565b9150612127826120e6565b602082019050919050565b6000602082019050818103600083015261214b8161210f565b9050919050565b600061215d82611c97565b9050919050565b61216d81612152565b82525050565b60006060820190506121886000830186612164565b6121956020830185611b20565b6121a26040830184611b4a565b949350505050565b7f5472616465723a207472616e736665722066726f6d206661696c656400000000600082015250565b60006121e0601c83611dc6565b91506121eb826121aa565b602082019050919050565b6000602082019050818103600083015261220f816121d3565b9050919050565b600061222182611abd565b915061222c83611abd565b925082820390508181111561224457612243612075565b5b92915050565b7f4e487b7100000000000000000000000000000000000000000000000000000000600052601260045260246000fd5b600061228482611abd565b915061228f83611abd565b92508261229f5761229e61224a565b5b828204905092915050565b7f4e487b7100000000000000000000000000000000000000000000000000000000600052604160045260246000fd5b7f4e487b7100000000000000000000000000000000000000000000000000000000600052603260045260246000fd5b7f5472616465723a20616d6f756e74206f757420657870656374656420746f6f2060008201527f6c6f770000000000000000000000000000000000000000000000000000000000602082015250565b6000612364602383611dc6565b915061236f82612308565b604082019050919050565b6000602082019050818103600083015261239381612357565b9050919050565b7f5472616465723a20617070726f7665206661696c656400000000000000000000600082015250565b60006123d0601683611dc6565b91506123db8261239a565b602082019050919050565b600060208201905081810360008301526123ff816123c3565b9050919050565b600081519050919050565b600082825260208201905092915050565b6000819050602082019050919050565b61243b81611985565b82525050565b600061244d8383612432565b60208301905092915050565b6000602082019050919050565b600061247182612406565b61247b8185612411565b935061248683612422565b8060005b838110156124b757815161249e8882612441565b97506124a983612459565b92505060018101905061248a565b5085935050505092915050565b600060a0820190506124d96000830188611b4a565b6124e66020830187611b4a565b81810360408301526124f88186612466565b90506125076060830185612164565b6125146080830184611b4a565b9695505050505050565b600080fd5b6000601f19601f8301169050919050565b61253d82612523565b810181811067ffffffffffffffff8211171561255c5761255b6122aa565b5b80604052505050565b600061256f611896565b905061257b8282612534565b919050565b600067ffffffffffffffff82111561259b5761259a6122aa565b5b602082029050602081019050919050565b600080fd5b60006125c46125bf84612580565b612565565b905080838252602082019050602084028301858111156125e7576125e66125ac565b5b835b8181101561261057806125fc8882611d84565b8452602084019350506020810190506125e9565b5050509392505050565b600082601f83011261262f5761262e61251e565b5b815161263f8482602086016125b1565b91505092915050565b60006020828403121561265e5761265d6118a0565b5b600082015167ffffffffffffffff81111561267c5761267b6118a5565b5b6126888482850161261a565b91505092915050565b6000610100820190506126a7600083018b611b4a565b6126b4602083018a611b4a565b6126c16040830189611b4a565b6126ce6060830188611b4a565b6126db6080830187611b4a565b6126e860a0830186611b4a565b6126f560c0830185611b4a565b61270260e0830184611b4a565b9998505050505050505050565b7f5472616465723a2072657365727665206e6f7420696e697469616c697a656400600082015250565b6000612745601f83611dc6565b91506127508261270f565b602082019050919050565b6000602082019050818103600083015261277481612738565b9050919050565b600061278682611abd565b915061279183611abd565b92508282019050808211156127a9576127a8612075565b5b92915050565b7f5472616465723a20696e73756666696369656e742062616c616e636500000000600082015250565b60006127e5601c83611dc6565b91506127f0826127af565b602082019050919050565b60006020820190508181036000830152612814816127d8565b9050919050565b60006040820190506128306000830185611b4a565b81810360208301526128428184612466565b90509392505050565b600061285682611abd565b91507fffffffffffffffffffffffffffffffffffffffffffffffffffffffffffffffff820361288857612887612075565b5b600182019050919050565b60006040820190506128a86000830185611b20565b6128b56020830184611a53565b939250505056fea26469706673582212202495516165f56ae4ed38f3721751ac8e214ecd977929f92586fbeb87b7fa267864736f6c63430008140033",
  "linkReferences": {},
  "deployedLinkReferences": {}
}