{
  "_format": "hh-sol-artifact-1",
  "contractName": "Trader",
  "sourceName": "contracts/Trader.sol",
  "abi": [
    {
      "inputs": [
        {
          "internalType": "address",
          "name": "routerAddress",
          "type": "address"
        }
      ],
      "stateMutability": "nonpayable",
      "type": "constructor"
    },
    {
      "inputs": [],
      "name": "ApproveFailed",
      "type": "error"
    },
    {
      "inputs": [
        {
          "internalType": "uint256",
          "name": "available",
          "type": "uint256"
        },
        {
          "internalType": "uint256",
          "name": "required",
          "type": "uint256"
        }
      ],
      "name": "InsufficientBalance",
      "type": "error"
    },
    {
      "inputs": [
        {
          "internalType": "uint256",
          "name": "triggerBalance",
          "type": "uint256"
        },
        {
          "internalType": "uint256",
          "name": "reserveBalance",
          "type": "uint256"
        }
      ],
      "name": "InvalidConfig",
      "type": "error"
    },
    {
      "inputs": [],
      "name": "InvalidReserve",
      "type": "error"
    },
    {
      "inputs": [],
      "name": "InvalidTrigger",
      "type": "error"
    },
    {
      "inputs": [
        {
          "internalType": "address",
          "name": "account",
          "type": "address"
        }
      ],
      "name": "NotOwner",
      "type": "error"
    },
    {
      "inputs": [
        {
          "internalType": "address",
          "name": "to",
          "type": "address"
        },
        {
          "internalType": "uint256",
          "name": "amount",
          "type": "uint256"
        }
      ],
      "name": "TransferFailed",
      "type": "error"
    },
    {
      "inputs": [
        {
          "internalType": "address",
          "name": "from",
          "type": "address"
        },
        {
          "internalType": "uint256",
          "name": "amount",
          "type": "uint256"
        }
      ],
      "name": "TransferFromFailed",
      "type": "error"
    },
    {
      "inputs": [],
      "name": "ZeroAddress",
      "type": "error"
    },
    {
      "anonymous": false,
      "inputs": [
        {
          "indexed": true,
          "internalType": "address",
          "name": "account",
          "type": "address"
        },
        {
          "indexed": false,
          "internalType": "uint256",
          "name": "triggerBalance",
          "type": "uint256"
        },
        {
          "indexed": false,
          "internalType": "uint256",
          "name": "reserveBalance",
          "type": "uint256"
        }
      ],
      "name": "Config",
      "type": "event"
    },
    {
      "anonymous": false,
      "inputs": [
        {
          "indexed": true,
          "internalType": "address",
          "name": "account",
          "type": "address"
        },
        {
          "indexed": false,
          "internalType": "uint256",
          "name": "withdrawAmount",
          "type": "uint256"
        },
        {
          "indexed": false,
          "internalType": "uint256",
          "name": "gasPrice",
          "type": "uint256"
        },
        {
          "indexed": false,
          "internalType": "uint256",
          "name": "protocolFee",
          "type": "uint256"
        },
        {
          "indexed": false,
          "internalType": "uint256",
          "name": "maxRate",
          "type": "uint256"
        },
        {
          "indexed": false,
          "internalType": "uint256",
          "name": "amountOutMin",
          "type": "uint256"
        },
        {
          "indexed": false,
          "internalType": "uint256",
          "name": "amountOut",
          "type": "uint256"
        }
      ],
      "name": "Swap",
      "type": "event"
    },
    {
      "anonymous": false,
      "inputs": [
        {
          "indexed": true,
          "internalType": "address",
          "name": "to",
          "type": "address"
        },
        {
          "indexed": false,
          "internalType": "uint256",
          "name": "amount",
          "type": "uint256"
        }
      ],
      "name": "Withdraw",
      "type": "event"
    },
    {
      "inputs": [],
      "name": "MAX_VTHO_WITHDRAWAL_AMOUNT",
      "outputs": [
        {
          "internalType": "uint256",
          "name": "",
          "type": "uint256"
        }
      ],
      "stateMutability": "view",
      "type": "function"
    },
    {
      "inputs": [],
      "name": "SWAP_GAS",
      "outputs": [
        {
          "internalType": "uint256",
          "name": "",
          "type": "uint256"
        }
      ],
      "stateMutability": "view",
      "type": "function"
    },
    {
      "inputs": [
        {
          "internalType": "address",
          "name": "",
          "type": "address"
        }
      ],
      "name": "addressToConfig",
      "outputs": [
        {
          "internalType": "uint256",
          "name": "triggerBalance",
          "type": "uint256"
        },
        {
          "internalType": "uint256",
          "name": "reserveBalance",
          "type": "uint256"
        }
      ],
      "stateMutability": "view",
      "type": "function"
    },
    {
      "inputs": [],
      "name": "owner",
      "outputs": [
        {
          "internalType": "address",
          "name": "",
          "type": "address"
        }
      ],
      "stateMutability": "view",
      "type": "function"
    },
    {
      "inputs": [],
      "name": "router",
      "outputs": [
        {
          "internalType": "contract IUniswapV2Router02",
          "name": "",
          "type": "address"
        }
      ],
      "stateMutability": "view",
      "type": "function"
    },
    {
      "inputs": [
        {
          "internalType": "uint256",
          "name": "triggerBalance",
          "type": "uint256"
        },
        {
          "internalType": "uint256",
          "name": "reserveBalance",
          "type": "uint256"
        }
      ],
      "name": "saveConfig",
      "outputs": [],
      "stateMutability": "nonpayable",
      "type": "function"
    },
    {
      "inputs": [
        {
          "internalType": "address payable",
          "name": "account",
          "type": "address"
        },
        {
          "internalType": "uint256",
          "name": "maxRate",
          "type": "uint256"
        }
      ],
      "name": "swap",
      "outputs": [],
      "stateMutability": "nonpayable",
      "type": "function"
    },
    {
      "inputs": [],
      "name": "vtho",
      "outputs": [
        {
          "internalType": "contract IEnergy",
          "name": "",
          "type": "address"
        }
      ],
      "stateMutability": "view",
      "type": "function"
    },
    {
      "inputs": [],
      "name": "withdraw",
      "outputs": [],
      "stateMutability": "nonpayable",
      "type": "function"
    }
  ],
  "bytecode": "0x60a060405265456e657267796000806101000a81548173ffffffffffffffffffffffffffffffffffffffff021916908373ffffffffffffffffffffffffffffffffffffffff1602179055503480156200005757600080fd5b5060405162001a8138038062001a8183398181016040528101906200007d91906200017b565b600073ffffffffffffffffffffffffffffffffffffffff168173ffffffffffffffffffffffffffffffffffffffff161415620000e5576040517fd92e233d00000000000000000000000000000000000000000000000000000000815260040160405180910390fd5b3373ffffffffffffffffffffffffffffffffffffffff1660808173ffffffffffffffffffffffffffffffffffffffff1660601b8152505080600160006101000a81548173ffffffffffffffffffffffffffffffffffffffff021916908373ffffffffffffffffffffffffffffffffffffffff16021790555050620001f5565b6000815190506200017581620001db565b92915050565b6000602082840312156200018e57600080fd5b60006200019e8482850162000164565b91505092915050565b6000620001b482620001bb565b9050919050565b600073ffffffffffffffffffffffffffffffffffffffff82169050919050565b620001e681620001a7565b8114620001f257600080fd5b50565b60805160601c61184a62000237600039600081816101a30152818161031d015281816103b201528181610411015281816104ad015261064c015261184a6000f3fe608060405234801561001057600080fd5b50600436106100935760003560e01c80639c70803b116100665780639c70803b1461010f578063d004f0f71461012b578063d4b0dbdd14610147578063e3e96a1d14610165578063f887ea401461018357610093565b80633ccfd60b1461009857806351fddfa9146100a2578063750f198a146100d35780638da5cb5b146100f1575b600080fd5b6100a06101a1565b005b6100bc60048036038101906100b79190611051565b610480565b6040516100ca92919061138e565b60405180910390f35b6100db6104a4565b6040516100e89190611373565b60405180910390f35b6100f96104ab565b604051610106919061127e565b60405180910390f35b61012960048036038101906101249190611172565b6104cf565b005b610145600480360381019061014091906110a3565b61064a565b005b61014f610ee6565b60405161015c919061133d565b60405180910390f35b61016d610f0a565b60405161017a9190611373565b60405180910390f35b61018b610f17565b6040516101989190611358565b60405180910390f35b7f000000000000000000000000000000000000000000000000000000000000000073ffffffffffffffffffffffffffffffffffffffff163373ffffffffffffffffffffffffffffffffffffffff161461023157336040517f245aecd3000000000000000000000000000000000000000000000000000000008152600401610228919061127e565b60405180910390fd5b60008060009054906101000a900473ffffffffffffffffffffffffffffffffffffffff1673ffffffffffffffffffffffffffffffffffffffff166370a08231306040518263ffffffff1660e01b815260040161028d919061127e565b60206040518083038186803b1580156102a557600080fd5b505afa1580156102b9573d6000803e3d6000fd5b505050506040513d601f19601f820116820180604052508101906102dd9190611149565b905060008054906101000a900473ffffffffffffffffffffffffffffffffffffffff1673ffffffffffffffffffffffffffffffffffffffff1663a9059cbb7f0000000000000000000000000000000000000000000000000000000000000000836040518363ffffffff1660e01b815260040161035a929190611314565b602060405180830381600087803b15801561037457600080fd5b505af1158015610388573d6000803e3d6000fd5b505050506040513d601f19601f820116820180604052508101906103ac9190611120565b61040f577f0000000000000000000000000000000000000000000000000000000000000000816040517f1c43b976000000000000000000000000000000000000000000000000000000008152600401610406929190611314565b60405180910390fd5b7f000000000000000000000000000000000000000000000000000000000000000073ffffffffffffffffffffffffffffffffffffffff167f884edad9ce6fa2440d8a54cc123490eb96d2768479d49ff9c7366125a9424364826040516104759190611373565b60405180910390a250565b60026020528060005260406000206000915090508060000154908060010154905082565b6204198581565b7f000000000000000000000000000000000000000000000000000000000000000081565b600082141561050a576040517fa768d7fd00000000000000000000000000000000000000000000000000000000815260040160405180910390fd5b6000811415610545576040517fe46aea0900000000000000000000000000000000000000000000000000000000815260040160405180910390fd5b80821161058b5781816040517fd40d76ca00000000000000000000000000000000000000000000000000000000815260040161058292919061138e565b60405180910390fd5b604051806040016040528083815260200182815250600260003373ffffffffffffffffffffffffffffffffffffffff1673ffffffffffffffffffffffffffffffffffffffff16815260200190815260200160002060008201518160000155602082015181600101559050503373ffffffffffffffffffffffffffffffffffffffff167fb9bfe6dda7ddbc49d12288ef1e5d501c902797a01fc2bba856601b70e874cbb8838360405161063e92919061138e565b60405180910390a25050565b7f000000000000000000000000000000000000000000000000000000000000000073ffffffffffffffffffffffffffffffffffffffff163373ffffffffffffffffffffffffffffffffffffffff16146106da57336040517f245aecd30000000000000000000000000000000000000000000000000000000081526004016106d1919061127e565b60405180910390fd5b6000600260008473ffffffffffffffffffffffffffffffffffffffff1673ffffffffffffffffffffffffffffffffffffffff16815260200190815260200160002060405180604001604052908160008201548152602001600182015481525050905060008060009054906101000a900473ffffffffffffffffffffffffffffffffffffffff1673ffffffffffffffffffffffffffffffffffffffff166370a08231856040518263ffffffff1660e01b81526004016107989190611299565b60206040518083038186803b1580156107b057600080fd5b505afa1580156107c4573d6000803e3d6000fd5b505050506040513d601f19601f820116820180604052508101906107e89190611149565b9050600082600001511415610829576040517fa768d7fd00000000000000000000000000000000000000000000000000000000815260040160405180910390fd5b600082602001511415610868576040517fe46aea0900000000000000000000000000000000000000000000000000000000815260040160405180910390fd5b81600001518110156108b7578082600001516040517fcf4791810000000000000000000000000000000000000000000000000000000081526004016108ae92919061138e565b60405180910390fd5b60008260200151683635c9adc5dea000006108d291906114fc565b8210156108ee578260200151826108e991906115dd565b6108f9565b683635c9adc5dea000005b905060008054906101000a900473ffffffffffffffffffffffffffffffffffffffff1673ffffffffffffffffffffffffffffffffffffffff166323b872dd8630846040518463ffffffff1660e01b8152600401610958939291906112b4565b602060405180830381600087803b15801561097257600080fd5b505af1158015610986573d6000803e3d6000fd5b505050506040513d601f19601f820116820180604052508101906109aa9190611120565b6109ed5784816040517f841894cb0000000000000000000000000000000000000000000000000000000081526004016109e49291906112eb565b60405180910390fd5b6000620419853a6109fe9190611583565b905060006103e860038385610a1391906115dd565b610a1d9190611583565b610a279190611552565b90506000818385610a3891906115dd565b610a4291906115dd565b905060008782610a529190611552565b905060008054906101000a900473ffffffffffffffffffffffffffffffffffffffff1673ffffffffffffffffffffffffffffffffffffffff1663095ea7b3600160009054906101000a900473ffffffffffffffffffffffffffffffffffffffff16846040518363ffffffff1660e01b8152600401610ad1929190611314565b602060405180830381600087803b158015610aeb57600080fd5b505af1158015610aff573d6000803e3d6000fd5b505050506040513d601f19601f82011682018060405250810190610b239190611120565b610b59576040517f3e3f8f7300000000000000000000000000000000000000000000000000000000815260040160405180910390fd5b6000600267ffffffffffffffff811115610b9c577f4e487b7100000000000000000000000000000000000000000000000000000000600052604160045260246000fd5b604051908082528060200260200182016040528015610bca5781602001602082028036833780820191505090505b50905060008054906101000a900473ffffffffffffffffffffffffffffffffffffffff1681600081518110610c28577f4e487b7100000000000000000000000000000000000000000000000000000000600052603260045260246000fd5b602002602001019073ffffffffffffffffffffffffffffffffffffffff16908173ffffffffffffffffffffffffffffffffffffffff1681525050600160009054906101000a900473ffffffffffffffffffffffffffffffffffffffff1673ffffffffffffffffffffffffffffffffffffffff1663ad5c46486040518163ffffffff1660e01b815260040160206040518083038186803b158015610cca57600080fd5b505afa158015610cde573d6000803e3d6000fd5b505050506040513d601f19601f82011682018060405250810190610d02919061107a565b81600181518110610d3c577f4e487b7100000000000000000000000000000000000000000000000000000000600052603260045260246000fd5b602002602001019073ffffffffffffffffffffffffffffffffffffffff16908173ffffffffffffffffffffffffffffffffffffffff16815250506000600160009054906101000a900473ffffffffffffffffffffffffffffffffffffffff1673ffffffffffffffffffffffffffffffffffffffff166318cbafe58585858f426040518663ffffffff1660e01b8152600401610ddb9594939291906113b7565b600060405180830381600087803b158015610df557600080fd5b505af1158015610e09573d6000803e3d6000fd5b505050506040513d6000823e3d601f19601f82011682018060405250810190610e3291906110df565b90508a73ffffffffffffffffffffffffffffffffffffffff167f1c66e529e5eda665469886610afddba48a9cc0e5d92fb155ae84dab6c81d155d883a888e888760018951610e8091906115dd565b81518110610eb7577f4e487b7100000000000000000000000000000000000000000000000000000000600052603260045260246000fd5b6020026020010151604051610ed196959493929190611411565b60405180910390a25050505050505050505050565b60008054906101000a900473ffffffffffffffffffffffffffffffffffffffff1681565b683635c9adc5dea0000081565b600160009054906101000a900473ffffffffffffffffffffffffffffffffffffffff1681565b6000610f50610f4b84611497565b611472565b90508083825260208201905082856020860282011115610f6f57600080fd5b60005b85811015610f9f5781610f85888261103c565b845260208401935060208301925050600181019050610f72565b5050509392505050565b600081359050610fb8816117b8565b92915050565b600081519050610fcd816117b8565b92915050565b600081359050610fe2816117cf565b92915050565b600082601f830112610ff957600080fd5b8151611009848260208601610f3d565b91505092915050565b600081519050611021816117e6565b92915050565b600081359050611036816117fd565b92915050565b60008151905061104b816117fd565b92915050565b60006020828403121561106357600080fd5b600061107184828501610fa9565b91505092915050565b60006020828403121561108c57600080fd5b600061109a84828501610fbe565b91505092915050565b600080604083850312156110b657600080fd5b60006110c485828601610fd3565b92505060206110d585828601611027565b9150509250929050565b6000602082840312156110f157600080fd5b600082015167ffffffffffffffff81111561110b57600080fd5b61111784828501610fe8565b91505092915050565b60006020828403121561113257600080fd5b600061114084828501611012565b91505092915050565b60006020828403121561115b57600080fd5b60006111698482850161103c565b91505092915050565b6000806040838503121561118557600080fd5b600061119385828601611027565b92505060206111a485828601611027565b9150509250929050565b60006111ba83836111d5565b60208301905092915050565b6111cf8161166b565b82525050565b6111de81611611565b82525050565b6111ed81611611565b82525050565b60006111fe826114d3565b61120881856114eb565b9350611213836114c3565b8060005b8381101561124457815161122b88826111ae565b9750611236836114de565b925050600181019050611217565b5085935050505092915050565b61125a8161167d565b82525050565b611269816116a1565b82525050565b61127881611661565b82525050565b600060208201905061129360008301846111e4565b92915050565b60006020820190506112ae60008301846111c6565b92915050565b60006060820190506112c960008301866111c6565b6112d660208301856111e4565b6112e3604083018461126f565b949350505050565b600060408201905061130060008301856111c6565b61130d602083018461126f565b9392505050565b600060408201905061132960008301856111e4565b611336602083018461126f565b9392505050565b60006020820190506113526000830184611251565b92915050565b600060208201905061136d6000830184611260565b92915050565b6000602082019050611388600083018461126f565b92915050565b60006040820190506113a3600083018561126f565b6113b0602083018461126f565b9392505050565b600060a0820190506113cc600083018861126f565b6113d9602083018761126f565b81810360408301526113eb81866111f3565b90506113fa60608301856111c6565b611407608083018461126f565b9695505050505050565b600060c082019050611426600083018961126f565b611433602083018861126f565b611440604083018761126f565b61144d606083018661126f565b61145a608083018561126f565b61146760a083018461126f565b979650505050505050565b600061147c61148d565b905061148882826116e9565b919050565b6000604051905090565b600067ffffffffffffffff8211156114b2576114b1611778565b5b602082029050602081019050919050565b6000819050602082019050919050565b600081519050919050565b6000602082019050919050565b600082825260208201905092915050565b600061150782611661565b915061151283611661565b9250827fffffffffffffffffffffffffffffffffffffffffffffffffffffffffffffffff038211156115475761154661171a565b5b828201905092915050565b600061155d82611661565b915061156883611661565b92508261157857611577611749565b5b828204905092915050565b600061158e82611661565b915061159983611661565b9250817fffffffffffffffffffffffffffffffffffffffffffffffffffffffffffffffff04831182151516156115d2576115d161171a565b5b828202905092915050565b60006115e882611661565b91506115f383611661565b9250828210156116065761160561171a565b5b828203905092915050565b600061161c82611641565b9050919050565b600061162e82611641565b9050919050565b60008115159050919050565b600073ffffffffffffffffffffffffffffffffffffffff82169050919050565b6000819050919050565b6000611676826116c5565b9050919050565b60006116888261168f565b9050919050565b600061169a82611641565b9050919050565b60006116ac826116b3565b9050919050565b60006116be82611641565b9050919050565b60006116d0826116d7565b9050919050565b60006116e282611641565b9050919050565b6116f2826117a7565b810181811067ffffffffffffffff8211171561171157611710611778565b5b80604052505050565b7f4e487b7100000000000000000000000000000000000000000000000000000000600052601160045260246000fd5b7f4e487b7100000000000000000000000000000000000000000000000000000000600052601260045260246000fd5b7f4e487b7100000000000000000000000000000000000000000000000000000000600052604160045260246000fd5b6000601f19601f8301169050919050565b6117c181611611565b81146117cc57600080fd5b50565b6117d881611623565b81146117e357600080fd5b50565b6117ef81611635565b81146117fa57600080fd5b50565b61180681611661565b811461181157600080fd5b5056fea26469706673582212201c58a5077ba39746f0bd5fa45d77cf07b3d7624be5b35f7ca6496e8a2b0b949964736f6c63430008040033",
  "linkReferences": {},
  "deployedLinkReferences": {}
}