{
  "_format": "hh-sol-artifact-1",
  "contractName": "Trader",
  "sourceName": "contracts/Trader.sol",
  "abi": [
    {
      "inputs": [
        {
          "internalType": "address",
          "name": "routerAddress",
          "type": "address"
        }
      ],
      "stateMutability": "nonpayable",
      "type": "constructor"
    },
    {
      "anonymous": false,
      "inputs": [
        {
          "indexed": true,
          "internalType": "address",
          "name": "account",
          "type": "address"
        },
        {
          "indexed": false,
          "internalType": "uint256",
          "name": "triggerBalance",
          "type": "uint256"
        },
        {
          "indexed": false,
          "internalType": "uint256",
          "name": "reserveBalance",
          "type": "uint256"
        }
      ],
      "name": "Config",
      "type": "event"
    },
    {
      "anonymous": false,
      "inputs": [
        {
          "indexed": false,
          "internalType": "uint256",
          "name": "gasprice",
          "type": "uint256"
        }
      ],
      "name": "Gas",
      "type": "event"
    },
    {
      "anonymous": false,
      "inputs": [
        {
          "indexed": true,
          "internalType": "address",
          "name": "account",
          "type": "address"
        },
        {
          "indexed": false,
          "internalType": "uint256",
          "name": "withdrawAmount",
          "type": "uint256"
        },
        {
          "indexed": false,
          "internalType": "uint256",
          "name": "txFee",
          "type": "uint256"
        },
        {
          "indexed": false,
          "internalType": "uint256",
          "name": "protocolFee",
          "type": "uint256"
        },
        {
          "indexed": false,
          "internalType": "uint256",
          "name": "maxRate",
          "type": "uint256"
        },
        {
          "indexed": false,
          "internalType": "uint256",
          "name": "amountOutMin",
          "type": "uint256"
        },
        {
          "indexed": false,
          "internalType": "uint256",
          "name": "amountOut",
          "type": "uint256"
        }
      ],
      "name": "Swap",
      "type": "event"
    },
    {
      "anonymous": false,
      "inputs": [
        {
          "indexed": true,
          "internalType": "address",
          "name": "to",
          "type": "address"
        },
        {
          "indexed": false,
          "internalType": "uint256",
          "name": "amount",
          "type": "uint256"
        }
      ],
      "name": "Withdraw",
      "type": "event"
    },
    {
      "inputs": [],
      "name": "MAX_VTHO_WITHDRAWAL_AMOUNT",
      "outputs": [
        {
          "internalType": "uint256",
          "name": "",
          "type": "uint256"
        }
      ],
      "stateMutability": "view",
      "type": "function"
    },
    {
      "inputs": [
        {
          "internalType": "address",
          "name": "",
          "type": "address"
        }
      ],
      "name": "addressToConfig",
      "outputs": [
        {
          "internalType": "uint256",
          "name": "triggerBalance",
          "type": "uint256"
        },
        {
          "internalType": "uint256",
          "name": "reserveBalance",
          "type": "uint256"
        }
      ],
      "stateMutability": "view",
      "type": "function"
    },
    {
      "inputs": [],
      "name": "owner",
      "outputs": [
        {
          "internalType": "address payable",
          "name": "",
          "type": "address"
        }
      ],
      "stateMutability": "view",
      "type": "function"
    },
    {
      "inputs": [],
      "name": "router",
      "outputs": [
        {
          "internalType": "contract IUniswapV2Router02",
          "name": "",
          "type": "address"
        }
      ],
      "stateMutability": "view",
      "type": "function"
    },
    {
      "inputs": [
        {
          "internalType": "uint256",
          "name": "triggerBalance",
          "type": "uint256"
        },
        {
          "internalType": "uint256",
          "name": "reserveBalance",
          "type": "uint256"
        }
      ],
      "name": "saveConfig",
      "outputs": [],
      "stateMutability": "nonpayable",
      "type": "function"
    },
    {
      "inputs": [
        {
          "internalType": "address payable",
          "name": "account",
          "type": "address"
        },
        {
          "internalType": "uint256",
          "name": "maxRate",
          "type": "uint256"
        }
      ],
      "name": "swap",
      "outputs": [],
      "stateMutability": "nonpayable",
      "type": "function"
    },
    {
      "inputs": [],
      "name": "withdraw",
      "outputs": [],
      "stateMutability": "nonpayable",
      "type": "function"
    }
  ],
  "bytecode": "0x608060405265456e657267796000806101000a81548173ffffffffffffffffffffffffffffffffffffffff021916908373ffffffffffffffffffffffffffffffffffffffff1602179055503480156200005757600080fd5b5060405162001cd838038062001cd883398181016040528101906200007d919062000190565b600073ffffffffffffffffffffffffffffffffffffffff168173ffffffffffffffffffffffffffffffffffffffff161415620000f0576040517f08c379a0000000000000000000000000000000000000000000000000000000008152600401620000e790620001e3565b60405180910390fd5b33600260006101000a81548173ffffffffffffffffffffffffffffffffffffffff021916908373ffffffffffffffffffffffffffffffffffffffff16021790555080600160006101000a81548173ffffffffffffffffffffffffffffffffffffffff021916908373ffffffffffffffffffffffffffffffffffffffff160217905550506200028d565b6000815190506200018a8162000273565b92915050565b600060208284031215620001a357600080fd5b6000620001b38482850162000179565b91505092915050565b6000620001cb60168362000205565b9150620001d8826200024a565b602082019050919050565b60006020820190508181036000830152620001fe81620001bc565b9050919050565b600082825260208201905092915050565b600062000223826200022a565b9050919050565b600073ffffffffffffffffffffffffffffffffffffffff82169050919050565b7f5472616465723a20726f75746572206e6f742073657400000000000000000000600082015250565b6200027e8162000216565b81146200028a57600080fd5b50565b611a3b806200029d6000396000f3fe608060405234801561001057600080fd5b506004361061007d5760003560e01c80639c70803b1161005b5780639c70803b146100db578063d004f0f7146100f7578063e3e96a1d14610113578063f887ea40146101315761007d565b80633ccfd60b1461008257806351fddfa91461008c5780638da5cb5b146100bd575b600080fd5b61008a61014f565b005b6100a660048036038101906100a19190610f25565b610323565b6040516100b492919061147a565b60405180910390f35b6100c5610347565b6040516100d291906112a0565b60405180910390f35b6100f560048036038101906100f09190611046565b61036d565b005b610111600480360381019061010c9190610f77565b6104f4565b005b61011b610dc5565b604051610128919061145f565b60405180910390f35b610139610dd2565b6040516101469190611344565b60405180910390f35b600260009054906101000a900473ffffffffffffffffffffffffffffffffffffffff1673ffffffffffffffffffffffffffffffffffffffff163373ffffffffffffffffffffffffffffffffffffffff16146101a957600080fd5b60008054906101000a900473ffffffffffffffffffffffffffffffffffffffff1673ffffffffffffffffffffffffffffffffffffffff1663a9059cbb600260009054906101000a900473ffffffffffffffffffffffffffffffffffffffff1660008054906101000a900473ffffffffffffffffffffffffffffffffffffffff1673ffffffffffffffffffffffffffffffffffffffff166370a08231306040518263ffffffff1660e01b8152600401610261919061126a565b60206040518083038186803b15801561027957600080fd5b505afa15801561028d573d6000803e3d6000fd5b505050506040513d601f19601f820116820180604052508101906102b1919061101d565b6040518363ffffffff1660e01b81526004016102ce9291906112f2565b602060405180830381600087803b1580156102e857600080fd5b505af11580156102fc573d6000803e3d6000fd5b505050506040513d601f19601f820116820180604052508101906103209190610ff4565b50565b60036020528060005260406000206000915090508060000154908060010154905082565b600260009054906101000a900473ffffffffffffffffffffffffffffffffffffffff1681565b600082116103b0576040517f08c379a00000000000000000000000000000000000000000000000000000000081526004016103a7906113bf565b60405180910390fd5b600081116103f3576040517f08c379a00000000000000000000000000000000000000000000000000000000081526004016103ea9061143f565b60405180910390fd5b808211610435576040517f08c379a000000000000000000000000000000000000000000000000000000000815260040161042c9061135f565b60405180910390fd5b604051806040016040528083815260200182815250600360003373ffffffffffffffffffffffffffffffffffffffff1673ffffffffffffffffffffffffffffffffffffffff16815260200190815260200160002060008201518160000155602082015181600101559050503373ffffffffffffffffffffffffffffffffffffffff167fb9bfe6dda7ddbc49d12288ef1e5d501c902797a01fc2bba856601b70e874cbb883836040516104e892919061147a565b60405180910390a25050565b6000600360008473ffffffffffffffffffffffffffffffffffffffff1673ffffffffffffffffffffffffffffffffffffffff168152602001908152602001600020604051806040016040529081600082015481526020016001820154815250509050600081600001511161059d576040517f08c379a00000000000000000000000000000000000000000000000000000000081526004016105949061139f565b60405180910390fd5b60008160200151116105e4576040517f08c379a00000000000000000000000000000000000000000000000000000000081526004016105db906113df565b60405180910390fd5b806000015160008054906101000a900473ffffffffffffffffffffffffffffffffffffffff1673ffffffffffffffffffffffffffffffffffffffff166370a08231856040518263ffffffff1660e01b81526004016106429190611285565b60206040518083038186803b15801561065a57600080fd5b505afa15801561066e573d6000803e3d6000fd5b505050506040513d601f19601f82011682018060405250810190610692919061101d565b10156106d3576040517f08c379a00000000000000000000000000000000000000000000000000000000081526004016106ca906113ff565b60405180910390fd5b600061079f683635c9adc5dea00000836020015160008054906101000a900473ffffffffffffffffffffffffffffffffffffffff1673ffffffffffffffffffffffffffffffffffffffff166370a08231886040518263ffffffff1660e01b81526004016107409190611285565b60206040518083038186803b15801561075857600080fd5b505afa15801561076c573d6000803e3d6000fd5b505050506040513d601f19601f82011682018060405250810190610790919061101d565b61079a9190611684565b610df8565b905060008054906101000a900473ffffffffffffffffffffffffffffffffffffffff1673ffffffffffffffffffffffffffffffffffffffff166323b872dd8530846040518463ffffffff1660e01b81526004016107fe939291906112bb565b602060405180830381600087803b15801561081857600080fd5b505af115801561082c573d6000803e3d6000fd5b505050506040513d601f19601f820116820180604052508101906108509190610ff4565b61088f576040517f08c379a00000000000000000000000000000000000000000000000000000000081526004016108869061141f565b60405180910390fd5b600060053a61089e919061162a565b905060006103e8600383856108b39190611684565b6108bd919061162a565b6108c791906115f9565b905060008183856108d89190611684565b6108e29190611684565b9050600086826108f291906115f9565b905060008054906101000a900473ffffffffffffffffffffffffffffffffffffffff1673ffffffffffffffffffffffffffffffffffffffff1663095ea7b3600160009054906101000a900473ffffffffffffffffffffffffffffffffffffffff16846040518363ffffffff1660e01b815260040161097192919061131b565b602060405180830381600087803b15801561098b57600080fd5b505af115801561099f573d6000803e3d6000fd5b505050506040513d601f19601f820116820180604052508101906109c39190610ff4565b610a02576040517f08c379a00000000000000000000000000000000000000000000000000000000081526004016109f99061137f565b60405180910390fd5b6000600267ffffffffffffffff811115610a45577f4e487b7100000000000000000000000000000000000000000000000000000000600052604160045260246000fd5b604051908082528060200260200182016040528015610a735781602001602082028036833780820191505090505b50905060008054906101000a900473ffffffffffffffffffffffffffffffffffffffff1681600081518110610ad1577f4e487b7100000000000000000000000000000000000000000000000000000000600052603260045260246000fd5b602002602001019073ffffffffffffffffffffffffffffffffffffffff16908173ffffffffffffffffffffffffffffffffffffffff1681525050600160009054906101000a900473ffffffffffffffffffffffffffffffffffffffff1673ffffffffffffffffffffffffffffffffffffffff1663ad5c46486040518163ffffffff1660e01b815260040160206040518083038186803b158015610b7357600080fd5b505afa158015610b87573d6000803e3d6000fd5b505050506040513d601f19601f82011682018060405250810190610bab9190610f4e565b81600181518110610be5577f4e487b7100000000000000000000000000000000000000000000000000000000600052603260045260246000fd5b602002602001019073ffffffffffffffffffffffffffffffffffffffff16908173ffffffffffffffffffffffffffffffffffffffff16815250506000600160009054906101000a900473ffffffffffffffffffffffffffffffffffffffff1673ffffffffffffffffffffffffffffffffffffffff166318cbafe58585858e426040518663ffffffff1660e01b8152600401610c849594939291906114a3565b600060405180830381600087803b158015610c9e57600080fd5b505af1158015610cb2573d6000803e3d6000fd5b505050506040513d6000823e3d601f19601f82011682018060405250810190610cdb9190610fb3565b90508973ffffffffffffffffffffffffffffffffffffffff167f1c66e529e5eda665469886610afddba48a9cc0e5d92fb155ae84dab6c81d155d8888888d888760018951610d299190611684565b81518110610d60577f4e487b7100000000000000000000000000000000000000000000000000000000600052603260045260246000fd5b6020026020010151604051610d7a969594939291906114fd565b60405180910390a27ff0fadcd9d25528e430e4862a6cc65c4af97cc5bc42e413e0fcd026d40345a6df3a604051610db1919061145f565b60405180910390a150505050505050505050565b683635c9adc5dea0000081565b600160009054906101000a900473ffffffffffffffffffffffffffffffffffffffff1681565b6000818310610e075781610e09565b825b905092915050565b6000610e24610e1f84611583565b61155e565b90508083825260208201905082856020860282011115610e4357600080fd5b60005b85811015610e735781610e598882610f10565b845260208401935060208301925050600181019050610e46565b5050509392505050565b600081359050610e8c816119a9565b92915050565b600081519050610ea1816119a9565b92915050565b600081359050610eb6816119c0565b92915050565b600082601f830112610ecd57600080fd5b8151610edd848260208601610e11565b91505092915050565b600081519050610ef5816119d7565b92915050565b600081359050610f0a816119ee565b92915050565b600081519050610f1f816119ee565b92915050565b600060208284031215610f3757600080fd5b6000610f4584828501610e7d565b91505092915050565b600060208284031215610f6057600080fd5b6000610f6e84828501610e92565b91505092915050565b60008060408385031215610f8a57600080fd5b6000610f9885828601610ea7565b9250506020610fa985828601610efb565b9150509250929050565b600060208284031215610fc557600080fd5b600082015167ffffffffffffffff811115610fdf57600080fd5b610feb84828501610ebc565b91505092915050565b60006020828403121561100657600080fd5b600061101484828501610ee6565b91505092915050565b60006020828403121561102f57600080fd5b600061103d84828501610f10565b91505092915050565b6000806040838503121561105957600080fd5b600061106785828601610efb565b925050602061107885828601610efb565b9150509250929050565b600061108e83836110b8565b60208301905092915050565b6110a381611712565b82525050565b6110b2816116ca565b82525050565b6110c1816116b8565b82525050565b6110d0816116b8565b82525050565b60006110e1826115bf565b6110eb81856115d7565b93506110f6836115af565b8060005b8381101561112757815161110e8882611082565b9750611119836115ca565b9250506001810190506110fa565b5085935050505092915050565b61113d81611724565b82525050565b60006111506016836115e8565b915061115b8261183b565b602082019050919050565b60006111736017836115e8565b915061117e82611864565b602082019050919050565b6000611196601e836115e8565b91506111a18261188d565b602082019050919050565b60006111b9601e836115e8565b91506111c4826118b6565b602082019050919050565b60006111dc601e836115e8565b91506111e7826118df565b602082019050919050565b60006111ff6022836115e8565b915061120a82611908565b604082019050919050565b6000611222601b836115e8565b915061122d82611957565b602082019050919050565b6000611245601e836115e8565b915061125082611980565b602082019050919050565b61126481611708565b82525050565b600060208201905061127f60008301846110c7565b92915050565b600060208201905061129a600083018461109a565b92915050565b60006020820190506112b560008301846110a9565b92915050565b60006060820190506112d0600083018661109a565b6112dd60208301856110c7565b6112ea604083018461125b565b949350505050565b6000604082019050611307600083018561109a565b611314602083018461125b565b9392505050565b600060408201905061133060008301856110c7565b61133d602083018461125b565b9392505050565b60006020820190506113596000830184611134565b92915050565b6000602082019050818103600083015261137881611143565b9050919050565b6000602082019050818103600083015261139881611166565b9050919050565b600060208201905081810360008301526113b881611189565b9050919050565b600060208201905081810360008301526113d8816111ac565b9050919050565b600060208201905081810360008301526113f8816111cf565b9050919050565b60006020820190508181036000830152611418816111f2565b9050919050565b6000602082019050818103600083015261143881611215565b9050919050565b6000602082019050818103600083015261145881611238565b9050919050565b6000602082019050611474600083018461125b565b92915050565b600060408201905061148f600083018561125b565b61149c602083018461125b565b9392505050565b600060a0820190506114b8600083018861125b565b6114c5602083018761125b565b81810360408301526114d781866110d6565b90506114e6606083018561109a565b6114f3608083018461125b565b9695505050505050565b600060c082019050611512600083018961125b565b61151f602083018861125b565b61152c604083018761125b565b611539606083018661125b565b611546608083018561125b565b61155360a083018461125b565b979650505050505050565b6000611568611579565b9050611574828261176c565b919050565b6000604051905090565b600067ffffffffffffffff82111561159e5761159d6117fb565b5b602082029050602081019050919050565b6000819050602082019050919050565b600081519050919050565b6000602082019050919050565b600082825260208201905092915050565b600082825260208201905092915050565b600061160482611708565b915061160f83611708565b92508261161f5761161e6117cc565b5b828204905092915050565b600061163582611708565b915061164083611708565b9250817fffffffffffffffffffffffffffffffffffffffffffffffffffffffffffffffff04831182151516156116795761167861179d565b5b828202905092915050565b600061168f82611708565b915061169a83611708565b9250828210156116ad576116ac61179d565b5b828203905092915050565b60006116c3826116e8565b9050919050565b60006116d5826116e8565b9050919050565b60008115159050919050565b600073ffffffffffffffffffffffffffffffffffffffff82169050919050565b6000819050919050565b600061171d82611748565b9050919050565b600061172f82611736565b9050919050565b6000611741826116e8565b9050919050565b60006117538261175a565b9050919050565b6000611765826116e8565b9050919050565b6117758261182a565b810181811067ffffffffffffffff82111715611794576117936117fb565b5b80604052505050565b7f4e487b7100000000000000000000000000000000000000000000000000000000600052601160045260246000fd5b7f4e487b7100000000000000000000000000000000000000000000000000000000600052601260045260246000fd5b7f4e487b7100000000000000000000000000000000000000000000000000000000600052604160045260246000fd5b6000601f19601f8301169050919050565b7f5472616465723a20696e76616c696420636f6e66696700000000000000000000600082015250565b7f5472616465723a20617070726f7665206661696c65642e000000000000000000600082015250565b7f5472616465723a207472696767657242616c616e6365206e6f74207365740000600082015250565b7f5472616465723a20696e76616c6964207472696767657242616c616e63650000600082015250565b7f5472616465723a207265736572766542616c616e6365206e6f74207365740000600082015250565b7f5472616465723a207472696767657242616c616e6365206e6f7420726561636860008201527f6564000000000000000000000000000000000000000000000000000000000000602082015250565b7f5472616465723a207472616e7366657246726f6d206661696c65640000000000600082015250565b7f5472616465723a20696e76616c6964207265736572766542616c616e63650000600082015250565b6119b2816116b8565b81146119bd57600080fd5b50565b6119c9816116ca565b81146119d457600080fd5b50565b6119e0816116dc565b81146119eb57600080fd5b50565b6119f781611708565b8114611a0257600080fd5b5056fea26469706673582212205608ba54cfa6758527d402f8037d3a36cd74c2082787847dc8cdf08bca1211cb64736f6c63430008040033",
  "linkReferences": {},
  "deployedLinkReferences": {}
}