{
  "_format": "hh-sol-artifact-1",
  "contractName": "Trader",
  "sourceName": "contracts/Trader.sol",
  "abi": [
    {
      "inputs": [
        {
          "internalType": "address",
          "name": "vthoAddress",
          "type": "address"
        },
        {
          "internalType": "address",
          "name": "routerAddress",
          "type": "address"
        }
      ],
      "stateMutability": "nonpayable",
      "type": "constructor"
    },
    {
      "anonymous": false,
      "inputs": [
        {
          "indexed": true,
          "internalType": "address",
          "name": "account",
          "type": "address"
        },
        {
          "indexed": false,
          "internalType": "uint256",
          "name": "triggerBalance",
          "type": "uint256"
        },
        {
          "indexed": false,
          "internalType": "uint256",
          "name": "reserveBalance",
          "type": "uint256"
        }
      ],
      "name": "Config",
      "type": "event"
    },
    {
      "anonymous": false,
      "inputs": [
        {
          "indexed": false,
          "internalType": "uint256",
          "name": "gasprice",
          "type": "uint256"
        }
      ],
      "name": "Gas",
      "type": "event"
    },
    {
      "anonymous": false,
      "inputs": [
        {
          "indexed": true,
          "internalType": "address",
          "name": "account",
          "type": "address"
        },
        {
          "indexed": false,
          "internalType": "uint256",
          "name": "withdrawAmount",
          "type": "uint256"
        },
        {
          "indexed": false,
          "internalType": "uint256",
          "name": "fees",
          "type": "uint256"
        },
        {
          "indexed": false,
          "internalType": "uint256",
          "name": "maxRate",
          "type": "uint256"
        },
        {
          "indexed": false,
          "internalType": "uint256",
          "name": "amountOutMin",
          "type": "uint256"
        },
        {
          "indexed": false,
          "internalType": "uint256",
          "name": "amountOut",
          "type": "uint256"
        }
      ],
      "name": "Swap",
      "type": "event"
    },
    {
      "anonymous": false,
      "inputs": [
        {
          "indexed": true,
          "internalType": "address",
          "name": "to",
          "type": "address"
        },
        {
          "indexed": false,
          "internalType": "uint256",
          "name": "amount",
          "type": "uint256"
        }
      ],
      "name": "Withdraw",
      "type": "event"
    },
    {
      "inputs": [
        {
          "internalType": "address",
          "name": "",
          "type": "address"
        }
      ],
      "name": "addressToConfig",
      "outputs": [
        {
          "internalType": "uint256",
          "name": "triggerBalance",
          "type": "uint256"
        },
        {
          "internalType": "uint256",
          "name": "reserveBalance",
          "type": "uint256"
        }
      ],
      "stateMutability": "view",
      "type": "function"
    },
    {
      "inputs": [],
      "name": "owner",
      "outputs": [
        {
          "internalType": "address payable",
          "name": "",
          "type": "address"
        }
      ],
      "stateMutability": "view",
      "type": "function"
    },
    {
      "inputs": [],
      "name": "router",
      "outputs": [
        {
          "internalType": "contract IUniswapV2Router02",
          "name": "",
          "type": "address"
        }
      ],
      "stateMutability": "view",
      "type": "function"
    },
    {
      "inputs": [
        {
          "internalType": "uint256",
          "name": "triggerBalance",
          "type": "uint256"
        },
        {
          "internalType": "uint256",
          "name": "reserveBalance",
          "type": "uint256"
        }
      ],
      "name": "saveConfig",
      "outputs": [],
      "stateMutability": "nonpayable",
      "type": "function"
    },
    {
      "inputs": [
        {
          "internalType": "address payable",
          "name": "account",
          "type": "address"
        },
        {
          "internalType": "uint256",
          "name": "maxRate",
          "type": "uint256"
        }
      ],
      "name": "swap",
      "outputs": [],
      "stateMutability": "nonpayable",
      "type": "function"
    },
    {
      "inputs": [],
      "name": "vtho",
      "outputs": [
        {
          "internalType": "contract IERC20",
          "name": "",
          "type": "address"
        }
      ],
      "stateMutability": "view",
      "type": "function"
    }
  ],
  "bytecode": "0x60806040523480156200001157600080fd5b5060405162001b1e38038062001b1e83398181016040528101906200003791906200018b565b600073ffffffffffffffffffffffffffffffffffffffff168173ffffffffffffffffffffffffffffffffffffffff161415620000aa576040517f08c379a0000000000000000000000000000000000000000000000000000000008152600401620000a190620001f3565b60405180910390fd5b816000806101000a81548173ffffffffffffffffffffffffffffffffffffffff021916908373ffffffffffffffffffffffffffffffffffffffff16021790555080600160006101000a81548173ffffffffffffffffffffffffffffffffffffffff021916908373ffffffffffffffffffffffffffffffffffffffff16021790555033600260006101000a81548173ffffffffffffffffffffffffffffffffffffffff021916908373ffffffffffffffffffffffffffffffffffffffff16021790555050506200029d565b600081519050620001858162000283565b92915050565b600080604083850312156200019f57600080fd5b6000620001af8582860162000174565b9250506020620001c28582860162000174565b9150509250929050565b6000620001db60168362000215565b9150620001e8826200025a565b602082019050919050565b600060208201905081810360008301526200020e81620001cc565b9050919050565b600082825260208201905092915050565b600062000233826200023a565b9050919050565b600073ffffffffffffffffffffffffffffffffffffffff82169050919050565b7f5472616465723a20726f75746572206e6f742073657400000000000000000000600082015250565b6200028e8162000226565b81146200029a57600080fd5b50565b61187180620002ad6000396000f3fe608060405234801561001057600080fd5b50600436106100625760003560e01c806351fddfa9146100675780638da5cb5b146100985780639c70803b146100b6578063d004f0f7146100d2578063d4b0dbdd146100ee578063f887ea401461010c575b600080fd5b610081600480360381019061007c9190610d09565b61012a565b60405161008f929190611244565b60405180910390f35b6100a061014e565b6040516100ad9190611078565b60405180910390f35b6100d060048036038101906100cb9190610e2a565b610174565b005b6100ec60048036038101906100e79190610d5b565b6102fb565b005b6100f6610bab565b60405161010391906110f3565b60405180910390f35b610114610bcf565b604051610121919061110e565b60405180910390f35b60036020528060005260406000206000915090508060000154908060010154905082565b600260009054906101000a900473ffffffffffffffffffffffffffffffffffffffff1681565b600082116101b7576040517f08c379a00000000000000000000000000000000000000000000000000000000081526004016101ae90611189565b60405180910390fd5b600081116101fa576040517f08c379a00000000000000000000000000000000000000000000000000000000081526004016101f190611209565b60405180910390fd5b80821161023c576040517f08c379a000000000000000000000000000000000000000000000000000000000815260040161023390611129565b60405180910390fd5b604051806040016040528083815260200182815250600360003373ffffffffffffffffffffffffffffffffffffffff1673ffffffffffffffffffffffffffffffffffffffff16815260200190815260200160002060008201518160000155602082015181600101559050503373ffffffffffffffffffffffffffffffffffffffff167fb9bfe6dda7ddbc49d12288ef1e5d501c902797a01fc2bba856601b70e874cbb883836040516102ef929190611244565b60405180910390a25050565b6000600360008473ffffffffffffffffffffffffffffffffffffffff1673ffffffffffffffffffffffffffffffffffffffff16815260200190815260200160002060405180604001604052908160008201548152602001600182015481525050905060008160000151116103a4576040517f08c379a000000000000000000000000000000000000000000000000000000000815260040161039b90611169565b60405180910390fd5b60008160200151116103eb576040517f08c379a00000000000000000000000000000000000000000000000000000000081526004016103e2906111a9565b60405180910390fd5b806000015160008054906101000a900473ffffffffffffffffffffffffffffffffffffffff1673ffffffffffffffffffffffffffffffffffffffff166370a08231856040518263ffffffff1660e01b8152600401610449919061105d565b602060405180830381600087803b15801561046357600080fd5b505af1158015610477573d6000803e3d6000fd5b505050506040513d601f19601f8201168201806040525081019061049b9190610e01565b10156104dc576040517f08c379a00000000000000000000000000000000000000000000000000000000081526004016104d3906111c9565b60405180910390fd5b6000816020015160008054906101000a900473ffffffffffffffffffffffffffffffffffffffff1673ffffffffffffffffffffffffffffffffffffffff166370a08231866040518263ffffffff1660e01b815260040161053c919061105d565b602060405180830381600087803b15801561055657600080fd5b505af115801561056a573d6000803e3d6000fd5b505050506040513d601f19601f8201168201806040525081019061058e9190610e01565b6105989190611496565b905060008054906101000a900473ffffffffffffffffffffffffffffffffffffffff1673ffffffffffffffffffffffffffffffffffffffff166323b872dd8530846040518463ffffffff1660e01b81526004016105f793929190611093565b602060405180830381600087803b15801561061157600080fd5b505af1158015610625573d6000803e3d6000fd5b505050506040513d601f19601f820116820180604052508101906106499190610dd8565b610688576040517f08c379a000000000000000000000000000000000000000000000000000000000815260040161067f906111e9565b60405180910390fd5b600060053a610697919061143c565b6103e86003846106a7919061143c565b6106b1919061140b565b6106bb91906113b5565b9050600081836106cb9190611496565b9050600085826106db919061140b565b905060008054906101000a900473ffffffffffffffffffffffffffffffffffffffff1673ffffffffffffffffffffffffffffffffffffffff1663095ea7b3600160009054906101000a900473ffffffffffffffffffffffffffffffffffffffff16846040518363ffffffff1660e01b815260040161075a9291906110ca565b602060405180830381600087803b15801561077457600080fd5b505af1158015610788573d6000803e3d6000fd5b505050506040513d601f19601f820116820180604052508101906107ac9190610dd8565b6107eb576040517f08c379a00000000000000000000000000000000000000000000000000000000081526004016107e290611149565b60405180910390fd5b6000600267ffffffffffffffff81111561082e577f4e487b7100000000000000000000000000000000000000000000000000000000600052604160045260246000fd5b60405190808252806020026020018201604052801561085c5781602001602082028036833780820191505090505b50905060008054906101000a900473ffffffffffffffffffffffffffffffffffffffff16816000815181106108ba577f4e487b7100000000000000000000000000000000000000000000000000000000600052603260045260246000fd5b602002602001019073ffffffffffffffffffffffffffffffffffffffff16908173ffffffffffffffffffffffffffffffffffffffff1681525050600160009054906101000a900473ffffffffffffffffffffffffffffffffffffffff1673ffffffffffffffffffffffffffffffffffffffff1663ad5c46486040518163ffffffff1660e01b815260040160206040518083038186803b15801561095c57600080fd5b505afa158015610970573d6000803e3d6000fd5b505050506040513d601f19601f820116820180604052508101906109949190610d32565b816001815181106109ce577f4e487b7100000000000000000000000000000000000000000000000000000000600052603260045260246000fd5b602002602001019073ffffffffffffffffffffffffffffffffffffffff16908173ffffffffffffffffffffffffffffffffffffffff16815250506000600160009054906101000a900473ffffffffffffffffffffffffffffffffffffffff1673ffffffffffffffffffffffffffffffffffffffff166318cbafe58585858d426040518663ffffffff1660e01b8152600401610a6d95949392919061126d565b600060405180830381600087803b158015610a8757600080fd5b505af1158015610a9b573d6000803e3d6000fd5b505050506040513d6000823e3d601f19601f82011682018060405250810190610ac49190610d97565b90508873ffffffffffffffffffffffffffffffffffffffff167f6d2535bccee43630e01014525de773080b47e1a82c56ef6a30802933a48c9e3487878b878660018851610b119190611496565b81518110610b48577f4e487b7100000000000000000000000000000000000000000000000000000000600052603260045260246000fd5b6020026020010151604051610b619594939291906112c7565b60405180910390a27ff0fadcd9d25528e430e4862a6cc65c4af97cc5bc42e413e0fcd026d40345a6df3a604051610b989190611229565b60405180910390a1505050505050505050565b60008054906101000a900473ffffffffffffffffffffffffffffffffffffffff1681565b600160009054906101000a900473ffffffffffffffffffffffffffffffffffffffff1681565b6000610c08610c038461133f565b61131a565b90508083825260208201905082856020860282011115610c2757600080fd5b60005b85811015610c575781610c3d8882610cf4565b845260208401935060208301925050600181019050610c2a565b5050509392505050565b600081359050610c70816117df565b92915050565b600081519050610c85816117df565b92915050565b600081359050610c9a816117f6565b92915050565b600082601f830112610cb157600080fd5b8151610cc1848260208601610bf5565b91505092915050565b600081519050610cd98161180d565b92915050565b600081359050610cee81611824565b92915050565b600081519050610d0381611824565b92915050565b600060208284031215610d1b57600080fd5b6000610d2984828501610c61565b91505092915050565b600060208284031215610d4457600080fd5b6000610d5284828501610c76565b91505092915050565b60008060408385031215610d6e57600080fd5b6000610d7c85828601610c8b565b9250506020610d8d85828601610cdf565b9150509250929050565b600060208284031215610da957600080fd5b600082015167ffffffffffffffff811115610dc357600080fd5b610dcf84828501610ca0565b91505092915050565b600060208284031215610dea57600080fd5b6000610df884828501610cca565b91505092915050565b600060208284031215610e1357600080fd5b6000610e2184828501610cf4565b91505092915050565b60008060408385031215610e3d57600080fd5b6000610e4b85828601610cdf565b9250506020610e5c85828601610cdf565b9150509250929050565b6000610e728383610e9c565b60208301905092915050565b610e8781611524565b82525050565b610e96816114dc565b82525050565b610ea5816114ca565b82525050565b610eb4816114ca565b82525050565b6000610ec58261137b565b610ecf8185611393565b9350610eda8361136b565b8060005b83811015610f0b578151610ef28882610e66565b9750610efd83611386565b925050600181019050610ede565b5085935050505092915050565b610f2181611536565b82525050565b610f308161155a565b82525050565b6000610f436016836113a4565b9150610f4e82611671565b602082019050919050565b6000610f666017836113a4565b9150610f718261169a565b602082019050919050565b6000610f89601e836113a4565b9150610f94826116c3565b602082019050919050565b6000610fac601e836113a4565b9150610fb7826116ec565b602082019050919050565b6000610fcf601e836113a4565b9150610fda82611715565b602082019050919050565b6000610ff26022836113a4565b9150610ffd8261173e565b604082019050919050565b6000611015601b836113a4565b91506110208261178d565b602082019050919050565b6000611038601e836113a4565b9150611043826117b6565b602082019050919050565b6110578161151a565b82525050565b60006020820190506110726000830184610e7e565b92915050565b600060208201905061108d6000830184610e8d565b92915050565b60006060820190506110a86000830186610e7e565b6110b56020830185610eab565b6110c2604083018461104e565b949350505050565b60006040820190506110df6000830185610eab565b6110ec602083018461104e565b9392505050565b60006020820190506111086000830184610f18565b92915050565b60006020820190506111236000830184610f27565b92915050565b6000602082019050818103600083015261114281610f36565b9050919050565b6000602082019050818103600083015261116281610f59565b9050919050565b6000602082019050818103600083015261118281610f7c565b9050919050565b600060208201905081810360008301526111a281610f9f565b9050919050565b600060208201905081810360008301526111c281610fc2565b9050919050565b600060208201905081810360008301526111e281610fe5565b9050919050565b6000602082019050818103600083015261120281611008565b9050919050565b600060208201905081810360008301526112228161102b565b9050919050565b600060208201905061123e600083018461104e565b92915050565b6000604082019050611259600083018561104e565b611266602083018461104e565b9392505050565b600060a082019050611282600083018861104e565b61128f602083018761104e565b81810360408301526112a18186610eba565b90506112b06060830185610e7e565b6112bd608083018461104e565b9695505050505050565b600060a0820190506112dc600083018861104e565b6112e9602083018761104e565b6112f6604083018661104e565b611303606083018561104e565b611310608083018461104e565b9695505050505050565b6000611324611335565b905061133082826115a2565b919050565b6000604051905090565b600067ffffffffffffffff82111561135a57611359611631565b5b602082029050602081019050919050565b6000819050602082019050919050565b600081519050919050565b6000602082019050919050565b600082825260208201905092915050565b600082825260208201905092915050565b60006113c08261151a565b91506113cb8361151a565b9250827fffffffffffffffffffffffffffffffffffffffffffffffffffffffffffffffff03821115611400576113ff6115d3565b5b828201905092915050565b60006114168261151a565b91506114218361151a565b92508261143157611430611602565b5b828204905092915050565b60006114478261151a565b91506114528361151a565b9250817fffffffffffffffffffffffffffffffffffffffffffffffffffffffffffffffff048311821515161561148b5761148a6115d3565b5b828202905092915050565b60006114a18261151a565b91506114ac8361151a565b9250828210156114bf576114be6115d3565b5b828203905092915050565b60006114d5826114fa565b9050919050565b60006114e7826114fa565b9050919050565b60008115159050919050565b600073ffffffffffffffffffffffffffffffffffffffff82169050919050565b6000819050919050565b600061152f8261157e565b9050919050565b600061154182611548565b9050919050565b6000611553826114fa565b9050919050565b60006115658261156c565b9050919050565b6000611577826114fa565b9050919050565b600061158982611590565b9050919050565b600061159b826114fa565b9050919050565b6115ab82611660565b810181811067ffffffffffffffff821117156115ca576115c9611631565b5b80604052505050565b7f4e487b7100000000000000000000000000000000000000000000000000000000600052601160045260246000fd5b7f4e487b7100000000000000000000000000000000000000000000000000000000600052601260045260246000fd5b7f4e487b7100000000000000000000000000000000000000000000000000000000600052604160045260246000fd5b6000601f19601f8301169050919050565b7f5472616465723a20696e76616c696420636f6e66696700000000000000000000600082015250565b7f5472616465723a20617070726f7665206661696c65642e000000000000000000600082015250565b7f5472616465723a207472696767657242616c616e6365206e6f74207365740000600082015250565b7f5472616465723a20696e76616c6964207472696767657242616c616e63650000600082015250565b7f5472616465723a207265736572766542616c616e6365206e6f74207365740000600082015250565b7f5472616465723a207472696767657242616c616e6365206e6f7420726561636860008201527f6564000000000000000000000000000000000000000000000000000000000000602082015250565b7f5472616465723a207472616e7366657246726f6d206661696c65640000000000600082015250565b7f5472616465723a20696e76616c6964207265736572766542616c616e63650000600082015250565b6117e8816114ca565b81146117f357600080fd5b50565b6117ff816114dc565b811461180a57600080fd5b50565b611816816114ee565b811461182157600080fd5b50565b61182d8161151a565b811461183857600080fd5b5056fea264697066735822122074a216385e181e4557225c509b4162140fdfff461286ea47109c443d3c2000ae64736f6c63430008040033",
  "linkReferences": {},
  "deployedLinkReferences": {}
}