{
  "_format": "hh-sol-artifact-1",
  "contractName": "Trader",
  "sourceName": "contracts/Trader.sol",
  "abi": [
    {
      "inputs": [
        {
          "internalType": "address",
          "name": "vthoAddress",
          "type": "address"
        },
        {
          "internalType": "address",
          "name": "routerAddress",
          "type": "address"
        }
      ],
      "stateMutability": "nonpayable",
      "type": "constructor"
    },
    {
      "anonymous": false,
      "inputs": [
        {
          "indexed": true,
          "internalType": "address",
          "name": "account",
          "type": "address"
        },
        {
          "indexed": false,
          "internalType": "uint256",
          "name": "triggerBalance",
          "type": "uint256"
        },
        {
          "indexed": false,
          "internalType": "uint256",
          "name": "reserveBalance",
          "type": "uint256"
        }
      ],
      "name": "Config",
      "type": "event"
    },
    {
      "anonymous": false,
      "inputs": [
        {
          "indexed": false,
          "internalType": "uint256",
          "name": "gasprice",
          "type": "uint256"
        }
      ],
      "name": "Gas",
      "type": "event"
    },
    {
      "anonymous": false,
      "inputs": [
        {
          "indexed": true,
          "internalType": "address",
          "name": "account",
          "type": "address"
        },
        {
          "indexed": false,
          "internalType": "uint256",
          "name": "withdrawAmount",
          "type": "uint256"
        },
        {
          "indexed": false,
          "internalType": "uint256",
          "name": "fees",
          "type": "uint256"
        },
        {
          "indexed": false,
          "internalType": "uint256",
          "name": "maxRate",
          "type": "uint256"
        },
        {
          "indexed": false,
          "internalType": "uint256",
          "name": "amountOutMin",
          "type": "uint256"
        },
        {
          "indexed": false,
          "internalType": "uint256",
          "name": "amountOut",
          "type": "uint256"
        }
      ],
      "name": "Swap",
      "type": "event"
    },
    {
      "anonymous": false,
      "inputs": [
        {
          "indexed": true,
          "internalType": "address",
          "name": "to",
          "type": "address"
        },
        {
          "indexed": false,
          "internalType": "uint256",
          "name": "amount",
          "type": "uint256"
        }
      ],
      "name": "Withdraw",
      "type": "event"
    },
    {
      "inputs": [
        {
          "internalType": "address",
          "name": "",
          "type": "address"
        }
      ],
      "name": "addressToConfig",
      "outputs": [
        {
          "internalType": "uint256",
          "name": "triggerBalance",
          "type": "uint256"
        },
        {
          "internalType": "uint256",
          "name": "reserveBalance",
          "type": "uint256"
        }
      ],
      "stateMutability": "view",
      "type": "function"
    },
    {
      "inputs": [],
      "name": "owner",
      "outputs": [
        {
          "internalType": "address payable",
          "name": "",
          "type": "address"
        }
      ],
      "stateMutability": "view",
      "type": "function"
    },
    {
      "inputs": [],
      "name": "router",
      "outputs": [
        {
          "internalType": "contract IUniswapV2Router02",
          "name": "",
          "type": "address"
        }
      ],
      "stateMutability": "view",
      "type": "function"
    },
    {
      "inputs": [
        {
          "internalType": "uint256",
          "name": "triggerBalance",
          "type": "uint256"
        },
        {
          "internalType": "uint256",
          "name": "reserveBalance",
          "type": "uint256"
        }
      ],
      "name": "saveConfig",
      "outputs": [],
      "stateMutability": "nonpayable",
      "type": "function"
    },
    {
      "inputs": [
        {
          "internalType": "address payable",
          "name": "account",
          "type": "address"
        },
        {
          "internalType": "uint256",
          "name": "withdrawAmount",
          "type": "uint256"
        },
        {
          "internalType": "uint256",
          "name": "maxRate",
          "type": "uint256"
        }
      ],
      "name": "swap",
      "outputs": [],
      "stateMutability": "nonpayable",
      "type": "function"
    },
    {
      "inputs": [],
      "name": "vtho",
      "outputs": [
        {
          "internalType": "contract IERC20",
          "name": "",
          "type": "address"
        }
      ],
      "stateMutability": "view",
      "type": "function"
    }
  ],
  "bytecode": "0x60806040523480156200001157600080fd5b5060405162001bb638038062001bb683398181016040528101906200003791906200018b565b600073ffffffffffffffffffffffffffffffffffffffff168173ffffffffffffffffffffffffffffffffffffffff161415620000aa576040517f08c379a0000000000000000000000000000000000000000000000000000000008152600401620000a190620001f3565b60405180910390fd5b816000806101000a81548173ffffffffffffffffffffffffffffffffffffffff021916908373ffffffffffffffffffffffffffffffffffffffff16021790555080600160006101000a81548173ffffffffffffffffffffffffffffffffffffffff021916908373ffffffffffffffffffffffffffffffffffffffff16021790555033600260006101000a81548173ffffffffffffffffffffffffffffffffffffffff021916908373ffffffffffffffffffffffffffffffffffffffff16021790555050506200029d565b600081519050620001858162000283565b92915050565b600080604083850312156200019f57600080fd5b6000620001af8582860162000174565b9250506020620001c28582860162000174565b9150509250929050565b6000620001db60168362000215565b9150620001e8826200025a565b602082019050919050565b600060208201905081810360008301526200020e81620001cc565b9050919050565b600082825260208201905092915050565b600062000233826200023a565b9050919050565b600073ffffffffffffffffffffffffffffffffffffffff82169050919050565b7f5472616465723a20726f75746572206e6f742073657400000000000000000000600082015250565b6200028e8162000226565b81146200029a57600080fd5b50565b61190980620002ad6000396000f3fe608060405234801561001057600080fd5b50600436106100625760003560e01c806351fddfa9146100675780638da5cb5b146100985780639c70803b146100b65780639f1d0f59146100d2578063d4b0dbdd146100ee578063f887ea401461010c575b600080fd5b610081600480360381019061007c9190610d48565b61012a565b60405161008f9291906112d9565b60405180910390f35b6100a061014e565b6040516100ad91906110ed565b60405180910390f35b6100d060048036038101906100cb9190610e7c565b610174565b005b6100ec60048036038101906100e79190610d9a565b6102b9565b005b6100f6610bea565b6040516101039190611168565b60405180910390f35b610114610c0e565b6040516101219190611183565b60405180910390f35b60036020528060005260406000206000915090508060000154908060010154905082565b600260009054906101000a900473ffffffffffffffffffffffffffffffffffffffff1681565b600082116101b7576040517f08c379a00000000000000000000000000000000000000000000000000000000081526004016101ae9061123e565b60405180910390fd5b600081116101fa576040517f08c379a00000000000000000000000000000000000000000000000000000000081526004016101f19061129e565b60405180910390fd5b604051806040016040528083815260200182815250600360003373ffffffffffffffffffffffffffffffffffffffff1673ffffffffffffffffffffffffffffffffffffffff16815260200190815260200160002060008201518160000155602082015181600101559050503373ffffffffffffffffffffffffffffffffffffffff167fb9bfe6dda7ddbc49d12288ef1e5d501c902797a01fc2bba856601b70e874cbb883836040516102ad9291906112d9565b60405180910390a25050565b6000600360008573ffffffffffffffffffffffffffffffffffffffff1673ffffffffffffffffffffffffffffffffffffffff1681526020019081526020016000206040518060400160405290816000820154815260200160018201548152505090506000816000015111610362576040517f08c379a0000000000000000000000000000000000000000000000000000000008152600401610359906111fe565b60405180910390fd5b60008160200151116103a9576040517f08c379a00000000000000000000000000000000000000000000000000000000081526004016103a09061125e565b60405180910390fd5b80600001518310156103f0576040517f08c379a00000000000000000000000000000000000000000000000000000000081526004016103e79061119e565b60405180910390fd5b8260008054906101000a900473ffffffffffffffffffffffffffffffffffffffff1673ffffffffffffffffffffffffffffffffffffffff166370a08231866040518263ffffffff1660e01b815260040161044a91906110d2565b602060405180830381600087803b15801561046457600080fd5b505af1158015610478573d6000803e3d6000fd5b505050506040513d601f19601f8201168201806040525081019061049c9190610e53565b10156104dd576040517f08c379a00000000000000000000000000000000000000000000000000000000081526004016104d49061121e565b60405180910390fd5b8260008054906101000a900473ffffffffffffffffffffffffffffffffffffffff1673ffffffffffffffffffffffffffffffffffffffff166370a08231866040518263ffffffff1660e01b815260040161053791906110d2565b602060405180830381600087803b15801561055157600080fd5b505af1158015610565573d6000803e3d6000fd5b505050506040513d601f19601f820116820180604052508101906105899190610e53565b610593919061152b565b816020015110156105d9576040517f08c379a00000000000000000000000000000000000000000000000000000000081526004016105d0906111be565b60405180910390fd5b60008054906101000a900473ffffffffffffffffffffffffffffffffffffffff1673ffffffffffffffffffffffffffffffffffffffff166323b872dd8530866040518463ffffffff1660e01b815260040161063693929190611108565b602060405180830381600087803b15801561065057600080fd5b505af1158015610664573d6000803e3d6000fd5b505050506040513d601f19601f820116820180604052508101906106889190610e2a565b6106c7576040517f08c379a00000000000000000000000000000000000000000000000000000000081526004016106be9061127e565b60405180910390fd5b600060053a6106d691906114d1565b6103e86003866106e691906114d1565b6106f091906114a0565b6106fa919061144a565b90506000818561070a919061152b565b90506000848261071a91906114a0565b905060008054906101000a900473ffffffffffffffffffffffffffffffffffffffff1673ffffffffffffffffffffffffffffffffffffffff1663095ea7b3600160009054906101000a900473ffffffffffffffffffffffffffffffffffffffff16846040518363ffffffff1660e01b815260040161079992919061113f565b602060405180830381600087803b1580156107b357600080fd5b505af11580156107c7573d6000803e3d6000fd5b505050506040513d601f19601f820116820180604052508101906107eb9190610e2a565b61082a576040517f08c379a0000000000000000000000000000000000000000000000000000000008152600401610821906111de565b60405180910390fd5b6000600267ffffffffffffffff81111561086d577f4e487b7100000000000000000000000000000000000000000000000000000000600052604160045260246000fd5b60405190808252806020026020018201604052801561089b5781602001602082028036833780820191505090505b50905060008054906101000a900473ffffffffffffffffffffffffffffffffffffffff16816000815181106108f9577f4e487b7100000000000000000000000000000000000000000000000000000000600052603260045260246000fd5b602002602001019073ffffffffffffffffffffffffffffffffffffffff16908173ffffffffffffffffffffffffffffffffffffffff1681525050600160009054906101000a900473ffffffffffffffffffffffffffffffffffffffff1673ffffffffffffffffffffffffffffffffffffffff1663ad5c46486040518163ffffffff1660e01b815260040160206040518083038186803b15801561099b57600080fd5b505afa1580156109af573d6000803e3d6000fd5b505050506040513d601f19601f820116820180604052508101906109d39190610d71565b81600181518110610a0d577f4e487b7100000000000000000000000000000000000000000000000000000000600052603260045260246000fd5b602002602001019073ffffffffffffffffffffffffffffffffffffffff16908173ffffffffffffffffffffffffffffffffffffffff16815250506000600160009054906101000a900473ffffffffffffffffffffffffffffffffffffffff1673ffffffffffffffffffffffffffffffffffffffff166318cbafe58585858d426040518663ffffffff1660e01b8152600401610aac959493929190611302565b600060405180830381600087803b158015610ac657600080fd5b505af1158015610ada573d6000803e3d6000fd5b505050506040513d6000823e3d601f19601f82011682018060405250810190610b039190610de9565b90508873ffffffffffffffffffffffffffffffffffffffff167f6d2535bccee43630e01014525de773080b47e1a82c56ef6a30802933a48c9e3489878a878660018851610b50919061152b565b81518110610b87577f4e487b7100000000000000000000000000000000000000000000000000000000600052603260045260246000fd5b6020026020010151604051610ba095949392919061135c565b60405180910390a27ff0fadcd9d25528e430e4862a6cc65c4af97cc5bc42e413e0fcd026d40345a6df3a604051610bd791906112be565b60405180910390a1505050505050505050565b60008054906101000a900473ffffffffffffffffffffffffffffffffffffffff1681565b600160009054906101000a900473ffffffffffffffffffffffffffffffffffffffff1681565b6000610c47610c42846113d4565b6113af565b90508083825260208201905082856020860282011115610c6657600080fd5b60005b85811015610c965781610c7c8882610d33565b845260208401935060208301925050600181019050610c69565b5050509392505050565b600081359050610caf81611877565b92915050565b600081519050610cc481611877565b92915050565b600081359050610cd98161188e565b92915050565b600082601f830112610cf057600080fd5b8151610d00848260208601610c34565b91505092915050565b600081519050610d18816118a5565b92915050565b600081359050610d2d816118bc565b92915050565b600081519050610d42816118bc565b92915050565b600060208284031215610d5a57600080fd5b6000610d6884828501610ca0565b91505092915050565b600060208284031215610d8357600080fd5b6000610d9184828501610cb5565b91505092915050565b600080600060608486031215610daf57600080fd5b6000610dbd86828701610cca565b9350506020610dce86828701610d1e565b9250506040610ddf86828701610d1e565b9150509250925092565b600060208284031215610dfb57600080fd5b600082015167ffffffffffffffff811115610e1557600080fd5b610e2184828501610cdf565b91505092915050565b600060208284031215610e3c57600080fd5b6000610e4a84828501610d09565b91505092915050565b600060208284031215610e6557600080fd5b6000610e7384828501610d33565b91505092915050565b60008060408385031215610e8f57600080fd5b6000610e9d85828601610d1e565b9250506020610eae85828601610d1e565b9150509250929050565b6000610ec48383610eee565b60208301905092915050565b610ed9816115b9565b82525050565b610ee881611571565b82525050565b610ef78161155f565b82525050565b610f068161155f565b82525050565b6000610f1782611410565b610f218185611428565b9350610f2c83611400565b8060005b83811015610f5d578151610f448882610eb8565b9750610f4f8361141b565b925050600181019050610f30565b5085935050505092915050565b610f73816115cb565b82525050565b610f82816115ef565b82525050565b6000610f95601b83611439565b9150610fa082611706565b602082019050919050565b6000610fb8601c83611439565b9150610fc38261172f565b602082019050919050565b6000610fdb601783611439565b9150610fe682611758565b602082019050919050565b6000610ffe601e83611439565b915061100982611781565b602082019050919050565b6000611021601a83611439565b915061102c826117aa565b602082019050919050565b6000611044601e83611439565b915061104f826117d3565b602082019050919050565b6000611067601e83611439565b9150611072826117fc565b602082019050919050565b600061108a601b83611439565b915061109582611825565b602082019050919050565b60006110ad601e83611439565b91506110b88261184e565b602082019050919050565b6110cc816115af565b82525050565b60006020820190506110e76000830184610ed0565b92915050565b60006020820190506111026000830184610edf565b92915050565b600060608201905061111d6000830186610ed0565b61112a6020830185610efd565b61113760408301846110c3565b949350505050565b60006040820190506111546000830185610efd565b61116160208301846110c3565b9392505050565b600060208201905061117d6000830184610f6a565b92915050565b60006020820190506111986000830184610f79565b92915050565b600060208201905081810360008301526111b781610f88565b9050919050565b600060208201905081810360008301526111d781610fab565b9050919050565b600060208201905081810360008301526111f781610fce565b9050919050565b6000602082019050818103600083015261121781610ff1565b9050919050565b6000602082019050818103600083015261123781611014565b9050919050565b6000602082019050818103600083015261125781611037565b9050919050565b600060208201905081810360008301526112778161105a565b9050919050565b600060208201905081810360008301526112978161107d565b9050919050565b600060208201905081810360008301526112b7816110a0565b9050919050565b60006020820190506112d360008301846110c3565b92915050565b60006040820190506112ee60008301856110c3565b6112fb60208301846110c3565b9392505050565b600060a08201905061131760008301886110c3565b61132460208301876110c3565b81810360408301526113368186610f0c565b90506113456060830185610ed0565b61135260808301846110c3565b9695505050505050565b600060a08201905061137160008301886110c3565b61137e60208301876110c3565b61138b60408301866110c3565b61139860608301856110c3565b6113a560808301846110c3565b9695505050505050565b60006113b96113ca565b90506113c58282611637565b919050565b6000604051905090565b600067ffffffffffffffff8211156113ef576113ee6116c6565b5b602082029050602081019050919050565b6000819050602082019050919050565b600081519050919050565b6000602082019050919050565b600082825260208201905092915050565b600082825260208201905092915050565b6000611455826115af565b9150611460836115af565b9250827fffffffffffffffffffffffffffffffffffffffffffffffffffffffffffffffff0382111561149557611494611668565b5b828201905092915050565b60006114ab826115af565b91506114b6836115af565b9250826114c6576114c5611697565b5b828204905092915050565b60006114dc826115af565b91506114e7836115af565b9250817fffffffffffffffffffffffffffffffffffffffffffffffffffffffffffffffff04831182151516156115205761151f611668565b5b828202905092915050565b6000611536826115af565b9150611541836115af565b92508282101561155457611553611668565b5b828203905092915050565b600061156a8261158f565b9050919050565b600061157c8261158f565b9050919050565b60008115159050919050565b600073ffffffffffffffffffffffffffffffffffffffff82169050919050565b6000819050919050565b60006115c482611613565b9050919050565b60006115d6826115dd565b9050919050565b60006115e88261158f565b9050919050565b60006115fa82611601565b9050919050565b600061160c8261158f565b9050919050565b600061161e82611625565b9050919050565b60006116308261158f565b9050919050565b611640826116f5565b810181811067ffffffffffffffff8211171561165f5761165e6116c6565b5b80604052505050565b7f4e487b7100000000000000000000000000000000000000000000000000000000600052601160045260246000fd5b7f4e487b7100000000000000000000000000000000000000000000000000000000600052601260045260246000fd5b7f4e487b7100000000000000000000000000000000000000000000000000000000600052604160045260246000fd5b6000601f19601f8301169050919050565b7f5472616465723a20756e617574686f72697a656420616d6f756e740000000000600082015250565b7f5472616465723a20696e73756666696369656e74207265736572766500000000600082015250565b7f5472616465723a20617070726f7665206661696c65642e000000000000000000600082015250565b7f5472616465723a207472696767657242616c616e6365206e6f74207365740000600082015250565b7f5472616465723a20696e73756666696369656e742066756e6473000000000000600082015250565b7f5472616465723a20696e76616c6964207472696767657242616c616e63650000600082015250565b7f5472616465723a207265736572766542616c616e6365206e6f74207365740000600082015250565b7f5472616465723a207472616e7366657246726f6d206661696c65640000000000600082015250565b7f5472616465723a20696e76616c6964207265736572766542616c616e63650000600082015250565b6118808161155f565b811461188b57600080fd5b50565b61189781611571565b81146118a257600080fd5b50565b6118ae81611583565b81146118b957600080fd5b50565b6118c5816115af565b81146118d057600080fd5b5056fea26469706673582212205786c67e30a53b33944c83bdeeeec33b1f2613aacea79714407c33dc313bdb0164736f6c63430008040033",
  "linkReferences": {},
  "deployedLinkReferences": {}
}