{
  "_format": "hh-sol-artifact-1",
  "contractName": "Trader",
  "sourceName": "contracts/Trader.sol",
  "abi": [
    {
      "inputs": [
        {
          "internalType": "address",
          "name": "vthoAddr",
          "type": "address"
        },
        {
          "internalType": "address",
          "name": "router",
          "type": "address"
        }
      ],
      "stateMutability": "nonpayable",
      "type": "constructor"
    },
    {
      "anonymous": false,
      "inputs": [
        {
          "indexed": false,
          "internalType": "address",
          "name": "account",
          "type": "address"
        },
        {
          "indexed": false,
          "internalType": "uint256",
          "name": "amountIn",
          "type": "uint256"
        },
        {
          "indexed": false,
          "internalType": "uint256",
          "name": "minRate",
          "type": "uint256"
        },
        {
          "indexed": false,
          "internalType": "uint256",
          "name": "amountOutMin",
          "type": "uint256"
        },
        {
          "indexed": false,
          "internalType": "uint256",
          "name": "amountOut",
          "type": "uint256"
        }
      ],
      "name": "Swap",
      "type": "event"
    },
    {
      "anonymous": false,
      "inputs": [
        {
          "indexed": false,
          "internalType": "address",
          "name": "to",
          "type": "address"
        },
        {
          "indexed": false,
          "internalType": "uint256",
          "name": "amount",
          "type": "uint256"
        }
      ],
      "name": "Withdraw",
      "type": "event"
    },
    {
      "inputs": [],
      "name": "UniswapV2Router02",
      "outputs": [
        {
          "internalType": "contract IUniswapV2Router02",
          "name": "",
          "type": "address"
        }
      ],
      "stateMutability": "view",
      "type": "function"
    },
    {
      "inputs": [],
      "name": "VTHO",
      "outputs": [
        {
          "internalType": "contract IERC20",
          "name": "",
          "type": "address"
        }
      ],
      "stateMutability": "view",
      "type": "function"
    },
    {
      "inputs": [],
      "name": "owner",
      "outputs": [
        {
          "internalType": "address payable",
          "name": "",
          "type": "address"
        }
      ],
      "stateMutability": "view",
      "type": "function"
    },
    {
      "inputs": [
        {
          "internalType": "address payable",
          "name": "account",
          "type": "address"
        },
        {
          "internalType": "uint256",
          "name": "amountIn",
          "type": "uint256"
        },
        {
          "internalType": "uint256",
          "name": "minRate",
          "type": "uint256"
        }
      ],
      "name": "swap",
      "outputs": [],
      "stateMutability": "nonpayable",
      "type": "function"
    }
  ],
  "bytecode": "0x60806040523480156200001157600080fd5b50604051620012e3380380620012e3833981810160405281019062000037919062000118565b816000806101000a81548173ffffffffffffffffffffffffffffffffffffffff021916908373ffffffffffffffffffffffffffffffffffffffff16021790555080600160006101000a81548173ffffffffffffffffffffffffffffffffffffffff021916908373ffffffffffffffffffffffffffffffffffffffff16021790555033600260006101000a81548173ffffffffffffffffffffffffffffffffffffffff021916908373ffffffffffffffffffffffffffffffffffffffff1602179055505050620001a7565b60008151905062000112816200018d565b92915050565b600080604083850312156200012c57600080fd5b60006200013c8582860162000101565b92505060206200014f8582860162000101565b9150509250929050565b600062000166826200016d565b9050919050565b600073ffffffffffffffffffffffffffffffffffffffff82169050919050565b620001988162000159565b8114620001a457600080fd5b50565b61112c80620001b76000396000f3fe608060405234801561001057600080fd5b506004361061004c5760003560e01c806355cb26661461005157806384c9fcad1461006f5780638da5cb5b1461008d5780639f1d0f59146100ab575b600080fd5b6100596100c7565b6040516100669190610c5a565b60405180910390f35b6100776100ed565b6040516100849190610c3f565b60405180910390f35b610095610111565b6040516100a29190610b71565b60405180910390f35b6100c560048036038101906100c09190610909565b610137565b005b600160009054906101000a900473ffffffffffffffffffffffffffffffffffffffff1681565b60008054906101000a900473ffffffffffffffffffffffffffffffffffffffff1681565b600260009054906101000a900473ffffffffffffffffffffffffffffffffffffffff1681565b6000821161017a576040517f08c379a000000000000000000000000000000000000000000000000000000000815260040161017190610c75565b60405180910390fd5b8160008054906101000a900473ffffffffffffffffffffffffffffffffffffffff1673ffffffffffffffffffffffffffffffffffffffff166370a08231856040518263ffffffff1660e01b81526004016101d49190610b56565b602060405180830381600087803b1580156101ee57600080fd5b505af1158015610202573d6000803e3d6000fd5b505050506040513d601f19601f8201168201806040525081019061022691906109c2565b11610266576040517f08c379a000000000000000000000000000000000000000000000000000000000815260040161025d90610cd5565b60405180910390fd5b60008054906101000a900473ffffffffffffffffffffffffffffffffffffffff1673ffffffffffffffffffffffffffffffffffffffff166323b872dd8430856040518463ffffffff1660e01b81526004016102c393929190610b8c565b602060405180830381600087803b1580156102dd57600080fd5b505af11580156102f1573d6000803e3d6000fd5b505050506040513d601f19601f820116820180604052508101906103159190610999565b610354576040517f08c379a000000000000000000000000000000000000000000000000000000000815260040161034b90610cb5565b60405180910390fd5b600081836103629190610dea565b905060008054906101000a900473ffffffffffffffffffffffffffffffffffffffff1673ffffffffffffffffffffffffffffffffffffffff1663095ea7b3600160009054906101000a900473ffffffffffffffffffffffffffffffffffffffff16856040518363ffffffff1660e01b81526004016103e1929190610c16565b602060405180830381600087803b1580156103fb57600080fd5b505af115801561040f573d6000803e3d6000fd5b505050506040513d601f19601f820116820180604052508101906104339190610999565b610472576040517f08c379a000000000000000000000000000000000000000000000000000000000815260040161046990610c95565b60405180910390fd5b6000600267ffffffffffffffff8111156104b5577f4e487b7100000000000000000000000000000000000000000000000000000000600052604160045260246000fd5b6040519080825280602002602001820160405280156104e35781602001602082028036833780820191505090505b50905060008054906101000a900473ffffffffffffffffffffffffffffffffffffffff1681600081518110610541577f4e487b7100000000000000000000000000000000000000000000000000000000600052603260045260246000fd5b602002602001019073ffffffffffffffffffffffffffffffffffffffff16908173ffffffffffffffffffffffffffffffffffffffff1681525050600160009054906101000a900473ffffffffffffffffffffffffffffffffffffffff1673ffffffffffffffffffffffffffffffffffffffff1663ad5c46486040518163ffffffff1660e01b815260040160206040518083038186803b1580156105e357600080fd5b505afa1580156105f7573d6000803e3d6000fd5b505050506040513d601f19601f8201168201806040525081019061061b91906108e0565b81600181518110610655577f4e487b7100000000000000000000000000000000000000000000000000000000600052603260045260246000fd5b602002602001019073ffffffffffffffffffffffffffffffffffffffff16908173ffffffffffffffffffffffffffffffffffffffff16815250506000600160009054906101000a900473ffffffffffffffffffffffffffffffffffffffff1673ffffffffffffffffffffffffffffffffffffffff166318cbafe58685858a426040518663ffffffff1660e01b81526004016106f4959493929190610cf5565b600060405180830381600087803b15801561070e57600080fd5b505af1158015610722573d6000803e3d6000fd5b505050506040513d6000823e3d601f19601f8201168201806040525081019061074b9190610958565b90507f49926bbebe8474393f434dfa4f78694c0923efa07d19f2284518bfabd06eb7378686868685600187516107819190610e1b565b815181106107b8577f4e487b7100000000000000000000000000000000000000000000000000000000600052603260045260246000fd5b60200260200101516040516107d1959493929190610bc3565b60405180910390a1505050505050565b60006107f46107ef84610d74565b610d4f565b9050808382526020820190508285602086028201111561081357600080fd5b60005b85811015610843578161082988826108cb565b845260208401935060208301925050600181019050610816565b5050509392505050565b60008151905061085c8161109a565b92915050565b600081359050610871816110b1565b92915050565b600082601f83011261088857600080fd5b81516108988482602086016107e1565b91505092915050565b6000815190506108b0816110c8565b92915050565b6000813590506108c5816110df565b92915050565b6000815190506108da816110df565b92915050565b6000602082840312156108f257600080fd5b60006109008482850161084d565b91505092915050565b60008060006060848603121561091e57600080fd5b600061092c86828701610862565b935050602061093d868287016108b6565b925050604061094e868287016108b6565b9150509250925092565b60006020828403121561096a57600080fd5b600082015167ffffffffffffffff81111561098457600080fd5b61099084828501610877565b91505092915050565b6000602082840312156109ab57600080fd5b60006109b9848285016108a1565b91505092915050565b6000602082840312156109d457600080fd5b60006109e2848285016108cb565b91505092915050565b60006109f78383610a21565b60208301905092915050565b610a0c81610ea9565b82525050565b610a1b81610e61565b82525050565b610a2a81610e4f565b82525050565b610a3981610e4f565b82525050565b6000610a4a82610db0565b610a548185610dc8565b9350610a5f83610da0565b8060005b83811015610a90578151610a7788826109eb565b9750610a8283610dbb565b925050600181019050610a63565b5085935050505092915050565b610aa681610ebb565b82525050565b610ab581610edf565b82525050565b6000610ac8601683610dd9565b9150610ad382610ff6565b602082019050919050565b6000610aeb601783610dd9565b9150610af68261101f565b602082019050919050565b6000610b0e601b83610dd9565b9150610b1982611048565b602082019050919050565b6000610b31601b83610dd9565b9150610b3c82611071565b602082019050919050565b610b5081610e9f565b82525050565b6000602082019050610b6b6000830184610a03565b92915050565b6000602082019050610b866000830184610a12565b92915050565b6000606082019050610ba16000830186610a03565b610bae6020830185610a30565b610bbb6040830184610b47565b949350505050565b600060a082019050610bd86000830188610a03565b610be56020830187610b47565b610bf26040830186610b47565b610bff6060830185610b47565b610c0c6080830184610b47565b9695505050505050565b6000604082019050610c2b6000830185610a30565b610c386020830184610b47565b9392505050565b6000602082019050610c546000830184610a9d565b92915050565b6000602082019050610c6f6000830184610aac565b92915050565b60006020820190508181036000830152610c8e81610abb565b9050919050565b60006020820190508181036000830152610cae81610ade565b9050919050565b60006020820190508181036000830152610cce81610b01565b9050919050565b60006020820190508181036000830152610cee81610b24565b9050919050565b600060a082019050610d0a6000830188610b47565b610d176020830187610b47565b8181036040830152610d298186610a3f565b9050610d386060830185610a03565b610d456080830184610b47565b9695505050505050565b6000610d59610d6a565b9050610d658282610f27565b919050565b6000604051905090565b600067ffffffffffffffff821115610d8f57610d8e610fb6565b5b602082029050602081019050919050565b6000819050602082019050919050565b600081519050919050565b6000602082019050919050565b600082825260208201905092915050565b600082825260208201905092915050565b6000610df582610e9f565b9150610e0083610e9f565b925082610e1057610e0f610f87565b5b828204905092915050565b6000610e2682610e9f565b9150610e3183610e9f565b925082821015610e4457610e43610f58565b5b828203905092915050565b6000610e5a82610e7f565b9050919050565b6000610e6c82610e7f565b9050919050565b60008115159050919050565b600073ffffffffffffffffffffffffffffffffffffffff82169050919050565b6000819050919050565b6000610eb482610f03565b9050919050565b6000610ec682610ecd565b9050919050565b6000610ed882610e7f565b9050919050565b6000610eea82610ef1565b9050919050565b6000610efc82610e7f565b9050919050565b6000610f0e82610f15565b9050919050565b6000610f2082610e7f565b9050919050565b610f3082610fe5565b810181811067ffffffffffffffff82111715610f4f57610f4e610fb6565b5b80604052505050565b7f4e487b7100000000000000000000000000000000000000000000000000000000600052601160045260246000fd5b7f4e487b7100000000000000000000000000000000000000000000000000000000600052601260045260246000fd5b7f4e487b7100000000000000000000000000000000000000000000000000000000600052604160045260246000fd5b6000601f19601f8301169050919050565b7f5472616465723a20696e76616c696420616d6f756e7400000000000000000000600082015250565b7f5472616465723a20617070726f7665206661696c65642e000000000000000000600082015250565b7f5472616465723a207472616e7366657246726f6d206661696c65640000000000600082015250565b7f5472616465723a20696e73756666696369656e7420616d6f756e740000000000600082015250565b6110a381610e4f565b81146110ae57600080fd5b50565b6110ba81610e61565b81146110c557600080fd5b50565b6110d181610e73565b81146110dc57600080fd5b50565b6110e881610e9f565b81146110f357600080fd5b5056fea26469706673582212200fdd2735f03cc3f613ca16981a81e180c64b3e14d262042cbf6827554fee1cab64736f6c63430008040033",
  "linkReferences": {},
  "deployedLinkReferences": {}
}