{
  "_format": "hh-sol-artifact-1",
  "contractName": "Trader",
  "sourceName": "contracts/Trader.sol",
  "abi": [
    {
      "inputs": [
        {
          "internalType": "address",
          "name": "vvet_",
          "type": "address"
        },
        {
          "internalType": "address[2]",
          "name": "routers_",
          "type": "address[2]"
        }
      ],
      "stateMutability": "nonpayable",
      "type": "constructor"
    },
    {
      "anonymous": false,
      "inputs": [
        {
          "indexed": true,
          "internalType": "address",
          "name": "account",
          "type": "address"
        },
        {
          "indexed": false,
          "internalType": "uint256",
          "name": "reserveBalance",
          "type": "uint256"
        }
      ],
      "name": "Config",
      "type": "event"
    },
    {
      "anonymous": false,
      "inputs": [
        {
          "indexed": false,
          "internalType": "uint256",
          "name": "baseGasPrice",
          "type": "uint256"
        }
      ],
      "name": "FetchGas",
      "type": "event"
    },
    {
      "anonymous": false,
      "inputs": [
        {
          "indexed": true,
          "internalType": "address",
          "name": "admin",
          "type": "address"
        }
      ],
      "name": "SetAdmin",
      "type": "event"
    },
    {
      "anonymous": false,
      "inputs": [
        {
          "indexed": false,
          "internalType": "uint256",
          "name": "feeMultiplier",
          "type": "uint256"
        }
      ],
      "name": "SetFee",
      "type": "event"
    },
    {
      "anonymous": false,
      "inputs": [
        {
          "indexed": true,
          "internalType": "address",
          "name": "account",
          "type": "address"
        },
        {
          "indexed": true,
          "internalType": "address",
          "name": "router",
          "type": "address"
        },
        {
          "indexed": false,
          "internalType": "uint256",
          "name": "withdrawAmount",
          "type": "uint256"
        },
        {
          "indexed": false,
          "internalType": "uint256",
          "name": "gasPrice",
          "type": "uint256"
        },
        {
          "indexed": false,
          "internalType": "uint256",
          "name": "feeMultiplier",
          "type": "uint256"
        },
        {
          "indexed": false,
          "internalType": "uint256",
          "name": "protocolFee",
          "type": "uint256"
        },
        {
          "indexed": false,
          "internalType": "uint256",
          "name": "amountIn",
          "type": "uint256"
        },
        {
          "indexed": false,
          "internalType": "uint256",
          "name": "amountOutMin",
          "type": "uint256"
        },
        {
          "indexed": false,
          "internalType": "uint256",
          "name": "amountOutExpected",
          "type": "uint256"
        },
        {
          "indexed": false,
          "internalType": "uint256",
          "name": "amountOutReceived",
          "type": "uint256"
        }
      ],
      "name": "Swap",
      "type": "event"
    },
    {
      "anonymous": false,
      "inputs": [
        {
          "indexed": true,
          "internalType": "address",
          "name": "caller",
          "type": "address"
        },
        {
          "indexed": false,
          "internalType": "uint256",
          "name": "amount",
          "type": "uint256"
        }
      ],
      "name": "WithdrawFees",
      "type": "event"
    },
    {
      "inputs": [],
      "name": "FEE_PRECISION",
      "outputs": [
        {
          "internalType": "uint256",
          "name": "",
          "type": "uint256"
        }
      ],
      "stateMutability": "view",
      "type": "function"
    },
    {
      "inputs": [],
      "name": "MAX_FEE_MULTIPLIER",
      "outputs": [
        {
          "internalType": "uint256",
          "name": "",
          "type": "uint256"
        }
      ],
      "stateMutability": "view",
      "type": "function"
    },
    {
      "inputs": [],
      "name": "SWAP_GAS",
      "outputs": [
        {
          "internalType": "uint256",
          "name": "",
          "type": "uint256"
        }
      ],
      "stateMutability": "view",
      "type": "function"
    },
    {
      "inputs": [],
      "name": "admin",
      "outputs": [
        {
          "internalType": "address",
          "name": "",
          "type": "address"
        }
      ],
      "stateMutability": "view",
      "type": "function"
    },
    {
      "inputs": [],
      "name": "baseGasPrice",
      "outputs": [
        {
          "internalType": "uint256",
          "name": "",
          "type": "uint256"
        }
      ],
      "stateMutability": "view",
      "type": "function"
    },
    {
      "inputs": [],
      "name": "feeMultiplier",
      "outputs": [
        {
          "internalType": "uint256",
          "name": "",
          "type": "uint256"
        }
      ],
      "stateMutability": "view",
      "type": "function"
    },
    {
      "inputs": [],
      "name": "fetchBaseGasPrice",
      "outputs": [],
      "stateMutability": "nonpayable",
      "type": "function"
    },
    {
      "inputs": [],
      "name": "owner",
      "outputs": [
        {
          "internalType": "address",
          "name": "",
          "type": "address"
        }
      ],
      "stateMutability": "view",
      "type": "function"
    },
    {
      "inputs": [],
      "name": "params",
      "outputs": [
        {
          "internalType": "contract IParams",
          "name": "",
          "type": "address"
        }
      ],
      "stateMutability": "view",
      "type": "function"
    },
    {
      "inputs": [
        {
          "internalType": "address",
          "name": "",
          "type": "address"
        }
      ],
      "name": "reserves",
      "outputs": [
        {
          "internalType": "uint256",
          "name": "",
          "type": "uint256"
        }
      ],
      "stateMutability": "view",
      "type": "function"
    },
    {
      "inputs": [
        {
          "internalType": "uint256",
          "name": "",
          "type": "uint256"
        }
      ],
      "name": "routers",
      "outputs": [
        {
          "internalType": "address",
          "name": "",
          "type": "address"
        }
      ],
      "stateMutability": "view",
      "type": "function"
    },
    {
      "inputs": [
        {
          "internalType": "uint256",
          "name": "reserveBalance",
          "type": "uint256"
        }
      ],
      "name": "saveConfig",
      "outputs": [],
      "stateMutability": "nonpayable",
      "type": "function"
    },
    {
      "inputs": [
        {
          "internalType": "address",
          "name": "newAdmin",
          "type": "address"
        }
      ],
      "name": "setAdmin",
      "outputs": [],
      "stateMutability": "nonpayable",
      "type": "function"
    },
    {
      "inputs": [
        {
          "internalType": "uint8",
          "name": "newFeeMultiplier",
          "type": "uint8"
        }
      ],
      "name": "setFeeMultiplier",
      "outputs": [],
      "stateMutability": "nonpayable",
      "type": "function"
    },
    {
      "inputs": [
        {
          "internalType": "address payable",
          "name": "account",
          "type": "address"
        },
        {
          "internalType": "uint256",
          "name": "withdrawAmount",
          "type": "uint256"
        },
        {
          "internalType": "uint256",
          "name": "amountOutMin",
          "type": "uint256"
        }
      ],
      "name": "swap",
      "outputs": [],
      "stateMutability": "nonpayable",
      "type": "function"
    },
    {
      "inputs": [],
      "name": "vtho",
      "outputs": [
        {
          "internalType": "contract IEnergy",
          "name": "",
          "type": "address"
        }
      ],
      "stateMutability": "view",
      "type": "function"
    },
    {
      "inputs": [],
      "name": "vvet",
      "outputs": [
        {
          "internalType": "address",
          "name": "",
          "type": "address"
        }
      ],
      "stateMutability": "view",
      "type": "function"
    },
    {
      "inputs": [],
      "name": "withdrawFees",
      "outputs": [],
      "stateMutability": "nonpayable",
      "type": "function"
    }
  ],
  "bytecode": "0x60c0604052601e6003553480156200001657600080fd5b50604051620026703803806200267083398181016040528101906200003c91906200041e565b8173ffffffffffffffffffffffffffffffffffffffff1660808173ffffffffffffffffffffffffffffffffffffffff168152505080600190600262000083929190620001a6565b503373ffffffffffffffffffffffffffffffffffffffff1660a08173ffffffffffffffffffffffffffffffffffffffff1681525050620000c8620000d060201b60201c565b505062000577565b65506172616d7373ffffffffffffffffffffffffffffffffffffffff16638eaa6ac06d626173652d6761732d70726963656040518263ffffffff1660e01b81526004016200011f9190620004bf565b602060405180830381865afa1580156200013d573d6000803e3d6000fd5b505050506040513d601f19601f8201168201806040525081019062000163919062000517565b6004819055507f9e80beb690c9b039ef1aded51d16690f35068933fb71a9b56cc944e02ced07b06004546040516200019c91906200055a565b60405180910390a1565b826002810192821562000215579160200282015b82811115620002145782518260006101000a81548173ffffffffffffffffffffffffffffffffffffffff021916908373ffffffffffffffffffffffffffffffffffffffff16021790555091602001919060010190620001ba565b5b50905062000224919062000228565b5090565b5b808211156200024357600081600090555060010162000229565b5090565b6000604051905090565b600080fd5b600073ffffffffffffffffffffffffffffffffffffffff82169050919050565b6000620002838262000256565b9050919050565b620002958162000276565b8114620002a157600080fd5b50565b600081519050620002b5816200028a565b92915050565b600080fd5b6000601f19601f8301169050919050565b7f4e487b7100000000000000000000000000000000000000000000000000000000600052604160045260246000fd5b6200030b82620002c0565b810181811067ffffffffffffffff821117156200032d576200032c620002d1565b5b80604052505050565b60006200034262000247565b905062000350828262000300565b919050565b600067ffffffffffffffff821115620003735762000372620002d1565b5b602082029050919050565b600080fd5b60006200039a620003948462000355565b62000336565b90508060208402830185811115620003b757620003b66200037e565b5b835b81811015620003e45780620003cf8882620002a4565b845260208401935050602081019050620003b9565b5050509392505050565b600082601f830112620004065762000405620002bb565b5b60026200041584828562000383565b91505092915050565b6000806060838503121562000438576200043762000251565b5b60006200044885828601620002a4565b92505060206200045b85828601620003ee565b9150509250929050565b6000819050919050565b6000819050919050565b60008160001b9050919050565b6000620004a7620004a16200049b8462000465565b62000479565b6200046f565b9050919050565b620004b98162000486565b82525050565b6000602082019050620004d66000830184620004ae565b92915050565b6000819050919050565b620004f181620004dc565b8114620004fd57600080fd5b50565b6000815190506200051181620004e6565b92915050565b60006020828403121562000530576200052f62000251565b5b6000620005408482850162000500565b91505092915050565b6200055481620004dc565b82525050565b600060208201905062000571600083018462000549565b92915050565b60805160a0516120b7620005b9600039600081816104a2015281816106c201528181610803015261091d015260008181610bea0152610ef001526120b76000f3fe608060405234801561001057600080fd5b50600436106101165760003560e01c80639f1d0f59116100a2578063d66bd52411610071578063d66bd52414610283578063e15c58a4146102b3578063e5a70ef7146102d1578063e63a391f146102ef578063f851a4401461030d57610116565b80639f1d0f591461020d578063b699414414610229578063cff0ab9614610247578063d4b0dbdd1461026557610116565b8063704b6c02116100e9578063704b6c021461017b578063750f198a1461019757806387b6f0d2146101b55780638aee4cfe146101d35780638da5cb5b146101ef57610116565b8063057079531461011b578063476343ee146101255780634b0bbaa41461012f5780634e9c11181461014b575b600080fd5b61012361032b565b005b61012d6103fa565b005b61014960048036038101906101449190611240565b6105b2565b005b61016560048036038101906101609190611240565b61068a565b60405161017291906112ae565b60405180910390f35b610195600480360381019061019091906112f5565b6106c0565b005b61019f6107f4565b6040516101ac9190611331565b60405180910390f35b6101bd6107fb565b6040516101ca9190611331565b60405180910390f35b6101ed60048036038101906101e89190611385565b610801565b005b6101f761091b565b60405161020491906112ae565b60405180910390f35b610227600480360381019061022291906113f0565b61093f565b005b610231610ebd565b60405161023e9190611331565b60405180910390f35b61024f610ec2565b60405161025c91906114a2565b60405180910390f35b61026d610ecc565b60405161027a91906114de565b60405180910390f35b61029d600480360381019061029891906112f5565b610ed6565b6040516102aa9190611331565b60405180910390f35b6102bb610eee565b6040516102c891906112ae565b60405180910390f35b6102d9610f12565b6040516102e69190611331565b60405180910390f35b6102f7610f18565b6040516103049190611331565b60405180910390f35b610315610f1e565b60405161032291906112ae565b60405180910390f35b65506172616d7373ffffffffffffffffffffffffffffffffffffffff16638eaa6ac06d626173652d6761732d70726963656040518263ffffffff1660e01b8152600401610378919061154b565b602060405180830381865afa158015610395573d6000803e3d6000fd5b505050506040513d601f19601f820116820180604052508101906103b9919061157b565b6004819055507f9e80beb690c9b039ef1aded51d16690f35068933fb71a9b56cc944e02ced07b06004546040516103f09190611331565b60405180910390a1565b600065456e6572677973ffffffffffffffffffffffffffffffffffffffff166370a08231306040518263ffffffff1660e01b815260040161043b91906112ae565b602060405180830381865afa158015610458573d6000803e3d6000fd5b505050506040513d601f19601f8201168201806040525081019061047c919061157b565b905065456e6572677973ffffffffffffffffffffffffffffffffffffffff1663a9059cbb7f0000000000000000000000000000000000000000000000000000000000000000836040518363ffffffff1660e01b81526004016104df9291906115a8565b6020604051808303816000875af11580156104fe573d6000803e3d6000fd5b505050506040513d601f19601f820116820180604052508101906105229190611609565b610561576040517f08c379a000000000000000000000000000000000000000000000000000000000815260040161055890611693565b60405180910390fd5b3373ffffffffffffffffffffffffffffffffffffffff167f9bba815921f12cb7b1408e14b5ade745234397d39623ae5e7c82d693cb45815f826040516105a79190611331565b60405180910390a250565b600081116105f5576040517f08c379a00000000000000000000000000000000000000000000000000000000081526004016105ec906116ff565b60405180910390fd5b80600560003373ffffffffffffffffffffffffffffffffffffffff1673ffffffffffffffffffffffffffffffffffffffff168152602001908152602001600020819055503373ffffffffffffffffffffffffffffffffffffffff167f7cf7f245e0ac9ee076d209114cedb03ee23c22f397ad7c400bfc99bbfa8859338260405161067f9190611331565b60405180910390a250565b6001816002811061069a57600080fd5b016000915054906101000a900473ffffffffffffffffffffffffffffffffffffffff1681565b7f000000000000000000000000000000000000000000000000000000000000000073ffffffffffffffffffffffffffffffffffffffff163373ffffffffffffffffffffffffffffffffffffffff161461074e576040517f08c379a00000000000000000000000000000000000000000000000000000000081526004016107459061176b565b60405180910390fd5b806000806101000a81548173ffffffffffffffffffffffffffffffffffffffff021916908373ffffffffffffffffffffffffffffffffffffffff16021790555060008054906101000a900473ffffffffffffffffffffffffffffffffffffffff1673ffffffffffffffffffffffffffffffffffffffff167f5a272403b402d892977df56625f4164ccaf70ca3863991c43ecfe76a6905b0a160405160405180910390a250565b62045d1c81565b60045481565b7f000000000000000000000000000000000000000000000000000000000000000073ffffffffffffffffffffffffffffffffffffffff163373ffffffffffffffffffffffffffffffffffffffff161461088f576040517f08c379a00000000000000000000000000000000000000000000000000000000081526004016108869061176b565b60405180910390fd5b601e8160ff1611156108d6576040517f08c379a00000000000000000000000000000000000000000000000000000000081526004016108cd906117d7565b60405180910390fd5b8060ff166003819055507e172ddfc5ae88d08b3de01a5a187667c37a5a53989e8c175055cb6c993792a76003546040516109109190611331565b60405180910390a150565b7f000000000000000000000000000000000000000000000000000000000000000081565b60008054906101000a900473ffffffffffffffffffffffffffffffffffffffff1673ffffffffffffffffffffffffffffffffffffffff163373ffffffffffffffffffffffffffffffffffffffff16146109cd576040517f08c379a00000000000000000000000000000000000000000000000000000000081526004016109c490611843565b60405180910390fd5b60045460026109dc9190611892565b3a1115610a1e576040517f08c379a0000000000000000000000000000000000000000000000000000000008152600401610a1590611920565b60405180910390fd5b610a288383610f42565b65456e6572677973ffffffffffffffffffffffffffffffffffffffff166323b872dd8430856040518463ffffffff1660e01b8152600401610a6b93929190611961565b6020604051808303816000875af1158015610a8a573d6000803e3d6000fd5b505050506040513d601f19601f82011682018060405250810190610aae9190611609565b610aed576040517f08c379a0000000000000000000000000000000000000000000000000000000008152600401610ae4906119e4565b60405180910390fd5b60003a62045d1c610afe9190611892565b905060006127106003548386610b149190611a04565b610b1e9190611892565b610b289190611a67565b90506000818386610b399190611a04565b610b439190611a04565b90506000600267ffffffffffffffff811115610b6257610b61611a98565b5b604051908082528060200260200182016040528015610b905781602001602082028036833780820191505090505b50905065456e6572677981600081518110610bae57610bad611ac7565b5b602002602001019073ffffffffffffffffffffffffffffffffffffffff16908173ffffffffffffffffffffffffffffffffffffffff16815250507f000000000000000000000000000000000000000000000000000000000000000081600181518110610c1d57610c1c611ac7565b5b602002602001019073ffffffffffffffffffffffffffffffffffffffff16908173ffffffffffffffffffffffffffffffffffffffff1681525050600080610c64838561109b565b9150915086811015610cab576040517f08c379a0000000000000000000000000000000000000000000000000000000008152600401610ca290611b68565b60405180910390fd5b65456e6572677973ffffffffffffffffffffffffffffffffffffffff1663095ea7b383866040518363ffffffff1660e01b8152600401610cec9291906115a8565b6020604051808303816000875af1158015610d0b573d6000803e3d6000fd5b505050506040513d601f19601f82011682018060405250810190610d2f9190611609565b610d6e576040517f08c379a0000000000000000000000000000000000000000000000000000000008152600401610d6590611bd4565b60405180910390fd5b60008273ffffffffffffffffffffffffffffffffffffffff166318cbafe5866103e86103de86610d9e9190611892565b610da89190611a67565b878e426040518663ffffffff1660e01b8152600401610dcb959493929190611cb2565b6000604051808303816000875af1158015610dea573d6000803e3d6000fd5b505050506040513d6000823e3d601f19601f82011682018060405250810190610e139190611e36565b90508273ffffffffffffffffffffffffffffffffffffffff168a73ffffffffffffffffffffffffffffffffffffffff167f3fe84e6df58344329a18c304c0110e2a518d8c1dfce228cd1f78d11c59bb648c8b3a6003548b8b8f8a8a60018c51610e7c9190611a04565b81518110610e8d57610e8c611ac7565b5b6020026020010151604051610ea9989796959493929190611e7f565b60405180910390a350505050505050505050565b601e81565b65506172616d7381565b65456e6572677981565b60056020528060005260406000206000915090505481565b7f000000000000000000000000000000000000000000000000000000000000000081565b60035481565b61271081565b60008054906101000a900473ffffffffffffffffffffffffffffffffffffffff1681565b6000600560008473ffffffffffffffffffffffffffffffffffffffff1673ffffffffffffffffffffffffffffffffffffffff16815260200190815260200160002054905060008111610fc9576040517f08c379a0000000000000000000000000000000000000000000000000000000008152600401610fc090611f49565b60405180910390fd5b8082610fd59190611f69565b65456e6572677973ffffffffffffffffffffffffffffffffffffffff166370a08231856040518263ffffffff1660e01b815260040161101491906112ae565b602060405180830381865afa158015611031573d6000803e3d6000fd5b505050506040513d601f19601f82011682018060405250810190611055919061157b565b1015611096576040517f08c379a000000000000000000000000000000000000000000000000000000000815260040161108d90611fe9565b60405180910390fd5b505050565b60008060008060005b60028110156111b1576000600182600281106110c3576110c2611ac7565b5b0160009054906101000a900473ffffffffffffffffffffffffffffffffffffffff16905060008173ffffffffffffffffffffffffffffffffffffffff1663d06ca61f898b6040518363ffffffff1660e01b8152600401611124929190612009565b600060405180830381865afa158015611141573d6000803e3d6000fd5b505050506040513d6000823e3d601f19601f8201168201806040525081019061116a9190611e36565b905060008160018151811061118257611181611ac7565b5b602002602001015190508481111561119b578395508094505b50505080806111a990612039565b9150506110a4565b50600182600281106111c6576111c5611ac7565b5b0160009054906101000a900473ffffffffffffffffffffffffffffffffffffffff16819350935050509250929050565b6000604051905090565b600080fd5b600080fd5b6000819050919050565b61121d8161120a565b811461122857600080fd5b50565b60008135905061123a81611214565b92915050565b60006020828403121561125657611255611200565b5b60006112648482850161122b565b91505092915050565b600073ffffffffffffffffffffffffffffffffffffffff82169050919050565b60006112988261126d565b9050919050565b6112a88161128d565b82525050565b60006020820190506112c3600083018461129f565b92915050565b6112d28161128d565b81146112dd57600080fd5b50565b6000813590506112ef816112c9565b92915050565b60006020828403121561130b5761130a611200565b5b6000611319848285016112e0565b91505092915050565b61132b8161120a565b82525050565b60006020820190506113466000830184611322565b92915050565b600060ff82169050919050565b6113628161134c565b811461136d57600080fd5b50565b60008135905061137f81611359565b92915050565b60006020828403121561139b5761139a611200565b5b60006113a984828501611370565b91505092915050565b60006113bd8261126d565b9050919050565b6113cd816113b2565b81146113d857600080fd5b50565b6000813590506113ea816113c4565b92915050565b60008060006060848603121561140957611408611200565b5b6000611417868287016113db565b93505060206114288682870161122b565b92505060406114398682870161122b565b9150509250925092565b6000819050919050565b600061146861146361145e8461126d565b611443565b61126d565b9050919050565b600061147a8261144d565b9050919050565b600061148c8261146f565b9050919050565b61149c81611481565b82525050565b60006020820190506114b76000830184611493565b92915050565b60006114c88261146f565b9050919050565b6114d8816114bd565b82525050565b60006020820190506114f360008301846114cf565b92915050565b6000819050919050565b6000819050919050565b60008160001b9050919050565b600061153561153061152b846114f9565b61150d565b611503565b9050919050565b6115458161151a565b82525050565b6000602082019050611560600083018461153c565b92915050565b60008151905061157581611214565b92915050565b60006020828403121561159157611590611200565b5b600061159f84828501611566565b91505092915050565b60006040820190506115bd600083018561129f565b6115ca6020830184611322565b9392505050565b60008115159050919050565b6115e6816115d1565b81146115f157600080fd5b50565b600081519050611603816115dd565b92915050565b60006020828403121561161f5761161e611200565b5b600061162d848285016115f4565b91505092915050565b600082825260208201905092915050565b7f5472616465723a2077697468647261772066656573206661696c656400000000600082015250565b600061167d601c83611636565b915061168882611647565b602082019050919050565b600060208201905081810360008301526116ac81611670565b9050919050565b7f5472616465723a20696e76616c69642072657365727665000000000000000000600082015250565b60006116e9601783611636565b91506116f4826116b3565b602082019050919050565b60006020820190508181036000830152611718816116dc565b9050919050565b7f5472616465723a206163636f756e74206973206e6f74206f776e657200000000600082015250565b6000611755601c83611636565b91506117608261171f565b602082019050919050565b6000602082019050818103600083015261178481611748565b9050919050565b7f5472616465723a20696e76616c696420666565206d756c7469706c6965720000600082015250565b60006117c1601e83611636565b91506117cc8261178b565b602082019050919050565b600060208201905081810360008301526117f0816117b4565b9050919050565b7f5472616465723a206163636f756e74206973206e6f742061646d696e00000000600082015250565b600061182d601c83611636565b9150611838826117f7565b602082019050919050565b6000602082019050818103600083015261185c81611820565b9050919050565b7f4e487b7100000000000000000000000000000000000000000000000000000000600052601160045260246000fd5b600061189d8261120a565b91506118a88361120a565b92508282026118b68161120a565b915082820484148315176118cd576118cc611863565b5b5092915050565b7f5472616465723a2067617320707269636520746f6f2068696768000000000000600082015250565b600061190a601a83611636565b9150611915826118d4565b602082019050919050565b60006020820190508181036000830152611939816118fd565b9050919050565b600061194b8261146f565b9050919050565b61195b81611940565b82525050565b60006060820190506119766000830186611952565b611983602083018561129f565b6119906040830184611322565b949350505050565b7f5472616465723a207472616e736665722066726f6d206661696c656400000000600082015250565b60006119ce601c83611636565b91506119d982611998565b602082019050919050565b600060208201905081810360008301526119fd816119c1565b9050919050565b6000611a0f8261120a565b9150611a1a8361120a565b9250828203905081811115611a3257611a31611863565b5b92915050565b7f4e487b7100000000000000000000000000000000000000000000000000000000600052601260045260246000fd5b6000611a728261120a565b9150611a7d8361120a565b925082611a8d57611a8c611a38565b5b828204905092915050565b7f4e487b7100000000000000000000000000000000000000000000000000000000600052604160045260246000fd5b7f4e487b7100000000000000000000000000000000000000000000000000000000600052603260045260246000fd5b7f5472616465723a20616d6f756e74206f757420657870656374656420746f6f2060008201527f6c6f770000000000000000000000000000000000000000000000000000000000602082015250565b6000611b52602383611636565b9150611b5d82611af6565b604082019050919050565b60006020820190508181036000830152611b8181611b45565b9050919050565b7f5472616465723a20617070726f7665206661696c656400000000000000000000600082015250565b6000611bbe601683611636565b9150611bc982611b88565b602082019050919050565b60006020820190508181036000830152611bed81611bb1565b9050919050565b600081519050919050565b600082825260208201905092915050565b6000819050602082019050919050565b611c298161128d565b82525050565b6000611c3b8383611c20565b60208301905092915050565b6000602082019050919050565b6000611c5f82611bf4565b611c698185611bff565b9350611c7483611c10565b8060005b83811015611ca5578151611c8c8882611c2f565b9750611c9783611c47565b925050600181019050611c78565b5085935050505092915050565b600060a082019050611cc76000830188611322565b611cd46020830187611322565b8181036040830152611ce68186611c54565b9050611cf56060830185611952565b611d026080830184611322565b9695505050505050565b600080fd5b6000601f19601f8301169050919050565b611d2b82611d11565b810181811067ffffffffffffffff82111715611d4a57611d49611a98565b5b80604052505050565b6000611d5d6111f6565b9050611d698282611d22565b919050565b600067ffffffffffffffff821115611d8957611d88611a98565b5b602082029050602081019050919050565b600080fd5b6000611db2611dad84611d6e565b611d53565b90508083825260208201905060208402830185811115611dd557611dd4611d9a565b5b835b81811015611dfe5780611dea8882611566565b845260208401935050602081019050611dd7565b5050509392505050565b600082601f830112611e1d57611e1c611d0c565b5b8151611e2d848260208601611d9f565b91505092915050565b600060208284031215611e4c57611e4b611200565b5b600082015167ffffffffffffffff811115611e6a57611e69611205565b5b611e7684828501611e08565b91505092915050565b600061010082019050611e95600083018b611322565b611ea2602083018a611322565b611eaf6040830189611322565b611ebc6060830188611322565b611ec96080830187611322565b611ed660a0830186611322565b611ee360c0830185611322565b611ef060e0830184611322565b9998505050505050505050565b7f5472616465723a2072657365727665206e6f7420696e697469616c697a656400600082015250565b6000611f33601f83611636565b9150611f3e82611efd565b602082019050919050565b60006020820190508181036000830152611f6281611f26565b9050919050565b6000611f748261120a565b9150611f7f8361120a565b9250828201905080821115611f9757611f96611863565b5b92915050565b7f5472616465723a20696e73756666696369656e742062616c616e636500000000600082015250565b6000611fd3601c83611636565b9150611fde82611f9d565b602082019050919050565b6000602082019050818103600083015261200281611fc6565b9050919050565b600060408201905061201e6000830185611322565b81810360208301526120308184611c54565b90509392505050565b60006120448261120a565b91507fffffffffffffffffffffffffffffffffffffffffffffffffffffffffffffffff820361207657612075611863565b5b60018201905091905056fea2646970667358221220e926d5ad75f5bfc0bf9b1675184ff43dc21d9c9a44e67d4085b19b8d43dc5e4a64736f6c63430008130033",
  "linkReferences": {},
  "deployedLinkReferences": {}
}