{
  "_format": "hh-sol-artifact-1",
  "contractName": "Trader",
  "sourceName": "contracts/Trader.sol",
  "abi": [
    {
      "inputs": [
        {
          "internalType": "address",
          "name": "routerAddress",
          "type": "address"
        }
      ],
      "stateMutability": "nonpayable",
      "type": "constructor"
    },
    {
      "inputs": [],
      "name": "ApproveFailed",
      "type": "error"
    },
    {
      "inputs": [
        {
          "internalType": "uint256",
          "name": "available",
          "type": "uint256"
        },
        {
          "internalType": "uint256",
          "name": "required",
          "type": "uint256"
        }
      ],
      "name": "InsufficientBalance",
      "type": "error"
    },
    {
      "inputs": [
        {
          "internalType": "uint256",
          "name": "triggerBalance",
          "type": "uint256"
        },
        {
          "internalType": "uint256",
          "name": "reserveBalance",
          "type": "uint256"
        }
      ],
      "name": "InvalidConfig",
      "type": "error"
    },
    {
      "inputs": [],
      "name": "InvalidFeeMultiplier",
      "type": "error"
    },
    {
      "inputs": [],
      "name": "InvalidReserve",
      "type": "error"
    },
    {
      "inputs": [],
      "name": "InvalidTrigger",
      "type": "error"
    },
    {
      "inputs": [
        {
          "internalType": "address",
          "name": "account",
          "type": "address"
        }
      ],
      "name": "NotAdmin",
      "type": "error"
    },
    {
      "inputs": [
        {
          "internalType": "address",
          "name": "account",
          "type": "address"
        }
      ],
      "name": "NotOwner",
      "type": "error"
    },
    {
      "inputs": [
        {
          "internalType": "address",
          "name": "from",
          "type": "address"
        },
        {
          "internalType": "uint256",
          "name": "amount",
          "type": "uint256"
        }
      ],
      "name": "TransferFromFailed",
      "type": "error"
    },
    {
      "inputs": [],
      "name": "ZeroAddress",
      "type": "error"
    },
    {
      "anonymous": false,
      "inputs": [
        {
          "indexed": true,
          "internalType": "address",
          "name": "account",
          "type": "address"
        },
        {
          "indexed": false,
          "internalType": "uint256",
          "name": "triggerBalance",
          "type": "uint256"
        },
        {
          "indexed": false,
          "internalType": "uint256",
          "name": "reserveBalance",
          "type": "uint256"
        }
      ],
      "name": "Config",
      "type": "event"
    },
    {
      "anonymous": false,
      "inputs": [
        {
          "indexed": true,
          "internalType": "address",
          "name": "account",
          "type": "address"
        },
        {
          "indexed": false,
          "internalType": "uint256",
          "name": "withdrawAmount",
          "type": "uint256"
        },
        {
          "indexed": false,
          "internalType": "uint256",
          "name": "gasPrice",
          "type": "uint256"
        },
        {
          "indexed": false,
          "internalType": "uint256",
          "name": "protocolFee",
          "type": "uint256"
        },
        {
          "indexed": false,
          "internalType": "uint256",
          "name": "maxRate",
          "type": "uint256"
        },
        {
          "indexed": false,
          "internalType": "uint256",
          "name": "amountOutMin",
          "type": "uint256"
        },
        {
          "indexed": false,
          "internalType": "uint256",
          "name": "amountOut",
          "type": "uint256"
        }
      ],
      "name": "Swap",
      "type": "event"
    },
    {
      "inputs": [],
      "name": "MAX_WITHDRAW_AMOUNT",
      "outputs": [
        {
          "internalType": "uint256",
          "name": "",
          "type": "uint256"
        }
      ],
      "stateMutability": "view",
      "type": "function"
    },
    {
      "inputs": [],
      "name": "SWAP_GAS",
      "outputs": [
        {
          "internalType": "uint256",
          "name": "",
          "type": "uint256"
        }
      ],
      "stateMutability": "view",
      "type": "function"
    },
    {
      "inputs": [
        {
          "internalType": "address",
          "name": "",
          "type": "address"
        }
      ],
      "name": "addressToConfig",
      "outputs": [
        {
          "internalType": "uint256",
          "name": "triggerBalance",
          "type": "uint256"
        },
        {
          "internalType": "uint256",
          "name": "reserveBalance",
          "type": "uint256"
        }
      ],
      "stateMutability": "view",
      "type": "function"
    },
    {
      "inputs": [],
      "name": "admin",
      "outputs": [
        {
          "internalType": "address",
          "name": "",
          "type": "address"
        }
      ],
      "stateMutability": "view",
      "type": "function"
    },
    {
      "inputs": [],
      "name": "feeMultiplier",
      "outputs": [
        {
          "internalType": "uint8",
          "name": "",
          "type": "uint8"
        }
      ],
      "stateMutability": "view",
      "type": "function"
    },
    {
      "inputs": [],
      "name": "owner",
      "outputs": [
        {
          "internalType": "address",
          "name": "",
          "type": "address"
        }
      ],
      "stateMutability": "view",
      "type": "function"
    },
    {
      "inputs": [],
      "name": "router",
      "outputs": [
        {
          "internalType": "contract IUniswapV2Router02",
          "name": "",
          "type": "address"
        }
      ],
      "stateMutability": "view",
      "type": "function"
    },
    {
      "inputs": [
        {
          "internalType": "uint256",
          "name": "triggerBalance",
          "type": "uint256"
        },
        {
          "internalType": "uint256",
          "name": "reserveBalance",
          "type": "uint256"
        }
      ],
      "name": "saveConfig",
      "outputs": [],
      "stateMutability": "nonpayable",
      "type": "function"
    },
    {
      "inputs": [
        {
          "internalType": "address",
          "name": "newAdmin",
          "type": "address"
        }
      ],
      "name": "setAdmin",
      "outputs": [],
      "stateMutability": "nonpayable",
      "type": "function"
    },
    {
      "inputs": [
        {
          "internalType": "uint8",
          "name": "newFeeMultiplier",
          "type": "uint8"
        }
      ],
      "name": "setFeeMultiplier",
      "outputs": [],
      "stateMutability": "nonpayable",
      "type": "function"
    },
    {
      "inputs": [
        {
          "internalType": "address payable",
          "name": "account",
          "type": "address"
        },
        {
          "internalType": "uint256",
          "name": "maxRate",
          "type": "uint256"
        }
      ],
      "name": "swap",
      "outputs": [],
      "stateMutability": "nonpayable",
      "type": "function"
    },
    {
      "inputs": [],
      "name": "vtho",
      "outputs": [
        {
          "internalType": "contract IEnergy",
          "name": "",
          "type": "address"
        }
      ],
      "stateMutability": "view",
      "type": "function"
    },
    {
      "inputs": [],
      "name": "withdraw",
      "outputs": [],
      "stateMutability": "nonpayable",
      "type": "function"
    }
  ],
  "bytecode": "0x60a0604052601e600160146101000a81548160ff021916908360ff1602179055503480156200002d57600080fd5b5060405162001c0238038062001c02833981810160405281019062000053919062000150565b600073ffffffffffffffffffffffffffffffffffffffff168173ffffffffffffffffffffffffffffffffffffffff161415620000bb576040517fd92e233d00000000000000000000000000000000000000000000000000000000815260040160405180910390fd5b3373ffffffffffffffffffffffffffffffffffffffff1660808173ffffffffffffffffffffffffffffffffffffffff1660601b81525050806000806101000a81548173ffffffffffffffffffffffffffffffffffffffff021916908373ffffffffffffffffffffffffffffffffffffffff16021790555050620001ca565b6000815190506200014a81620001b0565b92915050565b6000602082840312156200016357600080fd5b6000620001738482850162000139565b91505092915050565b6000620001898262000190565b9050919050565b600073ffffffffffffffffffffffffffffffffffffffff82169050919050565b620001bb816200017c565b8114620001c757600080fd5b50565b60805160601c6119fd6200020560003960008181610253015281816103050152818161045801528181610533015261061f01526119fd6000f3fe608060405234801561001057600080fd5b50600436106100cf5760003560e01c80638da5cb5b1161008c578063d4b0dbdd11610066578063d4b0dbdd146101d9578063e5a70ef7146101f7578063f851a44014610215578063f887ea4014610233576100cf565b80638da5cb5b146101835780639c70803b146101a1578063d004f0f7146101bd576100cf565b80633ccfd60b146100d457806344ba0ea2146100de57806351fddfa9146100fc578063704b6c021461012d578063750f198a146101495780638aee4cfe14610167575b600080fd5b6100dc610251565b005b6100e6610425565b6040516100f391906114e7565b60405180910390f35b6101166004803603810190610111919061118d565b610432565b604051610124929190611502565b60405180910390f35b6101476004803603810190610142919061118d565b610456565b005b61015161052a565b60405161015e91906114e7565b60405180910390f35b610181600480360381019061017c91906112ea565b610531565b005b61018b61061d565b60405161019891906113f2565b60405180910390f35b6101bb60048036038101906101b691906112ae565b610641565b005b6101d760048036038101906101d291906111df565b6107bc565b005b6101e1610ffd565b6040516101ee91906114b1565b60405180910390f35b6101ff611007565b60405161020c91906115e6565b60405180910390f35b61021d61101a565b60405161022a91906113f2565b60405180910390f35b61023b611040565b60405161024891906114cc565b60405180910390f35b7f000000000000000000000000000000000000000000000000000000000000000073ffffffffffffffffffffffffffffffffffffffff163373ffffffffffffffffffffffffffffffffffffffff16146102e157336040517f245aecd30000000000000000000000000000000000000000000000000000000081526004016102d891906113f2565b60405180910390fd5b65456e6572677973ffffffffffffffffffffffffffffffffffffffff1663a9059cbb7f000000000000000000000000000000000000000000000000000000000000000065456e6572677973ffffffffffffffffffffffffffffffffffffffff166370a08231306040518263ffffffff1660e01b815260040161036391906113f2565b60206040518083038186803b15801561037b57600080fd5b505afa15801561038f573d6000803e3d6000fd5b505050506040513d601f19601f820116820180604052508101906103b39190611285565b6040518363ffffffff1660e01b81526004016103d0929190611488565b602060405180830381600087803b1580156103ea57600080fd5b505af11580156103fe573d6000803e3d6000fd5b505050506040513d601f19601f82011682018060405250810190610422919061125c565b50565b683635c9adc5dea0000081565b60026020528060005260406000206000915090508060000154908060010154905082565b7f000000000000000000000000000000000000000000000000000000000000000073ffffffffffffffffffffffffffffffffffffffff163373ffffffffffffffffffffffffffffffffffffffff16146104e657336040517f245aecd30000000000000000000000000000000000000000000000000000000081526004016104dd91906113f2565b60405180910390fd5b80600160006101000a81548173ffffffffffffffffffffffffffffffffffffffff021916908373ffffffffffffffffffffffffffffffffffffffff16021790555050565b6204198581565b7f000000000000000000000000000000000000000000000000000000000000000073ffffffffffffffffffffffffffffffffffffffff163373ffffffffffffffffffffffffffffffffffffffff16146105c157336040517f245aecd30000000000000000000000000000000000000000000000000000000081526004016105b891906113f2565b60405180910390fd5b601e8160ff1611156105ff576040517fc34a382b00000000000000000000000000000000000000000000000000000000815260040160405180910390fd5b80600160146101000a81548160ff021916908360ff16021790555050565b7f000000000000000000000000000000000000000000000000000000000000000081565b600082141561067c576040517fa768d7fd00000000000000000000000000000000000000000000000000000000815260040160405180910390fd5b60008114156106b7576040517fe46aea0900000000000000000000000000000000000000000000000000000000815260040160405180910390fd5b8082116106fd5781816040517fd40d76ca0000000000000000000000000000000000000000000000000000000081526004016106f4929190611502565b60405180910390fd5b604051806040016040528083815260200182815250600260003373ffffffffffffffffffffffffffffffffffffffff1673ffffffffffffffffffffffffffffffffffffffff16815260200190815260200160002060008201518160000155602082015181600101559050503373ffffffffffffffffffffffffffffffffffffffff167fb9bfe6dda7ddbc49d12288ef1e5d501c902797a01fc2bba856601b70e874cbb883836040516107b0929190611502565b60405180910390a25050565b600160009054906101000a900473ffffffffffffffffffffffffffffffffffffffff1673ffffffffffffffffffffffffffffffffffffffff163373ffffffffffffffffffffffffffffffffffffffff161461084e57336040517f17a8424200000000000000000000000000000000000000000000000000000000815260040161084591906113f2565b60405180910390fd5b6000600260008473ffffffffffffffffffffffffffffffffffffffff1673ffffffffffffffffffffffffffffffffffffffff168152602001908152602001600020604051806040016040529081600082015481526020016001820154815250509050600065456e6572677973ffffffffffffffffffffffffffffffffffffffff166370a08231856040518263ffffffff1660e01b81526004016108f1919061140d565b60206040518083038186803b15801561090957600080fd5b505afa15801561091d573d6000803e3d6000fd5b505050506040513d601f19601f820116820180604052508101906109419190611285565b9050600082600001511415610982576040517fa768d7fd00000000000000000000000000000000000000000000000000000000815260040160405180910390fd5b6000826020015114156109c1576040517fe46aea0900000000000000000000000000000000000000000000000000000000815260040160405180910390fd5b8160000151811015610a10578082600001516040517fcf479181000000000000000000000000000000000000000000000000000000008152600401610a07929190611502565b60405180910390fd5b60008260200151683635c9adc5dea00000610a2b919061168b565b821015610a4757826020015182610a42919061176c565b610a52565b683635c9adc5dea000005b905065456e6572677973ffffffffffffffffffffffffffffffffffffffff166323b872dd8630846040518463ffffffff1660e01b8152600401610a9793929190611428565b602060405180830381600087803b158015610ab157600080fd5b505af1158015610ac5573d6000803e3d6000fd5b505050506040513d601f19601f82011682018060405250810190610ae9919061125c565b610b2c5784816040517f841894cb000000000000000000000000000000000000000000000000000000008152600401610b2392919061145f565b60405180910390fd5b6000620419853a610b3d9190611712565b90506000612710600160149054906101000a900460ff1660ff168385610b63919061176c565b610b6d9190611712565b610b7791906116e1565b90506000818385610b88919061176c565b610b92919061176c565b905060008782610ba291906116e1565b905065456e6572677973ffffffffffffffffffffffffffffffffffffffff1663095ea7b360008054906101000a900473ffffffffffffffffffffffffffffffffffffffff16846040518363ffffffff1660e01b8152600401610c05929190611488565b602060405180830381600087803b158015610c1f57600080fd5b505af1158015610c33573d6000803e3d6000fd5b505050506040513d601f19601f82011682018060405250810190610c57919061125c565b610c8d576040517f3e3f8f7300000000000000000000000000000000000000000000000000000000815260040160405180910390fd5b6000600267ffffffffffffffff811115610cd0577f4e487b7100000000000000000000000000000000000000000000000000000000600052604160045260246000fd5b604051908082528060200260200182016040528015610cfe5781602001602082028036833780820191505090505b50905065456e6572677981600081518110610d42577f4e487b7100000000000000000000000000000000000000000000000000000000600052603260045260246000fd5b602002602001019073ffffffffffffffffffffffffffffffffffffffff16908173ffffffffffffffffffffffffffffffffffffffff168152505060008054906101000a900473ffffffffffffffffffffffffffffffffffffffff1673ffffffffffffffffffffffffffffffffffffffff1663ad5c46486040518163ffffffff1660e01b815260040160206040518083038186803b158015610de257600080fd5b505afa158015610df6573d6000803e3d6000fd5b505050506040513d601f19601f82011682018060405250810190610e1a91906111b6565b81600181518110610e54577f4e487b7100000000000000000000000000000000000000000000000000000000600052603260045260246000fd5b602002602001019073ffffffffffffffffffffffffffffffffffffffff16908173ffffffffffffffffffffffffffffffffffffffff168152505060008060009054906101000a900473ffffffffffffffffffffffffffffffffffffffff1673ffffffffffffffffffffffffffffffffffffffff166318cbafe58585858f426040518663ffffffff1660e01b8152600401610ef295949392919061152b565b600060405180830381600087803b158015610f0c57600080fd5b505af1158015610f20573d6000803e3d6000fd5b505050506040513d6000823e3d601f19601f82011682018060405250810190610f49919061121b565b90508a73ffffffffffffffffffffffffffffffffffffffff167f1c66e529e5eda665469886610afddba48a9cc0e5d92fb155ae84dab6c81d155d883a888e888760018951610f97919061176c565b81518110610fce577f4e487b7100000000000000000000000000000000000000000000000000000000600052603260045260246000fd5b6020026020010151604051610fe896959493929190611585565b60405180910390a25050505050505050505050565b65456e6572677981565b600160149054906101000a900460ff1681565b600160009054906101000a900473ffffffffffffffffffffffffffffffffffffffff1681565b60008054906101000a900473ffffffffffffffffffffffffffffffffffffffff1681565b600061107761107284611626565b611601565b9050808382526020820190508285602086028201111561109657600080fd5b60005b858110156110c657816110ac8882611163565b845260208401935060208301925050600181019050611099565b5050509392505050565b6000813590506110df81611954565b92915050565b6000815190506110f481611954565b92915050565b6000813590506111098161196b565b92915050565b600082601f83011261112057600080fd5b8151611130848260208601611064565b91505092915050565b60008151905061114881611982565b92915050565b60008135905061115d81611999565b92915050565b60008151905061117281611999565b92915050565b600081359050611187816119b0565b92915050565b60006020828403121561119f57600080fd5b60006111ad848285016110d0565b91505092915050565b6000602082840312156111c857600080fd5b60006111d6848285016110e5565b91505092915050565b600080604083850312156111f257600080fd5b6000611200858286016110fa565b92505060206112118582860161114e565b9150509250929050565b60006020828403121561122d57600080fd5b600082015167ffffffffffffffff81111561124757600080fd5b6112538482850161110f565b91505092915050565b60006020828403121561126e57600080fd5b600061127c84828501611139565b91505092915050565b60006020828403121561129757600080fd5b60006112a584828501611163565b91505092915050565b600080604083850312156112c157600080fd5b60006112cf8582860161114e565b92505060206112e08582860161114e565b9150509250929050565b6000602082840312156112fc57600080fd5b600061130a84828501611178565b91505092915050565b600061131f838361133a565b60208301905092915050565b61133481611807565b82525050565b611343816117a0565b82525050565b611352816117a0565b82525050565b600061136382611662565b61136d818561167a565b935061137883611652565b8060005b838110156113a95781516113908882611313565b975061139b8361166d565b92505060018101905061137c565b5085935050505092915050565b6113bf81611819565b82525050565b6113ce8161183d565b82525050565b6113dd816117f0565b82525050565b6113ec816117fa565b82525050565b60006020820190506114076000830184611349565b92915050565b6000602082019050611422600083018461132b565b92915050565b600060608201905061143d600083018661132b565b61144a6020830185611349565b61145760408301846113d4565b949350505050565b6000604082019050611474600083018561132b565b61148160208301846113d4565b9392505050565b600060408201905061149d6000830185611349565b6114aa60208301846113d4565b9392505050565b60006020820190506114c660008301846113b6565b92915050565b60006020820190506114e160008301846113c5565b92915050565b60006020820190506114fc60008301846113d4565b92915050565b600060408201905061151760008301856113d4565b61152460208301846113d4565b9392505050565b600060a08201905061154060008301886113d4565b61154d60208301876113d4565b818103604083015261155f8186611358565b905061156e606083018561132b565b61157b60808301846113d4565b9695505050505050565b600060c08201905061159a60008301896113d4565b6115a760208301886113d4565b6115b460408301876113d4565b6115c160608301866113d4565b6115ce60808301856113d4565b6115db60a08301846113d4565b979650505050505050565b60006020820190506115fb60008301846113e3565b92915050565b600061160b61161c565b90506116178282611885565b919050565b6000604051905090565b600067ffffffffffffffff82111561164157611640611914565b5b602082029050602081019050919050565b6000819050602082019050919050565b600081519050919050565b6000602082019050919050565b600082825260208201905092915050565b6000611696826117f0565b91506116a1836117f0565b9250827fffffffffffffffffffffffffffffffffffffffffffffffffffffffffffffffff038211156116d6576116d56118b6565b5b828201905092915050565b60006116ec826117f0565b91506116f7836117f0565b925082611707576117066118e5565b5b828204905092915050565b600061171d826117f0565b9150611728836117f0565b9250817fffffffffffffffffffffffffffffffffffffffffffffffffffffffffffffffff0483118215151615611761576117606118b6565b5b828202905092915050565b6000611777826117f0565b9150611782836117f0565b925082821015611795576117946118b6565b5b828203905092915050565b60006117ab826117d0565b9050919050565b60006117bd826117d0565b9050919050565b60008115159050919050565b600073ffffffffffffffffffffffffffffffffffffffff82169050919050565b6000819050919050565b600060ff82169050919050565b600061181282611861565b9050919050565b60006118248261182b565b9050919050565b6000611836826117d0565b9050919050565b60006118488261184f565b9050919050565b600061185a826117d0565b9050919050565b600061186c82611873565b9050919050565b600061187e826117d0565b9050919050565b61188e82611943565b810181811067ffffffffffffffff821117156118ad576118ac611914565b5b80604052505050565b7f4e487b7100000000000000000000000000000000000000000000000000000000600052601160045260246000fd5b7f4e487b7100000000000000000000000000000000000000000000000000000000600052601260045260246000fd5b7f4e487b7100000000000000000000000000000000000000000000000000000000600052604160045260246000fd5b6000601f19601f8301169050919050565b61195d816117a0565b811461196857600080fd5b50565b611974816117b2565b811461197f57600080fd5b50565b61198b816117c4565b811461199657600080fd5b50565b6119a2816117f0565b81146119ad57600080fd5b50565b6119b9816117fa565b81146119c457600080fd5b5056fea2646970667358221220cdf8e66cfba3d560fca42de4302d20a2dffe08aad58c0036c140db58067cac5a64736f6c63430008040033",
  "linkReferences": {},
  "deployedLinkReferences": {}
}