{
  "_format": "hh-sol-artifact-1",
  "contractName": "Trader",
  "sourceName": "contracts/Trader.sol",
  "abi": [
    {
      "inputs": [
        {
          "internalType": "address",
          "name": "vthoAddress",
          "type": "address"
        },
        {
          "internalType": "address",
          "name": "routerAddress",
          "type": "address"
        }
      ],
      "stateMutability": "nonpayable",
      "type": "constructor"
    },
    {
      "anonymous": false,
      "inputs": [
        {
          "indexed": true,
          "internalType": "address",
          "name": "account",
          "type": "address"
        },
        {
          "indexed": false,
          "internalType": "uint256",
          "name": "triggerBalance",
          "type": "uint256"
        },
        {
          "indexed": false,
          "internalType": "uint256",
          "name": "reserveBalance",
          "type": "uint256"
        }
      ],
      "name": "Config",
      "type": "event"
    },
    {
      "anonymous": false,
      "inputs": [
        {
          "indexed": false,
          "internalType": "uint256",
          "name": "gasprice",
          "type": "uint256"
        }
      ],
      "name": "Gas",
      "type": "event"
    },
    {
      "anonymous": false,
      "inputs": [
        {
          "indexed": true,
          "internalType": "address",
          "name": "account",
          "type": "address"
        },
        {
          "indexed": false,
          "internalType": "uint256",
          "name": "withdrawAmount",
          "type": "uint256"
        },
        {
          "indexed": false,
          "internalType": "uint256",
          "name": "fees",
          "type": "uint256"
        },
        {
          "indexed": false,
          "internalType": "uint256",
          "name": "maxRate",
          "type": "uint256"
        },
        {
          "indexed": false,
          "internalType": "uint256",
          "name": "amountOutMin",
          "type": "uint256"
        },
        {
          "indexed": false,
          "internalType": "uint256",
          "name": "amountOut",
          "type": "uint256"
        }
      ],
      "name": "Swap",
      "type": "event"
    },
    {
      "anonymous": false,
      "inputs": [
        {
          "indexed": true,
          "internalType": "address",
          "name": "to",
          "type": "address"
        },
        {
          "indexed": false,
          "internalType": "uint256",
          "name": "amount",
          "type": "uint256"
        }
      ],
      "name": "Withdraw",
      "type": "event"
    },
    {
      "inputs": [
        {
          "internalType": "address",
          "name": "",
          "type": "address"
        }
      ],
      "name": "addressToConfig",
      "outputs": [
        {
          "internalType": "uint256",
          "name": "triggerBalance",
          "type": "uint256"
        },
        {
          "internalType": "uint256",
          "name": "reserveBalance",
          "type": "uint256"
        }
      ],
      "stateMutability": "view",
      "type": "function"
    },
    {
      "inputs": [],
      "name": "owner",
      "outputs": [
        {
          "internalType": "address payable",
          "name": "",
          "type": "address"
        }
      ],
      "stateMutability": "view",
      "type": "function"
    },
    {
      "inputs": [],
      "name": "router",
      "outputs": [
        {
          "internalType": "contract IUniswapV2Router02",
          "name": "",
          "type": "address"
        }
      ],
      "stateMutability": "view",
      "type": "function"
    },
    {
      "inputs": [
        {
          "internalType": "uint256",
          "name": "triggerBalance",
          "type": "uint256"
        },
        {
          "internalType": "uint256",
          "name": "reserveBalance",
          "type": "uint256"
        }
      ],
      "name": "saveConfig",
      "outputs": [],
      "stateMutability": "nonpayable",
      "type": "function"
    },
    {
      "inputs": [
        {
          "internalType": "address payable",
          "name": "account",
          "type": "address"
        },
        {
          "internalType": "uint256",
          "name": "maxRate",
          "type": "uint256"
        }
      ],
      "name": "swap",
      "outputs": [],
      "stateMutability": "nonpayable",
      "type": "function"
    },
    {
      "inputs": [],
      "name": "vtho",
      "outputs": [
        {
          "internalType": "contract IERC20",
          "name": "",
          "type": "address"
        }
      ],
      "stateMutability": "view",
      "type": "function"
    }
  ],
  "bytecode": "0x60806040523480156200001157600080fd5b5060405162001a7838038062001a7883398181016040528101906200003791906200018b565b600073ffffffffffffffffffffffffffffffffffffffff168173ffffffffffffffffffffffffffffffffffffffff161415620000aa576040517f08c379a0000000000000000000000000000000000000000000000000000000008152600401620000a190620001f3565b60405180910390fd5b816000806101000a81548173ffffffffffffffffffffffffffffffffffffffff021916908373ffffffffffffffffffffffffffffffffffffffff16021790555080600160006101000a81548173ffffffffffffffffffffffffffffffffffffffff021916908373ffffffffffffffffffffffffffffffffffffffff16021790555033600260006101000a81548173ffffffffffffffffffffffffffffffffffffffff021916908373ffffffffffffffffffffffffffffffffffffffff16021790555050506200029d565b600081519050620001858162000283565b92915050565b600080604083850312156200019f57600080fd5b6000620001af8582860162000174565b9250506020620001c28582860162000174565b9150509250929050565b6000620001db60168362000215565b9150620001e8826200025a565b602082019050919050565b600060208201905081810360008301526200020e81620001cc565b9050919050565b600082825260208201905092915050565b600062000233826200023a565b9050919050565b600073ffffffffffffffffffffffffffffffffffffffff82169050919050565b7f5472616465723a20726f75746572206e6f742073657400000000000000000000600082015250565b6200028e8162000226565b81146200029a57600080fd5b50565b6117cb80620002ad6000396000f3fe608060405234801561001057600080fd5b50600436106100625760003560e01c806351fddfa9146100675780638da5cb5b146100985780639c70803b146100b6578063d004f0f7146100d2578063d4b0dbdd146100ee578063f887ea401461010c575b600080fd5b610081600480360381019061007c9190610c63565b61012a565b60405161008f92919061119e565b60405180910390f35b6100a061014e565b6040516100ad9190610fd2565b60405180910390f35b6100d060048036038101906100cb9190610d84565b610174565b005b6100ec60048036038101906100e79190610cb5565b6102fb565b005b6100f6610b05565b604051610103919061104d565b60405180910390f35b610114610b29565b6040516101219190611068565b60405180910390f35b60036020528060005260406000206000915090508060000154908060010154905082565b600260009054906101000a900473ffffffffffffffffffffffffffffffffffffffff1681565b600082116101b7576040517f08c379a00000000000000000000000000000000000000000000000000000000081526004016101ae906110e3565b60405180910390fd5b600081116101fa576040517f08c379a00000000000000000000000000000000000000000000000000000000081526004016101f190611163565b60405180910390fd5b80821161023c576040517f08c379a000000000000000000000000000000000000000000000000000000000815260040161023390611083565b60405180910390fd5b604051806040016040528083815260200182815250600360003373ffffffffffffffffffffffffffffffffffffffff1673ffffffffffffffffffffffffffffffffffffffff16815260200190815260200160002060008201518160000155602082015181600101559050503373ffffffffffffffffffffffffffffffffffffffff167fb9bfe6dda7ddbc49d12288ef1e5d501c902797a01fc2bba856601b70e874cbb883836040516102ef92919061119e565b60405180910390a25050565b6000600360008473ffffffffffffffffffffffffffffffffffffffff1673ffffffffffffffffffffffffffffffffffffffff16815260200190815260200160002060405180604001604052908160008201548152602001600182015481525050905060008160000151116103a4576040517f08c379a000000000000000000000000000000000000000000000000000000000815260040161039b906110c3565b60405180910390fd5b60008160200151116103eb576040517f08c379a00000000000000000000000000000000000000000000000000000000081526004016103e290611103565b60405180910390fd5b806000015160008054906101000a900473ffffffffffffffffffffffffffffffffffffffff1673ffffffffffffffffffffffffffffffffffffffff166370a08231856040518263ffffffff1660e01b81526004016104499190610fb7565b602060405180830381600087803b15801561046357600080fd5b505af1158015610477573d6000803e3d6000fd5b505050506040513d601f19601f8201168201806040525081019061049b9190610d5b565b10156104dc576040517f08c379a00000000000000000000000000000000000000000000000000000000081526004016104d390611123565b60405180910390fd5b6000816020015182600001516104f291906113f0565b905060008054906101000a900473ffffffffffffffffffffffffffffffffffffffff1673ffffffffffffffffffffffffffffffffffffffff166323b872dd8530846040518463ffffffff1660e01b815260040161055193929190610fed565b602060405180830381600087803b15801561056b57600080fd5b505af115801561057f573d6000803e3d6000fd5b505050506040513d601f19601f820116820180604052508101906105a39190610d32565b6105e2576040517f08c379a00000000000000000000000000000000000000000000000000000000081526004016105d990611143565b60405180910390fd5b600060053a6105f19190611396565b6103e86003846106019190611396565b61060b9190611365565b610615919061130f565b90506000818361062591906113f0565b9050600085826106359190611365565b905060008054906101000a900473ffffffffffffffffffffffffffffffffffffffff1673ffffffffffffffffffffffffffffffffffffffff1663095ea7b3600160009054906101000a900473ffffffffffffffffffffffffffffffffffffffff16846040518363ffffffff1660e01b81526004016106b4929190611024565b602060405180830381600087803b1580156106ce57600080fd5b505af11580156106e2573d6000803e3d6000fd5b505050506040513d601f19601f820116820180604052508101906107069190610d32565b610745576040517f08c379a000000000000000000000000000000000000000000000000000000000815260040161073c906110a3565b60405180910390fd5b6000600267ffffffffffffffff811115610788577f4e487b7100000000000000000000000000000000000000000000000000000000600052604160045260246000fd5b6040519080825280602002602001820160405280156107b65781602001602082028036833780820191505090505b50905060008054906101000a900473ffffffffffffffffffffffffffffffffffffffff1681600081518110610814577f4e487b7100000000000000000000000000000000000000000000000000000000600052603260045260246000fd5b602002602001019073ffffffffffffffffffffffffffffffffffffffff16908173ffffffffffffffffffffffffffffffffffffffff1681525050600160009054906101000a900473ffffffffffffffffffffffffffffffffffffffff1673ffffffffffffffffffffffffffffffffffffffff1663ad5c46486040518163ffffffff1660e01b815260040160206040518083038186803b1580156108b657600080fd5b505afa1580156108ca573d6000803e3d6000fd5b505050506040513d601f19601f820116820180604052508101906108ee9190610c8c565b81600181518110610928577f4e487b7100000000000000000000000000000000000000000000000000000000600052603260045260246000fd5b602002602001019073ffffffffffffffffffffffffffffffffffffffff16908173ffffffffffffffffffffffffffffffffffffffff16815250506000600160009054906101000a900473ffffffffffffffffffffffffffffffffffffffff1673ffffffffffffffffffffffffffffffffffffffff166318cbafe58585858d426040518663ffffffff1660e01b81526004016109c79594939291906111c7565b600060405180830381600087803b1580156109e157600080fd5b505af11580156109f5573d6000803e3d6000fd5b505050506040513d6000823e3d601f19601f82011682018060405250810190610a1e9190610cf1565b90508873ffffffffffffffffffffffffffffffffffffffff167f6d2535bccee43630e01014525de773080b47e1a82c56ef6a30802933a48c9e3487878b878660018851610a6b91906113f0565b81518110610aa2577f4e487b7100000000000000000000000000000000000000000000000000000000600052603260045260246000fd5b6020026020010151604051610abb959493929190611221565b60405180910390a27ff0fadcd9d25528e430e4862a6cc65c4af97cc5bc42e413e0fcd026d40345a6df3a604051610af29190611183565b60405180910390a1505050505050505050565b60008054906101000a900473ffffffffffffffffffffffffffffffffffffffff1681565b600160009054906101000a900473ffffffffffffffffffffffffffffffffffffffff1681565b6000610b62610b5d84611299565b611274565b90508083825260208201905082856020860282011115610b8157600080fd5b60005b85811015610bb15781610b978882610c4e565b845260208401935060208301925050600181019050610b84565b5050509392505050565b600081359050610bca81611739565b92915050565b600081519050610bdf81611739565b92915050565b600081359050610bf481611750565b92915050565b600082601f830112610c0b57600080fd5b8151610c1b848260208601610b4f565b91505092915050565b600081519050610c3381611767565b92915050565b600081359050610c488161177e565b92915050565b600081519050610c5d8161177e565b92915050565b600060208284031215610c7557600080fd5b6000610c8384828501610bbb565b91505092915050565b600060208284031215610c9e57600080fd5b6000610cac84828501610bd0565b91505092915050565b60008060408385031215610cc857600080fd5b6000610cd685828601610be5565b9250506020610ce785828601610c39565b9150509250929050565b600060208284031215610d0357600080fd5b600082015167ffffffffffffffff811115610d1d57600080fd5b610d2984828501610bfa565b91505092915050565b600060208284031215610d4457600080fd5b6000610d5284828501610c24565b91505092915050565b600060208284031215610d6d57600080fd5b6000610d7b84828501610c4e565b91505092915050565b60008060408385031215610d9757600080fd5b6000610da585828601610c39565b9250506020610db685828601610c39565b9150509250929050565b6000610dcc8383610df6565b60208301905092915050565b610de18161147e565b82525050565b610df081611436565b82525050565b610dff81611424565b82525050565b610e0e81611424565b82525050565b6000610e1f826112d5565b610e2981856112ed565b9350610e34836112c5565b8060005b83811015610e65578151610e4c8882610dc0565b9750610e57836112e0565b925050600181019050610e38565b5085935050505092915050565b610e7b81611490565b82525050565b610e8a816114b4565b82525050565b6000610e9d6016836112fe565b9150610ea8826115cb565b602082019050919050565b6000610ec06017836112fe565b9150610ecb826115f4565b602082019050919050565b6000610ee3601e836112fe565b9150610eee8261161d565b602082019050919050565b6000610f06601e836112fe565b9150610f1182611646565b602082019050919050565b6000610f29601e836112fe565b9150610f348261166f565b602082019050919050565b6000610f4c6022836112fe565b9150610f5782611698565b604082019050919050565b6000610f6f601b836112fe565b9150610f7a826116e7565b602082019050919050565b6000610f92601e836112fe565b9150610f9d82611710565b602082019050919050565b610fb181611474565b82525050565b6000602082019050610fcc6000830184610dd8565b92915050565b6000602082019050610fe76000830184610de7565b92915050565b60006060820190506110026000830186610dd8565b61100f6020830185610e05565b61101c6040830184610fa8565b949350505050565b60006040820190506110396000830185610e05565b6110466020830184610fa8565b9392505050565b60006020820190506110626000830184610e72565b92915050565b600060208201905061107d6000830184610e81565b92915050565b6000602082019050818103600083015261109c81610e90565b9050919050565b600060208201905081810360008301526110bc81610eb3565b9050919050565b600060208201905081810360008301526110dc81610ed6565b9050919050565b600060208201905081810360008301526110fc81610ef9565b9050919050565b6000602082019050818103600083015261111c81610f1c565b9050919050565b6000602082019050818103600083015261113c81610f3f565b9050919050565b6000602082019050818103600083015261115c81610f62565b9050919050565b6000602082019050818103600083015261117c81610f85565b9050919050565b60006020820190506111986000830184610fa8565b92915050565b60006040820190506111b36000830185610fa8565b6111c06020830184610fa8565b9392505050565b600060a0820190506111dc6000830188610fa8565b6111e96020830187610fa8565b81810360408301526111fb8186610e14565b905061120a6060830185610dd8565b6112176080830184610fa8565b9695505050505050565b600060a0820190506112366000830188610fa8565b6112436020830187610fa8565b6112506040830186610fa8565b61125d6060830185610fa8565b61126a6080830184610fa8565b9695505050505050565b600061127e61128f565b905061128a82826114fc565b919050565b6000604051905090565b600067ffffffffffffffff8211156112b4576112b361158b565b5b602082029050602081019050919050565b6000819050602082019050919050565b600081519050919050565b6000602082019050919050565b600082825260208201905092915050565b600082825260208201905092915050565b600061131a82611474565b915061132583611474565b9250827fffffffffffffffffffffffffffffffffffffffffffffffffffffffffffffffff0382111561135a5761135961152d565b5b828201905092915050565b600061137082611474565b915061137b83611474565b92508261138b5761138a61155c565b5b828204905092915050565b60006113a182611474565b91506113ac83611474565b9250817fffffffffffffffffffffffffffffffffffffffffffffffffffffffffffffffff04831182151516156113e5576113e461152d565b5b828202905092915050565b60006113fb82611474565b915061140683611474565b9250828210156114195761141861152d565b5b828203905092915050565b600061142f82611454565b9050919050565b600061144182611454565b9050919050565b60008115159050919050565b600073ffffffffffffffffffffffffffffffffffffffff82169050919050565b6000819050919050565b6000611489826114d8565b9050919050565b600061149b826114a2565b9050919050565b60006114ad82611454565b9050919050565b60006114bf826114c6565b9050919050565b60006114d182611454565b9050919050565b60006114e3826114ea565b9050919050565b60006114f582611454565b9050919050565b611505826115ba565b810181811067ffffffffffffffff821117156115245761152361158b565b5b80604052505050565b7f4e487b7100000000000000000000000000000000000000000000000000000000600052601160045260246000fd5b7f4e487b7100000000000000000000000000000000000000000000000000000000600052601260045260246000fd5b7f4e487b7100000000000000000000000000000000000000000000000000000000600052604160045260246000fd5b6000601f19601f8301169050919050565b7f5472616465723a20696e76616c696420636f6e66696700000000000000000000600082015250565b7f5472616465723a20617070726f7665206661696c65642e000000000000000000600082015250565b7f5472616465723a207472696767657242616c616e6365206e6f74207365740000600082015250565b7f5472616465723a20696e76616c6964207472696767657242616c616e63650000600082015250565b7f5472616465723a207265736572766542616c616e6365206e6f74207365740000600082015250565b7f5472616465723a207472696767657242616c616e6365206e6f7420726561636860008201527f6564000000000000000000000000000000000000000000000000000000000000602082015250565b7f5472616465723a207472616e7366657246726f6d206661696c65640000000000600082015250565b7f5472616465723a20696e76616c6964207265736572766542616c616e63650000600082015250565b61174281611424565b811461174d57600080fd5b50565b61175981611436565b811461176457600080fd5b50565b61177081611448565b811461177b57600080fd5b50565b61178781611474565b811461179257600080fd5b5056fea26469706673582212205a074db2f2f4d3c78dffd83ff893dcc5335d5926aa2db39b2fe097b849701cad64736f6c63430008040033",
  "linkReferences": {},
  "deployedLinkReferences": {}
}