{
  "_format": "hh-sol-artifact-1",
  "contractName": "Trader",
  "sourceName": "contracts/Trader.sol",
  "abi": [
    {
      "inputs": [
        {
          "internalType": "address",
          "name": "vvet_",
          "type": "address"
        },
        {
          "internalType": "address[2]",
          "name": "routers_",
          "type": "address[2]"
        }
      ],
      "stateMutability": "nonpayable",
      "type": "constructor"
    },
    {
      "inputs": [],
      "name": "AccessControlBadConfirmation",
      "type": "error"
    },
    {
      "inputs": [
        {
          "internalType": "address",
          "name": "account",
          "type": "address"
        },
        {
          "internalType": "bytes32",
          "name": "neededRole",
          "type": "bytes32"
        }
      ],
      "name": "AccessControlUnauthorizedAccount",
      "type": "error"
    },
    {
      "anonymous": false,
      "inputs": [
        {
          "indexed": true,
          "internalType": "address",
          "name": "account",
          "type": "address"
        },
        {
          "indexed": false,
          "internalType": "uint256",
          "name": "reserveBalance",
          "type": "uint256"
        }
      ],
      "name": "Config",
      "type": "event"
    },
    {
      "anonymous": false,
      "inputs": [
        {
          "indexed": false,
          "internalType": "uint256",
          "name": "baseGasPrice",
          "type": "uint256"
        }
      ],
      "name": "FetchGas",
      "type": "event"
    },
    {
      "anonymous": false,
      "inputs": [
        {
          "indexed": true,
          "internalType": "bytes32",
          "name": "role",
          "type": "bytes32"
        },
        {
          "indexed": true,
          "internalType": "bytes32",
          "name": "previousAdminRole",
          "type": "bytes32"
        },
        {
          "indexed": true,
          "internalType": "bytes32",
          "name": "newAdminRole",
          "type": "bytes32"
        }
      ],
      "name": "RoleAdminChanged",
      "type": "event"
    },
    {
      "anonymous": false,
      "inputs": [
        {
          "indexed": true,
          "internalType": "bytes32",
          "name": "role",
          "type": "bytes32"
        },
        {
          "indexed": true,
          "internalType": "address",
          "name": "account",
          "type": "address"
        },
        {
          "indexed": true,
          "internalType": "address",
          "name": "sender",
          "type": "address"
        }
      ],
      "name": "RoleGranted",
      "type": "event"
    },
    {
      "anonymous": false,
      "inputs": [
        {
          "indexed": true,
          "internalType": "bytes32",
          "name": "role",
          "type": "bytes32"
        },
        {
          "indexed": true,
          "internalType": "address",
          "name": "account",
          "type": "address"
        },
        {
          "indexed": true,
          "internalType": "address",
          "name": "sender",
          "type": "address"
        }
      ],
      "name": "RoleRevoked",
      "type": "event"
    },
    {
      "anonymous": false,
      "inputs": [
        {
          "indexed": false,
          "internalType": "uint256",
          "name": "feeMultiplier",
          "type": "uint256"
        }
      ],
      "name": "SetFee",
      "type": "event"
    },
    {
      "anonymous": false,
      "inputs": [
        {
          "indexed": true,
          "internalType": "address",
          "name": "account",
          "type": "address"
        },
        {
          "indexed": true,
          "internalType": "address",
          "name": "router",
          "type": "address"
        },
        {
          "indexed": false,
          "internalType": "uint256",
          "name": "withdrawAmount",
          "type": "uint256"
        },
        {
          "indexed": false,
          "internalType": "uint256",
          "name": "gasPrice",
          "type": "uint256"
        },
        {
          "indexed": false,
          "internalType": "uint256",
          "name": "feeMultiplier",
          "type": "uint256"
        },
        {
          "indexed": false,
          "internalType": "uint256",
          "name": "protocolFee",
          "type": "uint256"
        },
        {
          "indexed": false,
          "internalType": "uint256",
          "name": "amountIn",
          "type": "uint256"
        },
        {
          "indexed": false,
          "internalType": "uint256",
          "name": "amountOutMin",
          "type": "uint256"
        },
        {
          "indexed": false,
          "internalType": "uint256",
          "name": "amountOutExpected",
          "type": "uint256"
        },
        {
          "indexed": false,
          "internalType": "uint256",
          "name": "amountOutReceived",
          "type": "uint256"
        }
      ],
      "name": "Swap",
      "type": "event"
    },
    {
      "anonymous": false,
      "inputs": [
        {
          "indexed": true,
          "internalType": "address",
          "name": "caller",
          "type": "address"
        },
        {
          "indexed": false,
          "internalType": "uint256",
          "name": "amount",
          "type": "uint256"
        }
      ],
      "name": "WithdrawFees",
      "type": "event"
    },
    {
      "inputs": [],
      "name": "DEFAULT_ADMIN_ROLE",
      "outputs": [
        {
          "internalType": "bytes32",
          "name": "",
          "type": "bytes32"
        }
      ],
      "stateMutability": "view",
      "type": "function"
    },
    {
      "inputs": [],
      "name": "FEE_PRECISION",
      "outputs": [
        {
          "internalType": "uint256",
          "name": "",
          "type": "uint256"
        }
      ],
      "stateMutability": "view",
      "type": "function"
    },
    {
      "inputs": [],
      "name": "KEEPER_ROLE",
      "outputs": [
        {
          "internalType": "bytes32",
          "name": "",
          "type": "bytes32"
        }
      ],
      "stateMutability": "view",
      "type": "function"
    },
    {
      "inputs": [],
      "name": "MAX_FEE_MULTIPLIER",
      "outputs": [
        {
          "internalType": "uint256",
          "name": "",
          "type": "uint256"
        }
      ],
      "stateMutability": "view",
      "type": "function"
    },
    {
      "inputs": [],
      "name": "SWAP_GAS",
      "outputs": [
        {
          "internalType": "uint256",
          "name": "",
          "type": "uint256"
        }
      ],
      "stateMutability": "view",
      "type": "function"
    },
    {
      "inputs": [
        {
          "internalType": "address",
          "name": "account",
          "type": "address"
        }
      ],
      "name": "addKeeper",
      "outputs": [],
      "stateMutability": "nonpayable",
      "type": "function"
    },
    {
      "inputs": [
        {
          "internalType": "address",
          "name": "account",
          "type": "address"
        }
      ],
      "name": "addOwner",
      "outputs": [],
      "stateMutability": "nonpayable",
      "type": "function"
    },
    {
      "inputs": [],
      "name": "baseGasPrice",
      "outputs": [
        {
          "internalType": "uint256",
          "name": "",
          "type": "uint256"
        }
      ],
      "stateMutability": "view",
      "type": "function"
    },
    {
      "inputs": [],
      "name": "feeMultiplier",
      "outputs": [
        {
          "internalType": "uint256",
          "name": "",
          "type": "uint256"
        }
      ],
      "stateMutability": "view",
      "type": "function"
    },
    {
      "inputs": [],
      "name": "fetchBaseGasPrice",
      "outputs": [],
      "stateMutability": "nonpayable",
      "type": "function"
    },
    {
      "inputs": [
        {
          "internalType": "bytes32",
          "name": "role",
          "type": "bytes32"
        }
      ],
      "name": "getRoleAdmin",
      "outputs": [
        {
          "internalType": "bytes32",
          "name": "",
          "type": "bytes32"
        }
      ],
      "stateMutability": "view",
      "type": "function"
    },
    {
      "inputs": [
        {
          "internalType": "bytes32",
          "name": "role",
          "type": "bytes32"
        },
        {
          "internalType": "address",
          "name": "account",
          "type": "address"
        }
      ],
      "name": "grantRole",
      "outputs": [],
      "stateMutability": "nonpayable",
      "type": "function"
    },
    {
      "inputs": [
        {
          "internalType": "bytes32",
          "name": "role",
          "type": "bytes32"
        },
        {
          "internalType": "address",
          "name": "account",
          "type": "address"
        }
      ],
      "name": "hasRole",
      "outputs": [
        {
          "internalType": "bool",
          "name": "",
          "type": "bool"
        }
      ],
      "stateMutability": "view",
      "type": "function"
    },
    {
      "inputs": [
        {
          "internalType": "address",
          "name": "account",
          "type": "address"
        }
      ],
      "name": "isKeeper",
      "outputs": [
        {
          "internalType": "bool",
          "name": "",
          "type": "bool"
        }
      ],
      "stateMutability": "view",
      "type": "function"
    },
    {
      "inputs": [
        {
          "internalType": "address",
          "name": "account",
          "type": "address"
        }
      ],
      "name": "isOwner",
      "outputs": [
        {
          "internalType": "bool",
          "name": "",
          "type": "bool"
        }
      ],
      "stateMutability": "view",
      "type": "function"
    },
    {
      "inputs": [],
      "name": "params",
      "outputs": [
        {
          "internalType": "contract IParams",
          "name": "",
          "type": "address"
        }
      ],
      "stateMutability": "view",
      "type": "function"
    },
    {
      "inputs": [
        {
          "internalType": "address",
          "name": "account",
          "type": "address"
        }
      ],
      "name": "removeKeeper",
      "outputs": [],
      "stateMutability": "nonpayable",
      "type": "function"
    },
    {
      "inputs": [
        {
          "internalType": "address",
          "name": "callerConfirmation",
          "type": "address"
        }
      ],
      "name": "renounceOwner",
      "outputs": [],
      "stateMutability": "nonpayable",
      "type": "function"
    },
    {
      "inputs": [
        {
          "internalType": "bytes32",
          "name": "role",
          "type": "bytes32"
        },
        {
          "internalType": "address",
          "name": "callerConfirmation",
          "type": "address"
        }
      ],
      "name": "renounceRole",
      "outputs": [],
      "stateMutability": "nonpayable",
      "type": "function"
    },
    {
      "inputs": [
        {
          "internalType": "address",
          "name": "",
          "type": "address"
        }
      ],
      "name": "reserves",
      "outputs": [
        {
          "internalType": "uint256",
          "name": "",
          "type": "uint256"
        }
      ],
      "stateMutability": "view",
      "type": "function"
    },
    {
      "inputs": [
        {
          "internalType": "bytes32",
          "name": "role",
          "type": "bytes32"
        },
        {
          "internalType": "address",
          "name": "account",
          "type": "address"
        }
      ],
      "name": "revokeRole",
      "outputs": [],
      "stateMutability": "nonpayable",
      "type": "function"
    },
    {
      "inputs": [
        {
          "internalType": "uint256",
          "name": "",
          "type": "uint256"
        }
      ],
      "name": "routers",
      "outputs": [
        {
          "internalType": "address",
          "name": "",
          "type": "address"
        }
      ],
      "stateMutability": "view",
      "type": "function"
    },
    {
      "inputs": [
        {
          "internalType": "uint256",
          "name": "reserveBalance",
          "type": "uint256"
        }
      ],
      "name": "saveConfig",
      "outputs": [],
      "stateMutability": "nonpayable",
      "type": "function"
    },
    {
      "inputs": [
        {
          "internalType": "uint8",
          "name": "newFeeMultiplier",
          "type": "uint8"
        }
      ],
      "name": "setFeeMultiplier",
      "outputs": [],
      "stateMutability": "nonpayable",
      "type": "function"
    },
    {
      "inputs": [
        {
          "internalType": "bytes4",
          "name": "interfaceId",
          "type": "bytes4"
        }
      ],
      "name": "supportsInterface",
      "outputs": [
        {
          "internalType": "bool",
          "name": "",
          "type": "bool"
        }
      ],
      "stateMutability": "view",
      "type": "function"
    },
    {
      "inputs": [
        {
          "internalType": "address payable",
          "name": "account",
          "type": "address"
        },
        {
          "internalType": "uint256",
          "name": "withdrawAmount",
          "type": "uint256"
        },
        {
          "internalType": "uint256",
          "name": "amountOutMin",
          "type": "uint256"
        }
      ],
      "name": "swap",
      "outputs": [],
      "stateMutability": "nonpayable",
      "type": "function"
    },
    {
      "inputs": [],
      "name": "vtho",
      "outputs": [
        {
          "internalType": "contract IEnergy",
          "name": "",
          "type": "address"
        }
      ],
      "stateMutability": "view",
      "type": "function"
    },
    {
      "inputs": [],
      "name": "vvet",
      "outputs": [
        {
          "internalType": "address",
          "name": "",
          "type": "address"
        }
      ],
      "stateMutability": "view",
      "type": "function"
    },
    {
      "inputs": [],
      "name": "withdrawFees",
      "outputs": [],
      "stateMutability": "nonpayable",
      "type": "function"
    }
  ],
  "bytecode": "0x60a0604052601e6003553480156200001657600080fd5b5060405162002f1a38038062002f1a83398181016040528101906200003c91906200062e565b33620000526000801b82620000e960201b60201c565b50620000887ffc8737ab85eb45125971625a9ebdb75cc78e01d5c1fa80c4c6e5203f47bc4fab6000801b620001ec60201b60201c565b508173ffffffffffffffffffffffffffffffffffffffff1660808173ffffffffffffffffffffffffffffffffffffffff1681525050806001906002620000d0929190620003b6565b50620000e16200024f60201b60201c565b505062000787565b6000620000fd83836200032560201b60201c565b620001e157600160008085815260200190815260200160002060000160008473ffffffffffffffffffffffffffffffffffffffff1673ffffffffffffffffffffffffffffffffffffffff16815260200190815260200160002060006101000a81548160ff0219169083151502179055506200017d6200038f60201b60201c565b73ffffffffffffffffffffffffffffffffffffffff168273ffffffffffffffffffffffffffffffffffffffff16847f2f8788117e7eff1d82e926ec794901d17c78024a50270940304540a733656f0d60405160405180910390a460019050620001e6565b600090505b92915050565b6000620001ff836200039760201b60201c565b905081600080858152602001908152602001600020600101819055508181847fbd79b86ffe0ab8e8776151514217cd7cacd52c909f66475c3af44e129f0b00ff60405160405180910390a4505050565b65506172616d7373ffffffffffffffffffffffffffffffffffffffff16638eaa6ac06d626173652d6761732d70726963656040518263ffffffff1660e01b81526004016200029e9190620006cf565b602060405180830381865afa158015620002bc573d6000803e3d6000fd5b505050506040513d601f19601f82011682018060405250810190620002e2919062000727565b6004819055507f9e80beb690c9b039ef1aded51d16690f35068933fb71a9b56cc944e02ced07b06004546040516200031b91906200076a565b60405180910390a1565b600080600084815260200190815260200160002060000160008373ffffffffffffffffffffffffffffffffffffffff1673ffffffffffffffffffffffffffffffffffffffff16815260200190815260200160002060009054906101000a900460ff16905092915050565b600033905090565b6000806000838152602001908152602001600020600101549050919050565b826002810192821562000425579160200282015b82811115620004245782518260006101000a81548173ffffffffffffffffffffffffffffffffffffffff021916908373ffffffffffffffffffffffffffffffffffffffff16021790555091602001919060010190620003ca565b5b50905062000434919062000438565b5090565b5b808211156200045357600081600090555060010162000439565b5090565b6000604051905090565b600080fd5b600073ffffffffffffffffffffffffffffffffffffffff82169050919050565b6000620004938262000466565b9050919050565b620004a58162000486565b8114620004b157600080fd5b50565b600081519050620004c5816200049a565b92915050565b600080fd5b6000601f19601f8301169050919050565b7f4e487b7100000000000000000000000000000000000000000000000000000000600052604160045260246000fd5b6200051b82620004d0565b810181811067ffffffffffffffff821117156200053d576200053c620004e1565b5b80604052505050565b60006200055262000457565b905062000560828262000510565b919050565b600067ffffffffffffffff821115620005835762000582620004e1565b5b602082029050919050565b600080fd5b6000620005aa620005a48462000565565b62000546565b90508060208402830185811115620005c757620005c66200058e565b5b835b81811015620005f45780620005df8882620004b4565b845260208401935050602081019050620005c9565b5050509392505050565b600082601f830112620006165762000615620004cb565b5b60026200062584828562000593565b91505092915050565b6000806060838503121562000648576200064762000461565b5b60006200065885828601620004b4565b92505060206200066b85828601620005fe565b9150509250929050565b6000819050919050565b6000819050919050565b60008160001b9050919050565b6000620006b7620006b1620006ab8462000675565b62000689565b6200067f565b9050919050565b620006c98162000696565b82525050565b6000602082019050620006e66000830184620006be565b92915050565b6000819050919050565b6200070181620006ec565b81146200070d57600080fd5b50565b6000815190506200072181620006f6565b92915050565b60006020828403121562000740576200073f62000461565b5b6000620007508482850162000710565b91505092915050565b6200076481620006ec565b82525050565b600060208201905062000781600083018462000759565b92915050565b608051612770620007aa60003960008181610eb501526111e401526127706000f3fe608060405234801561001057600080fd5b50600436106101cf5760003560e01c80637065cb4811610104578063b6994144116100a2578063d66bd52411610071578063d66bd524146104f2578063e15c58a414610522578063e5a70ef714610540578063e63a391f1461055e576101cf565b8063b69941441461047c578063cff0ab961461049a578063d4b0dbdd146104b8578063d547741f146104d6576101cf565b80638aee4cfe116100de5780638aee4cfe146103f657806391d14854146104125780639f1d0f5914610442578063a217fddf1461045e576101cf565b80637065cb481461039e578063750f198a146103ba57806387b6f0d2146103d8576101cf565b806336568abe11610171578063476343ee1161014b578063476343ee146103185780634b0bbaa4146103225780634e9c11181461033e5780636ba42aaa1461036e576101cf565b806336568abe146102c45780633dc577a9146102e05780634032b72b146102fc576101cf565b8063248a9ca3116101ad578063248a9ca31461022a5780632f2ff15d1461025a5780632f54bf6e14610276578063364bc15a146102a6576101cf565b806301ffc9a7146101d4578063057079531461020457806314ae9f2e1461020e575b600080fd5b6101ee60048036038101906101e991906117ec565b61057c565b6040516101fb9190611834565b60405180910390f35b61020c6105f6565b005b610228600480360381019061022391906118ad565b6106c5565b005b610244600480360381019061023f9190611910565b6106f2565b604051610251919061194c565b60405180910390f35b610274600480360381019061026f9190611967565b610711565b005b610290600480360381019061028b91906118ad565b610733565b60405161029d9190611834565b60405180910390f35b6102ae610749565b6040516102bb919061194c565b60405180910390f35b6102de60048036038101906102d99190611967565b61076d565b005b6102fa60048036038101906102f591906118ad565b6107e8565b005b610316600480360381019061031191906118ad565b6107f8565b005b610320610825565b005b61033c600480360381019061033791906119dd565b610a05565b005b610358600480360381019061035391906119dd565b610add565b6040516103659190611a19565b60405180910390f35b610388600480360381019061038391906118ad565b610b13565b6040516103959190611834565b60405180910390f35b6103b860048036038101906103b391906118ad565b610b46565b005b6103c2610b56565b6040516103cf9190611a43565b60405180910390f35b6103e0610b5d565b6040516103ed9190611a43565b60405180910390f35b610410600480360381019061040b9190611a97565b610b63565b005b61042c60048036038101906104279190611967565b610c37565b6040516104399190611834565b60405180910390f35b61045c60048036038101906104579190611b02565b610ca1565b005b610466611188565b604051610473919061194c565b60405180910390f35b61048461118f565b6040516104919190611a43565b60405180910390f35b6104a2611194565b6040516104af9190611bb4565b60405180910390f35b6104c061119e565b6040516104cd9190611bf0565b60405180910390f35b6104f060048036038101906104eb9190611967565b6111a8565b005b61050c600480360381019061050791906118ad565b6111ca565b6040516105199190611a43565b60405180910390f35b61052a6111e2565b6040516105379190611a19565b60405180910390f35b610548611206565b6040516105559190611a43565b60405180910390f35b61056661120c565b6040516105739190611a43565b60405180910390f35b60007f7965db0b000000000000000000000000000000000000000000000000000000007bffffffffffffffffffffffffffffffffffffffffffffffffffffffff1916827bffffffffffffffffffffffffffffffffffffffffffffffffffffffff191614806105ef57506105ee82611212565b5b9050919050565b65506172616d7373ffffffffffffffffffffffffffffffffffffffff16638eaa6ac06d626173652d6761732d70726963656040518263ffffffff1660e01b81526004016106439190611c53565b602060405180830381865afa158015610660573d6000803e3d6000fd5b505050506040513d601f19601f820116820180604052508101906106849190611c83565b6004819055507f9e80beb690c9b039ef1aded51d16690f35068933fb71a9b56cc944e02ced07b06004546040516106bb9190611a43565b60405180910390a1565b6106ef7ffc8737ab85eb45125971625a9ebdb75cc78e01d5c1fa80c4c6e5203f47bc4fab826111a8565b50565b6000806000838152602001908152602001600020600101549050919050565b61071a826106f2565b6107238161127c565b61072d8383611290565b50505050565b60006107426000801b83610c37565b9050919050565b7ffc8737ab85eb45125971625a9ebdb75cc78e01d5c1fa80c4c6e5203f47bc4fab81565b610775611381565b73ffffffffffffffffffffffffffffffffffffffff168173ffffffffffffffffffffffffffffffffffffffff16146107d9576040517f6697b23200000000000000000000000000000000000000000000000000000000815260040160405180910390fd5b6107e38282611389565b505050565b6107f56000801b8261076d565b50565b6108227ffc8737ab85eb45125971625a9ebdb75cc78e01d5c1fa80c4c6e5203f47bc4fab82610711565b50565b61082e33610733565b61086d576040517f08c379a000000000000000000000000000000000000000000000000000000000815260040161086490611d0d565b60405180910390fd5b600065456e6572677973ffffffffffffffffffffffffffffffffffffffff166370a08231306040518263ffffffff1660e01b81526004016108ae9190611a19565b602060405180830381865afa1580156108cb573d6000803e3d6000fd5b505050506040513d601f19601f820116820180604052508101906108ef9190611c83565b905065456e6572677973ffffffffffffffffffffffffffffffffffffffff1663a9059cbb33836040518363ffffffff1660e01b8152600401610932929190611d2d565b6020604051808303816000875af1158015610951573d6000803e3d6000fd5b505050506040513d601f19601f820116820180604052508101906109759190611d82565b6109b4576040517f08c379a00000000000000000000000000000000000000000000000000000000081526004016109ab90611dfb565b60405180910390fd5b3373ffffffffffffffffffffffffffffffffffffffff167f9bba815921f12cb7b1408e14b5ade745234397d39623ae5e7c82d693cb45815f826040516109fa9190611a43565b60405180910390a250565b60008111610a48576040517f08c379a0000000000000000000000000000000000000000000000000000000008152600401610a3f90611e67565b60405180910390fd5b80600560003373ffffffffffffffffffffffffffffffffffffffff1673ffffffffffffffffffffffffffffffffffffffff168152602001908152602001600020819055503373ffffffffffffffffffffffffffffffffffffffff167f7cf7f245e0ac9ee076d209114cedb03ee23c22f397ad7c400bfc99bbfa88593382604051610ad29190611a43565b60405180910390a250565b60018160028110610aed57600080fd5b016000915054906101000a900473ffffffffffffffffffffffffffffffffffffffff1681565b6000610b3f7ffc8737ab85eb45125971625a9ebdb75cc78e01d5c1fa80c4c6e5203f47bc4fab83610c37565b9050919050565b610b536000801b82610711565b50565b62045e5881565b60045481565b610b6c33610733565b610bab576040517f08c379a0000000000000000000000000000000000000000000000000000000008152600401610ba290611d0d565b60405180910390fd5b601e8160ff161115610bf2576040517f08c379a0000000000000000000000000000000000000000000000000000000008152600401610be990611ed3565b60405180910390fd5b8060ff166003819055507e172ddfc5ae88d08b3de01a5a187667c37a5a53989e8c175055cb6c993792a7600354604051610c2c9190611a43565b60405180910390a150565b600080600084815260200190815260200160002060000160008373ffffffffffffffffffffffffffffffffffffffff1673ffffffffffffffffffffffffffffffffffffffff16815260200190815260200160002060009054906101000a900460ff16905092915050565b610caa33610b13565b610ce9576040517f08c379a0000000000000000000000000000000000000000000000000000000008152600401610ce090611f3f565b60405180910390fd5b610cf3838361147b565b65456e6572677973ffffffffffffffffffffffffffffffffffffffff166323b872dd8430856040518463ffffffff1660e01b8152600401610d3693929190611f80565b6020604051808303816000875af1158015610d55573d6000803e3d6000fd5b505050506040513d601f19601f82011682018060405250810190610d799190611d82565b610db8576040517f08c379a0000000000000000000000000000000000000000000000000000000008152600401610daf90612003565b60405180910390fd5b60003a62045e58610dc99190612052565b905060006127106003548386610ddf9190612094565b610de99190612052565b610df391906120f7565b90506000818386610e049190612094565b610e0e9190612094565b90506000600267ffffffffffffffff811115610e2d57610e2c612128565b5b604051908082528060200260200182016040528015610e5b5781602001602082028036833780820191505090505b50905065456e6572677981600081518110610e7957610e78612157565b5b602002602001019073ffffffffffffffffffffffffffffffffffffffff16908173ffffffffffffffffffffffffffffffffffffffff16815250507f000000000000000000000000000000000000000000000000000000000000000081600181518110610ee857610ee7612157565b5b602002602001019073ffffffffffffffffffffffffffffffffffffffff16908173ffffffffffffffffffffffffffffffffffffffff1681525050600080610f2f83856115d4565b9150915086811015610f76576040517f08c379a0000000000000000000000000000000000000000000000000000000008152600401610f6d906121f8565b60405180910390fd5b65456e6572677973ffffffffffffffffffffffffffffffffffffffff1663095ea7b383866040518363ffffffff1660e01b8152600401610fb7929190611d2d565b6020604051808303816000875af1158015610fd6573d6000803e3d6000fd5b505050506040513d601f19601f82011682018060405250810190610ffa9190611d82565b611039576040517f08c379a000000000000000000000000000000000000000000000000000000000815260040161103090612264565b60405180910390fd5b60008273ffffffffffffffffffffffffffffffffffffffff166318cbafe5866103e86103de866110699190612052565b61107391906120f7565b878e426040518663ffffffff1660e01b8152600401611096959493929190612342565b6000604051808303816000875af11580156110b5573d6000803e3d6000fd5b505050506040513d6000823e3d601f19601f820116820180604052508101906110de91906124c6565b90508273ffffffffffffffffffffffffffffffffffffffff168a73ffffffffffffffffffffffffffffffffffffffff167f3fe84e6df58344329a18c304c0110e2a518d8c1dfce228cd1f78d11c59bb648c8b3a6003548b8b8f8a8a60018c516111479190612094565b8151811061115857611157612157565b5b602002602001015160405161117498979695949392919061250f565b60405180910390a350505050505050505050565b6000801b81565b601e81565b65506172616d7381565b65456e6572677981565b6111b1826106f2565b6111ba8161127c565b6111c48383611389565b50505050565b60056020528060005260406000206000915090505481565b7f000000000000000000000000000000000000000000000000000000000000000081565b60035481565b61271081565b60007f01ffc9a7000000000000000000000000000000000000000000000000000000007bffffffffffffffffffffffffffffffffffffffffffffffffffffffff1916827bffffffffffffffffffffffffffffffffffffffffffffffffffffffff1916149050919050565b61128d81611288611381565b61172f565b50565b600061129c8383610c37565b61137657600160008085815260200190815260200160002060000160008473ffffffffffffffffffffffffffffffffffffffff1673ffffffffffffffffffffffffffffffffffffffff16815260200190815260200160002060006101000a81548160ff021916908315150217905550611313611381565b73ffffffffffffffffffffffffffffffffffffffff168273ffffffffffffffffffffffffffffffffffffffff16847f2f8788117e7eff1d82e926ec794901d17c78024a50270940304540a733656f0d60405160405180910390a46001905061137b565b600090505b92915050565b600033905090565b60006113958383610c37565b1561147057600080600085815260200190815260200160002060000160008473ffffffffffffffffffffffffffffffffffffffff1673ffffffffffffffffffffffffffffffffffffffff16815260200190815260200160002060006101000a81548160ff02191690831515021790555061140d611381565b73ffffffffffffffffffffffffffffffffffffffff168273ffffffffffffffffffffffffffffffffffffffff16847ff6391f5c32d9c69d2a47ea670b442974b53935d1edc7fd64eb21e047a839171b60405160405180910390a460019050611475565b600090505b92915050565b6000600560008473ffffffffffffffffffffffffffffffffffffffff1673ffffffffffffffffffffffffffffffffffffffff16815260200190815260200160002054905060008111611502576040517f08c379a00000000000000000000000000000000000000000000000000000000081526004016114f9906125d9565b60405180910390fd5b808261150e91906125f9565b65456e6572677973ffffffffffffffffffffffffffffffffffffffff166370a08231856040518263ffffffff1660e01b815260040161154d9190611a19565b602060405180830381865afa15801561156a573d6000803e3d6000fd5b505050506040513d601f19601f8201168201806040525081019061158e9190611c83565b10156115cf576040517f08c379a00000000000000000000000000000000000000000000000000000000081526004016115c690612679565b60405180910390fd5b505050565b60008060008060005b60028110156116ea576000600182600281106115fc576115fb612157565b5b0160009054906101000a900473ffffffffffffffffffffffffffffffffffffffff16905060008173ffffffffffffffffffffffffffffffffffffffff1663d06ca61f898b6040518363ffffffff1660e01b815260040161165d929190612699565b600060405180830381865afa15801561167a573d6000803e3d6000fd5b505050506040513d6000823e3d601f19601f820116820180604052508101906116a391906124c6565b90506000816001815181106116bb576116ba612157565b5b60200260200101519050848111156116d4578395508094505b50505080806116e2906126c9565b9150506115dd565b50600182600281106116ff576116fe612157565b5b0160009054906101000a900473ffffffffffffffffffffffffffffffffffffffff16819350935050509250929050565b6117398282610c37565b61177c5780826040517fe2517d3f000000000000000000000000000000000000000000000000000000008152600401611773929190612711565b60405180910390fd5b5050565b6000604051905090565b600080fd5b600080fd5b60007fffffffff0000000000000000000000000000000000000000000000000000000082169050919050565b6117c981611794565b81146117d457600080fd5b50565b6000813590506117e6816117c0565b92915050565b6000602082840312156118025761180161178a565b5b6000611810848285016117d7565b91505092915050565b60008115159050919050565b61182e81611819565b82525050565b60006020820190506118496000830184611825565b92915050565b600073ffffffffffffffffffffffffffffffffffffffff82169050919050565b600061187a8261184f565b9050919050565b61188a8161186f565b811461189557600080fd5b50565b6000813590506118a781611881565b92915050565b6000602082840312156118c3576118c261178a565b5b60006118d184828501611898565b91505092915050565b6000819050919050565b6118ed816118da565b81146118f857600080fd5b50565b60008135905061190a816118e4565b92915050565b6000602082840312156119265761192561178a565b5b6000611934848285016118fb565b91505092915050565b611946816118da565b82525050565b6000602082019050611961600083018461193d565b92915050565b6000806040838503121561197e5761197d61178a565b5b600061198c858286016118fb565b925050602061199d85828601611898565b9150509250929050565b6000819050919050565b6119ba816119a7565b81146119c557600080fd5b50565b6000813590506119d7816119b1565b92915050565b6000602082840312156119f3576119f261178a565b5b6000611a01848285016119c8565b91505092915050565b611a138161186f565b82525050565b6000602082019050611a2e6000830184611a0a565b92915050565b611a3d816119a7565b82525050565b6000602082019050611a586000830184611a34565b92915050565b600060ff82169050919050565b611a7481611a5e565b8114611a7f57600080fd5b50565b600081359050611a9181611a6b565b92915050565b600060208284031215611aad57611aac61178a565b5b6000611abb84828501611a82565b91505092915050565b6000611acf8261184f565b9050919050565b611adf81611ac4565b8114611aea57600080fd5b50565b600081359050611afc81611ad6565b92915050565b600080600060608486031215611b1b57611b1a61178a565b5b6000611b2986828701611aed565b9350506020611b3a868287016119c8565b9250506040611b4b868287016119c8565b9150509250925092565b6000819050919050565b6000611b7a611b75611b708461184f565b611b55565b61184f565b9050919050565b6000611b8c82611b5f565b9050919050565b6000611b9e82611b81565b9050919050565b611bae81611b93565b82525050565b6000602082019050611bc96000830184611ba5565b92915050565b6000611bda82611b81565b9050919050565b611bea81611bcf565b82525050565b6000602082019050611c056000830184611be1565b92915050565b6000819050919050565b60008160001b9050919050565b6000611c3d611c38611c3384611c0b565b611c15565b6118da565b9050919050565b611c4d81611c22565b82525050565b6000602082019050611c686000830184611c44565b92915050565b600081519050611c7d816119b1565b92915050565b600060208284031215611c9957611c9861178a565b5b6000611ca784828501611c6e565b91505092915050565b600082825260208201905092915050565b7f526f6c65733a206163636f756e74206973206e6f74206f776e65720000000000600082015250565b6000611cf7601b83611cb0565b9150611d0282611cc1565b602082019050919050565b60006020820190508181036000830152611d2681611cea565b9050919050565b6000604082019050611d426000830185611a0a565b611d4f6020830184611a34565b9392505050565b611d5f81611819565b8114611d6a57600080fd5b50565b600081519050611d7c81611d56565b92915050565b600060208284031215611d9857611d9761178a565b5b6000611da684828501611d6d565b91505092915050565b7f5472616465723a2077697468647261772066656573206661696c656400000000600082015250565b6000611de5601c83611cb0565b9150611df082611daf565b602082019050919050565b60006020820190508181036000830152611e1481611dd8565b9050919050565b7f5472616465723a20696e76616c69642072657365727665000000000000000000600082015250565b6000611e51601783611cb0565b9150611e5c82611e1b565b602082019050919050565b60006020820190508181036000830152611e8081611e44565b9050919050565b7f5472616465723a20696e76616c696420666565206d756c7469706c6965720000600082015250565b6000611ebd601e83611cb0565b9150611ec882611e87565b602082019050919050565b60006020820190508181036000830152611eec81611eb0565b9050919050565b7f526f6c65733a206163636f756e74206973206e6f74206b656570657200000000600082015250565b6000611f29601c83611cb0565b9150611f3482611ef3565b602082019050919050565b60006020820190508181036000830152611f5881611f1c565b9050919050565b6000611f6a82611b81565b9050919050565b611f7a81611f5f565b82525050565b6000606082019050611f956000830186611f71565b611fa26020830185611a0a565b611faf6040830184611a34565b949350505050565b7f5472616465723a207472616e736665722066726f6d206661696c656400000000600082015250565b6000611fed601c83611cb0565b9150611ff882611fb7565b602082019050919050565b6000602082019050818103600083015261201c81611fe0565b9050919050565b7f4e487b7100000000000000000000000000000000000000000000000000000000600052601160045260246000fd5b600061205d826119a7565b9150612068836119a7565b9250828202612076816119a7565b9150828204841483151761208d5761208c612023565b5b5092915050565b600061209f826119a7565b91506120aa836119a7565b92508282039050818111156120c2576120c1612023565b5b92915050565b7f4e487b7100000000000000000000000000000000000000000000000000000000600052601260045260246000fd5b6000612102826119a7565b915061210d836119a7565b92508261211d5761211c6120c8565b5b828204905092915050565b7f4e487b7100000000000000000000000000000000000000000000000000000000600052604160045260246000fd5b7f4e487b7100000000000000000000000000000000000000000000000000000000600052603260045260246000fd5b7f5472616465723a20616d6f756e74206f757420657870656374656420746f6f2060008201527f6c6f770000000000000000000000000000000000000000000000000000000000602082015250565b60006121e2602383611cb0565b91506121ed82612186565b604082019050919050565b60006020820190508181036000830152612211816121d5565b9050919050565b7f5472616465723a20617070726f7665206661696c656400000000000000000000600082015250565b600061224e601683611cb0565b915061225982612218565b602082019050919050565b6000602082019050818103600083015261227d81612241565b9050919050565b600081519050919050565b600082825260208201905092915050565b6000819050602082019050919050565b6122b98161186f565b82525050565b60006122cb83836122b0565b60208301905092915050565b6000602082019050919050565b60006122ef82612284565b6122f9818561228f565b9350612304836122a0565b8060005b8381101561233557815161231c88826122bf565b9750612327836122d7565b925050600181019050612308565b5085935050505092915050565b600060a0820190506123576000830188611a34565b6123646020830187611a34565b818103604083015261237681866122e4565b90506123856060830185611f71565b6123926080830184611a34565b9695505050505050565b600080fd5b6000601f19601f8301169050919050565b6123bb826123a1565b810181811067ffffffffffffffff821117156123da576123d9612128565b5b80604052505050565b60006123ed611780565b90506123f982826123b2565b919050565b600067ffffffffffffffff82111561241957612418612128565b5b602082029050602081019050919050565b600080fd5b600061244261243d846123fe565b6123e3565b905080838252602082019050602084028301858111156124655761246461242a565b5b835b8181101561248e578061247a8882611c6e565b845260208401935050602081019050612467565b5050509392505050565b600082601f8301126124ad576124ac61239c565b5b81516124bd84826020860161242f565b91505092915050565b6000602082840312156124dc576124db61178a565b5b600082015167ffffffffffffffff8111156124fa576124f961178f565b5b61250684828501612498565b91505092915050565b600061010082019050612525600083018b611a34565b612532602083018a611a34565b61253f6040830189611a34565b61254c6060830188611a34565b6125596080830187611a34565b61256660a0830186611a34565b61257360c0830185611a34565b61258060e0830184611a34565b9998505050505050505050565b7f5472616465723a2072657365727665206e6f7420696e697469616c697a656400600082015250565b60006125c3601f83611cb0565b91506125ce8261258d565b602082019050919050565b600060208201905081810360008301526125f2816125b6565b9050919050565b6000612604826119a7565b915061260f836119a7565b925082820190508082111561262757612626612023565b5b92915050565b7f5472616465723a20696e73756666696369656e742062616c616e636500000000600082015250565b6000612663601c83611cb0565b915061266e8261262d565b602082019050919050565b6000602082019050818103600083015261269281612656565b9050919050565b60006040820190506126ae6000830185611a34565b81810360208301526126c081846122e4565b90509392505050565b60006126d4826119a7565b91507fffffffffffffffffffffffffffffffffffffffffffffffffffffffffffffffff820361270657612705612023565b5b600182019050919050565b60006040820190506127266000830185611a0a565b612733602083018461193d565b939250505056fea264697066735822122081cf830374358f099f7a116041b38c1a38277e640e3f0b4044f706666f4f973d64736f6c63430008140033",
  "linkReferences": {},
  "deployedLinkReferences": {}
}