{
  "_format": "hh-sol-artifact-1",
  "contractName": "Trader",
  "sourceName": "contracts/Trader.sol",
  "abi": [
    {
      "inputs": [
        {
          "internalType": "address",
          "name": "routerAddress",
          "type": "address"
        }
      ],
      "stateMutability": "nonpayable",
      "type": "constructor"
    },
    {
      "anonymous": false,
      "inputs": [
        {
          "indexed": true,
          "internalType": "address",
          "name": "account",
          "type": "address"
        },
        {
          "indexed": false,
          "internalType": "uint256",
          "name": "triggerBalance",
          "type": "uint256"
        },
        {
          "indexed": false,
          "internalType": "uint256",
          "name": "reserveBalance",
          "type": "uint256"
        }
      ],
      "name": "Config",
      "type": "event"
    },
    {
      "anonymous": false,
      "inputs": [
        {
          "indexed": false,
          "internalType": "uint256",
          "name": "gasprice",
          "type": "uint256"
        }
      ],
      "name": "Gas",
      "type": "event"
    },
    {
      "anonymous": false,
      "inputs": [
        {
          "indexed": true,
          "internalType": "address",
          "name": "account",
          "type": "address"
        },
        {
          "indexed": false,
          "internalType": "uint256",
          "name": "withdrawAmount",
          "type": "uint256"
        },
        {
          "indexed": false,
          "internalType": "uint256",
          "name": "fees",
          "type": "uint256"
        },
        {
          "indexed": false,
          "internalType": "uint256",
          "name": "maxRate",
          "type": "uint256"
        },
        {
          "indexed": false,
          "internalType": "uint256",
          "name": "amountOutMin",
          "type": "uint256"
        },
        {
          "indexed": false,
          "internalType": "uint256",
          "name": "amountOut",
          "type": "uint256"
        }
      ],
      "name": "Swap",
      "type": "event"
    },
    {
      "anonymous": false,
      "inputs": [
        {
          "indexed": true,
          "internalType": "address",
          "name": "to",
          "type": "address"
        },
        {
          "indexed": false,
          "internalType": "uint256",
          "name": "amount",
          "type": "uint256"
        }
      ],
      "name": "Withdraw",
      "type": "event"
    },
    {
      "inputs": [],
      "name": "MAX_VTHO_WITHDRAWAL_AMOUNT",
      "outputs": [
        {
          "internalType": "uint256",
          "name": "",
          "type": "uint256"
        }
      ],
      "stateMutability": "view",
      "type": "function"
    },
    {
      "inputs": [
        {
          "internalType": "address",
          "name": "",
          "type": "address"
        }
      ],
      "name": "addressToConfig",
      "outputs": [
        {
          "internalType": "uint256",
          "name": "triggerBalance",
          "type": "uint256"
        },
        {
          "internalType": "uint256",
          "name": "reserveBalance",
          "type": "uint256"
        }
      ],
      "stateMutability": "view",
      "type": "function"
    },
    {
      "inputs": [],
      "name": "owner",
      "outputs": [
        {
          "internalType": "address payable",
          "name": "",
          "type": "address"
        }
      ],
      "stateMutability": "view",
      "type": "function"
    },
    {
      "inputs": [],
      "name": "router",
      "outputs": [
        {
          "internalType": "contract IUniswapV2Router02",
          "name": "",
          "type": "address"
        }
      ],
      "stateMutability": "view",
      "type": "function"
    },
    {
      "inputs": [
        {
          "internalType": "uint256",
          "name": "triggerBalance",
          "type": "uint256"
        },
        {
          "internalType": "uint256",
          "name": "reserveBalance",
          "type": "uint256"
        }
      ],
      "name": "saveConfig",
      "outputs": [],
      "stateMutability": "nonpayable",
      "type": "function"
    },
    {
      "inputs": [
        {
          "internalType": "address payable",
          "name": "account",
          "type": "address"
        },
        {
          "internalType": "uint256",
          "name": "maxRate",
          "type": "uint256"
        }
      ],
      "name": "swap",
      "outputs": [],
      "stateMutability": "nonpayable",
      "type": "function"
    },
    {
      "inputs": [],
      "name": "vtho",
      "outputs": [
        {
          "internalType": "contract IEnergy",
          "name": "",
          "type": "address"
        }
      ],
      "stateMutability": "view",
      "type": "function"
    },
    {
      "inputs": [],
      "name": "withdraw",
      "outputs": [],
      "stateMutability": "nonpayable",
      "type": "function"
    }
  ],
  "bytecode": "0x60806040523480156200001157600080fd5b5060405162001ba638038062001ba6833981810160405281019062000037919062000149565b600073ffffffffffffffffffffffffffffffffffffffff168173ffffffffffffffffffffffffffffffffffffffff161415620000aa576040517f08c379a0000000000000000000000000000000000000000000000000000000008152600401620000a1906200019c565b60405180910390fd5b33600160006101000a81548173ffffffffffffffffffffffffffffffffffffffff021916908373ffffffffffffffffffffffffffffffffffffffff160217905550806000806101000a81548173ffffffffffffffffffffffffffffffffffffffff021916908373ffffffffffffffffffffffffffffffffffffffff1602179055505062000246565b60008151905062000143816200022c565b92915050565b6000602082840312156200015c57600080fd5b60006200016c8482850162000132565b91505092915050565b600062000184601683620001be565b9150620001918262000203565b602082019050919050565b60006020820190508181036000830152620001b78162000175565b9050919050565b600082825260208201905092915050565b6000620001dc82620001e3565b9050919050565b600073ffffffffffffffffffffffffffffffffffffffff82169050919050565b7f5472616465723a20726f75746572206e6f742073657400000000000000000000600082015250565b6200023781620001cf565b81146200024357600080fd5b50565b61195080620002566000396000f3fe608060405234801561001057600080fd5b50600436106100885760003560e01c8063d004f0f71161005b578063d004f0f714610102578063d4b0dbdd1461011e578063e3e96a1d1461013c578063f887ea401461015a57610088565b80633ccfd60b1461008d57806351fddfa9146100975780638da5cb5b146100c85780639c70803b146100e6575b600080fd5b610095610178565b005b6100b160048036038101906100ac9190610e54565b610318565b6040516100bf9291906113d3565b60405180910390f35b6100d061033c565b6040516100dd91906111de565b60405180910390f35b61010060048036038101906100fb9190610f75565b610362565b005b61011c60048036038101906101179190610ea6565b6104e9565b005b610126610cec565b6040516101339190611282565b60405180910390f35b610144610cf6565b60405161015191906113b8565b60405180910390f35b610162610d03565b60405161016f919061129d565b60405180910390f35b600160009054906101000a900473ffffffffffffffffffffffffffffffffffffffff1673ffffffffffffffffffffffffffffffffffffffff163373ffffffffffffffffffffffffffffffffffffffff16146101d257600080fd5b65456e6572677973ffffffffffffffffffffffffffffffffffffffff1663a9059cbb600160009054906101000a900473ffffffffffffffffffffffffffffffffffffffff1665456e6572677973ffffffffffffffffffffffffffffffffffffffff166370a08231306040518263ffffffff1660e01b815260040161025691906111a8565b60206040518083038186803b15801561026e57600080fd5b505afa158015610282573d6000803e3d6000fd5b505050506040513d601f19601f820116820180604052508101906102a69190610f4c565b6040518363ffffffff1660e01b81526004016102c3929190611230565b602060405180830381600087803b1580156102dd57600080fd5b505af11580156102f1573d6000803e3d6000fd5b505050506040513d601f19601f820116820180604052508101906103159190610f23565b50565b60026020528060005260406000206000915090508060000154908060010154905082565b600160009054906101000a900473ffffffffffffffffffffffffffffffffffffffff1681565b600082116103a5576040517f08c379a000000000000000000000000000000000000000000000000000000000815260040161039c90611318565b60405180910390fd5b600081116103e8576040517f08c379a00000000000000000000000000000000000000000000000000000000081526004016103df90611398565b60405180910390fd5b80821161042a576040517f08c379a0000000000000000000000000000000000000000000000000000000008152600401610421906112b8565b60405180910390fd5b604051806040016040528083815260200182815250600260003373ffffffffffffffffffffffffffffffffffffffff1673ffffffffffffffffffffffffffffffffffffffff16815260200190815260200160002060008201518160000155602082015181600101559050503373ffffffffffffffffffffffffffffffffffffffff167fb9bfe6dda7ddbc49d12288ef1e5d501c902797a01fc2bba856601b70e874cbb883836040516104dd9291906113d3565b60405180910390a25050565b6000600260008473ffffffffffffffffffffffffffffffffffffffff1673ffffffffffffffffffffffffffffffffffffffff1681526020019081526020016000206040518060400160405290816000820154815260200160018201548152505090506000816000015111610592576040517f08c379a0000000000000000000000000000000000000000000000000000000008152600401610589906112f8565b60405180910390fd5b60008160200151116105d9576040517f08c379a00000000000000000000000000000000000000000000000000000000081526004016105d090611338565b60405180910390fd5b806000015165456e6572677973ffffffffffffffffffffffffffffffffffffffff166370a08231856040518263ffffffff1660e01b815260040161061d91906111c3565b60206040518083038186803b15801561063557600080fd5b505afa158015610649573d6000803e3d6000fd5b505050506040513d601f19601f8201168201806040525081019061066d9190610f4c565b10156106ae576040517f08c379a00000000000000000000000000000000000000000000000000000000081526004016106a590611358565b60405180910390fd5b6000610760683635c9adc5dea00000836020015165456e6572677973ffffffffffffffffffffffffffffffffffffffff166370a08231886040518263ffffffff1660e01b815260040161070191906111c3565b60206040518083038186803b15801561071957600080fd5b505afa15801561072d573d6000803e3d6000fd5b505050506040513d601f19601f820116820180604052508101906107519190610f4c565b61075b9190611575565b610d27565b905065456e6572677973ffffffffffffffffffffffffffffffffffffffff166323b872dd8530846040518463ffffffff1660e01b81526004016107a5939291906111f9565b602060405180830381600087803b1580156107bf57600080fd5b505af11580156107d3573d6000803e3d6000fd5b505050506040513d601f19601f820116820180604052508101906107f79190610f23565b610836576040517f08c379a000000000000000000000000000000000000000000000000000000000815260040161082d90611378565b60405180910390fd5b60008081836108459190611575565b9050600085826108559190611544565b905065456e6572677973ffffffffffffffffffffffffffffffffffffffff1663095ea7b360008054906101000a900473ffffffffffffffffffffffffffffffffffffffff16846040518363ffffffff1660e01b81526004016108b8929190611259565b602060405180830381600087803b1580156108d257600080fd5b505af11580156108e6573d6000803e3d6000fd5b505050506040513d601f19601f8201168201806040525081019061090a9190610f23565b610949576040517f08c379a0000000000000000000000000000000000000000000000000000000008152600401610940906112d8565b60405180910390fd5b6000600267ffffffffffffffff81111561098c577f4e487b7100000000000000000000000000000000000000000000000000000000600052604160045260246000fd5b6040519080825280602002602001820160405280156109ba5781602001602082028036833780820191505090505b50905065456e65726779816000815181106109fe577f4e487b7100000000000000000000000000000000000000000000000000000000600052603260045260246000fd5b602002602001019073ffffffffffffffffffffffffffffffffffffffff16908173ffffffffffffffffffffffffffffffffffffffff168152505060008054906101000a900473ffffffffffffffffffffffffffffffffffffffff1673ffffffffffffffffffffffffffffffffffffffff1663ad5c46486040518163ffffffff1660e01b815260040160206040518083038186803b158015610a9e57600080fd5b505afa158015610ab2573d6000803e3d6000fd5b505050506040513d601f19601f82011682018060405250810190610ad69190610e7d565b81600181518110610b10577f4e487b7100000000000000000000000000000000000000000000000000000000600052603260045260246000fd5b602002602001019073ffffffffffffffffffffffffffffffffffffffff16908173ffffffffffffffffffffffffffffffffffffffff168152505060008060009054906101000a900473ffffffffffffffffffffffffffffffffffffffff1673ffffffffffffffffffffffffffffffffffffffff166318cbafe58585858d426040518663ffffffff1660e01b8152600401610bae9594939291906113fc565b600060405180830381600087803b158015610bc857600080fd5b505af1158015610bdc573d6000803e3d6000fd5b505050506040513d6000823e3d601f19601f82011682018060405250810190610c059190610ee2565b90508873ffffffffffffffffffffffffffffffffffffffff167f6d2535bccee43630e01014525de773080b47e1a82c56ef6a30802933a48c9e3487878b878660018851610c529190611575565b81518110610c89577f4e487b7100000000000000000000000000000000000000000000000000000000600052603260045260246000fd5b6020026020010151604051610ca2959493929190611456565b60405180910390a27ff0fadcd9d25528e430e4862a6cc65c4af97cc5bc42e413e0fcd026d40345a6df3a604051610cd991906113b8565b60405180910390a1505050505050505050565b65456e6572677981565b683635c9adc5dea0000081565b60008054906101000a900473ffffffffffffffffffffffffffffffffffffffff1681565b6000818310610d365781610d38565b825b905092915050565b6000610d53610d4e846114ce565b6114a9565b90508083825260208201905082856020860282011115610d7257600080fd5b60005b85811015610da25781610d888882610e3f565b845260208401935060208301925050600181019050610d75565b5050509392505050565b600081359050610dbb816118be565b92915050565b600081519050610dd0816118be565b92915050565b600081359050610de5816118d5565b92915050565b600082601f830112610dfc57600080fd5b8151610e0c848260208601610d40565b91505092915050565b600081519050610e24816118ec565b92915050565b600081359050610e3981611903565b92915050565b600081519050610e4e81611903565b92915050565b600060208284031215610e6657600080fd5b6000610e7484828501610dac565b91505092915050565b600060208284031215610e8f57600080fd5b6000610e9d84828501610dc1565b91505092915050565b60008060408385031215610eb957600080fd5b6000610ec785828601610dd6565b9250506020610ed885828601610e2a565b9150509250929050565b600060208284031215610ef457600080fd5b600082015167ffffffffffffffff811115610f0e57600080fd5b610f1a84828501610deb565b91505092915050565b600060208284031215610f3557600080fd5b6000610f4384828501610e15565b91505092915050565b600060208284031215610f5e57600080fd5b6000610f6c84828501610e3f565b91505092915050565b60008060408385031215610f8857600080fd5b6000610f9685828601610e2a565b9250506020610fa785828601610e2a565b9150509250929050565b6000610fbd8383610fe7565b60208301905092915050565b610fd281611603565b82525050565b610fe1816115bb565b82525050565b610ff0816115a9565b82525050565b610fff816115a9565b82525050565b60006110108261150a565b61101a8185611522565b9350611025836114fa565b8060005b8381101561105657815161103d8882610fb1565b975061104883611515565b925050600181019050611029565b5085935050505092915050565b61106c81611615565b82525050565b61107b81611639565b82525050565b600061108e601683611533565b915061109982611750565b602082019050919050565b60006110b1601783611533565b91506110bc82611779565b602082019050919050565b60006110d4601e83611533565b91506110df826117a2565b602082019050919050565b60006110f7601e83611533565b9150611102826117cb565b602082019050919050565b600061111a601e83611533565b9150611125826117f4565b602082019050919050565b600061113d602283611533565b91506111488261181d565b604082019050919050565b6000611160601b83611533565b915061116b8261186c565b602082019050919050565b6000611183601e83611533565b915061118e82611895565b602082019050919050565b6111a2816115f9565b82525050565b60006020820190506111bd6000830184610ff6565b92915050565b60006020820190506111d86000830184610fc9565b92915050565b60006020820190506111f36000830184610fd8565b92915050565b600060608201905061120e6000830186610fc9565b61121b6020830185610ff6565b6112286040830184611199565b949350505050565b60006040820190506112456000830185610fc9565b6112526020830184611199565b9392505050565b600060408201905061126e6000830185610ff6565b61127b6020830184611199565b9392505050565b60006020820190506112976000830184611063565b92915050565b60006020820190506112b26000830184611072565b92915050565b600060208201905081810360008301526112d181611081565b9050919050565b600060208201905081810360008301526112f1816110a4565b9050919050565b60006020820190508181036000830152611311816110c7565b9050919050565b60006020820190508181036000830152611331816110ea565b9050919050565b600060208201905081810360008301526113518161110d565b9050919050565b6000602082019050818103600083015261137181611130565b9050919050565b6000602082019050818103600083015261139181611153565b9050919050565b600060208201905081810360008301526113b181611176565b9050919050565b60006020820190506113cd6000830184611199565b92915050565b60006040820190506113e86000830185611199565b6113f56020830184611199565b9392505050565b600060a0820190506114116000830188611199565b61141e6020830187611199565b81810360408301526114308186611005565b905061143f6060830185610fc9565b61144c6080830184611199565b9695505050505050565b600060a08201905061146b6000830188611199565b6114786020830187611199565b6114856040830186611199565b6114926060830185611199565b61149f6080830184611199565b9695505050505050565b60006114b36114c4565b90506114bf8282611681565b919050565b6000604051905090565b600067ffffffffffffffff8211156114e9576114e8611710565b5b602082029050602081019050919050565b6000819050602082019050919050565b600081519050919050565b6000602082019050919050565b600082825260208201905092915050565b600082825260208201905092915050565b600061154f826115f9565b915061155a836115f9565b92508261156a576115696116e1565b5b828204905092915050565b6000611580826115f9565b915061158b836115f9565b92508282101561159e5761159d6116b2565b5b828203905092915050565b60006115b4826115d9565b9050919050565b60006115c6826115d9565b9050919050565b60008115159050919050565b600073ffffffffffffffffffffffffffffffffffffffff82169050919050565b6000819050919050565b600061160e8261165d565b9050919050565b600061162082611627565b9050919050565b6000611632826115d9565b9050919050565b60006116448261164b565b9050919050565b6000611656826115d9565b9050919050565b60006116688261166f565b9050919050565b600061167a826115d9565b9050919050565b61168a8261173f565b810181811067ffffffffffffffff821117156116a9576116a8611710565b5b80604052505050565b7f4e487b7100000000000000000000000000000000000000000000000000000000600052601160045260246000fd5b7f4e487b7100000000000000000000000000000000000000000000000000000000600052601260045260246000fd5b7f4e487b7100000000000000000000000000000000000000000000000000000000600052604160045260246000fd5b6000601f19601f8301169050919050565b7f5472616465723a20696e76616c696420636f6e66696700000000000000000000600082015250565b7f5472616465723a20617070726f7665206661696c65642e000000000000000000600082015250565b7f5472616465723a207472696767657242616c616e6365206e6f74207365740000600082015250565b7f5472616465723a20696e76616c6964207472696767657242616c616e63650000600082015250565b7f5472616465723a207265736572766542616c616e6365206e6f74207365740000600082015250565b7f5472616465723a207472696767657242616c616e6365206e6f7420726561636860008201527f6564000000000000000000000000000000000000000000000000000000000000602082015250565b7f5472616465723a207472616e7366657246726f6d206661696c65640000000000600082015250565b7f5472616465723a20696e76616c6964207265736572766542616c616e63650000600082015250565b6118c7816115a9565b81146118d257600080fd5b50565b6118de816115bb565b81146118e957600080fd5b50565b6118f5816115cd565b811461190057600080fd5b50565b61190c816115f9565b811461191757600080fd5b5056fea2646970667358221220c3b3c3edead5ee179c39b3eaa48ed41e5a5f2947e46c28fd30be181f1991de1964736f6c63430008040033",
  "linkReferences": {},
  "deployedLinkReferences": {}
}