{
  "_format": "hh-sol-artifact-1",
  "contractName": "Trader",
  "sourceName": "contracts/Trader.sol",
  "abi": [
    {
      "inputs": [
        {
          "internalType": "contract IRouter[2]",
          "name": "routers_",
          "type": "address[2]"
        }
      ],
      "stateMutability": "nonpayable",
      "type": "constructor"
    },
    {
      "inputs": [],
      "name": "AccessControlBadConfirmation",
      "type": "error"
    },
    {
      "inputs": [
        {
          "internalType": "address",
          "name": "account",
          "type": "address"
        },
        {
          "internalType": "bytes32",
          "name": "neededRole",
          "type": "bytes32"
        }
      ],
      "name": "AccessControlUnauthorizedAccount",
      "type": "error"
    },
    {
      "anonymous": false,
      "inputs": [
        {
          "indexed": true,
          "internalType": "address",
          "name": "account",
          "type": "address"
        },
        {
          "indexed": false,
          "internalType": "uint256",
          "name": "reserveBalance",
          "type": "uint256"
        }
      ],
      "name": "Config",
      "type": "event"
    },
    {
      "anonymous": false,
      "inputs": [
        {
          "indexed": false,
          "internalType": "uint256",
          "name": "baseGasPrice",
          "type": "uint256"
        }
      ],
      "name": "FetchGas",
      "type": "event"
    },
    {
      "anonymous": false,
      "inputs": [
        {
          "indexed": true,
          "internalType": "bytes32",
          "name": "role",
          "type": "bytes32"
        },
        {
          "indexed": true,
          "internalType": "bytes32",
          "name": "previousAdminRole",
          "type": "bytes32"
        },
        {
          "indexed": true,
          "internalType": "bytes32",
          "name": "newAdminRole",
          "type": "bytes32"
        }
      ],
      "name": "RoleAdminChanged",
      "type": "event"
    },
    {
      "anonymous": false,
      "inputs": [
        {
          "indexed": true,
          "internalType": "bytes32",
          "name": "role",
          "type": "bytes32"
        },
        {
          "indexed": true,
          "internalType": "address",
          "name": "account",
          "type": "address"
        },
        {
          "indexed": true,
          "internalType": "address",
          "name": "sender",
          "type": "address"
        }
      ],
      "name": "RoleGranted",
      "type": "event"
    },
    {
      "anonymous": false,
      "inputs": [
        {
          "indexed": true,
          "internalType": "bytes32",
          "name": "role",
          "type": "bytes32"
        },
        {
          "indexed": true,
          "internalType": "address",
          "name": "account",
          "type": "address"
        },
        {
          "indexed": true,
          "internalType": "address",
          "name": "sender",
          "type": "address"
        }
      ],
      "name": "RoleRevoked",
      "type": "event"
    },
    {
      "anonymous": false,
      "inputs": [
        {
          "indexed": false,
          "internalType": "uint256",
          "name": "feeMultiplier",
          "type": "uint256"
        }
      ],
      "name": "SetFee",
      "type": "event"
    },
    {
      "anonymous": false,
      "inputs": [
        {
          "indexed": true,
          "internalType": "address",
          "name": "account",
          "type": "address"
        },
        {
          "indexed": true,
          "internalType": "address",
          "name": "router",
          "type": "address"
        },
        {
          "indexed": false,
          "internalType": "uint256",
          "name": "withdrawAmount",
          "type": "uint256"
        },
        {
          "indexed": false,
          "internalType": "uint256",
          "name": "gasPrice",
          "type": "uint256"
        },
        {
          "indexed": false,
          "internalType": "uint256",
          "name": "feeMultiplier",
          "type": "uint256"
        },
        {
          "indexed": false,
          "internalType": "uint256",
          "name": "protocolFee",
          "type": "uint256"
        },
        {
          "indexed": false,
          "internalType": "uint256",
          "name": "amountIn",
          "type": "uint256"
        },
        {
          "indexed": false,
          "internalType": "uint256",
          "name": "amountOutMin",
          "type": "uint256"
        },
        {
          "indexed": false,
          "internalType": "uint256",
          "name": "amountOutExpected",
          "type": "uint256"
        },
        {
          "indexed": false,
          "internalType": "uint256",
          "name": "amountOutReceived",
          "type": "uint256"
        }
      ],
      "name": "Swap",
      "type": "event"
    },
    {
      "anonymous": false,
      "inputs": [
        {
          "indexed": true,
          "internalType": "address",
          "name": "caller",
          "type": "address"
        },
        {
          "indexed": false,
          "internalType": "uint256",
          "name": "amount",
          "type": "uint256"
        }
      ],
      "name": "WithdrawFees",
      "type": "event"
    },
    {
      "inputs": [],
      "name": "DEFAULT_ADMIN_ROLE",
      "outputs": [
        {
          "internalType": "bytes32",
          "name": "",
          "type": "bytes32"
        }
      ],
      "stateMutability": "view",
      "type": "function"
    },
    {
      "inputs": [],
      "name": "FEE_PRECISION",
      "outputs": [
        {
          "internalType": "uint256",
          "name": "",
          "type": "uint256"
        }
      ],
      "stateMutability": "view",
      "type": "function"
    },
    {
      "inputs": [],
      "name": "KEEPER_ROLE",
      "outputs": [
        {
          "internalType": "bytes32",
          "name": "",
          "type": "bytes32"
        }
      ],
      "stateMutability": "view",
      "type": "function"
    },
    {
      "inputs": [],
      "name": "MAX_FEE_MULTIPLIER",
      "outputs": [
        {
          "internalType": "uint256",
          "name": "",
          "type": "uint256"
        }
      ],
      "stateMutability": "view",
      "type": "function"
    },
    {
      "inputs": [],
      "name": "SWAP_GAS",
      "outputs": [
        {
          "internalType": "uint256",
          "name": "",
          "type": "uint256"
        }
      ],
      "stateMutability": "view",
      "type": "function"
    },
    {
      "inputs": [
        {
          "internalType": "address",
          "name": "account",
          "type": "address"
        }
      ],
      "name": "addKeeper",
      "outputs": [],
      "stateMutability": "nonpayable",
      "type": "function"
    },
    {
      "inputs": [
        {
          "internalType": "address",
          "name": "account",
          "type": "address"
        }
      ],
      "name": "addOwner",
      "outputs": [],
      "stateMutability": "nonpayable",
      "type": "function"
    },
    {
      "inputs": [],
      "name": "baseGasPrice",
      "outputs": [
        {
          "internalType": "uint256",
          "name": "",
          "type": "uint256"
        }
      ],
      "stateMutability": "view",
      "type": "function"
    },
    {
      "inputs": [],
      "name": "feeMultiplier",
      "outputs": [
        {
          "internalType": "uint256",
          "name": "",
          "type": "uint256"
        }
      ],
      "stateMutability": "view",
      "type": "function"
    },
    {
      "inputs": [],
      "name": "fetchBaseGasPrice",
      "outputs": [],
      "stateMutability": "nonpayable",
      "type": "function"
    },
    {
      "inputs": [
        {
          "internalType": "bytes32",
          "name": "role",
          "type": "bytes32"
        }
      ],
      "name": "getRoleAdmin",
      "outputs": [
        {
          "internalType": "bytes32",
          "name": "",
          "type": "bytes32"
        }
      ],
      "stateMutability": "view",
      "type": "function"
    },
    {
      "inputs": [
        {
          "internalType": "bytes32",
          "name": "role",
          "type": "bytes32"
        },
        {
          "internalType": "address",
          "name": "account",
          "type": "address"
        }
      ],
      "name": "grantRole",
      "outputs": [],
      "stateMutability": "nonpayable",
      "type": "function"
    },
    {
      "inputs": [
        {
          "internalType": "bytes32",
          "name": "role",
          "type": "bytes32"
        },
        {
          "internalType": "address",
          "name": "account",
          "type": "address"
        }
      ],
      "name": "hasRole",
      "outputs": [
        {
          "internalType": "bool",
          "name": "",
          "type": "bool"
        }
      ],
      "stateMutability": "view",
      "type": "function"
    },
    {
      "inputs": [
        {
          "internalType": "address",
          "name": "account",
          "type": "address"
        }
      ],
      "name": "isKeeper",
      "outputs": [
        {
          "internalType": "bool",
          "name": "",
          "type": "bool"
        }
      ],
      "stateMutability": "view",
      "type": "function"
    },
    {
      "inputs": [
        {
          "internalType": "address",
          "name": "account",
          "type": "address"
        }
      ],
      "name": "isOwner",
      "outputs": [
        {
          "internalType": "bool",
          "name": "",
          "type": "bool"
        }
      ],
      "stateMutability": "view",
      "type": "function"
    },
    {
      "inputs": [],
      "name": "params",
      "outputs": [
        {
          "internalType": "contract IParams",
          "name": "",
          "type": "address"
        }
      ],
      "stateMutability": "view",
      "type": "function"
    },
    {
      "inputs": [
        {
          "internalType": "address",
          "name": "account",
          "type": "address"
        }
      ],
      "name": "removeKeeper",
      "outputs": [],
      "stateMutability": "nonpayable",
      "type": "function"
    },
    {
      "inputs": [
        {
          "internalType": "address",
          "name": "callerConfirmation",
          "type": "address"
        }
      ],
      "name": "renounceOwner",
      "outputs": [],
      "stateMutability": "nonpayable",
      "type": "function"
    },
    {
      "inputs": [
        {
          "internalType": "bytes32",
          "name": "role",
          "type": "bytes32"
        },
        {
          "internalType": "address",
          "name": "callerConfirmation",
          "type": "address"
        }
      ],
      "name": "renounceRole",
      "outputs": [],
      "stateMutability": "nonpayable",
      "type": "function"
    },
    {
      "inputs": [
        {
          "internalType": "address",
          "name": "",
          "type": "address"
        }
      ],
      "name": "reserves",
      "outputs": [
        {
          "internalType": "uint256",
          "name": "",
          "type": "uint256"
        }
      ],
      "stateMutability": "view",
      "type": "function"
    },
    {
      "inputs": [
        {
          "internalType": "bytes32",
          "name": "role",
          "type": "bytes32"
        },
        {
          "internalType": "address",
          "name": "account",
          "type": "address"
        }
      ],
      "name": "revokeRole",
      "outputs": [],
      "stateMutability": "nonpayable",
      "type": "function"
    },
    {
      "inputs": [
        {
          "internalType": "uint256",
          "name": "",
          "type": "uint256"
        }
      ],
      "name": "routers",
      "outputs": [
        {
          "internalType": "contract IRouter",
          "name": "",
          "type": "address"
        }
      ],
      "stateMutability": "view",
      "type": "function"
    },
    {
      "inputs": [
        {
          "internalType": "uint256",
          "name": "reserveBalance",
          "type": "uint256"
        }
      ],
      "name": "saveConfig",
      "outputs": [],
      "stateMutability": "nonpayable",
      "type": "function"
    },
    {
      "inputs": [
        {
          "internalType": "uint8",
          "name": "newFeeMultiplier",
          "type": "uint8"
        }
      ],
      "name": "setFeeMultiplier",
      "outputs": [],
      "stateMutability": "nonpayable",
      "type": "function"
    },
    {
      "inputs": [
        {
          "internalType": "bytes4",
          "name": "interfaceId",
          "type": "bytes4"
        }
      ],
      "name": "supportsInterface",
      "outputs": [
        {
          "internalType": "bool",
          "name": "",
          "type": "bool"
        }
      ],
      "stateMutability": "view",
      "type": "function"
    },
    {
      "inputs": [
        {
          "internalType": "address payable",
          "name": "account",
          "type": "address"
        },
        {
          "internalType": "uint256",
          "name": "withdrawAmount",
          "type": "uint256"
        },
        {
          "internalType": "uint256",
          "name": "amountOutMin",
          "type": "uint256"
        }
      ],
      "name": "swap",
      "outputs": [],
      "stateMutability": "nonpayable",
      "type": "function"
    },
    {
      "inputs": [],
      "name": "vtho",
      "outputs": [
        {
          "internalType": "contract IEnergy",
          "name": "",
          "type": "address"
        }
      ],
      "stateMutability": "view",
      "type": "function"
    },
    {
      "inputs": [],
      "name": "withdrawFees",
      "outputs": [],
      "stateMutability": "nonpayable",
      "type": "function"
    }
  ],
  "bytecode": "0x6080604052601e6003553480156200001657600080fd5b506040516200198c3803806200198c8339810160408190526200003991620002d2565b336200004760008262000097565b50620000757ffc8737ab85eb45125971625a9ebdb75cc78e01d5c1fa80c4c6e5203f47bc4fab600062000146565b5062000085600182600262000241565b506200009062000191565b5062000388565b6000828152602081815260408083206001600160a01b038516845290915281205460ff166200013c576000838152602081815260408083206001600160a01b03861684529091529020805460ff19166001179055620000f33390565b6001600160a01b0316826001600160a01b0316847f2f8788117e7eff1d82e926ec794901d17c78024a50270940304540a733656f0d60405160405180910390a450600162000140565b5060005b92915050565b600082815260208190526040808220600101805490849055905190918391839186917fbd79b86ffe0ab8e8776151514217cd7cacd52c909f66475c3af44e129f0b00ff9190a4505050565b60405163023aa9ab60e61b81526d626173652d6761732d7072696365600482015265506172616d7390638eaa6ac090602401602060405180830381865afa158015620001e1573d6000803e3d6000fd5b505050506040513d601f19601f820116820180604052508101906200020791906200036e565b60048190556040519081527f9e80beb690c9b039ef1aded51d16690f35068933fb71a9b56cc944e02ced07b09060200160405180910390a1565b82600281019282156200028c579160200282015b828111156200028c57825182546001600160a01b0319166001600160a01b0390911617825560209092019160019091019062000255565b506200029a9291506200029e565b5090565b5b808211156200029a57600081556001016200029f565b80516001600160a01b0381168114620002cd57600080fd5b919050565b600060408284031215620002e557600080fd5b82601f830112620002f557600080fd5b604080519081016001600160401b03811182821017156200032657634e487b7160e01b600052604160045260246000fd5b80604052508060408401858111156200033e57600080fd5b845b8181101562000363576200035481620002b5565b83526020928301920162000340565b509195945050505050565b6000602082840312156200038157600080fd5b5051919050565b6115f480620003986000396000f3fe608060405234801561001057600080fd5b50600436106101c45760003560e01c80637065cb48116100f9578063b699414411610097578063d547741f11610071578063d547741f14610395578063d66bd524146103a8578063e5a70ef7146103c8578063e63a391f146103d157600080fd5b8063b699414414610373578063cff0ab961461037b578063d4b0dbdd1461038857600080fd5b80638aee4cfe116100d35780638aee4cfe1461033257806391d14854146103455780639f1d0f5914610358578063a217fddf1461036b57600080fd5b80637065cb481461030c578063750f198a1461031f57806387b6f0d21461032957600080fd5b806336568abe11610166578063476343ee11610140578063476343ee146102b35780634b0bbaa4146102bb5780634e9c1118146102ce5780636ba42aaa146102f957600080fd5b806336568abe1461027a5780633dc577a91461028d5780634032b72b146102a057600080fd5b8063248a9ca3116101a2578063248a9ca31461020e5780632f2ff15d1461023f5780632f54bf6e14610252578063364bc15a1461026557600080fd5b806301ffc9a7146101c957806305707953146101f157806314ae9f2e146101fb575b600080fd5b6101dc6101d7366004611229565b6103da565b60405190151581526020015b60405180910390f35b6101f9610411565b005b6101f961020936600461126f565b6104be565b61023161021c36600461128c565b60009081526020819052604090206001015490565b6040519081526020016101e8565b6101f961024d3660046112a5565b6104d9565b6101dc61026036600461126f565b610504565b61023160008051602061159f83398151915281565b6101f96102883660046112a5565b610510565b6101f961029b36600461126f565b610548565b6101f96102ae36600461126f565b610553565b6101f961056b565b6101f96102c936600461128c565b610723565b6102e16102dc36600461128c565b6107b7565b6040516001600160a01b0390911681526020016101e8565b6101dc61030736600461126f565b6107d7565b6101f961031a36600461126f565b6107f1565b61023162045c7b81565b61023160045481565b6101f96103403660046112d5565b6107fc565b6101dc6103533660046112a5565b6108e3565b6101f96103663660046112f8565b61090c565b610231600081565b610231601e81565b6102e165506172616d7381565b6102e165456e6572677981565b6101f96103a33660046112a5565b610cfc565b6102316103b636600461126f565b60056020526000908152604090205481565b61023160035481565b61023161271081565b60006001600160e01b03198216637965db0b60e01b148061040b57506301ffc9a760e01b6001600160e01b03198316145b92915050565b60405163023aa9ab60e61b81526d626173652d6761732d7072696365600482015265506172616d7390638eaa6ac090602401602060405180830381865afa158015610460573d6000803e3d6000fd5b505050506040513d601f19601f82011682018060405250810190610484919061132d565b60048190556040519081527f9e80beb690c9b039ef1aded51d16690f35068933fb71a9b56cc944e02ced07b09060200160405180910390a1565b6104d660008051602061159f83398151915282610cfc565b50565b6000828152602081905260409020600101546104f481610d21565b6104fe8383610d2b565b50505050565b600061040b81836108e3565b6001600160a01b03811633146105395760405163334bd91960e11b815260040160405180910390fd5b6105438282610dbd565b505050565b6104d6600082610510565b6104d660008051602061159f833981519152826104d9565b61057433610504565b6105c55760405162461bcd60e51b815260206004820152601b60248201527f526f6c65733a206163636f756e74206973206e6f74206f776e6572000000000060448201526064015b60405180910390fd5b6040516370a0823160e01b815230600482015260009065456e65726779906370a0823190602401602060405180830381865afa158015610609573d6000803e3d6000fd5b505050506040513d601f19601f8201168201806040525081019061062d919061132d565b60405163a9059cbb60e01b81523360048201526024810182905290915065456e657267799063a9059cbb906044016020604051808303816000875af115801561067a573d6000803e3d6000fd5b505050506040513d601f19601f8201168201806040525081019061069e9190611346565b6106ea5760405162461bcd60e51b815260206004820152601c60248201527f5472616465723a2077697468647261772066656573206661696c65640000000060448201526064016105bc565b60405181815233907f9bba815921f12cb7b1408e14b5ade745234397d39623ae5e7c82d693cb45815f906020015b60405180910390a250565b600081116107735760405162461bcd60e51b815260206004820152601760248201527f5472616465723a20696e76616c6964207265736572766500000000000000000060448201526064016105bc565b3360008181526005602052604090819020839055517f7cf7f245e0ac9ee076d209114cedb03ee23c22f397ad7c400bfc99bbfa885933906107189084815260200190565b600181600281106107c757600080fd5b01546001600160a01b0316905081565b600061040b60008051602061159f833981519152836108e3565b6104d66000826104d9565b61080533610504565b6108515760405162461bcd60e51b815260206004820152601b60248201527f526f6c65733a206163636f756e74206973206e6f74206f776e6572000000000060448201526064016105bc565b601e8160ff1611156108a55760405162461bcd60e51b815260206004820152601e60248201527f5472616465723a20696e76616c696420666565206d756c7469706c696572000060448201526064016105bc565b60ff811660038190556040519081527e172ddfc5ae88d08b3de01a5a187667c37a5a53989e8c175055cb6c993792a79060200160405180910390a150565b6000918252602082815260408084206001600160a01b0393909316845291905290205460ff1690565b610915336107d7565b6109615760405162461bcd60e51b815260206004820152601c60248201527f526f6c65733a206163636f756e74206973206e6f74206b65657065720000000060448201526064016105bc565b61096b8383610e28565b6040516323b872dd60e01b81526001600160a01b03841660048201523060248201526044810183905265456e65726779906323b872dd906064016020604051808303816000875af11580156109c4573d6000803e3d6000fd5b505050506040513d601f19601f820116820180604052508101906109e89190611346565b610a345760405162461bcd60e51b815260206004820152601c60248201527f5472616465723a207472616e736665722066726f6d206661696c65640000000060448201526064016105bc565b6000610a433a62045c7b61137e565b905060006127106003548386610a599190611395565b610a63919061137e565b610a6d91906113a8565b9050600081610a7c8487611395565b610a869190611395565b90506000806000610a9684610f54565b92509250925086811015610af85760405162461bcd60e51b815260206004820152602360248201527f5472616465723a20616d6f756e74206f757420657870656374656420746f6f206044820152626c6f7760e81b60648201526084016105bc565b60405163095ea7b360e01b81526001600160a01b03841660048201526024810185905265456e657267799063095ea7b3906044016020604051808303816000875af1158015610b4b573d6000803e3d6000fd5b505050506040513d601f19601f82011682018060405250810190610b6f9190611346565b610bb45760405162461bcd60e51b8152602060048201526016602482015275151c9859195c8e88185c1c1c9bdd994819985a5b195960521b60448201526064016105bc565b60006001600160a01b0384166318cbafe5866103e8610bd5866103de61137e565b610bdf91906113a8565b868e426040518663ffffffff1660e01b8152600401610c0295949392919061140e565b6000604051808303816000875af1158015610c21573d6000803e3d6000fd5b505050506040513d6000823e601f3d908101601f19168201604052610c499190810190611460565b9050836001600160a01b03168a6001600160a01b03167f3fe84e6df58344329a18c304c0110e2a518d8c1dfce228cd1f78d11c59bb648c8b3a6003548b8b8f8a8a60018c51610c989190611395565b81518110610ca857610ca861151e565b60209081029190910181015160408051998a52918901979097528701949094526060860192909252608085015260a084015260c083015260e08201526101000160405180910390a350505050505050505050565b600082815260208190526040902060010154610d1781610d21565b6104fe8383610dbd565b6104d681336111ec565b6000610d3783836108e3565b610db5576000838152602081815260408083206001600160a01b03861684529091529020805460ff19166001179055610d6d3390565b6001600160a01b0316826001600160a01b0316847f2f8788117e7eff1d82e926ec794901d17c78024a50270940304540a733656f0d60405160405180910390a450600161040b565b50600061040b565b6000610dc983836108e3565b15610db5576000838152602081815260408083206001600160a01b0386168085529252808320805460ff1916905551339286917ff6391f5c32d9c69d2a47ea670b442974b53935d1edc7fd64eb21e047a839171b9190a450600161040b565b6001600160a01b03821660009081526005602052604090205480610e8e5760405162461bcd60e51b815260206004820152601f60248201527f5472616465723a2072657365727665206e6f7420696e697469616c697a65640060448201526064016105bc565b610e988183611534565b6040516370a0823160e01b81526001600160a01b038516600482015265456e65726779906370a0823190602401602060405180830381865afa158015610ee2573d6000803e3d6000fd5b505050506040513d601f19601f82011682018060405250810190610f06919061132d565b10156105435760405162461bcd60e51b815260206004820152601c60248201527f5472616465723a20696e73756666696369656e742062616c616e63650000000060448201526064016105bc565b60408051600280825260608281019093526000929183918291829181602001602082028036833701905050905065456e6572677981600081518110610f9b57610f9b61151e565b60200260200101906001600160a01b031690816001600160a01b0316815250506000805b600281101561115057600060018260028110610fdd57610fdd61151e565b0160009054906101000a90046001600160a01b03169050806001600160a01b031663ad5c46486040518163ffffffff1660e01b8152600401602060405180830381865afa158015611032573d6000803e3d6000fd5b505050506040513d601f19601f820116820180604052508101906110569190611547565b846001815181106110695761106961151e565b6001600160a01b03928316602091820292909201015260405163d06ca61f60e01b815260009183169063d06ca61f906110a8908d908990600401611564565b600060405180830381865afa1580156110c5573d6000803e3d6000fd5b505050506040513d6000823e601f3d908101601f191682016040526110ed9190810190611460565b90506000816001815181106111045761110461151e565b602002602001015190508481111561113a57600184600281106111295761112961151e565b01546001600160a01b031696509350835b505050808061114890611585565b915050610fbf565b50826001600160a01b031663ad5c46486040518163ffffffff1660e01b8152600401602060405180830381865afa15801561118f573d6000803e3d6000fd5b505050506040513d601f19601f820116820180604052508101906111b39190611547565b826001815181106111c6576111c661151e565b6001600160a01b0390921660209283029190910190910152919450925090509193909250565b6111f682826108e3565b6112255760405163e2517d3f60e01b81526001600160a01b0382166004820152602481018390526044016105bc565b5050565b60006020828403121561123b57600080fd5b81356001600160e01b03198116811461125357600080fd5b9392505050565b6001600160a01b03811681146104d657600080fd5b60006020828403121561128157600080fd5b81356112538161125a565b60006020828403121561129e57600080fd5b5035919050565b600080604083850312156112b857600080fd5b8235915060208301356112ca8161125a565b809150509250929050565b6000602082840312156112e757600080fd5b813560ff8116811461125357600080fd5b60008060006060848603121561130d57600080fd5b83356113188161125a565b95602085013595506040909401359392505050565b60006020828403121561133f57600080fd5b5051919050565b60006020828403121561135857600080fd5b8151801515811461125357600080fd5b634e487b7160e01b600052601160045260246000fd5b808202811582820484141761040b5761040b611368565b8181038181111561040b5761040b611368565b6000826113c557634e487b7160e01b600052601260045260246000fd5b500490565b600081518084526020808501945080840160005b838110156114035781516001600160a01b0316875295820195908201906001016113de565b509495945050505050565b85815284602082015260a06040820152600061142d60a08301866113ca565b6001600160a01b0394909416606083015250608001529392505050565b634e487b7160e01b600052604160045260246000fd5b6000602080838503121561147357600080fd5b825167ffffffffffffffff8082111561148b57600080fd5b818501915085601f83011261149f57600080fd5b8151818111156114b1576114b161144a565b8060051b604051601f19603f830116810181811085821117156114d6576114d661144a565b6040529182528482019250838101850191888311156114f457600080fd5b938501935b82851015611512578451845293850193928501926114f9565b98975050505050505050565b634e487b7160e01b600052603260045260246000fd5b8082018082111561040b5761040b611368565b60006020828403121561155957600080fd5b81516112538161125a565b82815260406020820152600061157d60408301846113ca565b949350505050565b60006001820161159757611597611368565b506001019056fefc8737ab85eb45125971625a9ebdb75cc78e01d5c1fa80c4c6e5203f47bc4faba2646970667358221220c805f3879f10d4b333f0576009d25fbb9634b3728b769047a4683dadc53dd97664736f6c63430008140033",
  "linkReferences": {},
  "deployedLinkReferences": {}
}