{
  "_format": "hh-sol-artifact-1",
  "contractName": "Trader",
  "sourceName": "contracts/Trader.sol",
  "abi": [
    {
      "inputs": [
        {
          "internalType": "address",
          "name": "routerAddress",
          "type": "address"
        }
      ],
      "stateMutability": "nonpayable",
      "type": "constructor"
    },
    {
      "anonymous": false,
      "inputs": [
        {
          "indexed": true,
          "internalType": "address",
          "name": "account",
          "type": "address"
        },
        {
          "indexed": false,
          "internalType": "uint256",
          "name": "triggerBalance",
          "type": "uint256"
        },
        {
          "indexed": false,
          "internalType": "uint256",
          "name": "reserveBalance",
          "type": "uint256"
        }
      ],
      "name": "Config",
      "type": "event"
    },
    {
      "anonymous": false,
      "inputs": [
        {
          "indexed": false,
          "internalType": "uint256",
          "name": "gasprice",
          "type": "uint256"
        }
      ],
      "name": "Gas",
      "type": "event"
    },
    {
      "anonymous": false,
      "inputs": [
        {
          "indexed": true,
          "internalType": "address",
          "name": "account",
          "type": "address"
        },
        {
          "indexed": false,
          "internalType": "uint256",
          "name": "withdrawAmount",
          "type": "uint256"
        },
        {
          "indexed": false,
          "internalType": "uint256",
          "name": "fees",
          "type": "uint256"
        },
        {
          "indexed": false,
          "internalType": "uint256",
          "name": "maxRate",
          "type": "uint256"
        },
        {
          "indexed": false,
          "internalType": "uint256",
          "name": "amountOutMin",
          "type": "uint256"
        },
        {
          "indexed": false,
          "internalType": "uint256",
          "name": "amountOut",
          "type": "uint256"
        }
      ],
      "name": "Swap",
      "type": "event"
    },
    {
      "anonymous": false,
      "inputs": [
        {
          "indexed": true,
          "internalType": "address",
          "name": "to",
          "type": "address"
        },
        {
          "indexed": false,
          "internalType": "uint256",
          "name": "amount",
          "type": "uint256"
        }
      ],
      "name": "Withdraw",
      "type": "event"
    },
    {
      "inputs": [],
      "name": "MAX_VTHO_WITHDRAWAL_AMOUNT",
      "outputs": [
        {
          "internalType": "uint256",
          "name": "",
          "type": "uint256"
        }
      ],
      "stateMutability": "view",
      "type": "function"
    },
    {
      "inputs": [
        {
          "internalType": "address",
          "name": "",
          "type": "address"
        }
      ],
      "name": "addressToConfig",
      "outputs": [
        {
          "internalType": "uint256",
          "name": "triggerBalance",
          "type": "uint256"
        },
        {
          "internalType": "uint256",
          "name": "reserveBalance",
          "type": "uint256"
        }
      ],
      "stateMutability": "view",
      "type": "function"
    },
    {
      "inputs": [],
      "name": "owner",
      "outputs": [
        {
          "internalType": "address payable",
          "name": "",
          "type": "address"
        }
      ],
      "stateMutability": "view",
      "type": "function"
    },
    {
      "inputs": [],
      "name": "router",
      "outputs": [
        {
          "internalType": "contract IUniswapV2Router02",
          "name": "",
          "type": "address"
        }
      ],
      "stateMutability": "view",
      "type": "function"
    },
    {
      "inputs": [
        {
          "internalType": "uint256",
          "name": "triggerBalance",
          "type": "uint256"
        },
        {
          "internalType": "uint256",
          "name": "reserveBalance",
          "type": "uint256"
        }
      ],
      "name": "saveConfig",
      "outputs": [],
      "stateMutability": "nonpayable",
      "type": "function"
    },
    {
      "inputs": [
        {
          "internalType": "address payable",
          "name": "account",
          "type": "address"
        },
        {
          "internalType": "uint256",
          "name": "maxRate",
          "type": "uint256"
        }
      ],
      "name": "swap",
      "outputs": [],
      "stateMutability": "nonpayable",
      "type": "function"
    },
    {
      "inputs": [],
      "name": "vtho",
      "outputs": [
        {
          "internalType": "contract IEnergy",
          "name": "",
          "type": "address"
        }
      ],
      "stateMutability": "view",
      "type": "function"
    }
  ],
  "bytecode": "0x60806040523480156200001157600080fd5b50604051620019ad380380620019ad833981810160405281019062000037919062000149565b600073ffffffffffffffffffffffffffffffffffffffff168173ffffffffffffffffffffffffffffffffffffffff161415620000aa576040517f08c379a0000000000000000000000000000000000000000000000000000000008152600401620000a1906200019c565b60405180910390fd5b33600160006101000a81548173ffffffffffffffffffffffffffffffffffffffff021916908373ffffffffffffffffffffffffffffffffffffffff160217905550806000806101000a81548173ffffffffffffffffffffffffffffffffffffffff021916908373ffffffffffffffffffffffffffffffffffffffff1602179055505062000246565b60008151905062000143816200022c565b92915050565b6000602082840312156200015c57600080fd5b60006200016c8482850162000132565b91505092915050565b600062000184601683620001be565b9150620001918262000203565b602082019050919050565b60006020820190508181036000830152620001b78162000175565b9050919050565b600082825260208201905092915050565b6000620001dc82620001e3565b9050919050565b600073ffffffffffffffffffffffffffffffffffffffff82169050919050565b7f5472616465723a20726f75746572206e6f742073657400000000000000000000600082015250565b6200023781620001cf565b81146200024357600080fd5b50565b61175780620002566000396000f3fe608060405234801561001057600080fd5b506004361061007d5760003560e01c8063d004f0f71161005b578063d004f0f7146100ed578063d4b0dbdd14610109578063e3e96a1d14610127578063f887ea40146101455761007d565b806351fddfa9146100825780638da5cb5b146100b35780639c70803b146100d1575b600080fd5b61009c60048036038101906100979190610c9f565b610163565b6040516100aa9291906111da565b60405180910390f35b6100bb610187565b6040516100c8919061100e565b60405180910390f35b6100eb60048036038101906100e69190610dc0565b6101ad565b005b61010760048036038101906101029190610cf1565b610334565b005b610111610b37565b60405161011e9190611089565b60405180910390f35b61012f610b41565b60405161013c91906111bf565b60405180910390f35b61014d610b4e565b60405161015a91906110a4565b60405180910390f35b60026020528060005260406000206000915090508060000154908060010154905082565b600160009054906101000a900473ffffffffffffffffffffffffffffffffffffffff1681565b600082116101f0576040517f08c379a00000000000000000000000000000000000000000000000000000000081526004016101e79061111f565b60405180910390fd5b60008111610233576040517f08c379a000000000000000000000000000000000000000000000000000000000815260040161022a9061119f565b60405180910390fd5b808211610275576040517f08c379a000000000000000000000000000000000000000000000000000000000815260040161026c906110bf565b60405180910390fd5b604051806040016040528083815260200182815250600260003373ffffffffffffffffffffffffffffffffffffffff1673ffffffffffffffffffffffffffffffffffffffff16815260200190815260200160002060008201518160000155602082015181600101559050503373ffffffffffffffffffffffffffffffffffffffff167fb9bfe6dda7ddbc49d12288ef1e5d501c902797a01fc2bba856601b70e874cbb883836040516103289291906111da565b60405180910390a25050565b6000600260008473ffffffffffffffffffffffffffffffffffffffff1673ffffffffffffffffffffffffffffffffffffffff16815260200190815260200160002060405180604001604052908160008201548152602001600182015481525050905060008160000151116103dd576040517f08c379a00000000000000000000000000000000000000000000000000000000081526004016103d4906110ff565b60405180910390fd5b6000816020015111610424576040517f08c379a000000000000000000000000000000000000000000000000000000000815260040161041b9061113f565b60405180910390fd5b806000015165456e6572677973ffffffffffffffffffffffffffffffffffffffff166370a08231856040518263ffffffff1660e01b81526004016104689190610ff3565b60206040518083038186803b15801561048057600080fd5b505afa158015610494573d6000803e3d6000fd5b505050506040513d601f19601f820116820180604052508101906104b89190610d97565b10156104f9576040517f08c379a00000000000000000000000000000000000000000000000000000000081526004016104f09061115f565b60405180910390fd5b60006105ab683635c9adc5dea00000836020015165456e6572677973ffffffffffffffffffffffffffffffffffffffff166370a08231886040518263ffffffff1660e01b815260040161054c9190610ff3565b60206040518083038186803b15801561056457600080fd5b505afa158015610578573d6000803e3d6000fd5b505050506040513d601f19601f8201168201806040525081019061059c9190610d97565b6105a6919061137c565b610b72565b905065456e6572677973ffffffffffffffffffffffffffffffffffffffff166323b872dd8530846040518463ffffffff1660e01b81526004016105f093929190611029565b602060405180830381600087803b15801561060a57600080fd5b505af115801561061e573d6000803e3d6000fd5b505050506040513d601f19601f820116820180604052508101906106429190610d6e565b610681576040517f08c379a00000000000000000000000000000000000000000000000000000000081526004016106789061117f565b60405180910390fd5b6000808183610690919061137c565b9050600085826106a0919061134b565b905065456e6572677973ffffffffffffffffffffffffffffffffffffffff1663095ea7b360008054906101000a900473ffffffffffffffffffffffffffffffffffffffff16846040518363ffffffff1660e01b8152600401610703929190611060565b602060405180830381600087803b15801561071d57600080fd5b505af1158015610731573d6000803e3d6000fd5b505050506040513d601f19601f820116820180604052508101906107559190610d6e565b610794576040517f08c379a000000000000000000000000000000000000000000000000000000000815260040161078b906110df565b60405180910390fd5b6000600267ffffffffffffffff8111156107d7577f4e487b7100000000000000000000000000000000000000000000000000000000600052604160045260246000fd5b6040519080825280602002602001820160405280156108055781602001602082028036833780820191505090505b50905065456e6572677981600081518110610849577f4e487b7100000000000000000000000000000000000000000000000000000000600052603260045260246000fd5b602002602001019073ffffffffffffffffffffffffffffffffffffffff16908173ffffffffffffffffffffffffffffffffffffffff168152505060008054906101000a900473ffffffffffffffffffffffffffffffffffffffff1673ffffffffffffffffffffffffffffffffffffffff1663ad5c46486040518163ffffffff1660e01b815260040160206040518083038186803b1580156108e957600080fd5b505afa1580156108fd573d6000803e3d6000fd5b505050506040513d601f19601f820116820180604052508101906109219190610cc8565b8160018151811061095b577f4e487b7100000000000000000000000000000000000000000000000000000000600052603260045260246000fd5b602002602001019073ffffffffffffffffffffffffffffffffffffffff16908173ffffffffffffffffffffffffffffffffffffffff168152505060008060009054906101000a900473ffffffffffffffffffffffffffffffffffffffff1673ffffffffffffffffffffffffffffffffffffffff166318cbafe58585858d426040518663ffffffff1660e01b81526004016109f9959493929190611203565b600060405180830381600087803b158015610a1357600080fd5b505af1158015610a27573d6000803e3d6000fd5b505050506040513d6000823e3d601f19601f82011682018060405250810190610a509190610d2d565b90508873ffffffffffffffffffffffffffffffffffffffff167f6d2535bccee43630e01014525de773080b47e1a82c56ef6a30802933a48c9e3487878b878660018851610a9d919061137c565b81518110610ad4577f4e487b7100000000000000000000000000000000000000000000000000000000600052603260045260246000fd5b6020026020010151604051610aed95949392919061125d565b60405180910390a27ff0fadcd9d25528e430e4862a6cc65c4af97cc5bc42e413e0fcd026d40345a6df3a604051610b2491906111bf565b60405180910390a1505050505050505050565b65456e6572677981565b683635c9adc5dea0000081565b60008054906101000a900473ffffffffffffffffffffffffffffffffffffffff1681565b6000818310610b815781610b83565b825b905092915050565b6000610b9e610b99846112d5565b6112b0565b90508083825260208201905082856020860282011115610bbd57600080fd5b60005b85811015610bed5781610bd38882610c8a565b845260208401935060208301925050600181019050610bc0565b5050509392505050565b600081359050610c06816116c5565b92915050565b600081519050610c1b816116c5565b92915050565b600081359050610c30816116dc565b92915050565b600082601f830112610c4757600080fd5b8151610c57848260208601610b8b565b91505092915050565b600081519050610c6f816116f3565b92915050565b600081359050610c848161170a565b92915050565b600081519050610c998161170a565b92915050565b600060208284031215610cb157600080fd5b6000610cbf84828501610bf7565b91505092915050565b600060208284031215610cda57600080fd5b6000610ce884828501610c0c565b91505092915050565b60008060408385031215610d0457600080fd5b6000610d1285828601610c21565b9250506020610d2385828601610c75565b9150509250929050565b600060208284031215610d3f57600080fd5b600082015167ffffffffffffffff811115610d5957600080fd5b610d6584828501610c36565b91505092915050565b600060208284031215610d8057600080fd5b6000610d8e84828501610c60565b91505092915050565b600060208284031215610da957600080fd5b6000610db784828501610c8a565b91505092915050565b60008060408385031215610dd357600080fd5b6000610de185828601610c75565b9250506020610df285828601610c75565b9150509250929050565b6000610e088383610e32565b60208301905092915050565b610e1d8161140a565b82525050565b610e2c816113c2565b82525050565b610e3b816113b0565b82525050565b610e4a816113b0565b82525050565b6000610e5b82611311565b610e658185611329565b9350610e7083611301565b8060005b83811015610ea1578151610e888882610dfc565b9750610e938361131c565b925050600181019050610e74565b5085935050505092915050565b610eb78161141c565b82525050565b610ec681611440565b82525050565b6000610ed960168361133a565b9150610ee482611557565b602082019050919050565b6000610efc60178361133a565b9150610f0782611580565b602082019050919050565b6000610f1f601e8361133a565b9150610f2a826115a9565b602082019050919050565b6000610f42601e8361133a565b9150610f4d826115d2565b602082019050919050565b6000610f65601e8361133a565b9150610f70826115fb565b602082019050919050565b6000610f8860228361133a565b9150610f9382611624565b604082019050919050565b6000610fab601b8361133a565b9150610fb682611673565b602082019050919050565b6000610fce601e8361133a565b9150610fd98261169c565b602082019050919050565b610fed81611400565b82525050565b60006020820190506110086000830184610e14565b92915050565b60006020820190506110236000830184610e23565b92915050565b600060608201905061103e6000830186610e14565b61104b6020830185610e41565b6110586040830184610fe4565b949350505050565b60006040820190506110756000830185610e41565b6110826020830184610fe4565b9392505050565b600060208201905061109e6000830184610eae565b92915050565b60006020820190506110b96000830184610ebd565b92915050565b600060208201905081810360008301526110d881610ecc565b9050919050565b600060208201905081810360008301526110f881610eef565b9050919050565b6000602082019050818103600083015261111881610f12565b9050919050565b6000602082019050818103600083015261113881610f35565b9050919050565b6000602082019050818103600083015261115881610f58565b9050919050565b6000602082019050818103600083015261117881610f7b565b9050919050565b6000602082019050818103600083015261119881610f9e565b9050919050565b600060208201905081810360008301526111b881610fc1565b9050919050565b60006020820190506111d46000830184610fe4565b92915050565b60006040820190506111ef6000830185610fe4565b6111fc6020830184610fe4565b9392505050565b600060a0820190506112186000830188610fe4565b6112256020830187610fe4565b81810360408301526112378186610e50565b90506112466060830185610e14565b6112536080830184610fe4565b9695505050505050565b600060a0820190506112726000830188610fe4565b61127f6020830187610fe4565b61128c6040830186610fe4565b6112996060830185610fe4565b6112a66080830184610fe4565b9695505050505050565b60006112ba6112cb565b90506112c68282611488565b919050565b6000604051905090565b600067ffffffffffffffff8211156112f0576112ef611517565b5b602082029050602081019050919050565b6000819050602082019050919050565b600081519050919050565b6000602082019050919050565b600082825260208201905092915050565b600082825260208201905092915050565b600061135682611400565b915061136183611400565b925082611371576113706114e8565b5b828204905092915050565b600061138782611400565b915061139283611400565b9250828210156113a5576113a46114b9565b5b828203905092915050565b60006113bb826113e0565b9050919050565b60006113cd826113e0565b9050919050565b60008115159050919050565b600073ffffffffffffffffffffffffffffffffffffffff82169050919050565b6000819050919050565b600061141582611464565b9050919050565b60006114278261142e565b9050919050565b6000611439826113e0565b9050919050565b600061144b82611452565b9050919050565b600061145d826113e0565b9050919050565b600061146f82611476565b9050919050565b6000611481826113e0565b9050919050565b61149182611546565b810181811067ffffffffffffffff821117156114b0576114af611517565b5b80604052505050565b7f4e487b7100000000000000000000000000000000000000000000000000000000600052601160045260246000fd5b7f4e487b7100000000000000000000000000000000000000000000000000000000600052601260045260246000fd5b7f4e487b7100000000000000000000000000000000000000000000000000000000600052604160045260246000fd5b6000601f19601f8301169050919050565b7f5472616465723a20696e76616c696420636f6e66696700000000000000000000600082015250565b7f5472616465723a20617070726f7665206661696c65642e000000000000000000600082015250565b7f5472616465723a207472696767657242616c616e6365206e6f74207365740000600082015250565b7f5472616465723a20696e76616c6964207472696767657242616c616e63650000600082015250565b7f5472616465723a207265736572766542616c616e6365206e6f74207365740000600082015250565b7f5472616465723a207472696767657242616c616e6365206e6f7420726561636860008201527f6564000000000000000000000000000000000000000000000000000000000000602082015250565b7f5472616465723a207472616e7366657246726f6d206661696c65640000000000600082015250565b7f5472616465723a20696e76616c6964207265736572766542616c616e63650000600082015250565b6116ce816113b0565b81146116d957600080fd5b50565b6116e5816113c2565b81146116f057600080fd5b50565b6116fc816113d4565b811461170757600080fd5b50565b61171381611400565b811461171e57600080fd5b5056fea2646970667358221220a6c43f693c09bd62257942da2746adb195f1a1f330d89cff1fdb99dc644ab6fa64736f6c63430008040033",
  "linkReferences": {},
  "deployedLinkReferences": {}
}