{
  "_format": "hh-sol-artifact-1",
  "contractName": "Params",
  "sourceName": "contracts/Params.sol",
  "abi": [
    {
      "constant": false,
      "inputs": [
        {
          "name": "_key",
          "type": "bytes32"
        },
        {
          "name": "_value",
          "type": "uint256"
        }
      ],
      "name": "set",
      "outputs": [],
      "payable": false,
      "stateMutability": "nonpayable",
      "type": "function"
    },
    {
      "constant": true,
      "inputs": [
        {
          "name": "_key",
          "type": "bytes32"
        }
      ],
      "name": "get",
      "outputs": [
        {
          "name": "",
          "type": "uint256"
        }
      ],
      "payable": false,
      "stateMutability": "view",
      "type": "function"
    },
    {
      "constant": true,
      "inputs": [],
      "name": "executor",
      "outputs": [
        {
          "name": "",
          "type": "address"
        }
      ],
      "payable": false,
      "stateMutability": "view",
      "type": "function"
    },
    {
      "anonymous": false,
      "inputs": [
        {
          "indexed": true,
          "name": "key",
          "type": "bytes32"
        },
        {
          "indexed": false,
          "name": "value",
          "type": "uint256"
        }
      ],
      "name": "Set",
      "type": "event"
    }
  ],
  "bytecode": "0x608060405234801561001057600080fd5b50610441806100206000396000f300608060405260043610610057576000357c0100000000000000000000000000000000000000000000000000000000900463ffffffff168063273f49401461005c5780638eaa6ac014610097578063c34c08e5146100dc575b600080fd5b34801561006857600080fd5b50610095600480360381019080803560001916906020019092919080359060200190929190505050610133565b005b3480156100a357600080fd5b506100c660048036038101908080356000191690602001909291905050506102b4565b6040518082815260200191505060405180910390f35b3480156100e857600080fd5b506100f161036f565b604051808273ffffffffffffffffffffffffffffffffffffffff1673ffffffffffffffffffffffffffffffffffffffff16815260200191505060405180910390f35b61013b61036f565b73ffffffffffffffffffffffffffffffffffffffff163373ffffffffffffffffffffffffffffffffffffffff161415156101dd576040517f08c379a000000000000000000000000000000000000000000000000000000000815260040180806020018281038252601a8152602001807f6275696c74696e3a206578656375746f7220726571756972656400000000000081525060200191505060405180910390fd5b3073ffffffffffffffffffffffffffffffffffffffff16632496a93a83836040518363ffffffff167c010000000000000000000000000000000000000000000000000000000002815260040180836000191660001916815260200182815260200192505050600060405180830381600087803b15801561025c57600080fd5b505af1158015610270573d6000803e3d6000fd5b5050505081600019167f28e3246f80515f5c1ed987b133ef2f193439b25acba6a5e69f219e896fc9d179826040518082815260200191505060405180910390a25050565b60003073ffffffffffffffffffffffffffffffffffffffff1663bd150eea836040518263ffffffff167c0100000000000000000000000000000000000000000000000000000000028152600401808260001916600019168152602001915050602060405180830381600087803b15801561032d57600080fd5b505af1158015610341573d6000803e3d6000fd5b505050506040513d602081101561035757600080fd5b81019080805190602001909291905050509050919050565b60003073ffffffffffffffffffffffffffffffffffffffff166392a16fda6040518163ffffffff167c0100000000000000000000000000000000000000000000000000000000028152600401602060405180830381600087803b1580156103d557600080fd5b505af11580156103e9573d6000803e3d6000fd5b505050506040513d60208110156103ff57600080fd5b81019080805190602001909291905050509050905600a165627a7a72305820dde57c01086610e7381cadb80782360c7bf60c9cdae09e36ca976f2567f1edd60029",
  "linkReferences": {},
  "deployedLinkReferences": {}
}